:020000040800F2
:10000000000002208948000815480008234800081D
:10001000294800082F480008354800080000000063
:10002000000000000000000000000000B18B00088C
:100030003B48000800000000F18D0008598E0008C0
:10004000D9480008D9480008D9480008D94800080C
:10005000D9480008D9480008392D00087D2D00082E
:10006000D9480008D9480008D9480008D9480008EC
:10007000D9480008D9480008D9480008D9480008DC
:10008000D9480008D9480008D9480008D9480008CC
:10009000D9480008D9480008D9480008C12D0008EF
:1000A000D9480008D9480008D9480008D9480008AC
:1000B000D9480008D9480008D9480008D94800089C
:1000C000D9480008D9480008D9480008D94800088C
:1000D000D9480008D9480008D9480008D94800087C
:1000E000D9480008D9480008D9480008D94800086C
:1000F000D9480008D9480008D9480008D94800085C
:10010000D9480008D9480008D9480008D94800084B
:10011000D9480008D948000849480008D9480008CB
:10012000D9480008D9480008D9480008D94800082B
:10013000D94800080000000000000000D94800086D
:10014000D9480008D9480008D9480008D94800080B
:10015000D9480008D9480008D9480008D9480008FB
:10016000D9480008D9480008D9480008D9480008EB
:10017000D9480008D948000800000000000000002D
:08018000D9480008D948000825
:1001900010B5054C237833B9044B13B10448AFF3C1
:1001A00000800123237010BD4404002000000000E3
:1001B000D0AB000808B5034B1BB103490348AFF3AC
:1001C000008008BD0000000048040020D0AB0008FB
:1001D00081F0004102E000BF83F0004330B54FEAF8
:1001E00041044FEA430594EA050F08BF90EA020F65
:1001F0001FBF54EA000C55EA020C7FEA645C7FEAF8
:10020000655C00F0E2804FEA5454D4EB5555B8BF1A
:100210006D420CDD2C4480EA020281EA030382EA8B
:10022000000083EA010180EA020281EA0303362D1D
:1002300088BF30BD11F0004F4FEA01314FF4801CF0
:100240004CEA113102D0404261EB410113F0004F02
:100250004FEA03334CEA133302D0524263EB4303B9
:1002600094EA050F00F0A780A4F10104D5F1200E57
:100270000DDB02FA0EFC22FA05F2801841F10001B2
:1002800003FA0EF2801843FA05F359410EE0A5F186
:1002900020050EF1200E012A03FA0EFC28BF4CF0B7
:1002A000020C43FA05F3C01851EBE37101F000456D
:1002B00007D54FF0000EDCF1000C7EEB00006EEB7A
:1002C0000101B1F5801F1BD3B1F5001F0CD3490804
:1002D0005FEA30004FEA3C0C04F101044FEA44525B
:1002E00012F5800F80F09A80BCF1004F08BF5FEAE2
:1002F000500C50F1000041EB045141EA050130BDC2
:100300005FEA4C0C404141EB010111F4801FA4F164
:100310000104E9D191F0000F04BF01460020B1FAB9
:1003200081F308BF2033A3F10B03B3F120020CDAF1
:100330000C3208DD02F1140CC2F10C0201FA0CF0CF
:1003400021FA02F10CE002F11402D8BFC2F1200C34
:1003500001FA02F120FA0CFCDCBF41EA0C019040EA
:10036000E41AA2BF01EB0451294330BD6FEA040433
:100370001F3C1CDA0C340EDC04F11404C4F120021E
:1003800020FA04F001FA02F340EA030021FA04F330
:1003900045EA030130BDC4F10C04C4F1200220FA87
:1003A00002F001FA04F340EA0300294630BD21FAC5
:1003B00004F0294630BD94F0000F83F4801306BF8B
:1003C00081F480110134013D4EE77FEA645C18BF7F
:1003D0007FEA655C29D094EA050F08BF90EA020F16
:1003E00005D054EA000C04BF1946104630BD91EA0E
:1003F000030F1EBF0021002030BD5FEA545C05D111
:100400004000494128BF41F0004130BD14F580044F
:100410003CBF01F5801130BD01F0004545F0FE41C3
:1004200041F470014FF0000030BD7FEA645C1ABFF8
:10043000194610467FEA655C1CBF0B46024650EA2F
:10044000013406BF52EA033591EA030F41F400215B
:1004500030BD00BF90F0000F04BF0021704730B5E1
:100460004FF4806404F132044FF000054FF00001B6
:1004700050E700BF90F0000F04BF0021704730B577
:100480004FF4806404F1320410F0004548BF40424C
:100490004FF000013EE700BF42004FEAE2014FEAA1
:1004A00031014FEA02701FBF12F07F4393F07F4F7C
:1004B00081F06051704732F07F4208BF704793F07F
:1004C0007F4F04BF41F40021704730B54FF4607492
:1004D00001F0004521F000411CE700BF50EA010295
:1004E00008BF704730B54FF000050AE050EA01023E
:1004F00008BF704730B511F0004502D5404261EBAE
:1005000041014FF4806404F132045FEA915C3FF4EE
:10051000D8AE4FF003025FEADC0C18BF03325FEA8B
:10052000DC0C18BF033202EBDC02C2F1200300FA3C
:1005300003FC20FA02F001FA03FE40EA0E0021FA61
:1005400002F11444BDE600BF70B54FF0FF0C4CF44F
:10055000E06C1CEA11541DBF1CEA135594EA0C0F01
:1005600095EA0C0F00F0DEF82C4481EA030621EA3C
:100570004C5123EA4C5350EA013518BF52EA033577
:1005800041F4801143F4801338D0A0FB02CE4FF029
:100590000005E1FB02E506F00042E0FB03E54FF059
:1005A0000006E1FB03569CF0000F18BF4EF0010E51
:1005B000A4F1FF04B6F5007F64F5407404D25FEA4D
:1005C0004E0E6D4146EB060642EAC62141EA555100
:1005D0004FEAC52040EA5E504FEACE2EB4F1FD0C42
:1005E00088BFBCF5E06F1ED8BEF1004F08BF5FEAC0
:1005F000500E50F1000041EB045170BD06F0004672
:1006000046EA010140EA020081EA0301B4EB5C041E
:10061000C2BFD4EB0C0541EA045170BD41F4801116
:100620004FF0000E013C00F3AB8014F1360FDEBF3B
:10063000002001F0004170BDC4F10004203C35DA17
:100640000C341BDC04F11404C4F1200500FA05F39A
:1006500020FA04F001FA05F240EA020001F000423B
:1006600021F0004110EBD37021FA04F642EB0601B1
:100670005EEA430E08BF20EAD37070BDC4F10C04DB
:10068000C4F1200500FA04F320FA05F001FA04F29F
:1006900040EA020001F0004110EBD37041F100018B
:1006A0005EEA430E08BF20EAD37070BDC4F1200596
:1006B00000FA05F24EEA020E20FA04F301FA05F2FE
:1006C00043EA020321FA04F001F0004121FA04F2A6
:1006D00020EA020000EBD3705EEA430E08BF20EA76
:1006E000D37070BD94F0000F0FD101F000464000B0
:1006F00041EB010111F4801F08BF013CF7D041EA32
:10070000060195F0000F18BF704703F00046520035
:1007100043EB030313F4801F08BF013DF7D043EA06
:100720000603704794EA0C0F0CEA135518BF95EABC
:100730000C0F0CD050EA410618BF52EA4306D1D143
:1007400081EA030101F000414FF0000070BD50EA62
:10075000410606BF1046194652EA430619D094EAEC
:100760000C0F02D150EA013613D195EA0C0F05D1D6
:1007700052EA03361CBF104619460AD181EA03012A
:1007800001F0004141F0FE4141F470014FF00000E2
:1007900070BD41F0FE4141F4780170BD70B54FF07D
:1007A000FF0C4CF4E06C1CEA11541DBF1CEA1355FD
:1007B00094EA0C0F95EA0C0F00F0A7F8A4EB0504DF
:1007C00081EA030E52EA03354FEA013100F08880D6
:1007D0004FEA03334FF0805545EA131343EA12639F
:1007E0004FEA022245EA111545EA10654FEA002654
:1007F0000EF000419D4208BF964244F1FD0404F50D
:10080000407402D25B084FEA3202B61A65EB030568
:100810005B084FEA32024FF480104FF4002CB6EB25
:10082000020E75EB030E22BFB61A754640EA0C00A5
:100830005B084FEA3202B6EB020E75EB030E22BFE5
:10084000B61A754640EA5C005B084FEA3202B6EB26
:10085000020E75EB030E22BFB61A754640EA9C00E5
:100860005B084FEA3202B6EB020E75EB030E22BFB5
:10087000B61A754640EADC0055EA060E18D04FEA73
:10088000051545EA16754FEA06164FEAC30343EA13
:1008900052734FEAC2025FEA1C1CC0D111F4801FE0
:1008A0000BD141EA00014FF000004FF0004CB6E7D9
:1008B00011F4801F04BF01430020B4F1FD0C88BF78
:1008C000BCF5E06F3FF6AFAEB5EB030C04BFB6EB83
:1008D000020C5FEA500C50F1000041EB045170BD76
:1008E0000EF0004E4EEA113114EB5C04C2BFD4EBA3
:1008F0000C0541EA045170BD41F480114FF0000E27
:10090000013C90E645EA060E8DE60CEA135594EAA2
:100910000C0F08BF95EA0C0F3FF43BAF94EA0C0FA5
:100920000AD150EA01347FF434AF95EA0C0F7FF41A
:1009300025AF104619462CE795EA0C0F06D152EA6E
:1009400003353FF4FDAE1046194622E750EA410652
:1009500018BF52EA43067FF4C5AE50EA41047FF463
:100960000DAF52EA43057FF4EBAE12E74FF0FF3CC8
:1009700006E000BF4FF0010C02E000BF4FF0010C99
:100980004DF804CD4FEA410C7FEA6C5C4FEA430C12
:1009900018BF7FEA6C5C1BD001B050EA410C0CBF61
:1009A00052EA430C91EA030F02BF90EA020F0020C3
:1009B000704710F1000F91EA030F58BF994208BF2A
:1009C00090422CBFD8176FEAE37040F001007047E7
:1009D0004FEA410C7FEA6C5C02D150EA013C07D13E
:1009E0004FEA430C7FEA6C5CD6D152EA033CD3D089
:1009F0005DF8040B704700BF8446104662468C4683
:100A00001946634600E000BF01B5FFF7B7FF0028B5
:100A100048BF10F1000F01BD4DF808EDFFF7F4FFDE
:100A20000CBF012000205DF808FB00BF4DF808ED69
:100A3000FFF7EAFF34BF012000205DF808FB00BF8C
:100A40004DF808EDFFF7E0FF94BF012000205DF8AE
:100A500008FB00BF4DF808EDFFF7CEFF94BF012063
:100A600000205DF808FB00BF4DF808EDFFF7C4FF5C
:100A700034BF012000205DF808FB00BF4FEA410CA5
:100A80007FEA6C5C02D150EA013C0AD14FEA430C88
:100A90007FEA6C5C02D152EA033C02D14FF00000C5
:100AA00070474FF0010070474FEA410212F5001203
:100AB00015D211D56FF47873B3EB625212D94FEAA5
:100AC000C12343F0004343EA505311F0004F23FA8F
:100AD00002F018BF404270474FF00000704750EAE4
:100AE000013005D111F0004008BF6FF000407047A1
:100AF0004FF00000704700BF4FEA4102B2F1E043FF
:100B000024BFB3F5001CDCF1FE5C0DD901F0004CF4
:100B10004FEAC0024CEA5070B2F1004F40EB830044
:100B200008BF20F00100704711F0804F21D113F170
:100B30003872BCBF01F00040704741F480114FEAA9
:100B40005252C2F11802C2F1200C10FA0CF320FA32
:100B500002F018BF40F001004FEAC1234FEAD3234F
:100B600003FA0CFC40EA0C0023FA02F34FEA4303B9
:100B7000CCE77FEA625307D150EA01331EBF4FF042
:100B8000FE4040F44000704701F0004040F0FE405D
:100B900040F40000704700BF53B94AB9002908BFAC
:100BA00000281CBF4FF0FF314FF0FF3000F072B94A
:100BB000ADF1080C6DE904CE00F006F8DDF804E0B4
:100BC000DDE9022304B070472DE9F047089E044692
:100BD0008846002B4BD18A42154667D9B2FA82F279
:100BE0004AB1C2F1200701FA02F320FA07F7954053
:100BF00047EA030894404FEA154E230CB8FBFEF772
:100C00001FFA85FC0EFB178843EA084307FB0CF12B
:100C1000994209D9EB1807F1FF3080F01B81994206
:100C200040F21881023F2B445B1AA4B2B3FBFEF0E2
:100C30000EFB103344EA034400FB0CFCA44509D925
:100C40002C1900F1FF3380F00781A44540F20481A4
:100C500002382C4440EA0740A4EB0C0400271EB1E4
:100C6000D4400023C6E900433946BDE8F0878B42F3
:100C700009D9002E00F0EB800027C6E900013846B4
:100C80003946BDE8F087B3FA83F7002F47D18B428E
:100C900002D3824200F2FA80841A61EB030301203E
:100CA0009846002EE0D0C6E90048DDE702B9FFDE35
:100CB000B2FA82F2002A40F08F80491B4FEA154EAB
:100CC0001FFA85F80127B1FBFEFC230C0EFB1C115B
:100CD00043EA014308FB0CF1994207D9EB180CF1E8
:100CE000FF3002D2994200F2CD808446591AA3B255
:100CF000B1FBFEF00EFB101443EA044408FB00F8BD
:100D0000A04507D92C1900F1FF3302D2A04500F20B
:100D1000B6801846A4EB080440EA0C409FE7C7F1F0
:100D2000200CBB4022FA0CFE4EEA030E01FA07F437
:100D300020FA0CF521FA0CF34FEA1E482543B3FBC9
:100D4000F8F92C0C08FB19331FFA8EFA44EA034316
:100D500009FB0AF49C4202FA07F200FA07F10BD9E8
:100D60001EEB030309F1FF3080F087809C4240F2C4
:100D70008480A9F1020973441B1BADB2B3FBF8F0E8
:100D800008FB103345EA034400FB0AFAA24508D9E0
:100D90001EEB040400F1FF336BD2A24569D902387F
:100DA000744440EA0940A0FB0289A4EB0A044C45C4
:100DB000C2464B4654D351D0002E69D0B1EB0A0540
:100DC00064EB030404FA0CFCFD40FC404CEA05050E
:100DD000C6E90054002747E7C2F1200320FA03F7D1
:100DE000954001FA02F021FA03F34FEA154E384319
:100DF000010CB3FBFEF71FFA85F80EFB173341EA2F
:100E0000034107FB08F38B4204FA02F407D969187F
:100E100007F1FF3C2FD28B422DD9023F2944CB1A38
:100E200081B2B3FBFEF00EFB103341EA034100FB3D
:100E300008F38B4207D9691800F1FF3C17D28B42A7
:100E400015D902382944C91A40EA07473BE7374613
:100E5000304609E70746E7E61846FBE64145ABD2D0
:100E6000B8EB020A69EB0E0201381346A4E76046AC
:100E7000E9E7184695E76746D1E781467CE70238FF
:100E80002C4447E7ACF1020C2B442FE7384608E727
:100E90003746E9E6704700BF80B586B000AFF8601E
:100EA000B9607A607B800023FB74FB68BA681A60C3
:100EB000FB687A685A60FB687A881A81FB683A8C0A
:100EC0005A81FB68BA8C9A8100237B611BE0FA6827
:100ED0007B6904339B0013444FF000021A60FA68E8
:100EE0007B6906339B00134404334FF000021A6001
:100EF000FA687B690A339B0013444FF000021A60C2
:100F00007B6901337B617B69022BE0DDFB685868FC
:100F1000FB681B890122194603F0C0FFFB68586873
:100F2000FB685B890122194603F0B8FFFB6858682B
:100F3000FB689B890122194603F0B0FF07F11202FA
:100F400001230021F86800F00BFA03461A46FB7CE7
:100F50001344FB74BB7CFA2B01D00023DBE0FB7C49
:100F60000133FB74B6221421F86800F048FA0346F6
:100F70001A46FB7C1344FB74142003F0F1FC082296
:100F80000F21F86800F03BFA03461A46FB7C134435
:100F9000FB74052003F0E4FC0A221021F86800F03D
:100FA0002EFA03461A46FB7C1344FB74052003F01B
:100FB000D7FC00221121F86800F021FA03461A46F6
:100FC000FB7C1344FB74052003F0CAFC4022132170
:100FD000F86800F014FA03461A46FB7C1344FB74CD
:100FE000052003F0BDFC07F1120201230021F8687F
:100FF00000F036FA03461A46FB7C1344FB74BB7CB4
:101000000F2B01D0002386E0B6221421F86800F0EF
:1010100076FA03461A46FB7C1344FB74142003F053
:101020009FFC01220F21F86800F069FA03461A4676
:10103000FB7C1344FB74052003F092FC87221021F3
:10104000F86800F05CFA03461A46FB7C1344FB7414
:10105000052003F085FC00221121F86800F04FFA0A
:1010600003461A46FB7C1344FB74052003F078FC0E
:1010700000221221F86800F042FA03461A46FB7C6F
:101080001344FB74052003F06BFC40221321F86825
:1010900000F035FA03461A46FB7C1344FB74052026
:1010A00003F05EFC00224B21F86800F0A8FA03462A
:1010B0001A46FB7C1344FB74052003F051FC832289
:1010C0004B21F86800F09BFA03461A46FB7C134458
:1010D000FB74142003F044FC07F1120201234021A9
:1010E000F86800F03DFA03461A46FB7C1344FB7493
:1010F000BB7C322B01D000230DE000224C21F8688C
:1011000000F07DFA03461A46FB7C1344FB7405206D
:1011100003F026FCFB7C18461837BD4680BD000056
:1011200080B586B000AF786007F10C02072302217A
:10113000786800F015F90346FB757B7B1B021AB239
:101140003B7B1BB203F0F0031BB213431BB21B111A
:10115000BB82B7F9143007EE903AF8EEE77A9FEDCC
:10116000277A67EE877A7B68C3ED047AFB7B1B02E4
:101170001AB2BB7B1BB203F0F0031BB213431BB2CA
:101180001B11BB82B7F9143007EE903AF8EEE77AFC
:101190009FED1B7A67EE877A7B68C3ED057A7B7CCF
:1011A0001B021AB23B7C1BB203F0F0031BB21343C9
:1011B0001BB21B11BB82B7F9143007EE903AF8EE60
:1011C000E77A9FED0F7A67EE877A7B68C3ED067A40
:1011D000BB7C5BB207EE903AF8EEE77AB6EE007AA7
:1011E00067EE877AB3EE077A77EE877A7B68C3ED8E
:1011F0000D7AFB7D18461837BD4680BD9A0E1D3D01
:101200009A0E1DBD80B586B000AF786007F10C0264
:1012100006230221786800F023F90346FB757B7BE7
:101220001B021AB23B7B1BB21343BB82B7F91430CB
:1012300007EE903AF8EEE77A9FED197A67EE877A33
:101240007B68C3ED077AFB7B1B021AB2BB7B1BB228
:101250001343BB82B7F9143007EE903AF8EEE77A01
:101260009FED107A67EE877A7B68C3ED087A7B7C06
:101270001B021AB23B7C1BB21343BB82B7F914307A
:1012800007EE903AF8EEE77A9FED067A67EE877AF6
:101290007B68C3ED097AFB7D18461837BD4680BDD3
:1012A000787D0B3A787D0BBA80B586B000AF786058
:1012B00007F10C0206234221786800F051F9034639
:1012C000FB757B7B5BB25B011AB23B7BDB08DBB25D
:1012D0001BB21343BB82B7F9143007EE903AF8EE15
:1012E000E77A9FED1D7A67EE877A7B68C3ED0A7A0D
:1012F000FB7B5BB25B011AB2BB7BDB08DBB21BB2D0
:101300001343BB82B7F9143007EE903AF8EEE77A50
:101310009FED127A67EE877A7B68C3ED0B7A7B7C50
:101320005BB2DB011AB23B7C5B08DBB21BB213433E
:10133000BB82B7F9143007EE903AF8EEE77A9FEDEA
:10134000077A67EE877A7B68C3ED0C7AFB7D1846D7
:101350001837BD4680BD00BF1D5F4A3B1D5F4ABBBD
:1013600080B586B000AFF8607A601A460B46FB7213
:1013700013463B81FB685868FB681B8900221946AD
:1013800003F08CFDFB7A63F07F03DBB2FB75FB6837
:10139000186807F117014FF0FF33012205F06EFACC
:1013A0000346002B09D0FB685868FB681B890122A3
:1013B000194603F073FD00231DE0FB6818683A89A5
:1013C0004FF0FF33796805F08DFB0346002B09D001
:1013D000FB685868FB681B890122194603F05EFD13
:1013E000002308E0FB685868FB681B890122194646
:1013F00003F054FD012318461837BD4680BD80B563
:1014000084B000AF78600B46FB701346BB707B68FE
:1014100058687B681B890022194603F03FFDFB7862
:101420003B73BB787B737B68186807F10C014FF046
:10143000FF33022205F022FA0346002B0CBF0123E2
:101440000023DBB2FB737B6858687B681B89012231
:10145000194603F023FDFB7B18461037BD4680BDBF
:1014600080B586B000AFF8607A601A460B46FB7212
:1014700013463B81FB685868FB685B89002219466C
:1014800003F00CFDFB7A63F07F03DBB2FB75FB68B6
:10149000186807F117014FF0FF33012205F0EEF94C
:1014A0000346002B09D0FB685868FB685B89012262
:1014B000194603F0F3FC00231DE0FB6818683A8925
:1014C0004FF0FF33796805F00DFB0346002B09D080
:1014D000FB685868FB685B890122194603F0DEFC53
:1014E000002308E0FB685868FB685B890122194605
:1014F00003F0D4FC012318461837BD4680BD80B5E3
:1015000084B000AF78600B46FB701346BB707B68FD
:1015100058687B685B890022194603F0BFFCFB78A2
:101520003B73BB787B737B68186807F10C014FF045
:10153000FF33022205F0A2F90346002B0CBF012362
:101540000023DBB2FB737B6858687B685B890122F0
:10155000194603F0A3FCFB7B18461037BD4680BD3F
:1015600080B586B000AFF8607A601A460B46FB7211
:1015700013463B81FB685868FB689B89002219462B
:1015800003F08CFCFB7A63F07F03DBB2FB75FB6836
:10159000186807F117014FF0FF33012205F06EF9CB
:1015A0000346002B09D0FB685868FB689B89012221
:1015B000194603F073FC00231DE0FB6818683A89A4
:1015C0004FF0FF33796805F08DFA0346002B09D000
:1015D000FB685868FB689B890122194603F05EFC92
:1015E000002308E0FB685868FB689B8901221946C4
:1015F00003F054FC012318461837BD4680BD80B562
:1016000084B000AF78600B46FB701346BB707B68FC
:1016100058687B689B890022194603F03FFCFB78E1
:101620003B73BB787B737B68186807F10C014FF044
:10163000FF33022205F022F90346002B0CBF0123E1
:101640000023DBB2FB737B6858687B689B890122AF
:10165000194603F023FCFB7B18461037BD4680BDBE
:1016600080B485B000AFF86087ED020A79603A6017
:10167000FB684FF000021A60FB684FF000025A60EE
:10168000FB68BA689A60FB684FF00002DA60FB689A
:101690004FF000021A61FB68BA685A617B681A68E9
:1016A000FB689A617B685A68FB68DA613B681A6874
:1016B000FB681A623B685A68FB685A623B689A6822
:1016C000FB689A62FB684FF00002DA62FB684FF039
:1016D00000021A63FB684FF000025A6300BF143720
:1016E000BD465DF8047B704790B593B000AFF860DD
:1016F000B96087ED010ABB681B687B64BB685B68E7
:101700003B64BB689B68FB63BB681A68FB68DA6272
:10171000BB685A68FB681A63BB689A68FB685A63BF
:10172000FB681B681846FEF7B7FE03460C4644EC00
:10173000103B07F0F9FD54EC103B18462146FFF72B
:10174000DBF90346BB63FB681B681846FEF7A4FE83
:1017500003460C4644EC103B07F0A2FD54EC103B52
:1017600018462146FFF7C8F903467B63D34B3B631A
:10177000FB68D3ED017AF0EEE77A9FEDD17AF4EED3
:10178000C77AF1EE10FA00F39381FB68D3ED017A8A
:10179000F0EEE77A9FEDCB7AF4EEC77AF1EE10FA2D
:1017A00000F18681FB6893ED007AD7ED106AD7EDE2
:1017B0000E7A66EEA76A97ED0F6AD7ED0D7A66EEA0
:1017C000277A76EEA76AD7ED0C7A66EEA76AD7ED90
:1017D000117A76EEA76AD7ED017A66EEA77A77EEF0
:1017E000277AFB68C3ED007AFB6893ED017AD7EDA9
:1017F000106AD7ED0D7A66EEA76A97ED0F6AD7EDFE
:101800000E7A66EE277A76EEE76AD7ED017A66EE13
:10181000A77A77EE277AFB68C3ED017AFB681B682D
:101820001846FEF739FE03460C4644EC103B07F021
:101830007BFD54EC103B18462146FFF75DF903464B
:10184000BB63FB681B681846FEF726FE03460C4682
:1018500044EC103B07F024FD54EC103B18462146A5
:10186000FFF74AF903467B63FB68D3ED017AF0EE9C
:10187000E77A9FED937AF4EEC77AF1EE10FA00F36F
:101880001981FB68D3ED017AF0EEE77A9FED8D7A4E
:10189000F4EEC77AF1EE10FA00F10C8197ED107AB0
:1018A000D7ED0D7A27EE277AD7ED0F6AD7ED0E7AAE
:1018B00066EEA77A37EE677AD7ED0C7A67EE277A6D
:1018C000C7ED087A97ED0F7AD7ED0D7A27EE277AD4
:1018D000D7ED106AD7ED0E7A66EEA77A37EE277A43
:1018E000D7ED0C6AD7ED0C7A66EEA77AF7EE006AB0
:1018F00077EEA67A67EE277AC7ED097A97ED0F7A29
:10190000D7ED0D7A27EE277AD7ED106AD7ED0E7A4C
:1019100066EEA77A77EE277AF1EE677AC7ED0A7A54
:101920004FF00003FB62FB6893ED067AD7ED087A6F
:1019300077EEA76AFB68D3ED027A66EEA77A37EEF8
:10194000277AD7ED096AFB68D3ED037A66EEA77AAA
:1019500037EE277AD7ED096AFB68D3ED047A66EE95
:10196000A77A37EE277AD7ED017A67EE277AC7EDA7
:10197000047A97ED087AFB68D3ED037A27EE277A8D
:10198000D7ED0A6AFB68D3ED027A66EEA77A37EEE6
:10199000277AD7ED096AFB68D3ED057A66EEA77A58
:1019A00037EE277AD7ED0B6AFB68D3ED037A66EE44
:1019B000A77A37EE277AD7ED017A67EE277AC7ED57
:1019C000057A97ED087AFB68D3ED047A27EE277A3B
:1019D000D7ED0A6AFB68D3ED027A66EEA77A37EE96
:1019E000277AD7ED096AFB68D3ED057A66EEA77A08
:1019F00037EE277AD7ED0B6AFB68D3ED047A66EEF3
:101A0000A77A37EE277AD7ED017A67EE277AC7ED06
:101A1000067AFB6893ED077AD7ED0A6AFB68D3ED87
:101A2000037A66EEA77A37EE277AD7ED0A6AFB6863
:101A3000D3ED047A66EEA77A37EE277AD7ED0B7AE4
:101A400077EEA76AFB68D3ED057A66EEA77A37EEE4
:101A5000277AD7ED017A67EE277AC7ED077AFB6818
:101A600093ED027AD7ED047A77EE277AFB68C3ED1F
:101A7000027AFB6893ED037AD7ED057A77EE277A41
:101A8000FB68C3ED037AFB6893ED047AD7ED067A21
:101A900077EE277AFB68C3ED047AFB6893ED057A4D
:101AA000D7ED077A77EE277AFB68C3ED057A02E077
:101AB00000BF00E000BF4C37BD4690BD286B6E4EA6
:101AC000CF2DCA3FE6F1C73F90B5B7B000AFF86081
:101AD000B96087ED010AFB68DB6AC7F8D430FB68A0
:101AE0001B6BC7F8D030FB685B6BC7F8CC30BB68AA
:101AF0001B68C7F8C830BB685B68C7F8C430BB68F0
:101B00009B68C7F8C030FB681B681846FEF7C4FC2A
:101B100003460C4644EC103B07F006FC54EC103B2B
:101B200018462146FEF7E8FF0346C7F8BC30FB68BD
:101B30001B681846FEF7B0FC03460C4644EC103B0D
:101B400007F0AEFB54EC103B18462146FEF7D4FFDD
:101B50000346C7F8B830FB685B681846FEF79CFC84
:101B600003460C4644EC103B07F0DEFB54EC103B04
:101B700018462146FEF7C0FF0346C7F8B430FB689D
:101B80005B681846FEF788FC03460C4644EC103BA5
:101B900007F086FB54EC103B18462146FEF7ACFFDD
:101BA0000346C7F8B03097ED347AD7ED017A27EEC7
:101BB000277AD7ED2D7A27EE277AD7ED2D7ADFED2C
:101BC000F06A67EEA67A77EE277AC7ED277A97ED67
:101BD000337AD7ED017A27EE277AD7ED2C7A27EEE4
:101BE000277AD7ED356AD7ED017A66EEA76AD7ED89
:101BF0002D7A66EEA77A37EE677AD7ED2C7ADFED8D
:101C0000E06A67EEA66AD7ED2F7A66EEA77A77EEDE
:101C1000677AC7ED287AD7ED347AB1EE677AD7EDD7
:101C2000017A27EE277AD7ED2C7A27EE277AD7ED9F
:101C30002C7ADFEDD36A67EEA66AD7ED2E7A66EED0
:101C4000A77A77EE677AC7ED297A4FF00003C7F8D5
:101C5000843097ED347AD7ED017A27EE277AD7EDE5
:101C60002C7A27EE277AD7ED2C7ADFEDC56A67EE5E
:101C7000A67A77EE277AC7ED227AD7ED2E7A9FEDF6
:101C8000C17A27EE877AD7ED2C7A67EE277AC7EDEF
:101C9000237AD7ED337AB1EE677AD7ED017A27EE62
:101CA000277AD7ED2D7A27EE277AD7ED356AD7ED4B
:101CB000017A66EEA76AD7ED2C7A66EEA77A37EE40
:101CC000677AD7ED2F7ADFEDAE6A67EEA66AD7EDB9
:101CD0002D7A66EEA77A77EE277AC7ED247AD7EDCC
:101CE0002F7A9FEDA77A27EE877AD7ED2C7A67EEC9
:101CF000277AC7ED257A97ED347AD7ED017A27EE6A
:101D0000277AD7ED2E7ADFED9E6A67EEA67A37EE58
:101D1000277AD7ED2D7A67EE277AC7ED267AFB680A
:101D200093ED057AD7ED227A27EE277AD7ED227A3E
:101D300027EE277AFB68D3ED087A77EE277AC7ED8E
:101D4000187A97ED227AD7ED237A27EE277AFB6867
:101D5000D3ED047A27EE277AD7ED226AD7ED247ADD
:101D600066EEA76AFB68D3ED057A66EEA77A77EE92
:101D7000277AC7ED197A97ED227AD7ED257A27EEE3
:101D8000277AFB68D3ED047A27EE277AD7ED226A0B
:101D9000D7ED267A66EEA76AFB68D3ED057A66EE84
:101DA000A77A77EE277AC7ED1A7A97ED227AD7EDE0
:101DB000236AFB68D3ED037A66EEA76A97ED246A7F
:101DC000FB68D3ED057A66EE277A76EEA77A67EEA2
:101DD000277AC7ED1B7AFB6893ED097AD7ED236A62
:101DE00097ED236AFB68D3ED027A26EE276AD7EDDA
:101DF000245AFB68D3ED047A65EEA77A76EE277A4B
:101E000066EEA77A37EE277AD7ED246A97ED236A34
:101E1000FB68D3ED037A26EE276AD7ED245AFB68D8
:101E2000D3ED057A65EEA77A76EE277A66EEA77A85
:101E300077EE277AC7ED1C7A97ED257AD7ED236ADE
:101E4000FB68D3ED027A66EEA76A97ED246AFB6819
:101E5000D3ED047A66EE277A76EEA77A27EE277A14
:101E6000D7ED266A97ED236AFB68D3ED037A26EE59
:101E7000276AD7ED245AFB68D3ED057A65EEA77A79
:101E800076EE277A66EEA77A77EE277AC7ED1D7A87
:101E900097ED227AD7ED256AFB68D3ED037A66EEDB
:101EA000A76A97ED266AFB68D3ED057A66EE277A76
:101EB00076EEA77A67EE277AC7ED1E7A97ED237A3A
:101EC000D7ED256AFB68D3ED027A66EEA76A97ED37
:101ED000266AFB68D3ED047A66EE277A76EEA77A57
:101EE00027EE277AD7ED246A97ED256AFB68D3EDB4
:101EF000037A26EE276AD7ED265AFB68D3ED057ADA
:101F000065EEA77A76EE277A66EEA77A77EE277ADD
:101F1000C7ED1F7AFB6893ED0A7AD7ED256A97ED36
:101F2000256AFB68D3ED027A26EE276AD7ED265A9A
:101F3000FB68D3ED047A65EEA77A76EE277A66EE33
:101F4000A77A37EE277AD7ED266A97ED256AFB68E0
:101F5000D3ED037A26EE276AD7ED265AFB68D3ED38
:101F6000057A65EEA77A76EE277A66EEA77A77EE9F
:101F7000277AC7ED207A97ED187AD7ED1C7A07E01B
:101F8000C3F51C41C3F51CC1BD3786B5BD378635C9
:101F900027EE277AD7ED207A27EE277AD7ED186A31
:101FA000D7ED1D7A66EEA76AD7ED1F7A66EEA77A9F
:101FB00037EE677AD7ED196AD7ED1B7A66EEA76A16
:101FC000D7ED207A66EEA77A37EE677AD7ED196AF1
:101FD000D7ED1D7A66EEA76AD7ED1E7A66EEA77A70
:101FE00037EE277AD7ED1A6AD7ED1B7A66EEA76A25
:101FF000D7ED1F7A66EEA77A37EE277AD7ED1A6A01
:10200000D7ED1C7A66EEA76AD7ED1E7A66EEA77A40
:1020100077EE677AC7ED2B7AD7ED2B7A1FED267A0C
:10202000F4EEC77AF1EE10FA09D4D7ED2B7A1FED52
:10203000297AF4EEC77AF1EE10FA40F37883F7EEDE
:10204000006A97ED2B7AC6EE877AC7ED2A7A97ED6C
:102050001C7AD7ED207A27EE277AD7ED1D6AD7EDC7
:102060001F7A66EEA77A37EE677AD7ED2A7A67EE9F
:10207000277AC7ED057AD7ED2A7AB1EE677AD7EDE0
:10208000196AD7ED207A66EEA76A97ED1A6AD7ED3E
:102090001F7A66EE277A76EEE77A67EE277AC7ED43
:1020A000067A97ED197AD7ED1D7A27EE277AD7EDC4
:1020B0001A6AD7ED1C7A66EEA77A37EE677AD7ED03
:1020C0002A7A67EE277AC7ED077AD7ED2A7AB1EE3A
:1020D000677AD7ED1B6AD7ED207A66EEA76A97ED8F
:1020E0001D6AD7ED1E7A66EE277A76EEE77A67EEFE
:1020F000277AC7ED087A97ED187AD7ED207A27EE80
:10210000277AD7ED1A6AD7ED1E7A66EEA77A37EEF0
:10211000677AD7ED2A7A67EE277AC7ED097AD7ED85
:102120002A7AB1EE677AD7ED186AD7ED1D7A66EE96
:10213000A76A97ED1A6AD7ED1B7A66EE277A76EED4
:10214000E77A67EE277AC7ED0A7A97ED1B7AD7ED23
:102150001F7A27EE277AD7ED1C6AD7ED1E7A66EE36
:10216000A77A37EE677AD7ED2A7A67EE277AC7ED36
:102170000B7AD7ED2A7AB1EE677AD7ED186AD7EDE8
:102180001F7A66EEA76A97ED196AD7ED1E7A66EE9A
:10219000277A76EEE77A67EE277AC7ED0C7A97ED25
:1021A000187AD7ED1C7A27EE277AD7ED196AD7ED82
:1021B0001B7A66EEA77A37EE677AD7ED2A7A67EE52
:1021C000277AC7ED0D7A97ED087AD7ED236AFB6879
:1021D000D3ED027A66EEA76A97ED246AFB68D3ED29
:1021E000037A66EE277A76EEA77A27EE277AD7ED7E
:1021F0000B6A97ED256AFB68D3ED027A26EE276A13
:10220000D7ED265AFB68D3ED037A65EEA77A76EE12
:10221000277A66EEA77A37EE277AD7ED226AD7EDCE
:10222000057A66EEA76AFB68D3ED037A66EEA77AB5
:1022300077EE277AC7ED127A97ED097AD7ED236A00
:10224000FB68D3ED027A66EEA76A97ED246AFB6815
:10225000D3ED037A66EE277A76EEA77A27EE277A11
:10226000D7ED0C6A97ED256AFB68D3ED027A26EE6E
:10227000276AD7ED265AFB68D3ED037A65EEA77A75
:1022800076EE277A66EEA77A37EE277AD7ED226ABE
:10229000D7ED067A66EEA76AFB68D3ED037A66EEA1
:1022A000A77A77EE277AC7ED137A97ED0A7AD7EDFA
:1022B000236AFB68D3ED027A66EEA76A97ED246A7B
:1022C000FB68D3ED037A66EE277A76EEA77A27EEDF
:1022D000277AD7ED0D6A97ED256AFB68D3ED027A70
:1022E00026EE276AD7ED265AFB68D3ED037A65EE12
:1022F000A77A76EE277A66EEA77A37EE277AD7EDB9
:10230000226AD7ED077A66EEA76AFB68D3ED037AF7
:1023100066EEA77A77EE277AC7ED147A97ED087AFA
:10232000D7ED236AFB68D3ED047A66EEA76A97EDD2
:10233000246AFB68D3ED057A66EE277A76EEA77AF3
:1023400027EE277AD7ED0B6A97ED256AFB68D3ED68
:10235000047A26EE276AD7ED265AFB68D3ED057A74
:1023600065EEA77A76EE277A66EEA77A37EE277AB9
:10237000D7ED226AD7ED057A66EEA76AFB68D3ED42
:10238000057A66EEA77A77EE277AC7ED157A97ED8C
:10239000097AD7ED236AFB68D3ED047A66EEA76A63
:1023A00097ED246AFB68D3ED057A66EE277A76EE20
:1023B000A77A27EE277AD7ED0C6A97ED256AFB6896
:1023C000D3ED047A26EE276AD7ED265AFB68D3EDC3
:1023D000057A65EEA77A76EE277A66EEA77A37EE6B
:1023E000277AD7ED226AD7ED067A66EEA76AFB68F0
:1023F000D3ED057A66EEA77A77EE277AC7ED167ADF
:1024000097ED0A7AD7ED236AFB68D3ED047A66EE7E
:10241000A76A97ED246AFB68D3ED057A66EE277A02
:1024200076EEA77A27EE277AD7ED0D6A97ED256A23
:10243000FB68D3ED047A26EE276AD7ED265AFB68AF
:10244000D3ED057A65EEA77A76EE277A66EEA77A5F
:1024500037EE277AD7ED226AD7ED077A66EEA76ABC
:10246000FB68D3ED057A66EEA77A77EE277AC7ED9B
:10247000177AFB68D3ED047AB1EE677AD7ED226A5A
:10248000D7ED127A66EEA76A97ED246AD7ED137A34
:1024900066EE277A76EEA76A97ED266AD7ED147A6C
:1024A00066EE277A76EEA77A27EE277AFB68D3EDD9
:1024B000026A97ED236AD7ED137A26EE276AD7EDE5
:1024C000255AD7ED147A65EEA77A76EE277AB7EE1D
:1024D000006A77EEC67A66EEA77A77EE677AC7ED7E
:1024E0000E7AFB68D3ED057AB1EE677AD7ED226AF2
:1024F000D7ED127A66EEA76A97ED246AD7ED137AC4
:1025000066EE277A76EEA76A97ED266AD7ED147AFB
:1025100066EE277A76EEA77A27EE277AFB68D3ED68
:10252000036A97ED236AD7ED137A26EE276AD7ED73
:10253000255AD7ED147A65EEA77A76EE277AB7EEAC
:10254000006A77EEC67A66EEA77A77EE677AC7ED0D
:102550000F7AFB68D3ED047AB1EE677AD7ED226A81
:10256000D7ED157A66EEA76A97ED246AD7ED167A4D
:1025700066EE277A76EEA76A97ED266AD7ED177A88
:1025800066EE277A76EEA77AF7EE006A77EEE67ABD
:1025900027EE277AFB68D3ED026A97ED236AD7ED21
:1025A000167A26EE276AD7ED255AD7ED177A65EE0B
:1025B000A77A76EE277A66EEA77A77EE677AC7ED86
:1025C000107AFB68D3ED057AB1EE677AD7ED226A0F
:1025D000D7ED157A66EEA76A97ED246AD7ED167ADD
:1025E00066EE277A76EEA76A97ED266AD7ED177A18
:1025F00066EE277A76EEA77AF7EE006A77EEE67A4D
:1026000027EE277AFB68D3ED036A97ED236AD7EDAF
:10261000167A26EE276AD7ED255AD7ED177A65EE9A
:10262000A77A76EE277A66EEA77A77EE677AC7ED15
:10263000117AFB6893ED027AD7ED0E7A77EE277A5E
:10264000FB68C3ED027AFB6893ED037AD7ED0F7A4E
:1026500077EE277AFB68C3ED037AFB6893ED047A83
:10266000D7ED107A77EE277AFB68C3ED047AFB6822
:1026700093ED057AD7ED117A77EE277AFB68C3EDF3
:10268000057AFB6893ED007AD7ED126AD7ED277AC9
:1026900097ED326A76EE677A66EEA77A37EE277A9A
:1026A000D7ED136AD7ED287A97ED316A76EE677A1F
:1026B00066EEA77A37EE277AD7ED146AD7ED297A36
:1026C00097ED306A76EE677A66EEA77A77EE277A2C
:1026D000FB68C3ED007AFB6893ED017AD7ED156ACC
:1026E000D7ED277A97ED326A76EE677A66EEA77AAB
:1026F00037EE277AD7ED166AD7ED287A97ED316A4B
:1027000076EE677A66EEA77A37EE277AD7ED176A04
:10271000D7ED297A97ED306A76EE677A66EEA77A7A
:1027200077EE277AFB68C3ED017A012300E00023EE
:102730001846DC37BD4690BD80B487B000AFF86066
:102740000B4687ED010AC7ED000AFB72D7ED017A4F
:102750009FED2E7A67EE877AC7ED057AFB7A012B1B
:1027600041D1D7ED057A9FED2A7A27EE877AD7ED0A
:10277000057A27EE277AD7ED007A27EE277AD7ED6C
:10278000007A67EE277AFB68C3ED037AD7ED057A06
:102790009FED207A27EE877AD7ED007A67EE277AC9
:1027A000B7EE007A37EE877AFB68D3ED037A37EE1F
:1027B000277AF7EE006AC6EE877AFB68C3ED047AE3
:1027C000D7ED057A9FED137A27EE877AD7ED007A59
:1027D00067EE277AB0EE007A77EE877AF1EE677AC5
:1027E000FB68C3ED057AFB684FF000025A60FB6896
:1027F0004FF000029A60FB684FF000021A6000BFC1
:102800001C37BD465DF8047B704700BFDB0FC94035
:10281000F9A0CF3F1B2F0D4080B483B000AF78608C
:1028200087ED000A7B685A687B689A607B681A6843
:102830007B685A607B6893ED047A7B68D3ED036A0A
:10284000D7ED007A66EEA76A7B6893ED056A7B6830
:10285000D3ED017A26EE276A7B68D3ED027A76EE15
:10286000277A76EEE77A67EE277A7B68C3ED007AFF
:102870007B681B6807EE903AB0EE670A0C37BD46DE
:102880005DF8047B7047000080B58CB004AFF86041
:10289000B9601346FB71FB68BA681A60FB7907EEF2
:1028A000903AF8EEE77A9FED537A27EE877ADFEDDC
:1028B000526AC6EE877AB6EE007A77EE877AB7EE7E
:1028C000007A77EEC77AFCEEE77AC7ED007A3B68CC
:1028D000DAB2FB681A7100233B7680237B76FB68B3
:1028E000186807F11802642300930223802102F084
:1028F00065FC0A2002F034F8FB6818686423029330
:102900000123019307F11703009301230022802183
:1029100002F052FD00233B76FB7D5BB203F06F03B8
:102920005BB243F010035BB2DBB27B76FB681868E6
:1029300007F11802642300930223802102F03EFC79
:10294000FE233B76FB681B797B76FB68186807F1F2
:102950001802642300930223802102F02FFC00233D
:102960003B76FB7D7B76052001F0FAFFFB7D63F073
:102970005F03DBB27B76FB68186807F118026423FB
:1029800000930223802102F019FCFB68186864237D
:1029900002930123019307F11703009301230122FE
:1029A000802102F009FDFB7D43F00403DBB2FB75DF
:1029B00001233B76FB7D7B76FB68186807F11802E4
:1029C000642300930223802102F0F8FB0023FB61C3
:1029D00008E0FA68FB695B0013440022DA80FB69B7
:1029E0000133FB61FB69072BF3DD00BF2037BD46D8
:1029F00080BD00BF0000804520BCBE4B80B584B0C8
:102A000000AF78600B46FB7013463B807B681B79F8
:102A1000013307EE903AF8EEE77A9FED117A27EE50
:102A2000877ADFED106AC7EE267AC7ED037A3B8816
:102A300007EE903AF8EEE76A97ED037AC6EE877AEA
:102A4000FCEEE77A17EE903A7B817B89F9780022D9
:102A5000786800F009F800BF1037BD4680BD00BFA0
:102A60000024744920BCBE4B80B588B002AFF8602A
:102A7000084611461A460346FB720B463B81134635
:102A8000FB80FB7A9B00DBB20633DBB23B743B89F5
:102A9000DBB27B743B891B0A9BB2DBB2BB74FB8845
:102AA000DBB2FB74FB881B0A9BB2DBB23B75FB6895
:102AB000186807F11002642300930523802102F0B7
:102AC0007DFB00BF1837BD4680BD80B487B000AF26
:102AD000786187ED040AC7ED030A87ED021AC7ED96
:102AE000011A7B693A691A607B69FA685A607B69E6
:102AF000BA68DA607B697A681A617B694FF0000214
:102B0000DA617B694FF000021A627B694FF00002C4
:102B10005A627B694FF000025A617B694FF00002F4
:102B20009A6100BF1C37BD465DF8047B704780B4D6
:102B30008BB000AFF86087ED020AC7ED010A87EDA0
:102B4000001A97ED027AD7ED017A77EE677AC7ED32
:102B5000067AFB68D3ED007A97ED067A67EE277A5E
:102B6000C7ED057AFB68D3ED027A97ED027A67EE3E
:102B7000277AC7ED097AFB68D3ED067A97ED097AD3
:102B8000B4EEE77AF1EE10FA03DDFB689B697B6235
:102B90000CE0FB68D3ED057A97ED097AB4EEE77A9D
:102BA000F1EE10FA02D5FB685B697B62FB6893ED7E
:102BB000077AD7ED007AF6EE006A67EEA66AFB6840
:102BC000D3ED017A66EEA76AFB6893ED086AD7ED4C
:102BD000067A76EE277A66EEA77A77EE277AFB6892
:102BE000C3ED077AFB6893ED047AD7ED057A37EEEB
:102BF000677AD7ED097A77EE677AF5EEC07AF1EE6B
:102C000010FA09DDFB6893ED047AD7ED057A77EECB
:102C1000677AC7ED077A02E04FF00003FB61FB68BB
:102C200093ED037AD7ED057A37EE677AD7ED097A17
:102C300077EE677AF5EEC07AF1EE10FA09D5FB6807
:102C400093ED037AD7ED057A77EE677AC7ED087AC8
:102C500002E04FF000033B62FB68D3ED077A97ED8B
:102C6000077AB4EEE77AF1EE10FA03D5FB68FA6959
:102C7000DA610CE0FB68D3ED077A97ED087AB4EEE1
:102C8000E77AF1EE10FA02DDFB683A6ADA6197ED55
:102C9000057AD7ED097A37EE277AFB68D3ED077A04
:102CA00077EE277AFB68C3ED097AFB6893ED097A22
:102CB000FB68D3ED047AB4EEE77AF1EE10FA04DDA6
:102CC000FB681A69FB685A620EE0FB6893ED097AAB
:102CD000FB68D3ED037AB4EEE77AF1EE10FA03D590
:102CE000FB68DA68FB685A62FB68BA691A62FB68BB
:102CF0005B6A07EE903AB0EE670A2C37BD465DF886
:102D0000047B704780B485B000AFF860B9607A602A
:102D1000FB68074A1A60BB68064A1A607B68802213
:102D20001A6000BF1437BD465DF8047B704700BFD2
:102D300060040020B404002080B500AF0B4B1B6979
:102D400003F00103002B04D0094B5B6A094A1360AE
:102D500007E0074B5A6A074B1B68D31A5B08064A01
:102D60001360012002F0CEF800BF80BD00000240D9
:102D7000000C0040B4060020C406002080B500AF5F
:102D80000B4B1B6903F00203002B04D0094B5B6A59
:102D9000094A536007E0074B5A6A074B5B68D31A2E
:102DA0005B08064A5360022002F0ACF800BF80BD09
:102DB00000000240000C0040B4060020C4060020C1
:102DC00080B500AF234B5B6903F04003002B1CD0A0
:102DD000214B1B6903F04003002B04D01F4B5B6A9F
:102DE0001F4A93600DE01C4B1B6903F04003002B4E
:102DF00007D11A4B5A6A1A4B9B68D31A5B08194AB7
:102E00009360402002F07EF821E0124B5B6903F0F2
:102E10008003002B1BD0104B1B6903F08003002B99
:102E200004D00E4B5B6A0E4AD3600DE00A4B1B695F
:102E300003F08003002B07D1084B5A6A084BDB686C
:102E4000D31A5B08074AD360802002F05BF800BF0A
:102E500080BD00BF003C014000040240000C004067
:102E6000B4060020C4060020B0B5BAB002AF01F02D
:102E700035FD00F053FF01F037F900F0B9FF00F025
:102E8000E5FF01F011F801F045F801F079F801F0E3
:102E9000ADF801F0D5F801F0FDF800233B60BE4B22
:102EA0001B6CBD4A43F008031364BB4B1B6C03F05F
:102EB00008033B603B6803F023FC0246B74BA3FBCF
:102EC00002239B0CB64A013B9362B54B01221A6068
:102ED000B34B4FF0FF32DA62B14B6FF001025A622E
:102EE000B04B07F1C0041D460FCD0FC495E8070095
:102EF00084E8070007F1C0030021184604F0CBFF67
:102F00000246A94B1A60A94B07F1A4041D460FCD38
:102F10000FC495E8070084E8070007F1A403002127
:102F2000184604F0B8FF0246A14B1A60A14B07F106
:102F300088041D460FCD0FC495E8070084E80700FC
:102F400007F188030021184604F0A5FF02469A4BBA
:102F50001A609A4B07F16C041D460FCD0FC495E81B
:102F6000070084E8070007F16C030021184604F00D
:102F700092FF0246924B1A60924B07F150041D4695
:102F80000FCD0FC495E8070084E8070007F1500350
:102F90000021184604F07FFF02468B4B1A608B4BD2
:102FA00007F134041D460FCD0FC495E8070084E8EF
:102FB000070007F134030021184604F06CFF0246B5
:102FC000834B1A60834B07F118041D460FCD0FC4C5
:102FD00095E8070084E8070007F118030021184668
:102FE00004F059FF02467C4B1A6020230193102302
:102FF00000930823794A7A497A48FDF74DFF034642
:10300000002B04D101220421774801F047FF32222E
:1030100076497748FFF738FC002200217448FFF713
:10302000EDFC002201217248FFF7E8FC002202219A
:103030006F48FFF7E3FC002203216D48FFF7DEFC39
:103040004FF47A7001F08CFC4FF4FA72002168485A
:10305000FFF7D4FC4FF4FA7201216548FFF7CEFC6C
:103060004FF4FA7202216248FFF7C8FC4FF4FA727B
:1030700003215F48FFF7C2FC4FF47A7001F070FC47
:103080005C4B01221A700023C7F8DC3034E0D7F81B
:10309000DC2013465B001344DB00574A1344DFED8A
:1030A000570AB2EE040A01211846FFF745FBD7F88C
:1030B000DC2013465B001344DB00514A1344DFED70
:1030C000510A9FED510A01211846FFF735FBD7F849
:1030D000DC2013465B001344DB004C4A1344DFED55
:1030E0004C0AB1EE040A01211846FFF725FBD7F878
:1030F000DC300133C7F8DC30D7F8DC30022BC6DD1A
:103100000023C7F8DC3014E0D7F8DC2013465B005E
:103110001344DB003F4A1344DFED3A0AB1EE0E0AD6
:1031200001211846FFF708FBD7F8DC300133C7F858
:10313000DC30D7F8DC30032BE6DD374A07F110032B
:1031400092E8030083E80300344A3B1D07CA83E882
:1031500007003A1D07F110031946B2EE040A304881
:10316000FEF77EFADFED2F1A9FED2F1ADFED280A0A
:103170009FED2E0A2E48FFF7A8FCDFED2A1A9FEDDF
:103180002A1ADFED2C0A9FED2C0A2C48FFF79DFC34
:1031900004F07AFEFEE700BF0038024083DE1B43E6
:1031A000000C0040F8AB0008E048002028AC000804
:1031B000E045002054AC00080C45002084AC000819
:1031C000E8480020A8AC0008A0460020CCAC0008CD
:1031D000DC480020F8AC0008E4480020000402406D
:1031E0004446002014450020000802408C45002081
:1031F000C8470020D4060020384700206F12833CC7
:10320000E44600200BD7233C00000042804700200A
:10321000CDCCCC3DE445002014AD00081CAD000829
:10322000A44800201F858B401F858BC0A4709D3F44
:10323000344400200AD7A33D713D8A3F384800201E
:1032400080B586B000AF78602F48FDF769FF2E4B40
:10325000D3ED047A9FED2D7A67EE877A9FED2C7A75
:1032600077EE877A284BC3ED047A274BD3ED057AA6
:103270009FED287A67EE877A9FED277A77EE877A37
:10328000214BC3ED057A204BD3ED067A9FED237ACF
:1032900067EE877A9FED227A77EEC77A1A4BC3EDF5
:1032A000067A00237B611FE07A6913465B001344B2
:1032B000DB001C4A9918144A7B6904339B001344B1
:1032C000D3ED007AB0EE670A0846FFF7A5FAF0EEF4
:1032D000407A7B699B0007F118021344103BC3ED51
:1032E000007A7B6901337B617B69022BDCDD07F1AE
:1032F00008039FED0D0A19460C48FEF7E5FB102068
:1033000004F015FEA0E700BF1445002096B27C3FF4
:1033100097902F3F0E4F7F3F8716593D5BB17F3F00
:10332000355E9A3E384700206F12833CA448002047
:103330002DE9B04F2DED028B88B000AF78607E484C
:10334000FDF760FF7D4B1B6801337C4A136000234F
:10335000FB6129E07A4AFB699B00134493ED007AF4
:10336000764B1B68013B07EE903AF8EE677A27EE42
:10337000277A714AFB6906339B0013440433D3ED6B
:10338000007A77EE276A6D4B1B6807EE903AB8EE2D
:10339000677AC6EE877A6A4AFB699B001344C3EDDD
:1033A000007AFB690133FB61FB69022BD2DD00234C
:1033B000BB6120E0BA6913465B001344DB00614A3D
:1033C00099185D4ABB6906339B0013440433D3ED5F
:1033D000007AB0EE670A0846FFF71EFAF0EE407A70
:1033E000BB699B0007F120021344143BC3ED007A34
:1033F000BB690133BB61BB69022BDBDD07F10C0349
:103400009FED510A19465148FEF76EF9504BD3ED26
:10341000007A9FED507A67EE877A17EE900AFDF7F3
:103420003BF804460D464C4B1B681846FDF734F834
:1034300080468946454B1B681846FDF72DF8024625
:103440000B4643EC102B05F06FFF5BEC10AB3B69B8
:103450001846FDF721F802460B4650465946FDF73F
:1034600073F802460B4692469B46384B1B6818463B
:10347000FDF712F802460B4643EC102B05F010FF47
:10348000B0EE408AF0EE608A7B691846FDF704F8DA
:1034900002460B4651EC180BFDF756F802460B4658
:1034A00050465946FCF79AFE02460B46104619460E
:1034B0001DA3D3E90023FDF747F802460B469246C9
:1034C0009B46224B5B681846FCF7E6FF02460B461C
:1034D00043EC102B05F0E4FE53EC102B50465946FC
:1034E000FDF75CF902460B4640464946FCF776FE7E
:1034F00002460B46104619460DA3D3E90023FDF7FB
:1035000023F802460B4620462946FCF767FE034691
:103510000C4618462146FDF7EFFA02460E4B1A609C
:103520000A2004F004FD0AE700000060E17A843F0D
:103530000000008014AEEF3F14450020D8060020A4
:10354000DC060020E44600200BD7233CA4480020E2
:10355000604800200AD7233C10450020B0B58EB04B
:1035600000AF78608D48FDF79FFE8C4B93ED0A7A93
:103570008A4BD3ED0A7A27EE277A884BD3ED0B6A74
:10358000864BD3ED0B7A66EEA77A37EE277A834B1C
:10359000D3ED0C6A814BD3ED0C7A66EEA77A77EE09
:1035A000277A17EE900AFCF777FF03460C4644ECA7
:1035B000103B05F003FF54EC103B1A4623464FF036
:1035C00000007749FDF7EAF803460C461846214605
:1035D000FDF792FA03463B63704B93ED0A7AD7ED01
:1035E0000C7A67EE277A6D4BC3ED0A7A6B4B93ED3D
:1035F0000B7AD7ED0C7A67EE277A684BC3ED0B7A1E
:10360000664B93ED0C7AD7ED0C7A67EE277A634B15
:10361000C3ED0C7A00237B631FE07A6B13465B00DB
:103620001344DB005F4A99185C4A7B6B0A339B00AA
:103630001344D3ED007AB0EE670A0846FFF7ECF8C2
:10364000F0EE407A7B6B9B0007F1380213442C3B71
:10365000C3ED007A7B6B01337B637B6B022BDCDD7C
:10366000514B1B681846FCF717FF03460C4644EC09
:10367000103B05F059FE54EC103B18462146FDF76F
:103680003BFA0346FB62484B1B681846FCF704FFF5
:1036900003460C4644EC103B05F002FE54EC103B94
:1036A00018462146FDF728FA0346BB623E4B5B688D
:1036B0001846FCF7F1FE03460C4644EC103B05F0BF
:1036C00033FE54EC103B18462146FDF715FA03462D
:1036D0007B62354B5B681846FCF7DEFE03460C4602
:1036E00044EC103B05F0DCFD54EC103B1846214641
:1036F000FDF702FA03463B6297ED037AD7ED087AAD
:1037000027EE277AD7ED046AD7ED097A66EEA76A25
:10371000D7ED0B7A66EEA77A37EE277AD7ED056AF2
:10372000D7ED097A66EEA76AD7ED0A7A66EEA77A30
:1037300077EE277AC7ED077A97ED047AD7ED0A7A04
:1037400027EE277AD7ED056AD7ED0B7A66EEA77AD2
:1037500077EE677AC7ED067AB869FCF79DFE0446F6
:103760000D46F869FCF798FE02460B4643EC112B18
:1037700045EC104B05F020FE54EC103B184621465A
:10378000FDF7BAF9034607EE903AF1EE677A074B78
:10379000C3ED007A642004F0CAFBE3E61445002080
:1037A0000000F03F80470020A4480020604800202F
:1037B00080B582B000AF78609C4BDB6807EE903A32
:1037C000F8EE677AB0EE670A9948FFF725F8B0EE91
:1037D000407ADFED987A67EE277AB7EE007A77EED7
:1037E000C77A954BC3ED007A904B5B6807EE903A31
:1037F000F8EE677AB0EE670A9048FFF70DF8B0EE82
:10380000407ADFED8F7A67EE277AB0EE087A77EEAE
:10381000C77A8C4BC3ED007A844B9B6807EE903AD5
:10382000F8EE677AB0EE670A8748FEF7F5FFB0EE6C
:10383000407ADFED867A67EE277AB0EE087A77EE87
:10384000877A834BC3ED007A784B1B6807EE903A7A
:10385000F8EE677AB0EE670A7E48FEF7DDFFB0EE5D
:10386000407ADFED777A67EE277AB0EE087A77EE66
:10387000C77A794BC3ED007A724BD3ED007A9FED96
:10388000777AF4EEC77AF1EE10FA0DDB6D4BD3EDDB
:10389000007A9FED737AF4EEC77AF1EE10FA03D84E
:1038A000684B4FF000021A60694BD3ED007A9FED30
:1038B0006B7AF4EEC77AF1EE10FA0DDB644BD3EDC0
:1038C000007A9FED677AF4EEC77AF1EE10FA03D82A
:1038D0005F4B4FF000021A605F4BD3ED007A9FED13
:1038E0005F7AF4EEC77AF1EE10FA0DDB584BD3EDA8
:1038F000007A9FED5B7AF4EEC77AF1EE10FA03D806
:10390000554B4FF000021A604B4BD3ED007AF5EEA9
:10391000C07AF1EE10FA04D5474B4FF000021A605E
:103920000DE0454BD3ED007AB7EE007AF4EEC77A9E
:10393000F1EE10FA03DD404B4FF07E521A60414B1E
:10394000D3ED007ABFEE007AF4EEC77AF1EE10FA0A
:1039500003D53C4B434A1A600DE03A4BD3ED007A55
:10396000B7EE007AF4EEC77AF1EE10FA03DD354BCC
:103970004FF07E521A60364BD3ED007ABFEE007ADC
:10398000F4EEC77AF1EE10FA03D5314B354A1A60DE
:103990000DE02F4BD3ED007AB7EE007AF4EEC77A44
:1039A000F1EE10FA03DD2A4B4FF07E521A602A4BDB
:1039B000D3ED007ABFEE007AF4EEC77AF1EE10FA9A
:1039C00003D5254B274A1A600DE0234BD3ED007A2F
:1039D000B7EE007AF4EEC77AF1EE10FA03DD1E4B73
:1039E0004FF07E521A60174BD3ED007A9FED1E7A8E
:1039F00067EE877A134BC3ED007A154BD3ED007A4F
:103A00009FED197A67EE877A114BC3ED007A124B5E
:103A1000D3ED007A9FED157A67EE877A0E4BC3EDF2
:103A2000007A0A2004F083FAC6E600BFC40600202C
:103A3000E44500206F12833A2C470020FC4500200B
:103A40006F12033B9C460020144600206F1203BBFC
:103A5000B04400202C46002030470020CDCC4CBD87
:103A6000CDCC4C3D000080BFC2B8323EF366DF3E95
:103A700080B584B000AF78600023FB600DE0FB6888
:103A8000D9B2094AFB685B001344DB881A46064832
:103A9000FEF7B4FFFB680133FB60FB68032BEEDD30
:103AA000042004F044FAE7E7C847002080B588B056
:103AB00000AF7860834BD3ED007A9FED837AF4EE0C
:103AC000C77AF1EE10FA03D5804B00221A7002E09B
:103AD0007E4B01221A707B4BD3ED007A9FED7C7AEE
:103AE00067EE877AFCEEE77A17EE903A9BB2FB839B
:103AF000B7F91E30B3F5167F03DD4FF41673FB8361
:103B000005E0B7F91E30002B01DA0023FB83714B6F
:103B1000D3ED007A704B93ED007A9FED701AF0EEC2
:103B2000470AB0EE670A6E48FFF701F887ED040A0E
:103B30006C4BD3ED007A684B93ED017A9FED671AD9
:103B4000F0EE470AB0EE670A6748FEF7F0FF87ED30
:103B5000030A664BD3ED007A97ED047A77EE677A25
:103B60009FED637A67EE877A9FED627A67EE877AD8
:103B7000FDEEE77A17EE903ABB835C4BD3ED067A05
:103B800097ED037A77EE677A9FED597A67EE877A39
:103B90009FED587A67EE877AFDEEE77A17EE903A56
:103BA0007B83B7F91C30C82B02DDC823BB8307E039
:103BB000B7F91C3013F1C80F02DA4FF63873BB8324
:103BC000B7F91A30C82B02DDC8237B8307E0B7F9A9
:103BD0001A3013F1C80F02DA4FF638737B833B4B70
:103BE0001B78012B59D1FA8BBB8B13449AB27B8B78
:103BF00013449BB203F214539AB23F4BDA80FA8B10
:103C0000BB8BD31A9AB27B8B13449BB203F214532F
:103C10009AB2394B1A81FA8BBB8BD31A9AB27B8B2F
:103C2000D31A9BB203F214539AB2334B5A81FA8BD4
:103C3000BB8B13449AB27B8BD31A9BB203F21453FF
:103C40009AB22D4B9A8100237B6122E02A4A7B693C
:103C50005B001344DB88B3F5E16F07D9264A7B6923
:103C60005B0013444FF4E162DA800FE0224A7B6983
:103C70005B001344DB8840F21352934206D81E4A7D
:103C80007B695B00134440F21452DA807B69013394
:103C90007B617B69032BD9DD0FE0174B4FF4FA7280
:103CA000DA80154B4FF4FA721A81134B4FF4FA7203
:103CB0005A81114B4FF4FA729A81042004F037F9BB
:103CC000F8E600BF2C470020CDCCCC3DD406002028
:103CD000000016449C460020A44800206F12833B3D
:103CE00034440020B044002038480020E44600203E
:103CF000000000000000C842C847002080B582B024
:103D000000AF78600821044801F0E1F84FF4FA7040
:103D100004F00DF9F6E700BF0008024080B594B04A
:103D200000AF07F1200330220021184606F0CCFE38
:103D300007F10C0300221A605A609A60DA601A6177
:103D40000023BB60284B1B6C274A43F0805313644D
:103D5000254B1B6C03F08053BB60BB6800237B606A
:103D6000224B1B68214A43F4804313601F4B1B689E
:103D700003F480437B607B6801233B624FF4803314
:103D80007B620223BB634FF48003FB6308233B6425
:103D9000A8237B640223BB640423FB6407F1200394
:103DA000184602F075F80346002B01D000F078FAAF
:103DB0000F23FB6002233B6100237B614FF4A05380
:103DC000BB614FF48053FB6107F10C0305211846DA
:103DD00002F0CEFA0346002B01D000F061FA00BFDA
:103DE0005037BD4680BD00BF003802400070004023
:103DF00080B500AF124B134A1A60114B124A5A6039
:103E00000F4B00229A600E4B0022DA600C4B4FF4ED
:103E100080421A610A4B00225A61094B00229A61C2
:103E2000074B0022DA61064B00221A62044801F0B7
:103E30008DF80346002B01D000F032FA00BF80BDA0
:103E40008C45002000540040A086010080B500AFE2
:103E5000124B134A1A60114B124A5A600F4B002240
:103E60009A600E4B0022DA600C4B4FF480421A61CC
:103E70000A4B00225A61094B00229A61074B00222B
:103E8000DA61064B00221A62044801F05FF803462B
:103E9000002B01D000F004FA00BF80BD5C4400207C
:103EA000005C0040A086010080B500AF174B184AA7
:103EB0001A60164B4FF482725A60144B00229A60BB
:103EC000124B0022DA60114B00221A610F4B0022C4
:103ED0005A610E4B4FF400729A610C4B0022DA616A
:103EE0000A4B00221A62094B00225A62074B002239
:103EF0009A62064B0A22DA62044802F05BFC03462F
:103F0000002B01D000F0CCF900BF80BDE0470020BD
:103F10000030014080B500AF174B184A1A60164BAD
:103F20004FF482725A60144B00229A60124B0022A6
:103F3000DA60114B00221A610F4B00225A610E4BBE
:103F40004FF400729A610C4B0022DA610A4B002296
:103F50001A62094B00225A62074B00229A62064BF2
:103F60000A22DA62044802F025FC0346002B01D045
:103F700000F096F900BF80BDB44400200038004036
:103F800080B500AF174B184A1A60164B4FF4827277
:103F90005A60144B00229A60124B0022DA60114BD7
:103FA00000221A610F4B00225A610E4B4FF400722F
:103FB0009A610C4B0022DA610A4B00221A62094B0B
:103FC00000225A62074B00229A62064B0A22DA62EA
:103FD000044802F0EFFB0346002B01D000F060F92B
:103FE00000BF80BD44460020003C004080B500AFCB
:103FF000114B124A1A60104B4FF4E1325A600E4BCB
:1040000000229A600C4B0022DA600B4B00221A61EE
:10401000094B0C225A61084B00229A61064B002280
:10402000DA61054803F04EFB0346002B01D000F097
:1040300037F900BF80BD00BFA4460020001001403A
:1040400080B500AF114B124A1A60104B4FF4E132A9
:104050005A600E4B00229A600C4B0022DA600B4B28
:1040600000221A61094B0C225A61084B00229A6106
:10407000064B0022DA61054803F024FB0346002BBF
:1040800001D000F00DF900BF80BD00BF64480020E2
:104090000044004080B500AF114B124A1A60104B2B
:1040A0004FF4E1325A600E4B00229A600C4B002212
:1040B000DA600B4B00221A61094B0C225A61084B43
:1040C00000229A61064B0022DA61054803F0FAFAF1
:1040D0000346002B01D000F0E3F800BF80BD00BF15
:1040E0004C4500200048004080B58AB000AF07F181
:1040F000140300221A605A609A60DA601A61002381
:104100003B61594B1B6B584A43F004031363564BF6
:104110001B6B03F004033B613B690023FB60524BC4
:104120001B6B514A43F0800313634F4B1B6B03F02F
:104130008003FB60FB680023BB604B4B1B6B4A4A50
:1041400043F001031363484B1B6B03F00103BB6097
:10415000BB6800237B60444B1B6B434A43F0020364
:104160001363414B1B6B03F002037B607B680022EF
:1041700040F27F113D4800F091FE002210213C48A2
:1041800000F08CFE002238213A4800F087FE4EF203
:1041900080037B610023BB610023FB6107F11403F3
:1041A0001946324800F0E0FC40F27F137B610123A6
:1041B000BB610023FB6100233B6207F11403194636
:1041C0002A4800F0D1FC03237B612B4BBB61002309
:1041D000FB6107F114031946254800F0C5FC1023C4
:1041E0007B610123BB610023FB6100233B6207F17C
:1041F000140319461E4800F0B7FC38237B610123E5
:10420000BB610023FB6100233B6207F114031946E5
:10421000184800F0A9FCC0237B61174BBB61002349
:10422000FB6107F114031946124800F09DFC0022BF
:104230000521062000F06EFC062000F087FC00221D
:104240000521072000F066FC072000F07FFC00221B
:104250000521172000F05EFC172000F077FC00BF5E
:104260002837BD4680BD00BF00380240000802402C
:1042700000000240000402400000311080B582B00E
:1042800000AF78607B681B68044A934201D100F05C
:1042900047FB00BF0837BD4680BD00BF001000408F
:1042A00080B400AF00BFBD465DF8047B70470000DE
:1042B00080B582B000AF00237B60124B5B6C114A6B
:1042C00043F4804353640F4B5B6C03F480437B6087
:1042D0007B6800233B600B4B1B6C0A4A43F0805306
:1042E0001364084B1B6C03F080533B603B68002257
:1042F0000F216FF0010000F00DFC00BF0837BD4634
:1043000080BD00BF0038024080B58CB000AF78603F
:1043100007F11C0300221A605A609A60DA601A6181
:104320007B681B68424A93422DD10023BB61414BFD
:104330001B6B404A43F0020313633E4B1B6B03F0BD
:104340000203BB61BB694FF44073FB6112233B6204
:1043500001237B620323BB620423FB6207F11C037E
:104360001946354800F000FC00237B61314B1B6C83
:10437000304A43F4001313642E4B1B6C03F40013F8
:104380007B617B6950E07B681B682C4A93424BD170
:1043900000233B61274B1B6B264A43F00403136346
:1043A000244B1B6B03F004033B613B690023FB6060
:1043B000204B1B6B1F4A43F0010313631D4B1B6B08
:1043C00003F00103FB60FB684FF40073FB611223F1
:1043D0003B6201237B620323BB620423FB6207F180
:1043E0001C031946164800F0BFFB4FF48073FB61B5
:1043F00012233B6201237B620323BB620423FB6223
:1044000007F11C0319460F4800F0AEFB0023BB6008
:10441000084B1B6C074A43F400031364054B1B6CE9
:1044200003F40003BB60BB6800BF3037BD4680BDEE
:10443000005400400038024000040240005C00408C
:10444000000802400000024080B58EB000AF7860E6
:1044500007F1240300221A605A609A60DA601A6138
:104460007B681B684C4A93422CD100233B624B4B28
:104470005B6C4A4A43F480535364484B5B6C03F4CF
:1044800080533B623B6A0023FB61444B1B6B434AF6
:1044900043F001031363414B1B6B03F00103FB610A
:1044A000FB69E0237B620223BB620023FB620323E0
:1044B0003B6305237B6307F124031946384800F06A
:1044C00053FB64E07B681B68364A93422DD100237E
:1044D000BB61324B1B6C314A43F4804313642F4B56
:1044E0001B6C03F48043BB61BB6900237B612B4BD6
:1044F0001B6B2A4A43F002031363284B1B6B03F028
:1045000002037B617B694FF460437B620223BB62E1
:104510000023FB6203233B6305237B6307F1240332
:104520001946214800F020FB31E07B681B681F4AD8
:1045300093422CD100233B61184B1B6C174A43F468
:1045400000431364154B1B6C03F400433B613B6950
:104550000023FB60114B1B6B104A43F004031363F1
:104560000E4B1B6B03F00403FB60FB684FF4E0533E
:104570007B620223BB620023FB6203233B630623AF
:104580007B6307F124031946094800F0EDFA00BFE8
:104590003837BD4680BD00BF0030014000380240C2
:1045A000000002400038004000040240003C00408F
:1045B0000008024080B485B000AF78607B681B685B
:1045C0000B4A93420DD10023FB600A4B1B6C094A36
:1045D00043F008031364074B1B6C03F00803FB60F4
:1045E000FB6800BF1437BD465DF8047B704700BF11
:1045F000000C00400038024080B58EB000AF7860FB
:1046000007F1240300221A605A609A60DA601A6186
:104610007B681B684C4A93422DD100233B624B4B75
:104620005B6C4A4A43F010035364484B5B6C03F0E5
:1046300010033B623B6A0023FB61444B1B6B434A04
:1046400043F001031363414B1B6B03F00103FB6158
:10465000FB694FF4C0637B620223BB620123FB62F0
:1046600003233B6307237B6307F124031946384880
:1046700000F07AFA63E07B681B68364A93422CD1DB
:104680000023BB61314B1B6C304A43F4003313648D
:104690002E4B1B6C03F40033BB61BB6900237B61B1
:1046A0002A4B1B6B294A43F001031363274B1B6BF7
:1046B00003F001037B617B690C237B620223BB62F5
:1046C0000123FB6203233B6307237B6307F124037E
:1046D00019461F4800F048FA31E07B681B681E4A03
:1046E00093422CD100233B61184B1B6C174A43F4B7
:1046F00080231364154B1B6C03F480233B613B69DF
:104700000023FB60114B1B6B104A43F00203136341
:104710000E4B1B6B03F00203FB60FB684FF440631E
:104720007B620223BB620123FB6203233B630723FB
:104730007B6307F124031946084800F015FA00BF0F
:104740003837BD4680BD00BF001001400038024030
:1047500000000240004400400048004000040240C5
:1047600080B58CB000AF78600023FB620023BB6291
:1047700000227968362000F0CDF9362000F0E6F905
:104780000023FB601F4B1B6C1E4A43F01003136495
:104790001C4B1B6C03F01003FB60FB6807F110025D
:1047A00007F114031146184601F0D2FF01F0A8FFEB
:1047B00003465B00FB62FB6A134AA2FB03239B0CCC
:1047C000013BBB62114B124A1A60104B40F2E732B8
:1047D000DA600E4ABB6A53600C4B00221A610B4B25
:1047E00000229A60094802F039FD0346002B04D1EB
:1047F000064802F05EFD034600E00123184630370C
:10480000BD4680BD0038024083DE1B43EC480020DB
:104810000010004080B400AF00BFBD465DF8047BCF
:10482000704780B400AFFEE780B400AFFEE780B40D
:1048300000AFFEE780B400AFFEE780B400AF00BF7A
:10484000BD465DF8047B704780B500AF024802F0BA
:1048500054FD00BF80BD00BFEC48002080B400AF15
:10486000084BD3F88830074A43F47003C2F8883005
:10487000044B4FF000629A6000BFBD465DF8047BB8
:10488000704700BF00ED00E0DFF834D0002103E006
:104890000C4B5B58435004310B480C4B42189A4266
:1048A000F6D30B4A02E0002342F8043B094B9A423C
:1048B000F9D3FFF7D3FF06F0E3F8FEF7D5FA704718
:1048C0000000022080AF0008000000204404002007
:1048D000440400203C490020FEE7000080B500AF02
:1048E0000E4B1B680D4A43F4007313600B4B1B689F
:1048F0000A4A43F480631360084B1B68074A43F479
:1049000080731360032000F0FAF80020FFF728FFFF
:10491000FFF7CEFC0023184680BD00BF003C0240DC
:1049200080B400AF064B1B781A46064B1B68134435
:10493000044A136000BFBD465DF8047B704700BFAA
:10494000080000202C49002080B400AF034B1B68F6
:104950001846BD465DF8047B704700BF2C49002017
:1049600080B584B000AF7860FFF7EEFFB8607B6879
:10497000FB60FB68B3F1FF3F05D0094B1B781A467B
:10498000FB681344FB6000BFFFF7DEFF0246BB6815
:10499000D31AFA689A42F7D800BF1037BD4680BDD7
:1049A0000800002080B485B000AF78607B6803F019
:1049B0000703FB600C4BDB68BB60BA684FF6FF0374
:1049C0001340BB60FB681A02BB68134343F0BF632C
:1049D00043F40033BB60044ABB68D36000BF1437A4
:1049E000BD465DF8047B704700ED00E080B400AF89
:1049F000044BDB681B0A03F007031846BD465DF84D
:104A0000047B704700ED00E080B483B000AF034644
:104A1000FB7197F90730002B0BDBFB7903F01F02CA
:104A2000074997F907305B09012000FA02F241F8C3
:104A3000232000BF0C37BD465DF8047B704700BFE4
:104A400000E100E080B483B000AF03463960FB7141
:104A500097F90730002B0ADB3B68DAB20C4997F96B
:104A600007301201D2B20B4483F800230AE03B68FE
:104A7000DAB20849FB7903F00F03043B1201D2B20A
:104A80000B441A7600BF0C37BD465DF8047B7047B7
:104A900000E100E000ED00E080B489B000AFF86014
:104AA000B9607A60FB6803F00703FB61FB69C3F13F
:104AB0000703042B28BF0423BB61FB690433062BC7
:104AC00002D9FB69033B00E000237B614FF0FF321A
:104AD000BB6902FA03F3DA43BB681A407B699A4068
:104AE0004FF0FF317B6901FA03F3D9437B680B4038
:104AF000134318462437BD465DF8047B704780B5E4
:104B000082B000AF78607868FFF74CFF00BF0837CD
:104B1000BD4680BD80B586B000AF0346B9607A60FF
:104B2000FB7300237B61FFF761FF78617A68B968E6
:104B30007869FFF7B1FF024697F90F301146184622
:104B4000FFF780FF00BF1837BD4680BD80B582B03B
:104B500000AF0346FB7197F907301846FFF754FF83
:104B600000BF0837BD4680BD80B489B000AF786013
:104B7000396000237B6100233B610023BB6100237C
:104B8000FB616BE10122FB6902FA03F37B613B6885
:104B90001B687A6913403B613A697B699A4240F02D
:104BA0005A813B685B68012B0BD03B685B68022B2A
:104BB00007D03B685B68112B03D03B685B68122B06
:104BC00030D17B689B68BB61FB695B00032202FA02
:104BD00003F3DB43BA691340BB613B68DA68FB69E6
:104BE0005B0002FA03F3BA691343BB617B68BA69DD
:104BF0009A607B685B68BB610122FB6902FA03F380
:104C0000DB43BA691340BB613B685B681B0903F077
:104C10000102FB6902FA03F3BA691343BB617B68C3
:104C2000BA695A607B68DB68BB61FB695B00032281
:104C300002FA03F3DB43BA691340BB613B689A682D
:104C4000FB695B0002FA03F3BA691343BB617B683B
:104C5000BA69DA603B685B68022B03D03B685B682B
:104C6000122B23D1FB69DA087B68083253F8223013
:104C7000BB61FB6903F007039B000F2202FA03F3F9
:104C8000DB43BA691340BB613B681A69FB6903F0F7
:104C900007039B0002FA03F3BA691343BB61FB6984
:104CA000DA087B680832B96943F822107B681B6810
:104CB000BB61FB695B00032202FA03F3DB43BA69C1
:104CC0001340BB613B685B6803F00302FB695B0058
:104CD00002FA03F3BA691343BB617B68BA691A60CD
:104CE0003B685B6803F08053002B00F0B480002326
:104CF000FB605F4B5B6C5E4A43F4804353645C4BE8
:104D00005B6C03F48043FB60FB685A4AFB699B08B9
:104D1000023352F82330BB61FB6903F003039B00AD
:104D20000F2202FA03F3DB43BA691340BB617B68CD
:104D3000514A93422BD07B68504A934225D07B68DE
:104D40004F4A93421FD07B684E4A934219D07B68EA
:104D50004D4A934213D07B684C4A93420DD07B68F6
:104D60004B4A934207D07B684A4A934201D10723BA
:104D70000EE008230CE006230AE0052308E00423E4
:104D800006E0032304E0022302E0012300E0002305
:104D9000FA6902F0030292009340BA691343BB61BF
:104DA0003449FB699B080233BA6941F823203A4B26
:104DB0001B68BB613B69DB43BA691340BB613B685D
:104DC0005B6803F48033002B03D0BA693B6913435B
:104DD000BB61314ABB6913602F4B5B68BB613B69A8
:104DE000DB43BA691340BB613B685B6803F4003383
:104DF000002B03D0BA693B691343BB61264ABB69E8
:104E00005360254B9B68BB613B69DB43BA69134028
:104E1000BB613B685B6803F48013002B03D0BA6965
:104E20003B691343BB611C4ABB6993601A4BDB6847
:104E3000BB613B69DB43BA691340BB613B685B689C
:104E400003F40013002B03D0BA693B691343BB6121
:104E5000114ABB69D360FB690133FB61FB690F2B0E
:104E60007FF690AE00BF2437BD465DF8047B7047E7
:104E700000380240003801400000024000040240B7
:104E800000080240000C02400010024000140240E2
:104E900000180240001C0240003C014080B483B076
:104EA00000AF78600B467B8013467B707B78002BCD
:104EB00003D07A887B689A6103E07B881A047B6858
:104EC0009A6100BF0C37BD465DF8047B704780B423
:104ED00083B000AF78600B467B807B685A697B8823
:104EE0001A407B889A4204D17B881A047B689A61B5
:104EF00002E07A887B689A6100BF0C37BD465DF896
:104F0000047B704780B582B000AF0346FB80084B3E
:104F10005A69FB881340002B06D0054AFB88536171
:104F2000FB88184600F006F800BF0837BD4680BD74
:104F3000003C014080B483B000AF0346FB8000BF5B
:104F40000C37BD465DF8047B7047000080B584B027
:104F500000AF78607B68002B01D101231FE17B68E3
:104F600093F83D30DBB2002B06D17B68002283F83A
:104F70003C207868FFF7C8F97B68242283F83D203D
:104F80007B681B681A687B681B6822F001021A6044
:104F90007B681B681A687B681B6842F400421A60D1
:104FA0007B681B681A687B681B6822F400421A60E1
:104FB00001F0A6FBF8607B685B687B4A934207D8E8
:104FC000FB687A4A934294BF01230023DBB206E0D8
:104FD000FB68774A934294BF01230023DBB2002B86
:104FE00001D00123DBE0FB68724AA2FB03239B0C88
:104FF000BB607B681B685B6823F03F017B681B68B4
:10500000BA680A435A607B681B681B6A23F03F0139
:105010007B685B68644A934202D8BB68013309E04D
:10502000BB684FF4967202FB03F3634AA2FB0323AF
:105030009B0901337A6812680B4313627B681B6813
:10504000DB6923F44F4222F0FF027B685B6856491C
:105050008B420DD8FB68591E7B685B685B00B1FB17
:10506000F3F30133C3F30B03042B38BF04234FE0E6
:105070007B689B68002B11D1FB68581E7B685968C0
:105080000B465B000B44B0FBF3F30133C3F30B039C
:10509000002B0CBF01230023DBB212E0FB68581E7B
:1050A0007B6859680B469B000B4499000B44B0FB8E
:1050B000F3F30133C3F30B03002B0CBF01230023D5
:1050C000DBB2002B01D0012322E07B689B68002B20
:1050D0000ED1FB68581E7B6859680B465B000B4479
:1050E000B0FBF3F30133C3F30B0343F400430FE0CE
:1050F000FB68581E7B6859680B469B000B4499005F
:105100000B44B0FBF3F30133C3F30B0343F440430D
:10511000796809681343CB617B681B681B6823F0BF
:10512000C0017B68DA697B681B6A1A437B681B686D
:105130000A431A607B681B689B6823F4034323F0CF
:10514000FF037A6811697A68D26811437A68126835
:105150000B4393607B681B68DB6823F0FF017B686F
:105160005A697B689B691A437B681B680A43DA604B
:105170007B681B681A687B681B6842F001021A6032
:105180007B6800221A647B68202283F83D207B68BC
:1051900000221A637B68002283F83E200023184611
:1051A0001037BD4680BD00BFA08601007F841E0071
:1051B000FF083D0083DE1B43D34D621080B588B0ED
:1051C00002AFF8607A601A460B467B8113463B813A
:1051D000FFF7BAFB7861FB6893F83D30DBB2202B18
:1051E00040F0E0807B690093192301227049F86840
:1051F00000F070FC0346002B01D00223D3E0FB68D3
:1052000093F83C30012B01D10223CCE0FB68012252
:1052100083F83C20FB681B681B6803F00103012B2B
:1052200007D0FB681B681A68FB681B6842F0010224
:105230001A60FB681B681A68FB681B6822F400622E
:105240001A60FB68212283F83D20FB68102283F856
:105250003E20FB6800221A64FB687A685A62FB6889
:105260003A895A85FB685B8D9AB2FB681A85FB68A0
:10527000504ADA6279897B693A6AF86800F0C2FAC2
:105280000346002B01D001238DE000233B61FB6826
:105290001B685B693B61FB681B689B693B613B6901
:1052A00066E07A69396AF86800F0EAFC0346002B88
:1052B0000DD0FB681B6C042B07D1FB681B681A68B8
:1052C000FB681B6842F400721A6001236BE0FB6804
:1052D0005B6A1A78FB681B681A61FB685B6A5A1C78
:1052E000FB685A62FB685B8D9BB2013B9AB2FB681C
:1052F0005A85FB681B8D013B9AB2FB681A85FB68D7
:105300001B685B6903F00403042B1BD1FB681B8D36
:10531000002B17D0FB685B6A1A78FB681B681A6160
:10532000FB685B6A5A1CFB685A62FB685B8D9BB228
:10533000013B9AB2FB685A85FB681B8D013B9AB210
:10534000FB681A857A69396AF86800F0DAFC034666
:10535000002B0DD0FB681B6C042B07D1FB681B686E
:105360001A68FB681B6842F400721A6001231AE095
:10537000FB681B8D002B94D1FB681B681A68FB68C7
:105380001B6842F400721A60FB68202283F83D20FB
:10539000FB68002283F83E20FB68002283F83C2053
:1053A000002300E0022318461837BD4680BD00BF29
:1053B000020010000000FFFF80B58CB002AFF86063
:1053C000084611461A4603467B810B463B8113462D
:1053D000FB80FFF7B9FA7862FB6893F83D30DBB2E7
:1053E000202B40F008827B6A0093192301227B491D
:1053F000F86800F06FFB0346002B01D00223FBE1AD
:10540000FB6893F83C30012B01D10223F4E1FB68E7
:10541000012283F83C20FB681B681B6803F0010332
:10542000012B07D0FB681B681A68FB681B6842F0F9
:1054300001021A60FB681B681A68FB681B6822F48B
:1054400000621A60FB68222283F83D20FB6840223C
:1054500083F83E20FB6800221A64FB683A6B5A62AC
:10546000FB68BA8E5A85FB685B8D9AB2FB681A8519
:10547000FB685B4ADA62F8883A8979897B6A01932A
:10548000BB6B00930346F86800F03EFA0346002B1E
:1054900001D00123B0E1FB681B8D002B13D1002349
:1054A0003B62FB681B685B693B62FB681B689B692E
:1054B0003B623B6AFB681B681A68FB681B6842F426
:1054C00000721A6084E1FB681B8D012B1BD1FB6805
:1054D0001B681A68FB681B6822F480621A6000234C
:1054E000FB61FB681B685B69FB61FB681B689B6970
:1054F000FB61FB69FB681B681A68FB681B6842F468
:1055000000721A6064E1FB681B8D022B1BD1FB68E3
:105510001B681A68FB681B6822F480621A60FB68CB
:105520001B681A68FB681B6842F400621A6000235B
:10553000BB61FB681B685B69BB61FB681B689B699F
:10554000BB61BB6944E100237B61FB681B685B694D
:105550007B61FB681B689B697B617B6938E1FB6849
:105560001B8D032B00F2F180FB681B8D012B23D1D7
:105570007A6AB96BF86800F005FC0346002B01D08D
:10558000012339E1FB681B681A69FB685B6AD2B2C8
:105590001A70FB685B6A5A1CFB685A62FB681B8DB9
:1055A000013B9AB2FB681A85FB685B8D9BB2013B9D
:1055B0009AB2FB685A850BE1FB681B8D022B4ED11A
:1055C0007B6A0093BB6B00220649F86800F082FA00
:1055D0000346002B08D001230EE100BF020010009B
:1055E0000000FFFF04000100FB681B681A68FB68ED
:1055F0001B6842F400721A60FB681B681A69FB683A
:105600005B6AD2B21A70FB685B6A5A1CFB685A620A
:10561000FB681B8D013B9AB2FB681A85FB685B8DAA
:105620009BB2013B9AB2FB685A85FB681B681A69FA
:10563000FB685B6AD2B21A70FB685B6A5A1CFB6833
:105640005A62FB681B8D013B9AB2FB681A85FB68A6
:105650005B8D9BB2013B9AB2FB685A85B8E07B6ACE
:105660000093BB6B00226649F86800F033FA0346EA
:10567000002B01D00123BFE0FB681B681A68FB68A0
:105680001B6822F480621A60FB681B681A69FB6859
:105690005B6AD2B21A70FB685B6A5A1CFB685A627A
:1056A000FB681B8D013B9AB2FB681A85FB685B8D1A
:1056B0009BB2013B9AB2FB685A857B6A0093BB6B35
:1056C00000224F49F86800F005FA0346002B01D08C
:1056D000012391E0FB681B681A68FB681B6842F4B1
:1056E00000721A60FB681B681A69FB685B6AD2B2B9
:1056F0001A70FB685B6A5A1CFB685A62FB681B8D58
:10570000013B9AB2FB681A85FB685B8D9BB2013B3B
:105710009AB2FB685A85FB681B681A69FB685B6A6A
:10572000D2B21A70FB685B6A5A1CFB685A62FB684B
:105730001B8D013B9AB2FB681A85FB685B8D9BB29F
:10574000013B9AB2FB685A8542E07A6AB96BF86805
:1057500000F018FB0346002B01D001234CE0FB684E
:105760001B681A69FB685B6AD2B21A70FB685B6AD5
:105770005A1CFB685A62FB681B8D013B9AB2FB689E
:105780001A85FB685B8D9BB2013B9AB2FB685A8518
:10579000FB681B685B6903F00403042B18D1FB68EA
:1057A0001B681A69FB685B6AD2B21A70FB685B6A95
:1057B0005A1CFB685A62FB681B8D013B9AB2FB685E
:1057C0001A85FB685B8D9BB2013B9AB2FB685A85D8
:1057D000FB681B8D002B7FF4C2AEFB68202283F890
:1057E0003D20FB68002283F83E20FB68002283F8FE
:1057F0003C20002300E0022318462837BD4680BD28
:105800000400010080B588B002AFF8607A603B60A8
:105810000B467B81FB68DB6A7B617B69082B06D0CA
:105820007B69012B03D07B6913F5803F08D1FB68AE
:105830001B681A68FB681B6842F480721A600BE0F0
:10584000FB681B6B122B07D1FB681B681A68FB688F
:105850001B6842F480721A603B6800937B680022E8
:105860004FF00111F86800F035F90346002B0CD019
:10587000FB681B681B6803F48073002B03D0FB6874
:105880004FF400721A64032335E0FB681B69B3F51B
:10589000804F08D17B89DBB21A46FB681B6802F097
:1058A000FE021A611BE07B89DB11DBB203F0060309
:1058B000DBB263F00F03DAB2FB681B681A613B6866
:1058C0007A680F49F86800F05CF90346002B01D0B4
:1058D000012310E07B89DAB2FB681B681A613B6820
:1058E0007A680849F86800F04CF90346002B01D0AB
:1058F000012300E0002318461837BD4680BD00BFD5
:10590000080001000200010080B588B002AFF86015
:10591000084611461A4603467B810B463B811346D7
:10592000FB80FB681B681A68FB681B6842F4806296
:105930001A60FB681B681A68FB681B6842F4807277
:105940001A607B6A00933B6A00224FF00111F868ED
:1059500000F0C0F80346002B0CD0FB681B681B68E6
:1059600003F48073002B03D0FB684FF400721A64B9
:105970000323A9E07B89DBB21A46FB681B6802F0AF
:10598000FE021A617B6A3A6A5149F86800F0F9F838
:105990000346002B01D0012396E000237B61FB68C6
:1059A0001B685B697B61FB681B689B697B617B692A
:1059B0007A6A396AF86800F063F90346002B0DD063
:1059C000FB681B6C042B07D1FB681B681A68FB681B
:1059D0001B6842F400721A60012375E0FB88012BFA
:1059E00005D13B89DAB2FB681B681A6121E03B896B
:1059F0001B0A9BB2DAB2FB681B681A617A6A396AC1
:105A0000F86800F03DF90346002B0DD0FB681B6CD5
:105A1000042B07D1FB681B681A68FB681B6842F4FB
:105A200000721A6001234FE03B89DAB2FB681B6801
:105A30001A617A6A396AF86800F022F90346002B85
:105A40000DD0FB681B6C042B07D1FB681B681A6820
:105A5000FB681B6842F400721A60012334E0FB68A3
:105A60001B681A68FB681B6842F480721A607B6AC4
:105A700000933B6A00224FF00111F86800F02AF809
:105A80000346002B0CD0FB681B681B6803F4807373
:105A9000002B03D0FB684FF400721A64032313E059
:105AA0007B89DBB243F00103DAB2FB681B681A6141
:105AB0007B6A3A6A0649F86800F063F80346002BEF
:105AC00001D0012300E0002318461837BD4680BDF1
:105AD0000200010080B584B000AFF860B9603B609F
