:020000040800F2
:1000000000000824251E0008AD1C0008BB1C0008C9
:10001000C11C0008C71C0008CD1C0008000000001F
:10002000000000000000000000000000D31C0008D9
:10003000E11C000800000000EF1C0008FD1C000887
:10004000751E0008751E0008751E0008751E000844
:10005000751E0008751E0008751E0008751E000834
:10006000751E0008751E0008751E0008751E000824
:10007000751E0008751E0008751E0008751E000814
:10008000751E0008751E0008751E0008751E000804
:10009000751E0008751E0008751E0008751E0008F4
:1000A000751E0008751E0008751E0008751E0008E4
:1000B000751E0008751E0008751E0008751E0008D4
:1000C000751E0008751E0008751E0008751E0008C4
:1000D000751E0008751E0008751E0008751E0008B4
:1000E000751E0008751E000800000000751E00083F
:1000F000751E0008751E0008751E0008751E000894
:10010000751E0008751E0008751E0008751E000883
:10011000751E0008751E0008751E0008751E000873
:10012000751E0008751E0008751E0008751E000863
:10013000751E0008751E0008751E0008751E000853
:1001400000000000000000000000000000000000AF
:10015000751E0008751E0008751E0008751E000833
:10016000751E0008751E0008751E0008751E000823
:10017000751E0008751E0008751E0008751E000813
:10018000751E0008751E0008751E0008751E000803
:10019000751E0008751E0008751E0008751E0008F3
:1001A000751E0008751E0008751E0008751E0008E3
:1001B000751E0008751E0008751E0008751E0008D3
:1001C000751E0008751E0008751E0008751E0008C3
:1001D000751E0008751E0008751E0008751E0008B3
:1001E000751E0008751E0008751E0008751E0008A3
:1001F000751E0008751E0008751E0008751E000893
:10020000751E0008751E0008751E0008751E000882
:10021000751E0008751E0008751E0008751E000872
:10022000751E0008751E0008751E000800000000FD
:10023000751E0008751E000800000000751E0008ED
:10024000751E0008751E0008751E0008751E000842
:10025000751E0008751E0008751E0008751E000832
:10026000751E0008751E0008751E0008751E000822
:10027000751E0008751E0008751E000800000000AD
:10028000751E0008751E0008751E0008000000009D
:0802900000000000751E0008CB
:1002A00010B5054C237833B9044B13B10448AFF3B0
:1002B00000800123237010BDE00100240000000035
:1002C00080BB000808B5034B1BB103490348AFF3DB
:1002D000008008BD00000000E401002480BB00088D
:1002E000034613F8012B002AFBD1181A0138704776
:1002F00001F0FF01102A2BDB10F0070F08D010F8D7
:10030000013B013A8B422DD010F0070F42B3F6D1DA
:10031000F0B441EA012141EA014122F007047FF0F3
:1003200000070023F0E80256083C85EA010586EA4A
:10033000010685FA47F5A3FA87F586FA47F6A5FA86
:1003400087F68EB9EED1F0BC01F0FF0102F0070292
:1003500032B110F8013B013A83EA010313B1F8D13D
:100360000020704701387047002D06BF354603381E
:10037000073815F0010F07D1013015F4807F02BF57
:10038000013015F4C03F0130F0BC0138704700BFA8
:1003900053B94AB9002908BF00281CBF4FF0FF31EC
:1003A0004FF0FF3000F072B9ADF1080C6DE904CEEA
:1003B00000F006F8DDF804E0DDE9022304B0704740
:1003C0002DE9F047089E04468846002B4BD18A420F
:1003D000154667D9B2FA82F24AB1C2F1200701FA92
:1003E00002F320FA07F7954047EA030894404FEAE2
:1003F000154E230CB8FBFEF71FFA85FC0EFB178881
:1004000043EA084307FB0CF1994209D9EB1807F1BD
:10041000FF3080F01B81994240F21881023F2B444B
:100420005B1AA4B2B3FBFEF00EFB103344EA0344A4
:1004300000FB0CFCA44509D92C1900F1FF3380F016
:100440000781A44540F2048102382C4440EA074069
:10045000A4EB0C0400271EB1D4400023C6E90043DE
:100460003946BDE8F0878B4209D9002E00F0EB80B9
:100470000027C6E9000138463946BDE8F087B3FADF
:1004800083F7002F47D18B4202D3824200F2FA80D9
:10049000841A61EB030301209846002EE0D0C6E9E0
:1004A0000048DDE702B9FFDEB2FA82F2002A40F02E
:1004B0008F80491B4FEA154E1FFA85F80127B1FBC3
:1004C000FEFC230C0EFB1C1143EA014308FB0CF15C
:1004D000994207D9EB180CF1FF3002D2994200F291
:1004E000CD808446591AA3B2B1FBFEF00EFB101466
:1004F00043EA044408FB00F8A04507D92C1900F191
:10050000FF3302D2A04500F2B6801846A4EB0804DF
:1005100040EA0C409FE7C7F1200CBB4022FA0CFEDA
:100520004EEA030E01FA07F420FA0CF521FA0CF357
:100530004FEA1E482543B3FBF8F92C0C08FB19338E
:100540001FFA8EFA44EA034309FB0AF49C4202FABA
:1005500007F200FA07F10BD91EEB030309F1FF3094
:1005600080F087809C4240F28480A9F102097344A4
:100570001B1BADB2B3FBF8F008FB103345EA034494
:1005800000FB0AFAA24508D91EEB040400F1FF3370
:100590006BD2A24569D90238744440EA0940A0FBF5
:1005A0000289A4EB0A044C45C2464B4654D351D0B1
:1005B000002E69D0B1EB0A0564EB030404FA0CFCCD
:1005C000FD40FC404CEA0505C6E90054002747E71A
:1005D000C2F1200320FA03F7954001FA02F021FA54
:1005E00003F34FEA154E3843010CB3FBFEF71FFA35
:1005F00085F80EFB173341EA034107FB08F38B42F2
:1006000004FA02F407D9691807F1FF3C2FD28B4294
:100610002DD9023F2944CB1A81B2B3FBFEF00EFB69
:10062000103341EA034100FB08F38B4207D96918F4
:1006300000F1FF3C17D28B4215D902382944C91A60
:1006400040EA07473BE73746304609E70746E7E613
:100650001846FBE64145ABD2B8EB020A69EB0E0245
:1006600001381346A4E76046E9E7184695E7674670
:10067000D1E781467CE702382C4447E7ACF1020C15
:100680002B442FE7384608E73746E9E6704700BFB6
:1006900080B584B000AF786039607B683A681A60D2
:1006A0007B684FF000025A607B684FF000029A604E
:1006B0007B684FF00002DA607B684FF000021A613D
:1006C0007B684FF420429A827B680A22DA827B6838
:1006D00002221A837B689B8A1A460521786800F0FB
:1006E00075F843F29F13FB81FB891A460021786855
:1006F00000F06CF800BF1037BD4680BD80B584B0F7
:1007000000AF786007F10C031A460221786800F008
:100710007DF8BB89DB089BB29B009BB2FB81B7F9DC
:100720000E3007EE903AF8EEE77A7B68C3ED027A76
:1007300007F10C031A460121786800F067F8BB89BD
:100740001BB207EE903AF8EEE77A9FED1F7A67EE5C
:10075000877A7B68C3ED037A7B689B8A1A460521FA
:10076000786800F033F807F10C031A460421786822
:1007700000F04CF8BB891BB207EE903AF8EEE76A3E
:100780007B68DB8A07EE903AB8EE677AC6EE877A26
:100790007B68C3ED017A07F10C031A4603217868E0
:1007A00000F034F8BB891BB21A467B681B8B03FB35
:1007B00002F307EE903AF8EEE77A7B68C3ED047A2D
:1007C00000BF1037BD4680BD0AD7233C80B586B038
:1007D00002AF78600B46FB7013463B80FB783B739F
:1007E0003B881B0A9BB2DBB27B733B88DBB2BB73DB
:1007F0007B68186807F10C026423009303238021AF
:1008000002F098FE00BF1037BD4680BD80B58AB0AB
:1008100004AFF8600B467A60FB72FB681868FB7ADD
:100820009AB2642302930223019307F11403009305
:100830000123802102F072FF3B7D1B021AB27B7DF7
:100840001BB213431BB29AB27B681A8000BF1837E1
:10085000BD4680BD80B58AB004AFF860B96013466C
:10086000FB71FB68BA681A60FB7907EE903AF8EE04
:10087000E77A9FED4B7A27EE877ADFED4A6AC6EE7C
:10088000877AB6EE007A77EE877AB7EE007A77EE5F
:10089000C77AFCEEE77AC7ED007A3B68DAB2FB680C
:1008A0001A7100233B7580237B75FB68186807F17C
:1008B0001402642300930223822102F03BFE0A20EB
:1008C00001F068FBFB68186864230293012301931D
:1008D00007F11303009301230022822102F01EFF7F
:1008E00000233B75FB7C5BB203F06F035BB243F00C
:1008F00010035BB2DBB27B75FB68186807F114026A
:10090000642300930223822102F014FEFE233B7530
:10091000FB681B797B75FB68186807F11402642378
:1009200000930223822102F005FE00233B75FB7C2D
:100930007B75052001F02EFBFB7C63F05F03DBB2CF
:100940007B75FB68186807F1140264230093022387
:10095000822102F0EFFDFB681868642302930123F3
:10096000019307F11303009301230122822102F076
:10097000D5FEFB7C43F00403DBB2FB7401233B7523
:10098000FB7C7B75FB68186807F1140264230093F5
:100990000223822102F0CEFD00BF1837BD4680BD84
:1009A0000000804520BCBE4B80B582B000AF7860AF
:1009B0000B46FB7013463B803B88B3F5805F02D348
:1009C00040F6FF733B803B8840F6FF72934207D1AD
:1009D000F97800234FF48052786800F038F810E07E
:1009E0003B88002B07D1F9784FF4805300227868B8
:1009F00000F02DF805E03B88F9780022786800F0D7
:100A000026F8FB787A685B0013443A88DA8000BFE6
:100A10000837BD4680BD80B584B000AF7860002344
:100A2000FB600DE0FB68D9B27A68FB685B00134499
:100A3000DB881A467868FFF7B7FFFB680133FB6075
:100A4000FB68072BEEDD00BF1037BD4680BD80B5CB
:100A500088B002AFF860084611461A460346FB729A
:100A60000B463B811346FB80FB7A9B00DBB20633CF
:100A7000DBB23B743B89DBB27B743B891B0A9BB2C4
:100A8000DBB2BB74FB88DBB2FB74FB881B0A9BB236
:100A9000DBB23B75FB68186807F110026423009312
:100AA0000523822102F046FD00BF1837BD4680BDF8
:100AB00080B582B000AF78607868FFF711FC03461C
:100AC0009AB24FF0FF337968034806F0D9FB00BFB4
:100AD0000837BD4680BD00BFC404002480B5B2B055
:100AE00008AF01F0C9F900F0E3F800F041FD00F0B3
:100AF000D7F900F037FA00F075FA00F0B3FA00F019
:100B0000F1FA00F045FB00F0B7FB00F001FC00F04B
:100B10004BFC00F095FC00F0DFFC60496048FFF7FB
:100B2000B7FD32225D495F48FFF794FE0023C7F806
:100B3000A4300023C7F8A0300023C7F89C3000235E
:100B4000C7F898306423C7F88C304FF4FA73C7F8AD
:100B500088304FF47A73C7F88430FA23C7F88030AE
:100B60000023A7F8963001F009FA0246D7F8A4301E
:100B7000D31AD7F88C209A4209D84948FFF7BEFD0E
:100B8000D7F8A420D7F88C301344C7F8A43001F06C
:100B9000F5F90246D7F8A030D31AD7F888209A4240
:100BA0002CD80023C7F890300CE03E4AD7F890309C
:100BB0005B001344B7F89620DA80D7F89030013301
:100BC000C7F89030D7F89030072BEEDDB7F89630A5
:100BD00003F58073A7F896303248FFF71CFFB7F88B
:100BE0009630B3F5805F02D90023A7F89630D7F886
:100BF000A020D7F888301344C7F8A03001F0BEF920
:100C00000246D7F89C30D31AD7F884209A420AD8E3
:100C10000121254802F0E3FBD7F89C20D7F8843067
:100C20001344C7F89C3001F0A9F90246D7F8983070
:100C3000D31AD7F880209A4295D801F09FF902463E
:100C4000174BD3ED027AB7EEE77A154BD3ED036A73
:100C5000B7EEE66A124BD3ED015AB7EEE55A104BE8
:100C6000D3ED044AB7EEE44A3B468DED064B8DEDDD
:100C7000045B8DED026B8DED007B0C49184609F08D
:100C80000BFC3B461846FFF713FFD7F89820D7F820
:100C900080301344C7F8983065E700BF6C03002428
:100CA000B8030024DC0500240004025898BB0008A7
:100CB00080B5CCB000AF07F1E4034C220021184608
:100CC00008F0A6FF07F1C40320220021184608F00F
:100CD0009FFF07F108031846BC231A46002108F0BD
:100CE00097FF022003F094F83B1D00221A60684B26
:100CF0009B69674A43F440439361654B9B6903F4E6
:100D000040423B1D1A60634BDB6A624A43F00103B9
:100D1000D362604BDB6A03F001023B1D1A603B1D8E
:100D20001B6800BF5A4B9B6903F40053B3F5005F87
:100D3000F8D1594B9B6A23F00303574A43F002034F
:100D400093620323C7F8E4304FF48033C7F8E830E8
:100D50000123C7F8F0302023C7F8F4300223C7F886
:100D600008310223C7F80C310223C7F81031482399
:100D7000C7F814310223C7F818310223C7F81C3111
:100D80000223C7F820310C23C7F824310023C7F809
:100D900028310023C7F82C3107F1E403184603F08B
:100DA0006FF80346002B01D000F08AFC3F23C7F800
:100DB000C4300323C7F8C8300023C7F8CC30082359
:100DC000C7F8D0304023C7F8D4304023C7F8D83014
:100DD0004FF48063C7F8DC304023C7F8E03007F1F8
:100DE000C4030321184603F003FC0346002B01D083
:100DF00000F066FC07F10803284A1A6007F10803AF
:100E000002225A6007F108030C229A6007F10803D6
:100E10000122DA6007F1080302221A6107F10803D0
:100E200002225A6107F10803C0229A6107F1080300
:100E30002022DA6107F1080300221A6207F1080391
:100E400000221A6507F108034FF48042DA6507F1C2
:100E5000080300225A6707F1080300229A6707F186
:100E600008030022C3F8802007F108030022C3F81A
:100E7000A02007F10803184603F018FF0346002BD3
:100E800001D000F01DFC00BF07F59877BD4680BD7E
:100E90000048025800040058004402580B10088013
:100EA00080B588B000AF3B1D00221A605A609A607E
:100EB000DA601A615A619A61284B294A1A60274BF5
:100EC0004FF440225A60254B00229A60234B0022A7
:100ED000DA60224B04221A61204B00221A751F4B44
:100EE00000225A751D4B01229A611C4B00221A7771
:100EF0001A4B00225A62194B00229A62174B0022A9
:100F0000DA62164B00221A63144B00225A63134B09
:100F1000002283F83820114801F000FA0346002B24
:100F200001D000F0CDFB01237B600623BB600023D2
:100F3000FB6040F2FF733B6104237B610023BB61D4
:100F40003B1D1946054801F089FB0346002B01D0E3
:100F500000F0B6FB00BF2037BD4680BD6004002412
:100F60000060025880B500AF1B4B1C4A1A601A4B38
:100F70001B4A5A60184B00229A60174B0122DA6014
:100F8000154B00221A61144B00225A61124B0022A9
:100F90009A61114B0022DA610F4B00221A620E484F
:100FA00002F038FA0346002B01D000F089FB002143
:100FB000094802F095FE0346002B01D000F080FBAB
:100FC0000021054802F0D7FE0346002B01D000F0B7
:100FD00077FB00BF80BD00BF200300240054004009
:100FE000DD93902080B500AF1B4B1C4A1A601A4B52
:100FF0001B4A5A60184B00229A60174B0122DA6094
:10100000154B00221A61144B00225A61124B002228
:101010009A61114B0022DA610F4B00221A620E48CE
:1010200002F0F8F90346002B01D000F049FB002143
:10103000094802F055FE0346002B01D000F040FBAA
:101040000021054802F097FE0346002B01D000F076
:1010500037FB00BF80BD00BF6C0300240058004078
:10106000DD93902080B500AF1B4B1C4A1A601A4BD1
:101070001B4A5A60184B00229A60174B0122DA6013
:10108000154B00221A61144B00225A61124B0022A8
:101090009A61114B0022DA610F4B00221A620E484E
:1010A00002F0B8F90346002B01D000F009FB002143
:1010B000094802F015FE0346002B01D000F000FBAA
:1010C0000021054802F057FE0346002B01D000F036
:1010D000F7FA00BF80BD00BF08020024005C00409A
:1010E000DD93902080B500AF274B284A1A60264B2D
:1010F0004FF480025A60244B00229A60224B032254
:10110000DA60214B00221A611F4B00225A611E4BEC
:101110004FF080629A611C4B0022DA611A4B002268
:101120001A62194B00225A62174B00229A62164B20
:101130000022DA62144B4FF080425A63124B0022B5
:101140009A63114B0022DA630F4B00221A640E4B94
:1011500000225A640C4B00229A640B4B0022DA6482
:10116000094B00221A65084B00225A65064B0022E3
:101170009A65054805F03AFC0346002B01D000F0C3
:101180009FFA00BF80BD00BFF4050024003001407D
:1011900080B588B000AF07F1140300221A605A60CE
:1011A0009A603B1D00221A605A609A60DA60304BE8
:1011B000304A1A602E4B00225A602D4B00229A6052
:1011C0002B4B0022DA602A4B00221A61284B0022A6
:1011D0009A61274805F01DFD0346002B01D000F061
:1011E0006FFA00237B610023FB6107F114031946AA
:1011F0001F4805F099FF0346002B01D000F060FA6C
:1012000000237B600123BB600023FB6000233B6164
:101210003B1D00221946164805F026FD0346002B0B
:1012200001D000F04DFA3B1D04221946104805F08C
:101230001BFD0346002B01D000F042FA3B1D0822A3
:1012400019460B4805F010FD0346002B01D000F0B5
:1012500037FA3B1D0C221946054805F005FD0346EB
:10126000002B01D000F02CFA00BF2037BD4680BD16
:10127000540200240008004080B500AF224B234AEE
:101280001A60214B4FF4E1325A601F4B00229A60E2
:101290001D4B0022DA601C4B00221A611A4B0C22F3
:1012A0005A61194B00229A61174B0022DA61164BE2
:1012B00000221A62144B00225A62134B00229A62D7
:1012C000114805F08DFF0346002B01D000F0F8F91E
:1012D00000210D4808F08DFB0346002B01D000F0E3
:1012E000EFF90021084808F0C2FB0346002B01D0AB
:1012F00000F0E6F9044808F043FB0346002B01D058
:1013000000F0DEF900BF80BD50050024004C004015
:1013100080B500AF224B234A1A60214B4FF4E132D3
:101320005A601F4B00229A601D4B0022DA601C4B52
:1013300000221A611A4B0C225A61194B00229A6141
:10134000174B0022DA61164B00221A62144B00225E
:101350005A62134B00229A62114805F041FF03467E
:10136000002B01D000F0ACF900210D4808F041FB42
:101370000346002B01D000F0A3F90021084808F033
:1013800076FB0346002B01D000F09AF9044808F0E0
:10139000F7FA0346002B01D000F092F900BF80BDA0
:1013A000D40300240050004080B500AF224B234AF4
:1013B0001A60214B4FF4E1325A601F4B00229A60B1
:1013C0001D4B0022DA601C4B00221A611A4B0C22C2
:1013D0005A61194B00229A61174B0022DA61164BB1
:1013E00000221A62144B00225A62134B00229A62A6
:1013F000114805F0F5FE0346002B01D000F060F91E
:1014000000210D4808F0F5FA0346002B01D000F04A
:1014100057F90021084808F02AFB0346002B01D0A9
:1014200000F04EF9044808F0ABFA0346002B01D057
:1014300000F046F900BF80BDC40400240010014044
:1014400080B500AF224B234A1A60214B4FF4E132A2
:101450005A601F4B00229A601D4B0022DA601C4B21
:1014600000221A611A4B0C225A61194B00229A6110
:10147000174B0022DA61164B00221A62144B00222D
:101480005A62134B00229A62114805F0A9FE0346E6
:10149000002B01D000F014F900210D4808F0A9FA42
:1014A0000346002B01D000F00BF90021084808F09A
:1014B000DEFA0346002B01D000F002F9044808F0E0
:1014C0005FFA0346002B01D000F0FAF800BF80BDA0
:1014D0007C0600240044004080B500AF224B234A24
:1014E0001A60214B4FF4E1325A601F4B00229A6080
:1014F0001D4B0022DA601C4B00221A611A4B0C2291
:101500005A61194B00229A61174B0022DA61164B7F
:1015100000221A62144B00225A62134B00229A6274
:10152000114805F05DFE0346002B01D000F0C8F81D
:1015300000210D4808F05DFA0346002B01D000F0B1
:10154000BFF80021084808F092FA0346002B01D0AA
:1015500000F0B6F8044808F013FA0346002B01D057
:1015600000F0AEF800BF80BD9402002400480040A7
:1015700080B58AB000AF07F1140300221A605A60E8
:101580009A60DA601A614A4BD3F8E030484A43F077
:101590008003C2F8E030464BD3F8E03003F080031C
:1015A0003B613B69424BD3F8E030414A43F00403CE
:1015B000C2F8E0303E4BD3F8E03003F00403FB60A8
:1015C000FB683B4BD3F8E030394A43F00103C2F8E3
:1015D000E030374BD3F8E03003F00103BB60BB6869
:1015E000334BD3F8E030324A43F00203C2F8E03024
:1015F0002F4BD3F8E03003F002037B607B682C4B69
:10160000D3F8E0302A4A43F00803C2F8E030284B10
:10161000D3F8E03003F008033B603B680022102160
:10162000244801F0C3FE00223F21234801F0BEFE02
:1016300000220F21214801F0B9FE10237B61012314
:10164000BB610023FB6100233B6207F114031946D1
:10165000184801F0FBFC3F237B610123BB610023A1
:10166000FB6100233B6207F114031946124801F0A5
:10167000EDFC0F237B610123BB610023FB61002391
:101680003B6207F1140319460C4801F0DFFCF0231C
:101690007B610023BB610023FB6107F11403194642
:1016A000064801F0D3FC00BF2837BD4680BD00BF0F
:1016B000004402580000025800040258000C02586E
:1016C00080B400AF00BFBD465DF8047B70470000EA
:1016D00080B483B000AF0A4BD3F8F430084A43F02B
:1016E0000203C2F8F430064BD3F8F43003F00203DF
:1016F0007B607B6800BF0C37BD465DF8047B70479C
:101700000044025880B584B000AF78607B681B68E5
:10171000184A934229D1184BD3F8E030164A43F0C7
:101720008073C2F8E030144BD3F8E03003F08073DC
:10173000FB60FB68104BD3F8E0300F4A43F0040322
:10174000C2F8E0300C4BD3F8E03003F00403BB6088
:10175000BB684FF080614FF0806000F049FC4FF0B3
:1017600000614FF0006000F043FC00BF1037BD4641
:1017700080BD00BF006002580044025880B58EB0A2
:1017800000AF786007F1240300221A605A609A6063
:10179000DA601A617B681B685F4A93422ED15F4B07
:1017A000D3F8E0305D4A43F00203C2F8E0305B4B0F
:1017B000D3F8E03003F002033B623B6AC0237B6254
:1017C0001223BB620023FB6200233B6304237B6381
:1017D00007F124031946524801F038FC4F4BD3F867
:1017E000E8304E4A43F40013C2F8E8304B4BD3F8CC
:1017F000E83003F40013FB61FB6988E07B681B6839
:10180000484A93422FD1454BD3F8E030434A43F046
:101810000203C2F8E030414BD3F8E03003F002039A
:10182000BB61BB694FF440637B621223BB62002340
:10183000FB6200233B6304237B6307F12403194607
:10184000374801F003FC354BD3F8E830334A43F412
:101850008003C2F8E830314BD3F8E83003F480035A
:101860007B617B6953E07B681B682F4A93424ED1B2
:101870002A4BD3F8E030294A43F00403C2F8E030A1
:10188000264BD3F8E03003F004033B613B69234B64
:10189000D3F8E030214A43F00103C2F8E0301F4B97
:1018A000D3F8E03003F00103FB60FB684FF40073F2
:1018B0007B621223BB620023FB6200233B63042391
:1018C0007B6307F124031946184801F0BFFB4FF46E
:1018D00080737B621223BB620023FB6200233B63A5
:1018E00004237B6307F124031946114801F0AEFB82
:1018F0000A4BD3F8E830094A43F40003C2F8E83051
:10190000064BD3F8E83003F40003BB60BB6800BFAC
:101910003837BD4680BD00BF005400400044025827
:101920000004025800580040005C004000080258C3
:101930000000025880B58AB000AF786007F1140348
:1019400000221A605A609A60DA601A617B681B682C
:101950001A4A93422DD11A4BD3F8F030184A43F467
:101960008053C2F8F030164BD3F8F03003F48053B4
:101970003B613B69124BD3F8E030114A43F001035D
:10198000C2F8E0300E4BD3F8E03003F00103FB6007
:10199000FB68E0237B610223BB610023FB61002322
:1019A0003B6205237B6207F114031946054801F0E9
:1019B0004DFB00BF2837BD4680BD00BF0030014051
:1019C000004402580000025880B58AB000AF786029
:1019D00007F1140300221A605A609A60DA601A61F3
:1019E0007B681B681A4A93422ED11A4BD3F8E83011
:1019F000184A43F00403C2F8E830164BD3F8E83035
:101A000003F004033B613B69124BD3F8E030114A09
:101A100043F00803C2F8E0300E4BD3F8E03003F097
:101A20000803FB60FB684FF470437B610223BB61DA
:101A30000023FB6100233B6202237B6207F1140356
:101A40001946054801F002FB00BF2837BD4680BD9E
:101A50000008004000440258000C025880B592B0C3
:101A600000AF786007F1340300221A605A609A6070
:101A7000DA601A617B681B68834A93422ED1834BDC
:101A8000D3F8E830814A43F40023C2F8E8307F4BB2
:101A9000D3F8E83003F400233B633B6B7B4BD3F874
:101AA000E0307A4A43F00103C2F8E030774BD3F8D4
:101AB000E03003F00103FB62FB6A03237B63022334
:101AC000BB630023FB6300233B6408237B6407F1B3
:101AD000340319466E4801F0B9FAD1E07B681B68FF
:101AE0006C4A93422FD1694BD3F8E830674A43F4EC
:101AF0008013C2F8E830654BD3F8E83003F4801364
:101B0000BB62BB6A614BD3F8E030604A43F002032A
:101B1000C2F8E0305D4BD3F8E03003F002037B62A3
:101B20007B6A4FF440537B630223BB630023FB6358
:101B300000233B640E237B6407F1340319465648A7
:101B400001F084FA9CE07B681B68544A93422FD1D1
:101B50004E4BD3F8F0304D4A43F01003C2F8F0304A
:101B60004A4BD3F8F03003F010033B623B6A474B1B
:101B7000D3F8E030454A43F00203C2F8E030434B6B
:101B8000D3F8E03003F00203FB61FB694FF44043FC
:101B90007B630223BB630023FB6300233B640423BA
:101BA0007B6407F1340319463B4801F04FFA67E0C4
:101BB0007B681B683A4A93422ED1344BD3F8E83005
:101BC000324A43F40033C2F8E830304BD3F8E830FF
:101BD00003F40033BB61BB692C4BD3F8E0302B4AD4
:101BE00043F00103C2F8E030284BD3F8E03003F0B3
:101BF00001037B617B690C237B630223BB630023AE
:101C0000FB6300233B6407237B6407F1340319461D
:101C10001F4801F01BFA33E07B681B68214A93429E
:101C20002ED11A4BD3F8E830184A43F48023C2F877
:101C3000E830164BD3F8E83003F480233B613B696E
:101C4000124BD3F8E030114A43F00803C2F8E030F9
:101C50000E4BD3F8E03003F00803FB60FB684FF451
:101C600040737B630223BB630023FB6300233B645D
:101C700007237B6407F1340319460B4801F0E6F9AA
:101C800000BF4837BD4680BD004C004000440258AC
:101C900000000258005000400004025800100140AB
:101CA0000044004000480040000C025880B400AFDF
:101CB00000BFBD465DF8047B704780B400AFFEE70F
:101CC00080B400AFFEE780B400AFFEE780B400AFA1
:101CD000FEE780B400AF00BFBD465DF8047B7047EF
:101CE00080B400AF00BFBD465DF8047B704780B490
:101CF00000AF00BFBD465DF8047B704780B500AF04
:101D000000F028F900BF80BD80B584B000AF7860D6
:101D1000114B1B68002B02D10F4B104A1A600E4B5F
:101D20001B68FB600C4B1A687B6813446A4693423D
:101D300007D907F043FF02460C2313604FF0FF332F
:101D400006E0054B1A687B681344034A1360FB687E
:101D500018461037BD4680BDFC0100241007002442
:101D600080B400AF294BD3F88830284A43F470037D
:101D7000C2F88830264B1B68254A43F001031360E4
:101D8000234B00221A61224B1A682149214B134030
:101D90000B601F4B00229A611D4B0022DA611C4B25
:101DA00000221A621A4B00229A62194B0022DA6250
:101DB000174B00221A63164B00225A63144B002261
:101DC0009A63134B0022DA63114B00221A64104B02
:101DD00000225A640E4B1B680D4A23F480231360C3
:101DE0000B4B00221A660C4B1A680C4B1340B3F1D4
:101DF000005F02D20A4B01221A60044B4FF00062CE
:101E00009A6000BFBD465DF8047B704700ED00E0BE
:101E1000004402587FEDF6EA0010005C0000FFFF6E
:101E200008810051DFF834D0002103E00C4B5B58EF
:101E3000435004310B480C4B42189A42F6D30B4ADC
:101E400002E0002342F8043B094B9A42F9D3FFF722
:101E500087FF07F0B9FEFEF741FE70470000082437
:101E600070BE000800000024E0010024E00100240E
:101E700010070024FEE7000080B500AF032001F04A
:101E8000B3F802F059FD0146134B9B691B0A03F09E
:101E90000F03124AD35C03F01F0321FA03F3104A25
:101EA00013600F4B1A680C4B9B6903F00F030B492F
:101EB000CB5C03F01F0322FA03F30A4A13600020ED
:101EC00000F012F80346002B01D0012302E0FFF7D7
:101ED000FFFB0023184680BD00440258F4BB0008F5
:101EE000000000240400002480B582B000AF7860B8
:101EF000154B1B78002B01D1012321E0134B1A68ED
:101F0000114B1B7819464FF47A73B3FBF1F3B2FB14
:101F1000F3F3184601F08DF80346002B01D001239E
:101F20000EE07B680F2B0AD8002279684FF0FF3053
:101F300001F065F8064A7B681360002300E0012386
:101F400018460837BD4680BD0C0000240000002460
:101F50000800002480B400AF064B1B781A46064BDD
:101F60001B681344044A136000BFBD465DF8047B40
:101F7000704700BF0C0000240807002480B400AFA5
:101F8000034B1B681846BD465DF8047B704700BFD5
:101F90000807002480B584B000AF7860FFF7EEFF3B
:101FA000B8607B68FB60FB68B3F1FF3F05D0094B6D
:101FB0001B781A46FB681344FB6000BFFFF7DEFF87
:101FC0000246BB68D31AFA689A42F7D800BF1037A6
:101FD000BD4680BD0C00002480B400AF034B1B68DD
:101FE0001B0C1846BD465DF8047B70470010005C72
:101FF00080B483B000AF78603960074B5A687B6863
:10200000DB431A4004493B6813434B6000BF0C3765
:10201000BD465DF8047B70470004005880B483B06F
:1020200000AF786039607B689B6823F47C123B6862
:102030001A437B689A6000BF0C37BD465DF8047B8D
:10204000704780B483B000AF786039607B689B686C
:1020500023F0E0723B681A437B689A6000BF0C373C
:10206000BD465DF8047B704780B483B000AF7860F4
:102070007B689B6803F0E07318460C37BD465DF83B
:10208000047B704790B484B000AFF860B9607A60A8
:102090003B60FB6860331A46BB689B0013441C46D8
:1020A000236803F000427B6803F0F8413B680B4370
:1020B0001343236000BF1037BD4690BC704780B407
:1020C00085B000AFF860B9607A60FB681B6923F4E3
:1020D000F042BB6803F01F03796801FA03F31A4367
:1020E000FB681A6100BF1437BD465DF8047B70477A
:1020F00090B484B000AFF860B9607A60FB68603378
:102100001A46BB689B0013441C46236823F0004218
:102110007B681343236000BF1037BD4690BC7047F7
:1021200090B484B000AFF860B9607A60FB68303377
:102130001A46BB681B0A9B0003F00C0313441C46A1
:102140002268BB6803F01F031F2101FA03F3DB437E
:102150001A407B689B0E03F01F01BB6803F01F034E
:1021600001FA03F31343236000BF1037BD4690BC50
:10217000704790B484B000AFF860B9607A60FB68D3
:1021800014331A46BB685B0E9B0003F00403134430
:102190001C462268BB681B0D03F01F03072101FAD0
:1021A00003F3DB431A40BB681B0D03F01F03796880
:1021B00001FA03F31343236000BF1037BD4690BC00
:1021C0007047000080B485B000AFF860B9607A60F5
:1021D000FB68D3F8C020BB68C3F31303DB431A408A
:1021E0007B6803F018030849D940BB680B40C3F370
:1021F00013031A43FB68C3F8C02000BF1437BD4661
:102200005DF8047B704700BFFFFF0F0080B483B010
:1022100000AF78607B689A68044B13407A689360DB
:1022200000BF0C37BD465DF8047B7047C0FFFF5F01
:1022300080B483B000AF78607B689B6803F0005384
:10224000B3F1005F01D1012300E0002318460C37F1
:10225000BD465DF8047B704780B483B000AF786002
:102260007B689A68054B134043F080527B689A6004
:1022700000BF0C37BD465DF8047B7047C0FFFF6FA1
:1022800080B483B000AF78607B689B6803F08053B4
:10229000B3F1805F01D1012300E0002318460C3721
:1022A000BD465DF8047B704780B483B000AF7860B2
:1022B0007B689B6803F00103012B01D1012300E03F
:1022C000002318460C37BD465DF8047B704780B488
:1022D00083B000AF78607B689B6803F00403042B35
:1022E00001D1012300E0002318460C37BD465DF8FC
:1022F000047B704780B483B000AF78607B689B68D4
:1023000003F00803082B01D1012300E00023184645
:102310000C37BD465DF8047B7047000090B589B06E
:1023200000AF78600023FB770023BB607B68002B45
:1023300001D101238EE17B68DB68002B7B685B6D3C
:10234000002B09D17868FFF7DDF97B6800229A65D8
:102350007B68002283F850207B681B681846FFF7D3
:1023600067FF0346002B04D07B681B681846FFF705
:102370004DFF7B681B681846FFF782FF0346002B62
:1023800013D17B681B681846FFF766FF9A4B1B68E2
:102390009B099A4AA2FB03239B09BB6002E0BB682E
:1023A000013BBB60BB68002BF9D17B681B681846FA
:1023B000FFF766FF0346002B0DD17B685B6D43F092
:1023C00010027B685A657B689B6D43F001027B6855
:1023D0009A650123FB777B681B681846FFF777FF38
:1023E00078617B685B6D03F01003002B40F029815E
:1023F0007B69002B40F025817B685B6D23F4817342
:1024000043F002027B685A657B681B681846FFF739
:102410004BFF0346002B36D17B681B68784A9342FA
:1024200004D07B681B68774A93420ED17448FFF74B
:102430003BFF04467348FFF737FF03462343002B57
:102440000CBF01230023DBB208E06F48FFF72CFF2D
:102450000346002B0CBF01230023DBB2002B12D05C
:102460007B681B68664A934204D07B681B68654A98
:10247000934201D1654A00E0654A7B685B68194672
:102480001046FFF7CBFDFFF7A7FD024641F203031D
:102490009A4214D97B689B68102B10D17B685B7DB6
:1024A0005A037B681B6B1A437B689B681A437B68E3
:1024B0001B7F1B04134343F00C03BB610DE07B68DF
:1024C0005B7D5A037B681B6B1A437B689B681A43CE
:1024D0007B681B7F1B041343BB617B681B7F012B45
:1024E00006D17B681B6A013B5B04BA691343BB617D
:1024F0007B685B6A002B09D07B685B6A03F47872A7
:102500007B689B6A1343BA691343BB617B681B6892
:10251000DA68404B13407A681268B9690B43D3609C
:102520007B681B681846FFF7D2FE38617B681B6822
:102530001846FFF7DFFEF8603B69002B4AD1FB68C5
:10254000002B47D17B681B7D9A037B68DB6A1343B2
:10255000BB617B681B68DA682F4B13407A6812688E
:10256000B9690B43D3607B6893F83830012B1BD1DA
:102570007B685B6A002B7B681B681A69274B1340DA
:102580007A68D26B013A11047A68126C11437A6846
:10259000526C11437A68926C0A431A437B681B6839
:1025A00042F001021A6107E07B681B681A697B68C8
:1025B0001B6822F001021A617B681B681B6923F00B
:1025C00070417B685A6B7B681B680A431A617868A4
:1025D00000F058FB7B68DB68012B21D17B681B680E
:1025E0001B6B23F00F017B689B695A1E7B681B687D
:1025F0000A431A631CE000BF00000024632D3E055F
:1026000000200240002102400060025800230240E6
:102610000063025803C0F0FFFCBFFFFF1EF800FC80
:102620007B681B681A6B7B681B6822F00F021A63B9
:102630007B685B6D23F0030343F001027B685A65FE
:1026400007E07B685B6D43F010027B685A650123ED
:10265000FB77FB7F18462437BD4690BD90B599B0F7
:1026600000AF78603960002387F85F300023BB60DB
:102670003B68DB68994A93427B6893F85030012BA2
:1026800001D10223E6E27B68012283F850207B68B7
:102690001B681846FFF71BFE0346002B40F0CB8259
:1026A0003B681B68C3F31303002B08D13B681B680E
:1026B0009B0E03F01F03012202FA03F30FE03B68B5
:1026C0001B68BB64BB6C93FAA3F37B647B6CB3FAAB
:1026D00083F3DBB203F01F03012202FA03F37A68EB
:1026E0001268D1697A6812680B43D3617B681868F5
:1026F0003B6859683B681B681A46FFF711FD7B6809
:102700001B681846FFF7E3FDB8657B681B68184631
:10271000FFF7F0FD7865BB6D002B40F0B3807B6D5B
:10272000002B40F0AF807B6818683B6819683B68F5
:102730009B681A46FFF71DFD694B1B6803F0704349
:10274000B3F1805F0BD13B685A697B681B68DB681B
:102750009B0803F007035B0002FA03F31DE07B68AC
:102760001B68DB6803F01003002B0BD13B685A6930
:102770007B681B68DB689B0803F007035B0002FAB9
:1027800003F30AE03B685A697B681B68DB689B08B7
:1027900003F004035B0002FA03F33B653B681B692B
:1027A000042B27D07B6818683B6819693B681A6856
:1027B0003B6DFFF767FC7B6818683B6819693B68ED
:1027C0005B7E012B02D14FF0004300E000231A464C
:1027D000FFF78EFC7B6818683B6819693B681B7EB5
:1027E000012B02D14FF4006300E000231A46FFF7EB
:1027F00066FC47E07B681B681B6E03F0F8423B6891
:102800001B689B069A4207D17B681B681A6E7B681F
:102810001B6822F000421A667B681B685B6E03F03F
:10282000F8423B681B689B069A4207D17B681B688D
:102830005A6E7B681B6822F000425A667B681B68F0
:102840009B6E03F0F8423B681B689B069A4207D1D7
:102850007B681B689A6E7B681B6822F000429A6650
:102860007B681B68DB6E03F0F8423B681B689B06C5
:102870009A4207D17B681B68DA6E7B681B6822F07E
:102880000042DA667B681B681846FFF70DFD0346B9
:10289000002B40F0D9817B6818683B6819683B6859
:1028A000DB681A46FFF78EFC3B68DB680B4A9342F5
:1028B00040F001817B6818683B681B68C3F3130311
:1028C000002B0FD13B681B689B0E013303F01F03E5
:1028D000092B94BF01230023DBB216E00000FF4761
:1028E0000010005C3B681B683B643B6C93FAA3F3ED
:1028F000FB63FB6BB3FA83F3DBB2013303F01F031B
:10290000092B94BF01230023DBB2002B64D03B686A
:102910001B68C3F31303002B07D13B681B689B0E96
:1029200001339B0603F0F8420EE03B681B68BB6373
:10293000BB6B93FAA3F37B637B6BB3FA83F3DBB2DA
:1029400001339B0603F0F8423B681B68C3F3130393
:10295000002B09D13B681B689B0E013303F01F035A
:10296000012101FA03F310E03B681B683B633B6BFA
:1029700093FAA3F3FB62FB6AB3FA83F3DBB201338E
:1029800003F01F03012101FA03F342EA03013B684C
:102990001B68C3F31303002B0AD13B681B689B0E13
:1029A000013303F01F0213465B0013441B0511E0C3
:1029B0003B681B68BB62BB6A93FAA3F37B627B6ACA
:1029C000B3FA83F3DBB2013303F01F0213465B005B
:1029D00013441B050B4369E03B681B68C3F31303F7
:1029E000002B07D13B681B689B0E01339B0603F04D
:1029F000F8420EE03B681B683B623B6A93FAA3F324
:102A0000FB61FB69B3FA83F3DBB201339B0603F08E
:102A1000F8423B681B68C3F31303002B09D13B68E2
:102A20001B689B0E013303F01F03012101FA03F31E
:102A300010E03B681B68BB61BB6993FAA3F37B6141
:102A40007B69B3FA83F3DBB2013303F01F03012187
:102A500001FA03F342EA03013B681B68C3F3130363
:102A6000002B0DD13B681B689B0E013303F01F0246
:102A700013465B0013441E3B1B0543F0007314E038
:102A80003B681B683B613B6993FAA3F3FB60FB68FF
:102A9000B3FA83F3DBB2013303F01F0213465B008A
:102AA00013441E3B1B0543F000730B433A689268C6
:102AB0001946FFF75EFB3B681B68002B80F2C48061
:102AC0007B681B68654A934204D07B681B68644A34
:102AD000934201D1634B00E0634B1846FFF7C4FA01
:102AE000F8647B681B685D4A934204D07B681B686E
:102AF0005B4A93420ED15948FFF7D6FB044658482B
:102B0000FFF7D2FB03462343002B0CBF0123002316
:102B1000DBB208E05548FFF7C7FB0346002B0CBFAC
:102B200001230023DBB2002B7BD03B681B68504A9B
:102B300093422ED1FB6C03F40003002B29D17B6858
:102B40001B684A4A93427FD17B681B68434A934281
:102B500004D07B681B68424A934201D1414A00E09D
:102B6000414AFB6C43F4000319461046FFF769FA2B
:102B7000404B1B689B09404AA2FB03239B095B0057
:102B8000BB6002E0BB68013BBB60BB68002BF9D1B6
:102B90005AE03B681B68394A93421ED1FB6C03F034
:102BA0008073002B19D17B681B68304A93424BD14C
:102BB0007B681B68294A934204D07B681B68284ABB
:102BC000934201D1274A00E0274AFB6C43F080730F
:102BD00019461046FFF735FA36E03B681B68284A6D
:102BE000934231D1FB6C03F48003002B2CD17B6822
:102BF0001B681E4A934227D17B681B68174A934281
:102C000004D07B681B68164A934201D1154A00E044
:102C1000154AFB6C43F4800319461046FFF711FA7E
:102C200012E07B685B6D43F020027B685A650123EC
:102C300087F85F3008E07B685B6D43F020027B68BB
:102C40005A65012387F85F307B68002283F85020A3
:102C500097F85F3018466437BD4690BD00200240AB
:102C60000021024000230240006302580060025825
:102C7000000084CB00000024632D3E05000052C7F5
:102C80000000B8CF80B584B000AF78607B681B6867
:102C9000744A934204D07B681B68734A934209D1FB
:102CA000724B9B6803F44033002B14BF01230023B5
:102CB000DBB208E06E4B9B6803F44033002B14BF7B
:102CC00001230023DBB2002B1AD001F0A7FFF8602C
:102CD0007B685B68B3F5003F06D0B3F5403F0BD08F
:102CE000B3F5803F00D05DE07B685B681B0CFA6841
:102CF000B2FBF3F3FB6055E0FB689B08FB6051E01F
:102D00004FF4002002F0C2FEF8607B685B68B3F508
:102D1000C01F2AD0B3F5C01F13D8B3F5402F24D05D
:102D2000B3F5402F06D8B3F5802F1ED0B3F5002F92
:102D30001BD037E0B3F5801F17D0B3F5A01F14D018
:102D400030E0B3F5101F21D0B3F5101F06D8B3F54E
:102D5000E01F13D0B3F5001F14D023E0B3F5201FFC
:102D600018D0B3F5301F19D01CE07B685B689B0C52
:102D70005B00FA68B2FBF3F3FB6013E0FB681B092E
:102D8000FB600FE0FB685B09FB600BE0FB689B09E5
:102D9000FB6007E0FB68DB09FB6003E0FB681B0AE4
:102DA000FB6000BFFFF718F9024641F203039A42A5
:102DB00015D8FB682F4A934208D97B681B689A682C
:102DC0007B681B6842F480729A6047E07B681B68EE
:102DD0009A687B681B6822F480729A603EE0FB6808
:102DE0005B08FB60FB68244A934208D87B681B6839
:102DF0009A687B681B6822F440729A602EE0FB6838
:102E00001D4A93420ED9FB681C4A93420AD87B683C
:102E10001B689B6823F440727B681B6842F48072D5
:102E20009A601BE0FB68154A93420ED9FB68144A6E
:102E300093420AD87B681B689B6823F440727B68C6
:102E40001B6842F400729A6008E07B681B689A680D
:102E50007B681B6842F440729A60FFE700BF10373E
:102E6000BD4680BD002002400021024000230240F8
:102E700000630258002D3101105E5F0020BCBE00CF
:102E800040787D0180B485B000AF78607B6803F046
:102E90000703FB600B4BDB68BB60BA684FF6FF03B0
:102EA0001340BB60FB681A02BB681A43064B13430E
:102EB000BB60044ABB68D36000BF1437BD465DF8F1
:102EC000047B704700ED00E00000FA0580B400AF1D
:102ED000044BDB681B0A03F007031846BD465DF888
:102EE000047B704700ED00E080B483B000AF034680
:102EF0003960FB80B7F90630002B0ADB3B68DAB299
:102F00000C49B7F906301201D2B20B4483F8002302
:102F10000AE03B68DAB20849FB8803F00F03043B80
:102F20001201D2B20B441A7600BF0C37BD465DF8D1
:102F3000047B704700E100E000ED00E080B489B060
:102F400000AFF860B9607A60FB6803F00703FB61CB
:102F5000FB69C3F10703042B28BF0423BB61FB6992
:102F60000433062B02D9FB69033B00E000237B619D
:102F70004FF0FF32BB6902FA03F3DA43BB681A4031
:102F80007B699A404FF0FF317B6901FA03F3D94323
:102F90007B680B40134318462437BD465DF8047B1D
:102FA0007047000080B582B000AF78607B68013B5D
:102FB000B3F1807F01D301230FE00A4A7B68013B14
:102FC00053600F214FF0FF30FFF78EFF054B0022BB
:102FD0009A60044B07221A60002318460837BD4642
:102FE00080BD00BF10E000E080B582B000AF786027
:102FF0007868FFF747FF00BF0837BD4680BD80B542
:1030000086B000AF0346B9607A60FB81FFF75EFFD0
:1030100078617A68B9687869FFF790FF0246B7F976
:103020000E3011461846FFF75FFF00BF1837BD4648
:1030300080BD80B582B000AF78607868FFF7B2FFDE
:10304000034618460837BD4680BD000080B489B0ED
:1030500000AF786039600023FB61894B7B6194E1AC
:103060003B681A680121FB6901FA03F313403B61D5
:103070003B69002B00F086813B685B68022B03D024
:103080003B685B68122B23D1FB69DA087B68083246
:1030900053F82230BB61FB6903F007039B000F224A
:1030A00002FA03F3DB43BA691340BB613B681A6958
:1030B000FB6903F007039B0002FA03F3BA691343A9
:1030C000BB61FB69DA087B680832B96943F82210F2
:1030D0007B681B68BB61FB695B00032202FA03F398
:1030E000DB43BA691340BB613B685B6803F00302D2
:1030F000FB695B0002FA03F3BA691343BB617B68A7
:10310000BA691A603B685B68012B0BD03B685B684F
:10311000022B07D03B685B68112B03D03B685B68D0
:10312000122B30D17B689B68BB61FB695B0003227B
:1031300002FA03F3DB43BA691340BB613B68DA6808
:10314000FB695B0002FA03F3BA691343BB617B6856
:10315000BA699A607B685B68BB610122FB6902FA0D
:1031600003F3DB43BA691340BB613B685B681B092F
:1031700003F00102FB6902FA03F3BA691343BB616E
:103180007B68BA695A607B68DB68BB61FB695B007E
:10319000032202FA03F3DB43BA691340BB613B68C5
:1031A0009A68FB695B0002FA03F3BA691343BB61D7
:1031B0007B68BA69DA603B685B6803F08053002B78
:1031C00000F0E0802F4BD3F8F4302E4A43F0020396
:1031D000C2F8F4302B4BD3F8F43003F00203FB6059
:1031E000FB68294AFB699B08023352F82330BB6114
:1031F000FB6903F003039B000F2202FA03F3DB4396
:10320000BA691340BB617B68204A934252D07B6805
:103210001F4A934231D07B681E4A93422BD07B6871
:103220001D4A934225D07B681C4A93421FD07B687D
:103230001B4A934219D07B681A4A934213D07B6889
:10324000194A93420DD07B68184A934207D07B6895
:10325000174A934201D109232DE00A232BE00823CA
:1032600029E0072327E0062325E0052323E00423A4
:1032700021E003231FE002231DE001231BE000BF28
:103280008000005800440258000400580000025812
:103290000004025800080258000C0258001002589E
:1032A0000014025800180258001C0258002002584E
:1032B000002402580023FA6902F0030292009340AE
:1032C000BA691343BB613849FB699B080233BA6989
:1032D00041F823207B691B68BB613B69DB43BA690A
:1032E0001340BB613B685B6803F48033002B03D061
:1032F000BA693B691343BB617B69BA691A607B6930
:103300005B68BB613B69DB43BA691340BB613B68E7
:103310005B6803F40033002B03D0BA693B691343A5
:10332000BB617B69BA695A604FF0B0431B68BB61EF
:103330003B69DB43BA691340BB613B685B6803F4DC
:103340008013002B03D0BA693B691343BB614FF074
:10335000B042BB6913604FF0B0435B68BB613B692F
:10336000DB43BA691340BB613B685B6803F400133D
:10337000002B03D0BA693B691343BB614FF0B042E5
:10338000BB695360FB690133FB613B681A68FB69E9
:1033900022FA03F3002B7FF463AE00BF2437BD464F
:1033A0005DF8047B704700BF0004005880B483B010
:1033B00000AF78600B467B8013467B707B78002BD8
:1033C00003D07A887B689A6103E07B881A047B6863
:1033D0009A6100BF0C37BD465DF8047B704780B42E
:1033E00083B000AF78600B467B807B685A697B882E
:1033F0001A407B889A4204D17B881A047B689A61C0
:1034000002E07A887B689A6100BF0C37BD465DF8A0
:10341000047B704780B582B000AF78607B68002B7A
:1034200001D101237FE07B6893F84130DBB2002BB0
:1034300006D17B68002283F840207868FEF79EF969
:103440007B68242283F841207B681B681A687B68AC
:103450001B6822F001021A607B685A687B681B684F
:1034600022F070621A617B681B689A687B681B682F
:1034700022F400429A607B68DB68012B07D17B68ED
:103480009A687B681B6842F400429A6006E07B6899
:103490009A687B681B6842F404429A607B68DB6828
:1034A000022B04D17B681B684FF400625A607B6872
:1034B0001B6859687B681A681D4B0B4353607B6817
:1034C0001B68DA687B681B6822F40042DA607B685C
:1034D0001A697B685B6942EA03017B689B691A028F
:1034E0007B681B680A43DA607B68D9697B681A6A63
:1034F0007B681B680A431A607B681B681A687B68D4
:103500001B6842F001021A607B6800225A647B68E3
:10351000202283F841207B6800221A637B68002206
:1035200083F84220002318460837BD4680BD00BFFF
:103530000080000280B588B002AFF8607A601A4659
:103540000B467B8113463B81FB6893F84130DBB22D
:10355000202B40F0DA80FB6893F84030012B01D13A
:103560000223D3E0FB68012283F84020FEF706FD2A
:1035700078617B690093192301224FF40041F868B8
:1035800000F05EFA0346002B01D00123BEE0FB6889
:10359000212283F84120FB68102283F84220FB6837
:1035A00000225A64FB687A685A62FB683A895A8535
:1035B000FB6800225A63FB685B8D9BB2FF2B0ED920
:1035C000FB68FF221A85FB681B8DDAB27989514BA3
:1035D00000934FF08073F86800F054FB6CE0FB68D8
:1035E0005B8D9AB2FB681A85FB681B8DDAB279890C
:1035F000484B00934FF00073F86800F043FB5BE02A
:103600007A69396AF86800F05BFA0346002B01D04A
:1036100001237BE0FB685B6A1A78FB681B689A628F
:10362000FB685B6A5A1CFB685A62FB685B8D9BB245
:10363000013B9AB2FB685A85FB681B8D013B9AB22D
:10364000FB681A85FB685B8D9BB2002B34D0FB684E
:103650001B8D002B30D17B6900933B6A00228021B7
:10366000F86800F0EDF90346002B01D001234DE08E
:10367000FB685B8D9BB2FF2B0ED9FB68FF221A857E
:10368000FB681B8DDAB27989002300934FF08073B9
:10369000F86800F0F7FA0FE0FB685B8D9AB2FB6800
:1036A0001A85FB681B8DDAB27989002300934FF0ED
:1036B0000073F86800F0E6FAFB685B8D9BB2002BA4
:1036C0009ED17A69396AF86800F03AFA0346002B0D
:1036D00001D001231AE0FB681B682022DA61FB6835
:1036E0001B685968FB681A680B4B0B405360FB68FA
:1036F000202283F84120FB68002283F84220FB68E7
:10370000002283F84020002300E0022318461837E7
:10371000BD4680BD0020008000E800FE80B588B076
:1037200002AFF860084611461A4603467B810B46F5
:103730003B811346FB80FB6893F84130DBB2202BC2
:1037400040F0FD803B6A002B02D0BB8C002B05D1E2
:10375000FB684FF400725A640123F1E0FB6893F8B0
:103760004030012B01D10223EAE0FB68012283F8FB
:103770004020FEF703FC78617B6900931923012246
:103780004FF40041F86800F05BF90346002B01D0CC
:103790000123D5E0FB68222283F84120FB68402208
:1037A00083F84220FB6800225A64FB683A6A5A6236
:1037B000FB68BA8C5A85FB6800225A63F8883A89FC
:1037C00079897B690193BB6A00930346F86800F02E
:1037D000BFF80346002B05D0FB68002283F8402089
:1037E0000123ADE0FB685B8D9BB2FF2B0ED9FB681C
:1037F000FF221A85FB681B8DDAB27989524B009340
:103800004FF08073F86800F03DFA0FE0FB685B8DC5
:103810009AB2FB681A85FB681B8DDAB279894A4B2C
:1038200000934FF00073F86800F02CFA7B69009366
:10383000BB6A00220421F86800F002F90346002B5D
:1038400001D001237CE0FB681B685A6AFB685B6A55
:10385000D2B21A70FB685B6A5A1CFB685A62FB683A
:103860001B8D013B9AB2FB681A85FB685B8D9BB28E
:10387000013B9AB2FB685A85FB685B8D9BB2002BBB
:1038800034D0FB681B8D002B30D17B690093BB6A61
:1038900000228021F86800F0D3F80346002B01D005
:1038A00001234DE0FB685B8D9BB2FF2B0ED9FB68BB
:1038B000FF221A85FB681B8DDAB2798900230093F9
:1038C0004FF08073F86800F0DDF90FE0FB685B8D66
:1038D0009AB2FB681A85FB681B8DDAB279890023DE
:1038E00000934FF00073F86800F0CCF9FB685B8D33
:1038F0009BB2002B9AD17A69B96AF86800F020F976
:103900000346002B01D001231AE0FB681B6820222C
:10391000DA61FB681B685968FB681A680B4B0B403F
:103920005360FB68202283F84120FB68002283F863
:103930004220FB68002283F84020002300E002239D
:1039400018461837BD4680BD0024008000E800FE00
:1039500080B586B002AFF860084611461A460346A5
:103960007B810B463B811346FB80FB88DAB2798969
:10397000204B00930023F86800F084F9FA69B969D4
:10398000F86800F09DF80346002B01D001232CE0DD
:10399000FB88012B05D13B89DAB2FB681B689A6270
:1039A00015E03B891B0A9BB2DAB2FB681B689A627E
:1039B000FA69B969F86800F083F80346002B01D072
:1039C000012312E03B89DAB2FB681B689A62FB694B
:1039D0000093BB6900224021F86800F031F80346EB
:1039E000002B01D0012300E0002318461037BD460C
:1039F00080BD00BF0020008080B483B000AF78603D
:103A00007B681B689B6903F00203022B03D17B6870
:103A10001B6800229A627B681B689B6903F00103A4
:103A2000012B07D07B681B689A697B681B6842F092
:103A300001029A6100BF0C37BD465DF8047B7047F8
:103A400080B584B000AFF860B9603B601346FB718D
:103A500022E03B68B3F1FF3F1ED0FEF78FFA02462B
:103A6000BB69D31A3A689A4202D33B68002B13D140
:103A7000FB685B6C43F02002FB685A64FB68202201
:103A800083F84120FB68002283F84220FB68002273
:103A900083F8402001230FE0FB681B689A69BB682C
:103AA0001340BA689A420CBF01230023DBB21A46C6
:103AB000FB799A42CDD0002318461037BD4680BD11
:103AC00080B584B000AFF860B9607A602CE07A68A5
:103AD000B968F86800F070F80346002B01D00123A4
:103AE0002AE0BB68B3F1FF3F1ED0FEF747FA02465B
:103AF0007B68D31ABA689A4202D3BB68002B13D1F1
:103B0000FB685B6C43F02002FB685A64FB68202270
:103B100083F84120FB68002283F84220FB680022E2
:103B200083F84020012307E0FB681B689B6903F0D2
:103B30000203022BCBD1002318461037BD4680BDAF
:103B400080B584B000AFF860B9607A6028E07A6828
:103B5000B968F86800F030F80346002B01D0012363
:103B600026E0FEF70BFA02467B68D31ABA689A423F
:103B700002D3BB68002B13D1FB685B6C43F02002BF
:103B8000FB685A64FB68202283F84120FB6800220E
:103B900083F84220FB68002283F84020012307E0DD
:103BA000FB681B689B6903F02003202BCFD1002307
:103BB00018461037BD4680BD80B584B000AFF860B0
:103BC000B9607A60FB681B689B6903F01003102BD7
:103BD00051D122E0BB68B3F1FF3F1ED0FEF7CEF912
:103BE00002467B68D31ABA689A4202D3BB68002B9C
:103BF00013D1FB685B6C43F02002FB685A64FB68DE
:103C0000202283F84120FB68002283F84220FB68D1
:103C1000002283F8402001232EE0FB681B689B698B
:103C200003F02003202BD5D1FB681B681022DA613A
:103C3000FB681B682022DA61F868FFF7DDFEFB688D
:103C40001B685968FB681A680D4B0B405360FB6892
:103C50005B6C43F00402FB685A64FB68202283F823
:103C60004120FB68002283F84220FB68002283F891
:103C70004020012300E0002318461037BD4680BDD8
:103C800000E800FE80B485B000AFF8607B600B46B2
:103C90007B8113467B72FB681B685A68BB695B0DAE
:103CA00003F480610D4B0B43DB4302EA03017B8984
:103CB000C3F309027B7A1B0403F47F031A437B6876
:103CC0001A43BB691A43FB681B680A435A6000BF6A
:103CD0001437BD465DF8047B704700BFFF63FF03E8
:103CE00080B483B000AF786039607B6893F841306E
:103CF000DBB2202B38D17B6893F84030012B01D107
:103D0000022332E07B68012283F840207B68242272
:103D100083F841207B681B681A687B681B6822F067
:103D200001021A607B681B681A687B681B6822F4B2
:103D300080521A607B681B6819687B681B683A6848
:103D40000A431A607B681B681A687B681B6842F02C
:103D500001021A607B68202283F841207B680022E0
:103D600083F84020002300E0022318460C37BD46AC
:103D70005DF8047B704780B485B000AF786039602F
:103D80007B6893F84130DBB2202B39D17B6893F804
:103D90004030012B01D1022333E07B68012283F8FC
:103DA00040207B68242283F841207B681B681A68C6
:103DB0007B681B6822F001021A607B681B681B6825
:103DC000FB60FB6823F47063FB603B681B02FA68CE
:103DD0001343FB607B681B68FA681A607B681B688A
:103DE0001A687B681B6842F001021A607B68202217
:103DF00083F841207B68002283F84020002300E004
:103E0000022318461437BD465DF8047B7047000056
:103E100080B584B000AF7860184BDB6803F0040312
:103E2000042B08D0154BDB6803F007037A689A422D
:103E300001D001231DE0114BDB6823F007020F497D
:103E40007B681343CB60FEF799F8F86009E0FEF752
:103E500095F80246FB68D31AB3F57A7F01D903239C
:103E600007E0064B5B6803F40053B3F5005FEED147
:103E7000002318461037BD4680BD00BF00480258D9
:103E800080B58AB000AF78607B68002B01D1012338
:103E9000A4E37B681B6803F00103002B00F087801C
:103EA0009A4B1B6903F038037B62984B9B6A3B6219
:103EB0007B6A102B07D07B6A182B10D13B6A03F06A
:103EC0000303022B0BD1914B1B6803F40033002B2F
:103ED0006CD07B685B68002B68D101237EE37B6834
:103EE0005B68B3F5803F06D1884B1B68874A43F473
:103EF000803313602EE07B685B68002B0CD1834B12
:103F00001B68824A23F480331360804B1B687F4A0E
:103F100023F4802313601DE07B685B68B3F5A02F5A
:103F20000CD17A4B1B68794A43F480231360774B9A
:103F30001B68764A43F4803313600BE0734B1B68B5
:103F4000724A23F480331360704B1B686F4A23F46A
:103F5000802313607B685B68002B13D0FEF70EF89C
:103F6000F86108E0FEF70AF80246FB69D31A642BF1
:103F700001D9032332E3654B1B6803F40033002BA4
:103F8000F0D014E0FDF7FAFFF86108E0FDF7F6FF66
:103F90000246FB69D31A642B01D903231EE35B4B52
:103FA0001B6803F40033002BF0D100E000BF7B68F6
:103FB0001B6803F00203002B00F0B080534B1B6919
:103FC00003F03803BB61514B9B6A7B61BB69002BDB
:103FD00007D0BB69182B49D17B6903F00303002B81
:103FE00044D14A4B1B6803F00403002B05D07B68C7
:103FF000DB68002B01D10123F0E2444B1B6823F066
:1040000019027B68DB68414913430B60FDF7B6FF7B
:10401000F86108E0FDF7B2FF0246FB69D31A022BF4
:1040200001D90323DAE2394B1B6803F00403002BA8
:10403000F0D0FDF7D1FF024641F203039A420AD8BD
:10404000324B5B6823F47C327B681B691B032F496E
:1040500013434B6062E02D4B5B6823F0FE427B68AC
:104060001B691B06294913434B6057E07B68DB68DB
:10407000002B38D0254B1B6823F019027B68DB68C6
:10408000224913430B60FDF779FFF86108E0FDF763
:1040900075FF0246FB69D31A022B01D903239DE267
:1040A0001A4B1B6803F00403002BF0D0FDF794FFBC
:1040B000024641F203039A420AD8144B5B6823F488
:1040C0007C327B681B691B03104913434B6025E05E
:1040D0000E4B5B6823F0FE427B681B691B060B4995
:1040E00013434B601AE0094B1B68084A23F0010395
:1040F0001360FDF743FFF8610AE0FDF73FFF02465A
:10410000FB69D31A022B03D9032367E20044025848
:10411000A04B1B6803F00403002BEED17B681B68E7
:1041200003F01003002B00F08F809A4B1B6903F003
:1041300038033B61974B9B6AFB603B69082B07D0B8
:104140003B69182B2DD1FB6803F00303012B28D109
:10415000904B1B6803F48073002B05D07B68DB69F0
:10416000802B01D0012339E2FDF736FF024641F2F0
:1041700003039A420AD8874B5B6823F0F8427B68B6
:104180001B6A9B06834913434B605DE0814BDB68F0
:1041900023F07C527B681B6A1B067E491343CB606D
:1041A00052E07B68DB69002B35D07A4B1B68794A7B
:1041B00043F080031360FDF7E1FEF86108E0FDF7CE
:1041C000DDFE0246FB69D31A022B01D9032305E267
:1041D000704B1B6803F48073002BF0D0FDF7FCFEDE
:1041E000024641F203039A420AD86A4B5B6823F005
:1041F000F8427B681B6A9B06664913434B6023E0C9
:10420000644BDB6823F07C527B681B6A1B066149A8
:104210001343CB6018E05F4B1B685E4A23F08003BA
:104220001360FDF7ABFEF86108E0FDF7A7FE02465C
:10423000FB69D31A022B01D90323CFE1554B1B682D
:1042400003F48073002BF0D17B681B6803F0080334
:10425000002B36D07B685B69002B19D04D4B5B6F10
:104260004C4A43F001035367FDF788FEF86108E00C
:10427000FDF784FE0246FB69D31A022B01D9032302
:10428000ACE1444B5B6F03F00203002BF0D018E06D
:10429000404B5B6F3F4A23F001035367FDF76EFE0F
:1042A000F86108E0FDF76AFE0246FB69D31A022BAB
:1042B00001D9032392E1374B5B6F03F00203002B1C
:1042C000F0D17B681B6803F02003002B36D07B689D
:1042D0009B69002B19D02F4B1B682E4A43F4805347
:1042E0001360FDF74BFEF86108E0FDF747FE02465C
:1042F000FB69D31A022B01D903236FE1254B1B68FD
:1043000003F40053002BF0D018E0224B1B68214A25
:1043100023F480531360FDF731FEF86108E0FDF7E8
:104320002DFE0246FB69D31A022B01D9032355E166
:10433000184B1B6803F40053002BF0D17B681B68FB
:1043400003F00403002B00F08680134B1B68124A15
:1043500043F480731360FDF711FEF86108E0FDF788
:104360000DFE0246FB69D31A642B01D9032335E104
:10437000094B1B6803F48073002BF0D07B689B68AB
:10438000012B0BD1034B1B6F024A43F00103136750
:1043900032E000BF00440258004802587B689B6826
:1043A000002B0CD18F4B1B6F8E4A23F00103136738
:1043B0008C4B1B6F8B4A23F0040313671CE07B6854
:1043C0009B68052B0CD1874B1B6F864A43F0040377
:1043D0001367844B1B6F834A43F0010313670BE0A1
:1043E000804B1B6F7F4A23F0010313677D4B1B6FCC
:1043F0007C4A23F0040313677B689B68002B15D06D
:10440000FDF7BCFDF8610AE0FDF7B8FD0246FB6967
:10441000D31A41F28832934201D90323DEE0714B73
:104420001B6F03F00203002BEED014E0FDF7A6FD96
:10443000F8610AE0FDF7A2FD0246FB69D31A41F2DA
:104440008832934201D90323C8E0664B1B6F03F007
:104450000203002BEED17B685B6A002B00F0BD806D
:10446000604B1B6903F03803182B00F0B4807B68A5
:104470005B6A022B40F095805A4B1B68594A23F027
:1044800080731360FDF77AFDF86108E0FDF776FDB3
:104490000246FB69D31A022B01D903239EE0514B3C
:1044A0001B6803F00073002BF0D14E4B9A6A4E4B01
:1044B00013407A68916A7A68D26A12010A434949BC
:1044C00013438B627B681B6B013BC3F308027B6861
:1044D0005B6B013B5B029BB21A437B689B6B013BAE
:1044E0001B0403F4FE031A437B68DB6B013B1B06D2
:1044F00003F0FE433B4913430B633A4BDB6A394AF3
:1045000023F00103D362374B5A6B384B13407A6860
:10451000926CD200334913434B63324BDB6A23F076
:104520000C027B681B6C2F491343CB622D4BDB6A5B
:1045300023F002027B685B6C2A491343CB62294B50
:10454000DB6A284A43F48033D362264BDB6A254A70
:1045500043F40033D362234BDB6A224A43F48023C3
:10456000D362204BDB6A1F4A43F00103D3621D4B29
:104570001B681C4A43F080731360FDF7FFFCF86171
:1045800008E0FDF7FBFC0246FB69D31A022B01D9B8
:10459000032323E0134B1B6803F00073002BF0D0C0
:1045A0001BE0104B1B680F4A23F080731360FDF76C
:1045B000E5FCF86108E0FDF7E1FC0246FB69D31A6F
:1045C000022B01D9032309E0064B1B6803F000739B
:1045D000002BF0D101E0012300E00023184628372A
:1045E000BD4680BD004402580CFCFFFF0700FFFFE2
:1045F00080B584B000AF786039607B68002B01D152
:1046000001238DE18A4B1B6803F00F033A689A423D
:1046100010D9874B1B6823F00F0285493B68134371
:104620000B60834B1B6803F00F033A689A4201D07A
:10463000012375E17B681B6803F00403002B10D095
:104640007B681A697B4B9B6903F070039A4208D917
:10465000784B9B6923F070027B681B697549134393
:104660008B617B681B6803F00803002B10D07B680C
:104670005A69704BDB6903F070039A4208D96D4B9D
:10468000DB6923F070027B685B696A491343CB6185
:104690007B681B6803F01003002B10D07B689A69BD
:1046A000644BDB6903F4E0639A4208D9614BDB6930
:1046B00023F4E0627B689B695E491343CB617B68AE
:1046C0001B6803F02003002B10D07B68DA69594B7C
:1046D0001B6A03F070039A4208D9564B1B6A23F0F9
:1046E00070027B68DB69534913430B627B681B686C
:1046F00003F00203002B10D07B68DA684D4B9B69F6
:1047000003F00F039A4208D94A4B9B6923F00F022A
:104710007B68DB68474913438B617B681B6803F048
:104720000103002B55D0434B9B6923F470627B68D7
:104730009B68404913438B617B685B68022B07D100
:104740003C4B1B6803F40033002B21D10123E7E02D
:104750007B685B68032B07D1364B1B6803F0007343
:10476000002B15D10123DBE07B685B68012B07D1AF
:10477000304B1B6803F48073002B09D10123CFE079
:104780002C4B1B6803F00403002B01D10123C7E06D
:10479000284B1B6923F007027B685B68254913439C
:1047A0000B61FDF7EBFBF8600AE0FDF7E7FB024663
:1047B000FB68D31A41F28832934201D90323AFE058
:1047C0001C4B1B6903F038027B685B68DB009A4274
:1047D000EBD17B681B6803F00203002B10D07B68D1
:1047E000DA68144B9B6903F00F039A4208D2114B0D
:1047F0009B6923F00F027B68DB680E4913438B61D2
:104800000B4B1B6803F00F033A689A4214D2084B13
:104810001B6823F00F0206493B6813430B60044BEF
:104820001B6803F00F033A689A4205D0012377E032
:1048300000200052004402587B681B6803F0040308
:10484000002B10D07B681A69374B9B6903F070030B
:104850009A4208D2344B9B6923F070027B681B6933
:10486000314913438B617B681B6803F00803002BFD
:1048700010D07B685A692C4BDB6903F070039A42B5
:1048800008D2294BDB6923F070027B685B692649FB
:104890001343CB617B681B6803F01003002B10D01F
:1048A0007B689A69204BDB6903F4E0639A4208D283
:1048B0001D4BDB6923F4E0627B689B691A49134353
:1048C000CB617B681B6803F02003002B10D07B6852
:1048D000DA69154B1B6A03F070039A4208D2124B37
:1048E0001B6A23F070027B68DB690F4913430B627C
:1048F00000F022F801460C4B9B691B0A03F00F03E2
:104900000A4AD35C03F01F0321FA03F3084A136039
:10491000084B1B681846FDF7E7FA0346FB72FB7A63
:1049200018461037BD4680BD00440258F4BB00084D
:10493000000000240800002480B489B000AFAF4B11
:104940001B6903F03803182B00F24E8101A252F8C4
:1049500023F000BFB9490008E94B0008E94B000803
:10496000E94B0008E94B0008E94B0008E94B000857
:10497000E94B0008DF490008E94B0008E94B000853
:10498000E94B0008E94B0008E94B0008E94B000837
:10499000E94B0008E5490008E94B0008E94B00082D
:1049A000E94B0008E94B0008E94B0008E94B000817
:1049B000E94B0008EB490008904B1B6803F020030B
:1049C000002B09D08D4B1B68DB0803F003038C4AD6
:1049D00022FA03F3BB610AE1894BBB6107E1894B12
:1049E000BB6104E1884BBB6101E1844B9B6A03F02E
:1049F00003037B61814B9B6A1B0903F03F033B610F
:104A00007E4BDB6A03F00103FB607C4B5B6BDB08D6
:104A1000C3F30C03FA6802FB03F307EE903AF8EED7
:104A2000677AC7ED027A3B69002B00F0DA807B6978
:104A3000012B5AD0012B02D3022B78D099E06F4B77
:104A40001B6803F02003002B2DD06C4B1B68DB0888
:104A500003F003036A4A22FA03F37B607B6807EEE4
:104A6000903AF8EE676A3B6907EE903AF8EE677A9B
:104A700086EEA77A614B1B6BC3F3080307EE903AEF
:104A8000F8EE676A97ED026ADFED605AC6EE257AA6
:104A900076EEA77AF7EE006A77EEA67A67EE277AC7
:104AA000C7ED077A87E03B6907EE903AF8EE677A40
:104AB000DFED576A86EEA77A504B1B6BC3F30803F2
:104AC00007EE903AF8EE676A97ED026ADFED4F5A0B
:104AD000C6EE257A76EEA77AF7EE006A77EEA67A2A
:104AE00067EE277AC7ED077A65E03B6907EE903AF3
:104AF000F8EE677ADFED476A86EEA77A3F4B1B6BCD
:104B0000C3F3080307EE903AF8EE676A97ED026A7E
:104B1000DFED3E5AC6EE257A76EEA77AF7EE006A0A
:104B200077EEA67A67EE277AC7ED077A43E03B690E
:104B300007EE903AF8EE677ADFED376A86EEA77AED
:104B40002E4B1B6BC3F3080307EE903AF8EE676A2F
:104B500097ED026ADFED2D5AC6EE257A76EEA77A3A
:104B6000F7EE006A77EEA67A67EE277AC7ED077A46
:104B700021E03B6907EE903AF8EE677ADFED256AAF
:104B800086EEA77A1D4B1B6BC3F3080307EE903A22
:104B9000F8EE676A97ED026ADFED1C5AC6EE257AD9
:104BA00076EEA77AF7EE006A77EEA67A67EE277AB6
:104BB000C7ED077A00BF114B1B6B5B0A03F07F0345
:104BC00001333B603B6807EE903AB8EE677AD7ED69
:104BD000076AC6EE877AFCEEE77A17EE903ABB6179
:104BE00005E00023BB6102E0064BBB6100BFBB696F
:104BF00018462437BD465DF8047B704700440258D0
:104C00000090D00300093D0040787D01000000467F
:104C10000024744C0024744A20BCBE4B80B500AF05
:104C200001F064FD0146084B9B6903F00F03074A3E
:104C3000D35C03F01F0321FA03F3054A1360044B0E
:104C40001B68184680BD00BF00440258F4BB000832
:104C50000400002480B500AFFFF7E0FF0146064BDB
:104C6000DB691B0903F00703044AD35C03F01F034D
:104C700021FA03F3184680BD00440258F4BB000833
:104C800080B500AFFFF7CAFF0146064BDB691B0A80
:104C900003F00703044AD35C03F01F0321FA03F374
:104CA000184680BD00440258F4BB000880B586B0A9
:104CB00000AF78600023FB750023BB757B681B6821
:104CC00003F00063002B3DD07B685B6EB3F5801F63
:104CD00013D0B3F5801F02D8002B07D01FE0B3F527
:104CE000001F13D0B3F5401F1CD018E0AF4BDB6A98
:104CF000AE4A43F40033D36215E07B6804330221EB
:104D0000184601F00FFD0346FB750CE07B68243369
:104D10000221184601F0B8FD0346FB7503E00123AC
:104D2000FB7500E000BFFB7D002B09D19F4B1B6D85
:104D300023F440127B685B6E9C4913430B6501E0D2
:104D4000FB7DBB757B681B6803F48073002B3DD033
:104D50007B685B6D042B26D801A252F823F000BFBC
:104D6000754D0008834D0008954D0008AD4D0008B5
:104D7000AD4D00088D4BDB6A8C4A43F40033D3629F
:104D800015E07B6804330021184601F0CBFC034694
:104D9000FB750CE07B6824330021184601F074FD9C
:104DA0000346FB7503E00123FB7500E000BFFB7DBC
:104DB000002B09D17D4B1B6D23F007027B685B6DD7
:104DC0007A4913430B6501E0FB7DBB757B681B686B
:104DD00003F40073002B3ED07B689B6D802B1CD0AE
:104DE000802B04D8002B08D0402B0DD01EE0C02B08
:104DF0001FD0B3F5807F1ED018E06C4BDB6A6B4A86
:104E000043F40033D36217E07B6804330021184673
:104E100001F088FC0346FB750EE07B68243300211B
:104E2000184601F031FD0346FB7505E00123FB75D3
:104E300002E000BF00E000BFFB7D002B09D15B4B0F
:104E40001B6D23F4E0727B689B6D584913430B651F
:104E500001E0FB7DBB757B681B6803F48063002B5E
:104E600044D07B68D3F8A430B3F5800F1FD0B3F5DE
:104E7000800F05D8002B0AD0B3F5001F0ED01FE01D
:104E8000B3F5C00F1FD0B3F5000F1ED018E0474B8D
:104E9000DB6A464A43F40033D36217E07B6804338D
:104EA0000021184601F03EFC0346FB750EE07B68CE
:104EB00024330021184601F0E7FC0346FB7505E0AA
:104EC0000123FB7502E000BF00E000BFFB7D002B6B
:104ED0000AD1364B9B6D23F460027B68D3F8A43073
:104EE000324913438B6501E0FB7DBB757B681B6812
:104EF00003F40063002B44D07B68D3F8A830B3F1EF
:104F0000007F1FD0B3F1007F05D8002B0AD0B3F18A
:104F1000807F0ED01FE0B3F1407F1FD0B3F1806FD0
:104F20001ED018E0214BDB6A204A43F40033D362E1
:104F300017E07B6804330021184601F0F3FB0346B9
:104F4000FB750EE07B6824330021184601F09CFCC1
:104F50000346FB7505E00123FB7502E000BF00E09E
:104F600000BFFB7D002B0AD1104B9B6D23F0E0624C
:104F70007B68D3F8A8300D4913438B6501E0FB7DB6
:104F8000BB757B681B6803F00073002B35D07B6812
:104F90009B6C102B0CD0102B02D8002B1BD017E0D1
:104FA000202B0CD0302B18D012E000BF0044025848
:104FB000AF4BDB6AAE4A43F40033D3620EE07B684A
:104FC00004330221184601F0ADFB0346FB7505E0F2
:104FD0000123FB7502E000BF00E000BFFB7D002B5A
:104FE00009D1A34BDB6C23F030027B689B6CA0499A
:104FF0001343CB6401E0FB7DBB757B681B6803F446
:105000008053002B42D07B68DB6DB3F5005F1FD06F
:10501000B3F5005F05D8002B0AD0B3F5805F0ED042
:105020001FE0B3F5405F1FD0B3F5804F1ED018E0EE
:105030008F4BDB6A8E4A43F40033D36217E07B6800
:1050400004330021184601F06DFB0346FB750EE0AA
:105050007B6824330021184601F016FC0346FB75DB
:1050600005E00123FB7502E000BF00E000BFFB7D0F
:10507000002B09D17E4B1B6D23F4E0427B68DB6D76
:105080007B4913430B6501E0FB7DBB757B681B68A7
:1050900003F40053002B42D07B681B6EB3F5003F36
:1050A0001BD0B3F5003F05D8002B22D0B3F5803FCD
:1050B0000AD01BE0B3F5802F1DD0B3F5A02F1CD074
:1050C000B3F5403F1BD011E07B6804330121184643
:1050D00001F028FB0346FB7512E07B6824330121B5
:1050E000184601F0D1FB0346FB7509E00123FB756F
:1050F00006E000BF04E000BF02E000BF00E000BF28
:10510000FB7D002B09D15A4B1B6D23F4E0227B68F9
:105110001B6E574913430B6501E0FB7DBB757B6834
:105120001B6803F48043002B44D07B68D3F8AC3079
:10513000B3F1005F1BD0B3F1005F05D8002B22D084
:10514000B3F1805F0AD01BE0B3F1804F1DD0B3F103
:10515000A04F1CD0B3F1405F1BD011E07B6804333B
:105160000121184601F0DEFA0346FB7512E07B6868
:1051700024330121184601F087FB0346FB7509E043
:105180000123FB7506E000BF04E000BF02E000BFA2
:1051900000E000BFFB7D002B0AD1354B9B6D23F057
:1051A000E0427B68D3F8AC30314913438B6501E0B2
:1051B000FB7DBB757B681B6803F40043002B2DD07F
:1051C0007B68DB6EB3F1805F05D0B3F1005F09D07F
:1051D000002B13D00FE0264BDB6A254A43F4003343
:1051E000D3620CE07B6804330121184601F09AFA7F
:1051F0000346FB7503E00123FB7500E000BFFB7D68
:10520000002B09D11A4B1B6D23F040527B68DB6EDB
:10521000174913430B6501E0FB7DBB757B681B6879
:1052200003F08073002B35D07B685B6C032B1BD89D
:1052300001A252F823F000BF75520008495200083D
:105240005752000875520008094BDB6A084A43F4BC
:105250000033D3620FE07B6804330221184601F06B
:1052600061FA0346FB7506E00123FB7503E000BF0E
:105270000044025800BFFB7D002B09D1BA4BDB6C08
:1052800023F003027B685B6CB7491343CB6401E0F6
:10529000FB7DBB757B681B6803F48003002B00F06B
:1052A0008680B24B1B68B14A43F480731360FCF7ED
:1052B00065FE386109E0FCF761FE02463B69D31ADE
:1052C000642B02D90323FB7505E0A84B1B6803F48C
:1052D0008073002BEFD0FB7D002B66D1A24B1A6FA1
:1052E0007B68D3F8B030534003F44073002B13D0E5
:1052F0009D4B1B6F23F44073FB609B4B1B6F9A4AC3
:1053000043F480331367984B1B6F974A23F4803321
:105310001367954AFB6813677B68D3F8B030B3F521
:10532000807F15D1FCF72AFE38610BE0FCF726FEE2
:1053300002463B69D31A41F28832934202D90323D1
:10534000FB7505E0884B1B6F03F00203002BEDD0CB
:10535000FB7D002B26D17B68D3F8B03003F440737B
:10536000B3F5407F0DD1804B1B6923F47C527B68E1
:10537000D3F8B03019097E4B0B407B4913430B61C6
:1053800005E0794B1B69784A23F47C531361764B13
:105390001A6F7B68D3F8B030C3F30B037249134321
:1053A0000B6704E0FB7DBB7501E0FB7DBB757B6893
:1053B0001B6803F00103002B7DD07B689B6F282BBB
:1053C00066D801A252F823F09754000891540008BF
:1053D0009154000891540008915400089154000819
:1053E00091540008915400086D540008915400082D
:1053F00091540008915400089154000891540008F9
:1054000091540008915400087F54000891540008FA
:1054100091540008915400089154000891540008D8
:1054200091540008915400089754000891540008C2
:1054300091540008915400089154000891540008B8
:1054400091540008915400089754000891540008A2
:105450009154000891540008915400089154000898
:105460009154000891540008975400087B68043355
:105470000121184601F056F90346FB750CE07B68E4
:1054800024330121184601F0FFF90346FB7503E0C0
:105490000123FB7500E000BFFB7D002B09D1324BDF
:1054A0005B6D23F038027B689B6F2F4913434B657C
:1054B00001E0FB7DBB757B681B6803F00203002BDA
:1054C00037D07B685B6F052B20D801A252F823F000
:1054D00013550008E9540008FB5400081355000850
:1054E00013550008135500087B6804330121184642
:1054F00001F018F90346FB750CE07B6824330121A9
:10550000184601F0C1F90346FB7503E00123FB7562
:1055100000E000BFFB7D002B09D1134B5B6D23F036
:1055200007027B685B6F104913434B6501E0FB7D0D
:10553000BB757B681B6803F00403002B40D07B68BD
:10554000D3F89030052B27D801A252F823F000BFE2
:105550009F55000875550008875500089F5500089D
:105560009F5500089F550008004402580048025803
:10557000CFFFFF007B6804330121184601F0D2F809
:105580000346FB750CE07B6824330121184601F0CB
:105590007BF90346FB7503E00123FB7500E000BFC8
:1055A000FB7D002B0AD1B34B9B6D23F007027B6878
:1055B000D3F89030AF4913438B6501E0FB7DBB7599
:1055C0007B681B6803F02003002B44D07B68D3F872
:1055D0008C30B3F1005F1BD0B3F1005F05D8002B16
:1055E00022D0B3F1805F0AD01BE0B3F1804F1DD011
:1055F000B3F1A04F1CD0B3F1405F1BD011E07B682A
:1056000004330021184601F08DF80346FB7512E0C3
:105610007B6824330221184601F036F90346FB75F6
:1056200009E00123FB7506E000BF04E000BF02E0D3
:1056300000BF00E000BFFB7D002B0AD18D4B5B6DEE
:1056400023F0E0427B68D3F88C308A4913434B65E2
:1056500001E0FB7DBB757B681B6803F04003002BFA
:1056600044D07B68D3F89830B3F5006F1BD0B3F506
:10567000006F05D8002B22D0B3F5806F0AD01BE055
:10568000B3F5805F1DD0B3F5A05F1CD0B3F5406FBC
:105690001BD011E07B6804330021184601F042F86A
:1056A0000346FB7512E07B6824330221184601F0A3
:1056B000EBF80346FB7509E00123FB7506E000BF2C
:1056C00004E000BF02E000BF00E000BFFB7D002B54
:1056D0000AD1684B9B6D23F4E0527B68D3F8983075
:1056E000644913438B6501E0FB7DBB757B681B68D8
:1056F00003F08003002B44D07B68D3F89C30B3F5D3
:10570000804F1BD0B3F5804F05D8002B22D0B3F5C6
:10571000005F0AD01BE0B3F5004F1DD0B3F5204F5A
:105720001CD0B3F5C04F1BD011E07B6804330021BF
:10573000184600F0F7FF0346FB7512E07B68243340
:105740000221184601F0A0F80346FB7509E0012389
:10575000FB7506E000BF04E000BF02E000BF00E010
:1057600000BFFB7D002B0AD1424B9B6D23F46042AE
:105770007B68D3F89C303F4913438B6501E0FB7D88
:10578000BB757B681B6803F00803002B1BD07B688C
:10579000D3F88030B3F5805F0BD17B6824330221CE
:1057A000184601F071F80346002B0CD00123BB759D
:1057B00009E0304B5B6D23F440527B68D3F88030B6
:1057C0002C4913434B657B681B6803F01003002BC7
:1057D0001BD07B68D3F89430B3F5807F0BD17B6806
:1057E00024330221184601F04FF80346002B0CD059
:1057F0000123BB7509E01F4B9B6D23F440727B684E
:10580000D3F894301B4913438B657B681B6803F402
:105810000023002B32D07B68D3F8A030B3F5803F53
:105820000DD0B3F5003F16D0002B11D17B680433A7
:105830000021184600F076FF0346FB750CE07B68FC
:1058400024330221184601F01FF80346FB7503E0DC
:105850000123FB7500E000BFFB7D002B0CD1054B45
:105860009B6D23F440327B68D3F8A0300149134389
:105870008B6503E000440258FB7DBB757B681B68A9
:1058800003F48023002B2FD07B68D3F88430B3F54A
:10589000001F0CD0B3F5401F15D0B3F5801F0FD1FA
:1058A000794BDB6A784A43F40033D3620CE07B68BF
:1058B00024330121184600F0E7FF0346FB7503E09F
:1058C0000123FB7500E000BFFB7D002B0AD16E4B6E
:1058D0005B6D23F440127B68D3F884306A4913432C
:1058E0004B6501E0FB7DBB757B681B6803F480336F
:1058F000002B29D07B68DB6C002B03D0B3F5803FF5
:1059000007D00FE0604BDB6A5F4A43F40033D36299
:105910000BE07B6804330221184600F003FF0346C6
:10592000FB7502E00123FB7500BFFB7D002B09D155
:10593000554BDB6C23F480327B68DB6C524913439C
:10594000CB6401E0FB7DBB757B681B6803F00053F3
:10595000002B0AD07B6824330221184600F094FF04
:105960000346002B01D00123BB757B681B6803F441
:105970000033002B2FD07B68DB6FB3F5807F0CD01A
:10598000B3F5807F02D8002B11D00DE0B3F5007F76
:105990000FD0B3F5407F0ED006E03B4BDB6A3A4AAE
:1059A00043F40033D36207E00123FB7504E000BF3A
:1059B00002E000BF00E000BFFB7D002B09D1324BAD
:1059C0005B6D23F440727B68DB6F2F4913434B659B
:1059D00001E0FB7DBB757B681B6803F48013002B23
:1059E00008D0294B1B6D23F000427B681B6F2649B2
:1059F00013430B657B681B6803F08053002B09D0B1
:105A0000214B1B6923F480427B68D3F8B4301E49D4
:105A100013430B617B681B6803F40013002B08D051
:105A2000194B1B6D23F080727B689B6E16491343E4
:105A30000B657B681B6803F08043002B0DD0124B75
:105A40001B69114A23F4004313610F4B1A697B68E9
:105A5000D3F8B8300C4913430B617B681B68002BEB
:105A600008DA094BDB6C23F040527B681B6D06495A
:105A70001343CB64BB7D002B01D1002300E0012345
:105A800018461837BD4680BD0044025880B590B016
:105A900000AF78607B68B3F5807F50D1A14B1B6D60
:105AA00003F007033B633B6B042B44D801A252F87D
:105AB00023F000BFC95A0008D95A0008E95A000863
:105AC000315B0008F95A000807F12403184600F07A
:105AD000C1FCBB6AFB6300E207F11803184600F043
