:020000040800F2
:1000000000000824C9170008A9160008B716000840
:10001000BD160008C3160008C9160008000000003D
:10002000000000000000000000000000CF160008E3
:10003000DD16000800000000EB160008F9160008A5
:1000400019180008191800081918000819180008CC
:1000500019180008191800081918000819180008BC
:1000600019180008191800081918000819180008AC
:10007000191800081918000819180008191800089C
:10008000191800081918000819180008191800088C
:10009000191800081918000819180008191800087C
:1000A000191800081918000819180008191800086C
:1000B000191800081918000819180008191800085C
:1000C000191800081918000819180008191800084C
:1000D000191800081918000819180008191800083C
:1000E0001918000819180008000000001918000865
:1000F000191800081918000819180008191800081C
:10010000191800081918000819180008191800080B
:1001100019180008191800081918000819180008FB
:1001200019180008191800081918000819180008EB
:1001300019180008191800081918000819180008DB
:1001400000000000000000000000000000000000AF
:1001500019180008191800081918000819180008BB
:1001600019180008191800081918000819180008AB
:10017000191800081918000819180008191800089B
:10018000191800081918000819180008191800088B
:10019000191800081918000819180008191800087B
:1001A000191800081918000819180008191800086B
:1001B000191800081918000819180008191800085B
:1001C000191800081918000819180008191800084B
:1001D000191800081918000819180008191800083B
:1001E000191800081918000819180008191800082B
:1001F000191800081918000819180008191800081B
:10020000191800081918000819180008191800080A
:1002100019180008191800081918000819180008FA
:100220001918000819180008191800080000000023
:100230001918000819180008000000001918000813
:1002400019180008191800081918000819180008CA
:1002500019180008191800081918000819180008BA
:1002600019180008191800081918000819180008AA
:1002700019180008191800081918000800000000D3
:1002800019180008191800081918000800000000C3
:0802900000000000191800082D
:1002980010B5054C237833B9044B13B10448AFF3B8
:1002A80000800123237010BD10000024000000000E
:1002B800C48D000808B5034B1BB103490348AFF3CD
:1002C800008008BD0000000014000024C48D000850
:1002D800034613F8012B002AFBD1181A013870477E
:1002E80053B94AB9002908BF00281CBF4FF0FF3195
:1002F8004FF0FF3000F072B9ADF1080C6DE904CE93
:1003080000F006F8DDF804E0DDE9022304B07047E8
:100318002DE9F047089E04468846002B4BD18A42B7
:10032800154667D9B2FA82F24AB1C2F1200701FA3A
:1003380002F320FA07F7954047EA030894404FEA8A
:10034800154E230CB8FBFEF71FFA85FC0EFB178829
:1003580043EA084307FB0CF1994209D9EB1807F166
:10036800FF3080F01B81994240F21881023F2B44F4
:100378005B1AA4B2B3FBFEF00EFB103344EA03444D
:1003880000FB0CFCA44509D92C1900F1FF3380F0BF
:100398000781A44540F2048102382C4440EA074012
:1003A800A4EB0C0400271EB1D4400023C6E9004387
:1003B8003946BDE8F0878B4209D9002E00F0EB8062
:1003C8000027C6E9000138463946BDE8F087B3FA88
:1003D80083F7002F47D18B4202D3824200F2FA8082
:1003E800841A61EB030301209846002EE0D0C6E989
:1003F8000048DDE702B9FFDEB2FA82F2002A40F0D7
:100408008F80491B4FEA154E1FFA85F80127B1FB6B
:10041800FEFC230C0EFB1C1143EA014308FB0CF104
:10042800994207D9EB180CF1FF3002D2994200F239
:10043800CD808446591AA3B2B1FBFEF00EFB10140E
:1004480043EA044408FB00F8A04507D92C1900F139
:10045800FF3302D2A04500F2B6801846A4EB080488
:1004680040EA0C409FE7C7F1200CBB4022FA0CFE83
:100478004EEA030E01FA07F420FA0CF521FA0CF300
:100488004FEA1E482543B3FBF8F92C0C08FB193337
:100498001FFA8EFA44EA034309FB0AF49C4202FA63
:1004A80007F200FA07F10BD91EEB030309F1FF303D
:1004B80080F087809C4240F28480A9F1020973444D
:1004C8001B1BADB2B3FBF8F008FB103345EA03443D
:1004D80000FB0AFAA24508D91EEB040400F1FF3319
:1004E8006BD2A24569D90238744440EA0940A0FB9E
:1004F8000289A4EB0A044C45C2464B4654D351D05A
:10050800002E69D0B1EB0A0564EB030404FA0CFC75
:10051800FD40FC404CEA0505C6E90054002747E7C2
:10052800C2F1200320FA03F7954001FA02F021FAFC
:1005380003F34FEA154E3843010CB3FBFEF71FFADD
:1005480085F80EFB173341EA034107FB08F38B429A
:1005580004FA02F407D9691807F1FF3C2FD28B423D
:100568002DD9023F2944CB1A81B2B3FBFEF00EFB12
:10057800103341EA034100FB08F38B4207D969189D
:1005880000F1FF3C17D28B4215D902382944C91A09
:1005980040EA07473BE73746304609E70746E7E6BC
:1005A8001846FBE64145ABD2B8EB020A69EB0E02EE
:1005B80001381346A4E76046E9E7184695E7674619
:1005C800D1E781467CE702382C4447E7ACF1020CBE
:1005D8002B442FE7384608E73746E9E6704700BF5F
:1005E80080B582B000AF78607868FFF771FE034687
:1005F8009AB24FF0FF337968034805F017FF00BF40
:100608000837BD4680BD00BFCC02002480B584B049
:1006180000AF01F0FFF800F045F800F0A3FC00F08F
:1006280039F900F099F900F0D7F900F015FA00F05F
:1006380053FA00F0A7FA00F019FB00F063FB00F092
:10064800ADFB00F0F7FB00F041FC0023FB6000234A
:10065800BB604FF47A737B60FA233B6001F05CF96E
:100668000246FB68D31A7A689A4207D801210B48D8
:1006780002F061FBFA687B681344FB6001F04CF9F7
:100688000246BB68D31A3A689A42E7D80448FFF78B
:10069800A7FFBA683B681344BB60DFE70004025851
:1006A800DC8D000880B5CCB000AF07F1E4034C2224
:1006B8000021184608F07AFB07F1C4032022002124
:1006C800184608F073FB07F108031846BC231A46BE
:1006D800002108F06BFB022002F070FC3B1D002299
:1006E8001A60684B9B69674A43F440439361654BC2
:1006F8009B6903F440423B1D1A60634BDB6A624A04
:1007080043F00103D362604BDB6A03F001023B1D37
:100718001A603B1D1B6800BF5A4B9B6903F40053CA
:10072800B3F5005FF8D1594B9B6A23F00303574A8E
:1007380043F0020393620323C7F8E4304FF4803395
:10074800C7F8E8300123C7F8F0302023C7F8F430A1
:100758000223C7F808310223C7F80C310223C7F86F
:1007680010314823C7F814310223C7F8183102237F
:10077800C7F81C310223C7F820310C23C7F82431ED
:100788000023C7F828310023C7F82C3107F1E40308
:10079800184602F04BFC0346002B01D000F08AFCFF
:1007A8003F23C7F8C4300323C7F8C8300023C7F86D
:1007B800CC300823C7F8D0304023C7F8D4304023C2
:1007C800C7F8D8304FF48063C7F8DC304023C7F847
:1007D800E03007F1C4030321184602F0DFFF0346A7
:1007E800002B01D000F066FC07F10803284A1A60C4
:1007F80007F1080302225A6007F108030C229A60E5
:1008080007F108030122DA6007F1080302221A61DE
:1008180007F1080302225A6107F10803C0229A610E
:1008280007F108032022DA6107F1080300221A629F
:1008380007F1080300221A6507F108034FF4804204
:10084800DA6507F1080300225A6707F10803002256
:100858009A6707F108030022C3F8802007F108030C
:100868000022C3F8A02007F10803184603F0F4FAA1
:100878000346002B01D000F01DFC00BF07F5987758
:10088800BD4680BD00480258000400580044025884
:100898000B10088080B588B000AF3B1D00221A609D
:1008A8005A609A60DA601A615A619A61284B294A3B
:1008B8001A60274B4FF440225A60254B00229A6059
:1008C800234B0022DA60224B04221A61204B0022BB
:1008D8001A751F4B00225A751D4B01229A611C4B39
:1008E80000221A771A4B00225A62194B00229A6288
:1008F800174B0022DA62164B00221A63144B0022AF
:100908005A63134B002283F83820114801F0B2F9DA
:100918000346002B01D000F0CDFB01237B600623AA
:10092800BB600023FB6040F2FF733B6104237B61E3
:100938000023BB613B1D1946054801F03BFB0346FC
:10094800002B01D000F0B6FB00BF2037BD4680BDAC
:10095800680200240060025880B500AF1B4B1C4A97
:100968001A601A4B1B4A5A60184B00229A60174BA0
:100978000122DA60154B00221A61144B00225A61D9
:10098800124B00229A61114B0022DA610F4B0022B0
:100998001A620E4802F0EAF90346002B01D000F073
:1009A80089FB0021094802F071FA0346002B01D0A7
:1009B80000F080FB0021054802F0B3FA0346002B43
:1009C80001D000F077FB00BF80BD00BF44010024C8
:1009D80000540040DD93902080B500AF1B4B1C4AAB
:1009E8001A601A4B1B4A5A60184B00229A60174B20
:1009F8000122DA60154B00221A61144B00225A6159
:100A0800124B00229A61114B0022DA610F4B00222F
:100A18001A620E4802F0AAF90346002B01D000F032
:100A280049FB0021094802F031FA0346002B01D0A6
:100A380000F040FB0021054802F073FA0346002B42
:100A480001D000F037FB00BF80BD00BF900100243B
:100A580000580040DD93902080B500AF1B4B1C4A26
:100A68001A601A4B1B4A5A60184B00229A60174B9F
:100A78000122DA60154B00221A61144B00225A61D8
:100A8800124B00229A61114B0022DA610F4B0022AF
:100A98001A620E4802F06AF90346002B01D000F0F2
:100AA80009FB0021094802F0F1F90346002B01D0A7
:100AB80000F000FB0021054802F033FA0346002B42
:100AC80001D000F0F7FA00BF80BD00BF2C00002461
:100AD800005C0040DD93902080B500AF274B284A8A
:100AE8001A60264B4FF480025A60244B00229A6009
:100AF800224B0322DA60214B00221A611F4B00228D
:100B08005A611E4B4FF080629A611C4B0022DA61D9
:100B18001A4B00221A62194B00225A62174B002204
:100B28009A62164B0022DA62144B4FF080425A63E5
:100B3800124B00229A63114B0022DA630F4B0022FA
:100B48001A640E4B00225A640C4B00229A640B4B19
:100B58000022DA64094B00221A65084B00225A6504
:100B6800064B00229A65054805F016F80346002B47
:100B780001D000F09FFA00BF80BD00BFE40300244D
:100B88000030014080B588B000AF07F1140300229F
:100B98001A605A609A603B1D00221A605A609A6077
:100BA800DA60304B304A1A602E4B00225A602D4BC7
:100BB80000229A602B4B0022DA602A4B00221A612D
:100BC800284B00229A61274805F0F9F80346002BC4
:100BD80001D000F06FFA00237B610023FB6107F16D
:100BE800140319461F4805F075FB0346002B01D076
:100BF80000F060FA00237B600123BB600023FB60E8
:100C080000233B613B1D00221946164805F002F9F6
:100C18000346002B01D000F04DFA3B1D0422194673
:100C2800104805F0F7F80346002B01D000F042FA0F
:100C38003B1D082219460B4805F0ECF80346002B2B
:100C480001D000F037FA3B1D0C221946054805F083
:100C5800E1F80346002B01D000F02CFA00BF203742
:100C6800BD4680BD780000240008004080B500AF74
:100C7800224B234A1A60214B4FF4E1325A601F4B32
:100C880000229A601D4B0022DA601C4B00221A6178
:100C98001A4B0C225A61194B00229A61174B0022F9
:100CA800DA61164B00221A62144B00225A62134B67
:100CB80000229A62114805F069FB0346002B01D017
:100CC80000F0F8F900210D4807F067FF0346002BF4
:100CD80001D000F0EFF90021084807F09CFF034617
:100CE800002B01D000F0E6F9044807F01DFF034689
:100CF800002B01D000F0DEF900BF80BD58030024AE
:100D0800004C004080B500AF224B234A1A60214BAB
:100D18004FF4E1325A601F4B00229A601D4B0022AB
:100D2800DA601C4B00221A611A4B0C225A61194BCB
:100D380000229A61174B0022DA61164B00221A62D0
:100D4800144B00225A62134B00229A62114805F094
:100D58001DFB0346002B01D000F0ACF900210D4823
:100D680007F01BFF0346002B01D000F0A3F9002178
:100D7800084807F050FF0346002B01D000F09AF90D
:100D8800044807F0D1FE0346002B01D000F092F989
:100D980000BF80BDDC0100240050004080B500AFDA
:100DA800224B234A1A60214B4FF4E1325A601F4B01
:100DB80000229A601D4B0022DA601C4B00221A6147
:100DC8001A4B0C225A61194B00229A61174B0022C8
:100DD800DA61164B00221A62144B00225A62134B36
:100DE80000229A62114805F0D1FA0346002B01D07F
:100DF80000F060F900210D4807F0CFFE0346002BF4
:100E080001D000F057F90021084807F004FF034615
:100E1800002B01D000F04EF9044807F085FE034688
:100E2800002B01D000F046F900BF80BDCC020024A1
:100E38000010014080B500AF224B234A1A60214BB5
:100E48004FF4E1325A601F4B00229A601D4B00227A
:100E5800DA601C4B00221A611A4B0C225A61194B9A
:100E680000229A61174B0022DA61164B00221A629F
:100E7800144B00225A62134B00229A62114805F063
:100E880085FA0346002B01D000F014F900210D4823
:100E980007F083FE0346002B01D000F00BF9002178
:100EA800084807F0B8FE0346002B01D000F002F90D
:100EB800044807F039FE0346002B01D000F0FAF889
:100EC80000BF80BD6C0400240044004080B500AF22
:100ED800224B234A1A60214B4FF4E1325A601F4BD0
:100EE80000229A601D4B0022DA601C4B00221A6116
:100EF8001A4B0C225A61194B00229A61174B002297
:100F0800DA61164B00221A62144B00225A62134B04
:100F180000229A62114805F039FA0346002B01D0E5
:100F280000F0C8F800210D4807F037FE0346002BF3
:100F380001D000F0BFF80021084807F06CFE034616
:100F4800002B01D000F0B6F8044807F0EDFD034689
:100F5800002B01D000F0AEF800BF80BDB80000241F
:100F68000048004080B58AB000AF07F114030022A2
:100F78001A605A609A60DA601A614A4BD3F8E03016
:100F8800484A43F08003C2F8E030464BD3F8E030DB
:100F980003F080033B613B69424BD3F8E030414AA0
:100FA80043F00403C2F8E0303E4BD3F8E03003F0DE
:100FB8000403FB60FB683B4BD3F8E030394A43F04D
:100FC8000103C2F8E030374BD3F8E03003F00103F7
:100FD800BB60BB68334BD3F8E030324A43F00203BE
:100FE800C2F8E0302F4BD3F8E03003F002037B6007
:100FF8007B682C4BD3F8E0302A4A43F00803C2F848
:10100800E030284BD3F8E03003F008033B603B683E
:1010180000221021244801F075FE00223F212348B8
:1010280001F070FE00220F21214801F06BFE102311
:101038007B610123BB610023FB6100233B6207F155
:1010480014031946184801F0ADFC3F237B610123C6
:10105800BB610023FB6100233B6207F114031946BF
:10106800124801F09FFC0F237B610123BB61002321
:10107800FB6100233B6207F1140319460C4801F099
:1010880091FCF0237B610023BB610023FB6107F126
:1010980014031946064801F085FC00BF2837BD46F1
:1010A80080BD00BF004402580000025800040258E6
:1010B800000C025880B400AF00BFBD465DF8047B49
:1010C8007047000080B483B000AF0A4BD3F8F43007
:1010D800084A43F00203C2F8F430064BD3F8F43060
:1010E80003F002037B607B6800BF0C37BD465DF8E8
:1010F800047B70470044025880B584B000AF786024
:101108007B681B68184A934229D1184BD3F8E03002
:10111800164A43F08073C2F8E030144BD3F8E0303D
:1011280003F08073FB60FB68104BD3F8E0300F4A84
:1011380043F00403C2F8E0300C4BD3F8E03003F07E
:101148000403BB60BB684FF080614FF0806000F023
:10115800FBFB4FF000614FF0006000F0F5FB00BFB3
:101168001037BD4680BD00BF0060025800440258D9
:1011780080B58EB000AF786007F1240300221A60B2
:101188005A609A60DA601A617B681B685F4A93420A
:101198002ED15F4BD3F8E0305D4A43F00203C2F82A
:1011A800E0305B4BD3F8E03003F002033B623B6A6C
:1011B800C0237B621223BB620023FB6200233B63D4
:1011C80004237B6307F124031946524801F0EAFB24
:1011D8004F4BD3F8E8304E4A43F40013C2F8E830D6
:1011E8004B4BD3F8E83003F40013FB61FB6988E04C
:1011F8007B681B68484A93422FD1454BD3F8E030AF
:10120800434A43F00203C2F8E030414BD3F8E030E0
:1012180003F00203BB61BB694FF440637B62122396
:10122800BB620023FB6200233B6304237B6307F15B
:1012380024031946374801F0B5FB354BD3F8E8309D
:10124800334A43F48003C2F8E830314BD3F8E8302E
:1012580003F480037B617B6953E07B681B682F4A3A
:1012680093424ED12A4BD3F8E030294A43F0040385
:10127800C2F8E030264BD3F8E03003F004033B61BA
:101288003B69234BD3F8E030214A43F00103C2F80D
:10129800E0301F4BD3F8E03003F00103FB60FB683C
:1012A8004FF400737B621223BB620023FB620023AE
:1012B8003B6304237B6307F124031946184801F0B4
:1012C80071FB4FF480737B621223BB620023FB62C5
:1012D80000233B6304237B6307F124031946114869
:1012E80001F060FB0A4BD3F8E830094A43F40003E5
:1012F800C2F8E830064BD3F8E83003F40003BB60CB
:10130800BB6800BF3837BD4680BD00BF00540040F1
:10131800004402580004025800580040005C004095
:10132800000802580000025880B58AB000AF786003
:1013380007F1140300221A605A609A60DA601A6191
:101348007B681B681A4A93422DD11A4BD3F8F030A8
:10135800184A43F48053C2F8F030164BD3F8F030F3
:1013680003F480533B613B69124BD3F8E030114AD8
:1013780043F00103C2F8E0300E4BD3F8E03003F03D
:101388000103FB60FB68E0237B610223BB61002350
:10139800FB6100233B6205237B6207F114031946B6
:1013A800054801F0FFFA00BF2837BD4680BD00BFE1
:1013B80000300140004402580000025880B58AB04D
:1013C80000AF786007F1140300221A605A609A602F
:1013D800DA601A617B681B681A4A93422ED11A4B4D
:1013E800D3F8E830184A43F00403C2F8E830164B43
:1013F800D3F8E83003F004033B613B69124BD3F8A0
:10140800E030114A43F00803C2F8E0300E4BD3F83D
:10141800E03003F00803FB60FB684FF470437B6126
:101428000223BB610023FB6100233B6202237B6232
:1014380007F114031946054801F0B4FA00BF28372C
:10144800BD4680BD0008004000440258000C025808
:1014580080B592B000AF786007F1340300221A60BB
:101468005A609A60DA601A617B681B68834A934203
:101478002ED1834BD3F8E830814A43F40023C2F8D5
:10148800E8307F4BD3F8E83003F400233B633B6B31
:101498007B4BD3F8E0307A4A43F00103C2F8E030DE
:1014A800774BD3F8E03003F00103FB62FB6A0323B8
:1014B8007B630223BB630023FB6300233B64082395
:1014C8007B6407F1340319466E4801F06BFAD1E0EA
:1014D8007B681B686C4A93422FD1694BD3F8E8307C
:1014E800674A43F48013C2F8E830654BD3F8E83014
:1014F80003F48013BB62BB6A614BD3F8E030604AE7
:1015080043F00203C2F8E0305D4BD3F8E03003F05B
:1015180002037B627B6A4FF440537B630223BB6305
:101528000023FB6300233B640E237B6407F1340331
:101538001946564801F036FA9CE07B681B68544A05
:1015480093422FD14E4BD3F8F0304D4A43F010035D
:10155800C2F8F0304A4BD3F8F03003F010033B6286
:101568003B6A474BD3F8E030454A43F00203C2F8E0
:10157800E030434BD3F8E03003F00203FB61FB6932
:101588004FF440437B630223BB630023FB630023C8
:101598003B6404237B6407F1340319463B4801F09C
:1015A80001FA67E07B681B683A4A93422ED1344BB4
:1015B800D3F8E830324A43F40033C2F8E830304B0D
:1015C800D3F8E83003F40033BB61BB692C4BD3F884
:1015D800E0302B4A43F00103C2F8E030284BD3F83F
:1015E800E03003F001037B617B690C237B630223FA
:1015F800BB630023FB6300233B6407237B6407F181
:10160800340319461F4801F0CDF933E07B681B68A5
:10161800214A93422ED11A4BD3F8E830184A43F4A2
:101628008023C2F8E830164BD3F8E83003F480235F
:101638003B613B69124BD3F8E030114A43F0080391
:10164800C2F8E0300E4BD3F8E03003F00803FB603B
:10165800FB684FF440737B630223BB630023FB6387
:1016680000233B6407237B6407F1340319460B48C6
:1016780001F098F900BF4837BD4680BD004C0040D6
:10168800004402580000025800500040000402586C
:10169800001001400044004000480040000C02587F
:1016A80080B400AF00BFBD465DF8047B704780B4CE
:1016B80000AFFEE780B400AFFEE780B400AFFEE7FE
:1016C80080B400AFFEE780B400AF00BFBD465DF850
:1016D800047B704780B400AF00BFBD465DF8047B53
:1016E800704780B400AF00BFBD465DF8047B70470B
:1016F80080B500AF00F0FCF800BF80BD80B400AF3B
:10170800294BD3F88830284A43F47003C2F888304C
:10171800264B1B68254A43F001031360234B002224
:101728001A61224B1A682149214B13400B601F4B49
:1017380000229A611D4B0022DA611C4B00221A62BA
:101748001A4B00229A62194B0022DA62174B0022C8
:101758001A63164B00225A63144B00229A63134BE8
:101768000022DA63114B00221A64104B00225A64DB
:101778000E4B1B680D4A23F4802313600B4B002289
:101788001A660C4B1A680C4B1340B3F1005F02D277
:101798000A4B01221A60044B4FF000629A6000BFA6
:1017A800BD465DF8047B704700ED00E00044025838
:1017B8007FEDF6EA0010005C0000FFFF0881005191
:1017C800DFF834D0002103E00C4B5B584350043160
:1017D8000B480C4B42189A42F6D30B4A02E00023FE
:1017E80042F8043B094B9A42F9D3FFF787FF07F009
:1017F800B9FAFEF70BFF704700000824288E00088E
:10180800000000241000002410000024FC04002420
:10181800FEE7000080B500AF032001F091F802F068
:1018280061F90146134B9B691B0A03F00F03124A27
:10183800D35C03F01F0321FA03F3104A13600F4B24
:101848001A680C4B9B6903F00F030B49CB5C03F040
:101858001F0322FA03F30A4A1360002000F012F86B
:101868000346002B01D0012302E0FFF72BFC0023E5
:10187800184680BD00440258088E00080000002465
:101888000400002480B582B000AF7860154B1B7847
:10189800002B01D1012321E0134B1A68114B1B784F
:1018A80019464FF47A73B3FBF1F3B2FBF3F318461E
:1018B80001F06BF80346002B01D001230EE07B6892
:1018C8000F2B0AD8002279684FF0FF3001F043F857
:1018D800064A7B681360002300E001231846083796
:1018E800BD4680BD0C000024000000240800002430
:1018F80080B400AF064B1B781A46064B1B6813448E
:10190800044A136000BFBD465DF8047B704700BF02
:101918000C000024F804002480B400AF034B1B68BB
:101928001846BD465DF8047B704700BFF8040024E4
:1019380080B400AF034B1B681B0C1846BD465DF80E
:10194800047B70470010005C80B483B000AF7860FF
:101958003960074B5A687B68DB431A4004493B6887
:1019680013434B6000BF0C37BD465DF8047B7047DE
:101978000004005880B483B000AF786039607B6899
:101988009B6823F47C123B681A437B689A6000BF0B
:101998000C37BD465DF8047B704780B483B000AF58
:1019A800786039607B689B6823F0E0723B681A4373
:1019B8007B689A6000BF0C37BD465DF8047B7047B2
:1019C80080B483B000AF78607B689B6803F0E073F5
:1019D80018460C37BD465DF8047B704790B484B058
:1019E80000AFF860B9607A603B60FB6860331A4604
:1019F800BB689B0013441C46236803F000427B68C5
:101A080003F0F8413B680B431343236000BF1037D2
:101A1800BD4690BC704780B485B000AFF860B9602F
:101A28007A60FB681B6923F4F042BB6803F01F036C
:101A3800796801FA03F31A43FB681A6100BF143787
:101A4800BD465DF8047B704790B484B000AFF86081
:101A5800B9607A60FB6860331A46BB689B00134420
:101A68001C46236823F000427B681343236000BFB1
:101A78001037BD4690BC704790B484B000AFF86092
:101A8800B9607A60FB6830331A46BB681B0A9B0052
:101A980003F00C0313441C462268BB6803F01F03C1
:101AA8001F2101FA03F3DB431A407B689B0E03F006
:101AB8001F01BB6803F01F0301FA03F313432360FC
:101AC80000BF1037BD4690BC704790B484B000AFDB
:101AD800F860B9607A60FB6814331A46BB685B0E1D
:101AE8009B0003F0040313441C462268BB681B0DCB
:101AF80003F01F03072101FA03F3DB431A40BB6815
:101B08001B0D03F01F03796801FA03F313432360E5
:101B180000BF1037BD4690BC7047000080B485B048
:101B280000AFF860B9607A60FB68D3F8C020BB6882
:101B3800C3F31303DB431A407B6803F01803084917
:101B4800D940BB680B40C3F313031A43FB68C3F8BF
:101B5800C02000BF1437BD465DF8047B704700BF46
:101B6800FFFF0F0080B483B000AF78607B689A688D
:101B7800044B13407A68936000BF0C37BD465DF88C
:101B8800047B7047C0FFFF5F80B483B000AF78600C
:101B98007B689B6803F00053B3F1005F01D1012318
:101BA80000E0002318460C37BD465DF8047B7047FB
:101BB80080B483B000AF78607B689A68054B1340A7
:101BC80043F080527B689A6000BF0C37BD465DF8D1
:101BD800047B7047C0FFFF6F80B483B000AF7860AC
:101BE8007B689B6803F08053B3F1805F01D10123C8
:101BF80000E0002318460C37BD465DF8047B7047AB
:101C080080B483B000AF78607B689B6803F0010301
:101C1800012B01D1012300E0002318460C37BD46F3
:101C28005DF8047B704780B483B000AF78607B6850
:101C38009B6803F00403042B01D1012300E0002377
:101C480018460C37BD465DF8047B704780B483B0F6
:101C580000AF78607B689B6803F00803082B01D10C
:101C6800012300E0002318460C37BD465DF8047BCD
:101C78007047000090B589B000AF78600023FB770B
:101C88000023BB607B68002B01D101238EE17B68B8
:101C9800DB68002B7B685B6D002B09D17868FFF748
:101CA8002BFA7B6800229A657B68002283F8502013
:101CB8007B681B681846FFF767FF0346002B04D0B4
:101CC8007B681B681846FFF74DFF7B681B68184642
:101CD800FFF782FF0346002B13D17B681B68184669
:101CE800FFF766FF9A4B1B689B099A4AA2FB0323DE
:101CF8009B09BB6002E0BB68013BBB60BB68002B73
:101D0800F9D17B681B681846FFF766FF0346002B6E
:101D18000DD17B685B6D43F010027B685A657B6868
:101D28009B6D43F001027B689A650123FB777B6812
:101D38001B681846FFF777FF78617B685B6D03F0D7
:101D48001003002B40F029817B69002B40F025818E
:101D58007B685B6D23F4817343F002027B685A65EC
:101D68007B681B681846FFF74BFF0346002B36D1EC
:101D78007B681B68784A934204D07B681B68774A63
:101D880093420ED17448FFF73BFF04467348FFF7B0
:101D980037FF03462343002B0CBF01230023DBB28C
:101DA80008E06F48FFF72CFF0346002B0CBF012308
:101DB8000023DBB2002B12D07B681B68664A934273
:101DC80004D07B681B68654A934201D1654A00E0EC
:101DD800654A7B685B6819461046FFF7CBFDFFF73D
:101DE800A7FD024641F203039A4214D97B689B6817
:101DF800102B10D17B685B7D5A037B681B6B1A43E1
:101E08007B689B681A437B681B7F1B04134343F062
:101E18000C03BB610DE07B685B7D5A037B681B6B21
:101E28001A437B689B681A437B681B7F1B04134318
:101E3800BB617B681B7F012B06D17B681B6A013B5A
:101E48005B04BA691343BB617B685B6A002B09D0EA
:101E58007B685B6A03F478727B689B6A1343BA6990
:101E68001343BB617B681B68DA68404B13407A6890
:101E78001268B9690B43D3607B681B681846FFF783
:101E8800D2FE38617B681B681846FFF7DFFEF860F2
:101E98003B69002B4AD1FB68002B47D17B681B7D2F
:101EA8009A037B68DB6A1343BB617B681B68DA684B
:101EB8002F4B13407A681268B9690B43D3607B686B
:101EC80093F83830012B1BD17B685B6A002B7B6849
:101ED8001B681A69274B13407A68D26B013A1104C0
:101EE8007A68126C11437A68526C11437A68926C62
:101EF8000A431A437B681B6842F001021A6107E033
:101F08007B681B681A697B681B6822F001021A61EA
:101F18007B681B681B6923F070417B685A6B7B6880
:101F28001B680A431A61786800F058FB7B68DB6815
:101F3800012B21D17B681B681B6B23F00F017B6889
:101F48009B695A1E7B681B680A431A631CE000BF22
:101F580000000024632D3E050020024000210240BD
:101F680000600258002302400063025803C0F0FFDB
:101F7800FCBFFFFF1EF800FC7B681B681A6B7B68C0
:101F88001B6822F00F021A637B685B6D23F0030362
:101F980043F001027B685A6507E07B685B6D43F09C
:101FA80010027B685A650123FB77FB7F18462437AC
:101FB800BD4690BD90B599B000AF786039600023F8
:101FC80087F85F300023BB603B68DB68994A93421F
:101FD8007B6893F85030012B01D10223E6E27B683D
:101FE800012283F850207B681B681846FFF71BFE08
:101FF8000346002B40F0CB823B681B68C3F31303F6
:10200800002B08D13B681B689B0E03F01F030122BD
:1020180002FA03F30FE03B681B68BB64BB6C93FADE
:10202800A3F37B647B6CB3FA83F3DBB203F01F0387
:10203800012202FA03F37A681268D1697A68126891
:102048000B43D3617B6818683B6859683B681B6819
:102058001A46FFF711FD7B681B681846FFF7E3FD7A
:10206800B8657B681B681846FFF7F0FD7865BB6D9F
:10207800002B40F0B3807B6D002B40F0AF807B6875
:1020880018683B6819683B689B681A46FFF71DFD8E
:10209800694B1B6803F07043B3F1805F0BD13B6859
:1020A8005A697B681B68DB689B0803F007035B00C1
:1020B80002FA03F31DE07B681B68DB6803F010037A
:1020C800002B0BD13B685A697B681B68DB689B084F
:1020D80003F007035B0002FA03F30AE03B685A695E
:1020E8007B681B68DB689B0803F004035B0002FA4B
:1020F80003F33B653B681B69042B27D07B68186892
:102108003B6819693B681A683B6DFFF767FC7B6899
:1021180018683B6819693B685B7E012B02D14FF058
:10212800004300E000231A46FFF78EFC7B6818681E
:102138003B6819693B681B7E012B02D14FF4006391
:1021480000E000231A46FFF766FC47E07B681B683F
:102158001B6E03F0F8423B681B689B069A4207D146
:102168007B681B681A6E7B681B6822F000421A663F
:102178007B681B685B6E03F0F8423B681B689B0634
:102188009A4207D17B681B685A6E7B681B6822F0ED
:1021980000425A667B681B689B6E03F0F8423B68F6
:1021A8001B689B069A4207D17B681B689A6E7B68FE
:1021B8001B6822F000429A667B681B68DB6E03F09E
:1021C800F8423B681B689B069A4207D17B681B68EC
:1021D800DA6E7B681B6822F00042DA667B681B684F
:1021E8001846FFF70DFD0346002B40F0D9817B68A8
:1021F80018683B6819683B68DB681A46FFF78EFC6D
:102208003B68DB680B4A934240F001817B681868A1
:102218003B681B68C3F31303002B0FD13B681B6893
:102228009B0E013303F01F03092B94BF01230023E6
:10223800DBB216E00000FF470010005C3B681B683B
:102248003B643B6C93FAA3F3FB63FB6BB3FA83F336
:10225800DBB2013303F01F03092B94BF01230023D2
:10226800DBB2002B64D03B681B68C3F31303002B5D
:1022780007D13B681B689B0E01339B0603F0F842AD
:102288000EE03B681B68BB63BB6B93FAA3F37B63ED
:102298007B6BB3FA83F3DBB201339B0603F0F8429E
:1022A8003B681B68C3F31303002B09D13B681B6809
:1022B8009B0E013303F01F03012101FA03F310E021
:1022C8003B681B683B633B6B93FAA3F3FB62FB6AB7
:1022D800B3FA83F3DBB2013303F01F03012101FAE0
:1022E80003F342EA03013B681B68C3F31303002BA3
:1022F8000AD13B681B689B0E013303F01F0213468B
:102308005B0013441B0511E03B681B68BB62BB6A9A
:1023180093FAA3F37B627B6AB3FA83F3DBB20133EC
:1023280003F01F0213465B0013441B050B4369E0CF
:102338003B681B68C3F31303002B07D13B681B687A
:102348009B0E01339B0603F0F8420EE03B681B68C6
:102358003B623B6A93FAA3F3FB61FB69B3FA83F32D
:10236800DBB201339B0603F0F8423B681B68C3F3FA
:102378001303002B09D13B681B689B0E013303F044
:102388001F03012101FA03F310E03B681B68BB61DE
:10239800BB6993FAA3F37B617B69B3FA83F3DBB27E
:1023A800013303F01F03012101FA03F342EA030199
:1023B8003B681B68C3F31303002B0DD13B681B68F4
:1023C8009B0E013303F01F0213465B0013441E3BB0
:1023D8001B0543F0007314E03B681B683B613B69D5
:1023E80093FAA3F3FB60FB68B3FA83F3DBB2013320
:1023F80003F01F0213465B0013441E3B1B0543F00A
:1024080000730B433A6892681946FFF75EFB3B6816
:102418001B68002B80F2C4807B681B68654A934266
:1024280004D07B681B68644A934201D1634B00E087
:10243800634B1846FFF7C4FAF8647B681B685D4A6B
:10244800934204D07B681B685B4A93420ED159487B
:10245800FFF7D6FB04465848FFF7D2FB0346234351
:10246800002B0CBF01230023DBB208E05548FFF71F
:10247800C7FB0346002B0CBF01230023DBB2002B54
:102488007BD03B681B68504A93422ED1FB6C03F407
:102498000003002B29D17B681B684A4A93427FD1ED
:1024A8007B681B68434A934204D07B681B68424A96
:1024B800934201D1414A00E0414AFB6C43F40003D6
:1024C80019461046FFF769FA404B1B689B09404ABA
:1024D800A2FB03239B095B00BB6002E0BB68013BD6
:1024E800BB60BB68002BF9D15AE03B681B68394ACE
:1024F80093421ED1FB6C03F08073002B19D17B68CB
:102508001B68304A93424BD17B681B68294A934227
:1025180004D07B681B68284A934201D1274A00E00F
:10252800274AFB6C43F0807319461046FFF735FACB
:1025380036E03B681B68284A934231D1FB6C03F4B0
:102548008003002B2CD17B681B681E4A934227D13D
:102558007B681B68174A934204D07B681B68164A3D
:10256800934201D1154A00E0154AFB6C43F48003FD
:1025780019461046FFF711FA12E07B685B6D43F0CD
:1025880020027B685A65012387F85F3008E07B6882
:102598005B6D43F020027B685A65012387F85F3042
:1025A8007B68002283F8502097F85F30184664371C
:1025B800BD4690BD00200240002102400023024099
:1025C8000063025800600258000084CB0000002419
:1025D800632D3E05000052C70000B8CF80B584B017
:1025E80000AF78607B681B68744A934204D07B68AC
:1025F8001B68734A934209D1724B9B6803F44033BA
:10260800002B14BF01230023DBB208E06E4B9B684C
:1026180003F44033002B14BF01230023DBB2002B4B
:102628001AD001F0D1FBF8607B685B68B3F5003F16
:1026380006D0B3F5403F0BD0B3F5803F00D05DE046
:102648007B685B681B0CFA68B2FBF3F3FB6055E030
:10265800FB689B08FB6051E04FF4002002F0ECFAA5
:10266800F8607B685B68B3F5C01F2AD0B3F5C01F5C
:1026780013D8B3F5402F24D0B3F5402F06D8B3F5BF
:10268800802F1ED0B3F5002F1BD037E0B3F5801F85
:1026980017D0B3F5A01F14D030E0B3F5101F21D028
:1026A800B3F5101F06D8B3F5E01F13D0B3F5001F1C
:1026B80014D023E0B3F5201F18D0B3F5301F19D07C
:1026C8001CE07B685B689B0C5B00FA68B2FBF3F369
:1026D800FB6013E0FB681B09FB600FE0FB685B090C
:1026E800FB600BE0FB689B09FB6007E0FB68DB090C
:1026F800FB6003E0FB681B0AFB6000BFFFF718F9EB
:10270800024641F203039A4215D8FB682F4A9342C6
:1027180008D97B681B689A687B681B6842F48072DA
:102728009A6047E07B681B689A687B681B6822F49C
:1027380080729A603EE0FB685B08FB60FB68244A95
:10274800934208D87B681B689A687B681B6822F4E8
:1027580040729A602EE0FB681D4A93420ED9FB68CE
:102768001C4A93420AD87B681B689B6823F4407212
:102778007B681B6842F480729A601BE0FB68154A0C
:1027880093420ED9FB68144A93420AD87B681B68A7
:102798009B6823F440727B681B6842F400729A605D
:1027A80008E07B681B689A687B681B6842F4407283
:1027B8009A60FFE700BF1037BD4680BD0020024089
:1027C800002102400023024000630258002D31011D
:1027D800105E5F0020BCBE0040787D0180B485B0EB
:1027E80000AF78607B6803F00703FB600B4BDB6886
:1027F800BB60BA684FF6FF031340BB60FB681A0260
:10280800BB681A43064B1343BB60044ABB68D360DA
:1028180000BF1437BD465DF8047B704700ED00E04B
:102828000000FA0580B400AF044BDB681B0A03F014
:1028380007031846BD465DF8047B704700ED00E0CD
:1028480080B483B000AF03463960FB80B7F9063027
:10285800002B0ADB3B68DAB20C49B7F906301201E3
:10286800D2B20B4483F800230AE03B68DAB2084985
:10287800FB8803F00F03043B1201D2B20B441A7613
:1028880000BF0C37BD465DF8047B704700E100E0EF
:1028980000ED00E080B489B000AFF860B9607A60FC
:1028A800FB6803F00703FB61FB69C3F10703042B13
:1028B80028BF0423BB61FB690433062B02D9FB69DB
:1028C800033B00E000237B614FF0FF32BB6902FA53
:1028D80003F3DA43BB681A407B699A404FF0FF3133
:1028E8007B6901FA03F3D9437B680B40134318460D
:1028F8002437BD465DF8047B7047000080B582B080
:1029080000AF78607B68013BB3F1807F01D301237E
:102918000FE00A4A7B68013B53600F214FF0FF30FC
:10292800FFF78EFF054B00229A60044B07221A60BE
:10293800002318460837BD4680BD00BF10E000E000
:1029480080B582B000AF78607868FFF747FF00BFB6
:102958000837BD4680BD80B586B000AF0346B96074
:102968007A60FB81FFF75EFF78617A68B9687869F9
:10297800FFF790FF0246B7F90E3011461846FFF7E9
:102988005FFF00BF1837BD4680BD80B582B000AF7D
:1029980078607868FFF7B2FF034618460837BD46E7
:1029A80080BD000080B489B000AF78603960002332
:1029B800FB61894B7B6194E13B681A680121FB69E3
:1029C80001FA03F313403B613B69002B00F0868159
:1029D8003B685B68022B03D03B685B68122B23D1F2
:1029E800FB69DA087B68083253F82230BB61FB695F
:1029F80003F007039B000F2202FA03F3DB43BA69D3
:102A08001340BB613B681A69FB6903F007039B002D
:102A180002FA03F3BA691343BB61FB69DA087B68FE
:102A28000832B96943F822107B681B68BB61FB69EF
:102A38005B00032202FA03F3DB43BA691340BB616C
:102A48003B685B6803F00302FB695B0002FA03F36F
:102A5800BA691343BB617B68BA691A603B685B68F3
:102A6800012B0BD03B685B68022B07D03B685B6887
:102A7800112B03D03B685B68122B30D17B689B68B5
:102A8800BB61FB695B00032202FA03F3DB43BA690B
:102A98001340BB613B68DA68FB695B0002FA03F329
:102AA800BA691343BB617B68BA699A607B685B68E3
:102AB800BB610122FB6902FA03F3DB43BA691340E5
:102AC800BB613B685B681B0903F00102FB6902FA02
:102AD80003F3BA691343BB617B68BA695A607B68C0
:102AE800DB68BB61FB695B00032202FA03F3DB438B
:102AF800BA691340BB613B689A68FB695B0002FADC
:102B080003F3BA691343BB617B68BA69DA603B684F
:102B18005B6803F08053002B00F0E0802F4BD3F864
:102B2800F4302E4A43F00203C2F8F4302B4BD3F8AA
:102B3800F43003F00203FB60FB68294AFB699B0839
:102B4800023352F82330BB61FB6903F003039B0097
:102B58000F2202FA03F3DB43BA691340BB617B68B7
:102B6800204A934252D07B681F4A934231D07B68F7
:102B78001E4A93422BD07B681D4A934225D07B681E
:102B88001C4A93421FD07B681B4A934219D07B682A
:102B98001A4A934213D07B68194A93420DD07B6836
:102BA800184A934207D07B68174A934201D10923F8
:102BB8002DE00A232BE0082329E0072327E006233A
:102BC80025E0052323E0042321E003231FE002235B
:102BD8001DE001231BE000BF80000058004402589C
:102BE8000004005800000258000402580008025867
:102BF800000C02580010025800140258001802581D
:102C0800001C025800200258002402580023FA69C8
:102C180002F0030292009340BA691343BB6138493A
:102C2800FB699B080233BA6941F823207B691B685A
:102C3800BB613B69DB43BA691340BB613B685B68B6
:102C480003F48033002B03D0BA693B691343BB619B
:102C58007B69BA691A607B695B68BB613B69DB4366
:102C6800BA691340BB613B685B6803F40033002B0F
:102C780003D0BA693B691343BB617B69BA695A607F
:102C88004FF0B0431B68BB613B69DB43BA69134033
:102C9800BB613B685B6803F48013002B03D0BA69FF
:102CA8003B691343BB614FF0B042BB6913604FF0FF
:102CB800B0435B68BB613B69DB43BA691340BB61E6
:102CC8003B685B6803F40013002B03D0BA693B69C7
:102CD8001343BB614FF0B042BB695360FB690133DA
:102CE800FB613B681A68FB6922FA03F3002B7FF447
:102CF80063AE00BF2437BD465DF8047B704700BF54
:102D08000004005880B483B000AF78600B467B8025
:102D180013467B707B78002B03D07A887B689A6196
:102D280003E07B881A047B689A6100BF0C37BD46B4
:102D38005DF8047B704780B483B000AF78600B46C1
:102D48007B807B685A697B881A407B889A4204D1C9
:102D58007B881A047B689A6102E07A887B689A61AA
:102D680000BF0C37BD465DF8047B704780B582B064
:102D780000AF78607B68002B01D101237FE07B687E
:102D880093F84130DBB2002B06D17B68002283F830
:102D980040207868FEF7ECF97B68242283F841200C
:102DA8007B681B681A687B681B6822F001021A603E
:102DB8007B685A687B681B6822F070621A617B68BE
:102DC8001B689A687B681B6822F400429A607B68DB
:102DD800DB68012B07D17B689A687B681B6842F423
:102DE80000429A6006E07B689A687B681B6842F438
:102DF80004429A607B68DB68022B04D17B681B68FD
:102E08004FF400625A607B681B6859687B681A68CF
:102E18001D4B0B4353607B681B68DA687B681B6833
:102E280022F40042DA607B681A697B685B6942EACF
:102E380003017B689B691A027B681B680A43DA6096
:102E48007B68D9697B681A6A7B681B680A431A60C1
:102E58007B681B681A687B681B6842F001021A606D
:102E68007B6800225A647B68202283F841207B68B3
:102E780000221A637B68002283F842200023184648
:102E88000837BD4680BD00BF0080000280B483B013
:102E980000AF786039607B6893F84130DBB2202B53
:102EA80038D17B6893F84030012B01D1022332E0FE
:102EB8007B68012283F840207B68242283F8412024
:102EC8007B681B681A687B681B6822F001021A601D
:102ED8007B681B681A687B681B6822F480521A603A
:102EE8007B681B6819687B681B683A680A431A6024
:102EF8007B681B681A687B681B6842F001021A60CD
:102F08007B68202283F841207B68002283F84020D8
:102F1800002300E0022318460C37BD465DF8047B09
:102F2800704780B485B000AF786039607B6893F8EB
:102F38004130DBB2202B39D17B6893F84030012B2C
:102F480001D1022333E07B68012283F840207B68AB
:102F5800242283F841207B681B681A687B681B68F9
:102F680022F001021A607B681B681B68FB60FB6823
:102F780023F47063FB603B681B02FA681343FB6031
:102F88007B681B68FA681A607B681B681A687B682C
:102F98001B6842F001021A607B68202283F84120F6
:102FA8007B68002283F84020002300E002231846B3
:102FB8001437BD465DF8047B7047000080B584B0C7
:102FC80000AF7860184BDB6803F00403042B08D0CB
:102FD800154BDB6803F007037A689A4201D0012396
:102FE8001DE0114BDB6823F007020F497B68134390
:102FF800CB60FEF791FCF86009E0FEF78DFC024615
:10300800FB68D31AB3F57A7F01D9032307E0064B8F
:103018005B6803F40053B3F5005FEED10023184654
:103028001037BD4680BD00BF0048025880B58AB041
:1030380000AF78607B68002B01D10123A4E37B6893
:103048001B6803F00103002B00F087809A4B1B6973
:1030580003F038037B62984B9B6A3B627B6A102BB8
:1030680007D07B6A182B10D13B6A03F00303022BAD
:103078000BD1914B1B6803F40033002B6CD07B6899
:103088005B68002B68D101237EE37B685B68B3F53E
:10309800803F06D1884B1B68874A43F4803313600E
:1030A8002EE07B685B68002B0CD1834B1B68824A3F
:1030B80023F480331360804B1B687F4A23F48023FA
:1030C80013601DE07B685B68B3F5A02F0CD17A4BC9
:1030D8001B68794A43F480231360774B1B68764A50
:1030E80043F4803313600BE0734B1B68724A23F47C
:1030F80080331360704B1B686F4A23F4802313607E
:103108007B685B68002B13D0FEF706FCF86108E0CB
:10311800FEF702FC0246FB69D31A642B01D903238C
:1031280032E3654B1B6803F40033002BF0D014E046
:10313800FEF7F2FBF86108E0FEF7EEFB0246FB69DA
:10314800D31A642B01D903231EE35B4B1B6803F4DA
:103158000033002BF0D100E000BF7B681B6803F050
:103168000203002B00F0B080534B1B6903F03803B7
:10317800BB61514B9B6A7B61BB69002B07D0BB6964
:10318800182B49D17B6903F00303002B44D14A4B28
:103198001B6803F00403002B05D07B68DB68002B59
:1031A80001D10123F0E2444B1B6823F019027B682C
:1031B800DB68414913430B60FEF7AEFBF86108E09A
:1031C800FEF7AAFB0246FB69D31A022B01D9032397
:1031D800DAE2394B1B6803F00403002BF0D0FEF74A
:1031E800A7FB024641F203039A420AD8324B5B68B6
:1031F80023F47C327B681B691B032F4913434B6004
:1032080062E02D4B5B6823F0FE427B681B691B065E
:10321800294913434B6057E07B68DB68002B38D0A3
:10322800254B1B6823F019027B68DB68224913438E
:103238000B60FEF771FBF86108E0FEF76DFB0246D4
:10324800FB69D31A022B01D903239DE21A4B1B6891
:1032580003F00403002BF0D0FEF76AFB024641F2AC
:1032680003039A420AD8144B5B6823F47C327B68C8
:103278001B691B03104913434B6025E00E4B5B6829
:1032880023F0FE427B681B691B060B4913434B6006
:103298001AE0094B1B68084A23F001031360FEF784
:1032A8003BFBF8610AE0FEF737FB0246FB69D31ADD
:1032B800022B03D9032367E200440258A04B1B6882
:1032C80003F00403002BEED17B681B6803F01003A6
:1032D800002B00F08F809A4B1B6903F038033B6189
:1032E800974B9B6AFB603B69082B07D03B69182BFF
:1032F8002DD1FB6803F00303012B28D1904B1B68E9
:1033080003F48073002B05D07B68DB69802B01D028
:10331800012339E2FEF70CFB024641F203039A420D
:103328000AD8874B5B6823F0F8427B681B6A9B06C8
:10333800834913434B605DE0814BDB6823F07C528B
:103348007B681B6A1B067E491343CB6052E07B688F
:10335800DB69002B35D07A4B1B68794A43F0800330
:103368001360FEF7D9FAF86108E0FEF7D5FA0246CD
:10337800FB69D31A022B01D9032305E2704B1B68A2
:1033880003F48073002BF0D0FEF7D2FA024641F224
:1033980003039A420AD86A4B5B6823F0F8427B68B9
:1033A8001B6A9B06664913434B6023E0644BDB684A
:1033B80023F07C527B681B6A1B0661491343CB6070
:1033C80018E05F4B1B685E4A23F080031360FEF72A
:1033D800A3FAF86108E0FEF79FFA0246FB69D31AE0
:1033E800022B01D90323CFE1554B1B6803F48073EB
:1033F800002BF0D17B681B6803F00803002B36D044
:103408007B685B69002B19D04D4B5B6F4C4A43F0CE
:1034180001035367FEF780FAF86108E0FEF77CFACB
:103428000246FB69D31A022B01D90323ACE1444BB2
:103438005B6F03F00203002BF0D018E0404B5B6F8A
:103448003F4A23F001035367FEF766FAF86108E084
:10345800FEF762FA0246FB69D31A022B01D903234D
:1034680092E1374B5B6F03F00203002BF0D17B68CE
:103478001B6803F02003002B36D07B689B69002B68
:1034880019D02F4B1B682E4A43F480531360FEF764
:1034980043FAF86108E0FEF73FFA0246FB69D31ADF
:1034A800022B01D903236FE1254B1B6803F400535A
:1034B800002BF0D018E0224B1B68214A23F48053DC
:1034C8001360FEF729FAF86108E0FEF725FA0246CC
:1034D800FB69D31A022B01D9032355E1184B1B684A
:1034E80003F40053002BF0D17B681B6803F004033E
:1034F800002B00F08680134B1B68124A43F480733C
:103508001360FEF709FAF86108E0FEF705FA0246CB
:10351800FB69D31A642B01D9032335E1094B1B68D6
:1035280003F48073002BF0D07B689B68012B0BD1D0
:10353800034B1B6F024A43F00103136732E000BFDD
:1035480000440258004802587B689B68002B0CD145
:103558008F4B1B6F8E4A23F0010313678C4B1B6F35
:103568008B4A23F0040313671CE07B689B68052BD8
:103578000CD1874B1B6F864A43F004031367844BB7
:103588001B6F834A43F0010313670BE0804B1B6FEB
:103598007F4A23F0010313677D4B1B6F7C4A23F09E
:1035A800040313677B689B68002B15D0FEF7B4F9FA
:1035B800F8610AE0FEF7B0F90246FB69D31A41F256
:1035C8008832934201D90323DEE0714B1B6F03F06D
:1035D8000203002BEED014E0FEF79EF9F8610AE032
:1035E800FEF79AF90246FB69D31A41F288329342F0
:1035F80001D90323C8E0664B1B6F03F00203002BBD
:10360800EED17B685B6A002B00F0BD80604B1B69C4
:1036180003F03803182B00F0B4807B685B6A022B38
:1036280040F095805A4B1B68594A23F08073136009
:10363800FEF772F9F86108E0FEF76EF90246FB69D9
:10364800D31A022B01D903239EE0514B1B6803F0C8
:103658000073002BF0D14E4B9A6A4E4B13407A6898
:10366800916A7A68D26A12010A43494913438B6204
:103678007B681B6B013BC3F308027B685B6B013BF8
:103688005B029BB21A437B689B6B013B1B0403F4F0
:10369800FE031A437B68DB6B013B1B0603F0FE430A
:1036A8003B4913430B633A4BDB6A394A23F0010366
:1036B800D362374B5A6B384B13407A68926CD200FE
:1036C800334913434B63324BDB6A23F00C027B68AC
:1036D8001B6C2F491343CB622D4BDB6A23F002028C
:1036E8007B685B6C2A491343CB62294BDB6A284A07
:1036F80043F48033D362264BDB6A254A43F4003314
:10370800D362234BDB6A224A43F48023D362204BE3
:10371800DB6A1F4A43F00103D3621D4B1B681C4A36
:1037280043F080731360FEF7F7F8F86108E0FEF7DE
:10373800F3F80246FB69D31A022B01D9032323E0CD
:10374800134B1B6803F00073002BF0D01BE0104BE9
:103758001B680F4A23F080731360FEF7DDF8F861E9
:1037680008E0FEF7D9F80246FB69D31A022B01D903
:10377800032309E0064B1B6803F00073002BF0D10C
:1037880001E0012300E0002318462837BD4680BD2C
:10379800004402580CFCFFFF0700FFFF80B584B00F
:1037A80000AF786039607B68002B01D101238DE17F
:1037B8008A4B1B6803F00F033A689A4210D9874B6B
:1037C8001B6823F00F0285493B6813430B60834B4A
:1037D8001B6803F00F033A689A4201D0012375E190
:1037E8007B681B6803F00403002B10D07B681A6900
:1037F8007B4B9B6903F070039A4208D9784B9B690D
:1038080023F070027B681B69754913438B617B68E1
:103818001B6803F00803002B10D07B685A69704BB3
:10382800DB6903F070039A4208D96D4BDB6923F01A
:1038380070027B685B696A491343CB617B681B68CC
:1038480003F01003002B10D07B689A69644BDB6986
:1038580003F4E0639A4208D9614BDB6923F4E06220
:103868007B689B695E491343CB617B681B6803F0E7
:103878002003002B10D07B68DA69594B1B6A03F0D0
:1038880070039A4208D9564B1B6A23F070027B6872
:10389800DB69534913430B627B681B6803F002031F
:1038A800002B10D07B68DA684D4B9B6903F00F033F
:1038B8009A4208D94A4B9B6923F00F027B68DB6860
:1038C800474913438B617B681B6803F00103002B96
:1038D80055D0434B9B6923F470627B689B684049D1
:1038E80013438B617B685B68022B07D13C4B1B68D9
:1038F80003F40033002B21D10123E7E07B685B68E8
:10390800032B07D1364B1B6803F00073002B15D12E
:103918000123DBE07B685B68012B07D1304B1B6818
:1039280003F48073002B09D10123CFE02C4B1B68D3
:1039380003F00403002B01D10123C7E0284B1B69C6
:1039480023F007027B685B68254913430B61FDF789
:10395800E3FFF8600AE0FDF7DFFF0246FB68D31AD1
:1039680041F28832934201D90323AFE01C4B1B6913
:1039780003F038027B685B68DB009A42EBD17B6816
:103988001B6803F00203002B10D07B68DA68144B25
:103998009B6903F00F039A4208D2114B9B6923F0ED
:1039A8000F027B68DB680E4913438B610B4B1B6866
:1039B80003F00F033A689A4214D2084B1B6823F0AD
:1039C8000F0206493B6813430B60044B1B6803F066
:1039D8000F033A689A4205D0012377E0002000528D
:1039E800004402587B681B6803F00403002B10D0C6
:1039F8007B681A69374B9B6903F070039A4208D2B7
:103A0800344B9B6923F070027B681B69314913436F
:103A18008B617B681B6803F00803002B10D07B6860
:103A28005A692C4BDB6903F070039A4208D2294B80
:103A3800DB6923F070027B685B6926491343CB611D
:103A48007B681B6803F01003002B10D07B689A6911
:103A5800204BDB6903F4E0639A4208D21D4BDB6913
:103A680023F4E0627B689B691A491343CB617B6846
:103A78001B6803F02003002B10D07B68DA69154B14
:103A88001B6A03F070039A4208D2124B1B6A23F098
:103A980070027B68DB690F4913430B6200F022F860
:103AA80001460C4B9B691B0A03F00F030A4AD35CBF
:103AB80003F01F0321FA03F3084A1360084B1B683D
:103AC8001846FDF7DFFE0346FB72FB7A18461037EF
:103AD800BD4680BD00440258088E0008000000243E
:103AE8000800002480B489B000AFAF4B1B6903F015
:103AF8003803182B00F24E8101A252F823F000BFC0
:103B08006D3B00089D3D00089D3D00089D3D000857
:103B18009D3D00089D3D00089D3D00089D3D000815
:103B2800933B00089D3D00089D3D00089D3D000811
:103B38009D3D00089D3D00089D3D00089D3D0008F5
:103B4800993B00089D3D00089D3D00089D3D0008EB
:103B58009D3D00089D3D00089D3D00089D3D0008D5
:103B68009F3B0008904B1B6803F02003002B09D0F3
:103B78008D4B1B68DB0803F003038C4A22FA03F31E
:103B8800BB610AE1894BBB6107E1894BBB6104E179
:103B9800884BBB6101E1844B9B6A03F003037B61A3
:103BA800814B9B6A1B0903F03F033B617E4BDB6A39
:103BB80003F00103FB607C4B5B6BDB08C3F30C0376
:103BC800FA6802FB03F307EE903AF8EE677AC7ED5E
:103BD800027A3B69002B00F0DA807B69012B5AD00E
:103BE800012B02D3022B78D099E06F4B1B6803F0AE
:103BF8002003002B2DD06C4B1B68DB0803F003035C
:103C08006A4A22FA03F37B607B6807EE903AF8EE83
:103C1800676A3B6907EE903AF8EE677A86EEA77A0C
:103C2800614B1B6BC3F3080307EE903AF8EE676A23
:103C380097ED026ADFED605AC6EE257A76EEA77A2E
:103C4800F7EE006A77EEA67A67EE277AC7ED077A6D
:103C580087E03B6907EE903AF8EE677ADFED576A3E
:103C680086EEA77A504B1B6BC3F3080307EE903A16
:103C7800F8EE676A97ED026ADFED4F5AC6EE257ACD
:103C880076EEA77AF7EE006A77EEA67A67EE277ADD
:103C9800C7ED077A65E03B6907EE903AF8EE677A78
:103CA800DFED476A86EEA77A3F4B1B6BC3F3080329
:103CB80007EE903AF8EE676A97ED026ADFED3E5A32
:103CC800C6EE257A76EEA77AF7EE006A77EEA67A40
:103CD80067EE277AC7ED077A43E03B6907EE903A2B
:103CE800F8EE677ADFED376A86EEA77A2E4B1B6B04
:103CF800C3F3080307EE903AF8EE676A97ED026A95
:103D0800DFED2D5AC6EE257A76EEA77AF7EE006A31
:103D180077EEA67A67EE277AC7ED077A21E03B6946
:103D280007EE903AF8EE677ADFED256A86EEA77A15
:103D38001D4B1B6BC3F3080307EE903AF8EE676A56
:103D480097ED026ADFED1C5AC6EE257A76EEA77A61
:103D5800F7EE006A77EEA67A67EE277AC7ED077A5C
:103D680000BF114B1B6B5B0A03F07F0301333B6001
:103D78003B6807EE903AB8EE677AD7ED076AC6EE69
:103D8800877AFCEEE77A17EE903ABB6105E00023EC
:103D9800BB6102E0064BBB6100BFBB691846243714
:103DA800BD465DF8047B7047004402580090D0037C
:103DB80000093D0040787D01000000460024744C55
:103DC8000024744A20BCBE4B80B500AF01F064FDEE
:103DD8000146084B9B6903F00F03074AD35C03F0C5
:103DE8001F0321FA03F3054A1360044B1B681846A6
:103DF80080BD00BF00440258088E0008040000245B
:103E080080B500AFFFF7E0FF0146064BDB691B09F1
:103E180003F00703044AD35C03F01F0321FA03F3FA
:103E2800184680BD00440258088E000880B500AFCF
:103E3800FFF7CAFF0146064BDB691B0A03F00703BD
:103E4800044AD35C03F01F0321FA03F3184680BD2C
:103E580000440258088E000880B586B000AF78602C
:103E68000023FB750023BB757B681B6803F00063A8
:103E7800002B3DD07B685B6EB3F5801F13D0B3F584
:103E8800801F02D8002B07D01FE0B3F5001F13D006
:103E9800B3F5401F1CD018E0AF4BDB6AAE4A43F4C1
:103EA8000033D36215E07B6804330221184601F021
:103EB8000FFD0346FB750CE07B682433022118468E
:103EC80001F0B8FD0346FB7503E00123FB7500E034
:103ED80000BFFB7D002B09D19F4B1B6D23F44012C3
:103EE8007B685B6E9C4913430B6501E0FB7DBB75EA
:103EF8007B681B6803F48073002B3DD07B685B6D87
:103F0800042B26D801A252F823F000BF293F00084D
:103F1800373F0008493F0008613F0008613F00083B
:103F28008D4BDB6A8C4A43F40033D36215E07B681F
:103F380004330021184601F0CBFC0346FB750CE066
:103F48007B6824330021184601F074FD0346FB7595
:103F580003E00123FB7500E000BFFB7D002B09D1C6
:103F68007D4B1B6D23F007027B685B6D7A49134319
:103F78000B6501E0FB7DBB757B681B6803F4007370
:103F8800002B3ED07B689B6D802B1CD0802B04D8E7
:103F9800002B08D0402B0DD01EE0C02B1FD0B3F54E
:103FA800807F1ED018E06C4BDB6A6B4A43F4003309
:103FB800D36217E07B6804330021184601F088FCBF
:103FC8000346FB750EE07B6824330021184601F098
:103FD80031FD0346FB7505E00123FB7502E000BFD8
:103FE80000E000BFFB7D002B09D15B4B1B6D23F468
:103FF800E0727B689B6D584913430B6501E0FB7DBC
:10400800BB757B681B6803F48063002B44D07B6816
:10401800D3F8A430B3F5800F1FD0B3F5800F05D8BF
:10402800002B0AD0B3F5001F0ED01FE0B3F5C00F68
:104038001FD0B3F5000F1ED018E0474BDB6A464A85
:1040480043F40033D36217E07B6804330021184639
:1040580001F03EFC0346FB750EE07B68243300212B
:10406800184601F0E7FC0346FB7505E00123FB75E4
:1040780002E000BF00E000BFFB7D002B0AD1364BF9
:104088009B6D23F460027B68D3F8A4303249134354
:104098008B6501E0FB7DBB757B681B6803F40063DF
:1040A800002B44D07B68D3F8A830B3F1007F1FD031
:1040B800B3F1007F05D8002B0AD0B3F1807F0ED072
:1040C8001FE0B3F1407F1FD0B3F1806F1ED018E01E
:1040D800214BDB6A204A43F40033D36217E07B6844
:1040E80004330021184601F0F3FB0346FB750EE08C
:1040F8007B6824330021184601F09CFC0346FB75BD
:1041080005E00123FB7502E000BF00E000BFFB7D76
:10411800002B0AD1104B9B6D23F0E0627B68D3F82B
:10412800A8300D4913438B6501E0FB7DBB757B68A7
:104138001B6803F00073002B35D07B689B6C102B39
:104148000CD0102B02D8002B1BD017E0202B0CD042
:10415800302B18D012E000BF00440258AF4BDB6A86
:10416800AE4A43F40033D3620EE07B680433022185
:10417800184601F0ADFB0346FB7505E00123FB750E
:1041880002E000BF00E000BFFB7D002B09D1A34B7C
:10419800DB6C23F030027B689B6CA0491343CB6433
:1041A80001E0FB7DBB757B681B6803F48053002B23
:1041B80042D07B68DB6DB3F5005F1FD0B3F5005FBD
:1041C80005D8002B0AD0B3F5805F0ED01FE0B3F5F9
:1041D800405F1FD0B3F5804F1ED018E08F4BDB6ACD
:1041E8008E4A43F40033D36217E07B68043300211E
:1041F800184601F06DFB0346FB750EE07B6824331F
:104208000021184601F016FC0346FB7505E0012362
:10421800FB7502E000BF00E000BFFB7D002B09D169
:104228007E4B1B6D23F4E0427B68DB6D7B491343B7
:104238000B6501E0FB7DBB757B681B6803F40053CD
:10424800002B42D07B681B6EB3F5003F1BD0B3F543
:10425800003F05D8002B22D0B3F5803F0AD01BE0E1
:10426800B3F5802F1DD0B3F5A02F1CD0B3F5403F78
:104278001BD011E07B6804330121184601F028FBAC
:104288000346FB7512E07B6824330121184601F0D0
:10429800D1FB0346FB7509E00123FB7506E000BF6F
:1042A80004E000BF02E000BF00E000BFFB7D002B80
:1042B80009D15A4B1B6D23F4E0227B681B6E5749CA
:1042C80013430B6501E0FB7DBB757B681B6803F43A
:1042D8008043002B44D07B68D3F8AC30B3F1005F47
:1042E8001BD0B3F1005F05D8002B22D0B3F1805F5B
:1042F8000AD01BE0B3F1804F1DD0B3F1A04F1CD002
:10430800B3F1405F1BD011E07B68043301211846EC
:1043180001F0DEFA0346FB7512E07B6824330121C5
:10432800184601F087FB0346FB7509E00123FB757E
:1043380006E000BF04E000BF02E000BF00E000BFED
:10434800FB7D002B0AD1354B9B6D23F0E0427B6847
:10435800D3F8AC30314913438B6501E0FB7DBB7565
:104368007B681B6803F40043002B2DD07B68DB6E51
:10437800B3F1805F05D0B3F1005F09D0002B13D0F3
:104388000FE0264BDB6A254A43F40033D3620CE086
:104398007B6804330121184601F09AFA0346FB753D
:1043A80003E00123FB7500E000BFFB7D002B09D172
:1043B8001A4B1B6D23F040527B68DB6E1749134381
:1043C8000B6501E0FB7DBB757B681B6803F08073A0
:1043D800002B35D07B685B6C032B1BD801A252F8ED
:1043E80023F000BF29440008FD4300080B440008DF
:1043F80029440008094BDB6A084A43F40033D362B6
:104408000FE07B6804330221184601F061FA034685
:10441800FB7506E00123FB7503E000BF004402586A
:1044280000BFFB7D002B09D1BA4BDB6C23F00302E4
:104438007B685B6CB7491343CB6401E0FB7DBB75BC
:104448007B681B6803F48003002B00F08680B24B66
:104458001B68B14A43F480731360FDF75DFA386155
:1044680009E0FDF759FA02463B69D31A642B02D9D1
:104478000323FB7505E0A84B1B6803F48073002B2E
:10448800EFD0FB7D002B66D1A24B1A6F7B68D3F867
:10449800B030534003F44073002B13D09D4B1B6F77
:1044A80023F44073FB609B4B1B6F9A4A43F48033A1
:1044B8001367984B1B6F974A23F480331367954A09
:1044C800FB6813677B68D3F8B030B3F5807F15D1EC
:1044D800FDF722FA38610BE0FDF71EFA02463B6948
:1044E800D31A41F28832934202D90323FB7505E0BF
:1044F800884B1B6F03F00203002BEDD0FB7D002BD4
:1045080026D17B68D3F8B03003F44073B3F5407F0D
:104518000DD1804B1B6923F47C527B68D3F8B030F3
:1045280019097E4B0B407B4913430B6105E0794B1E
:104538001B69784A23F47C531361764B1A6F7B68A6
:10454800D3F8B030C3F30B03724913430B6704E08D
:10455800FB7DBB7501E0FB7DBB757B681B6803F0C9
:104568000103002B7DD07B689B6F282B66D801A2A6
:1045780052F823F04B460008454600084546000817
:1045880045460008454600084546000845460008D7
:1045980045460008214600084546000845460008EB
:1045A80045460008454600084546000845460008B7
:1045B80045460008334600084546000845460008B9
:1045C8004546000845460008454600084546000897
:1045D800454600084B460008454600084546000881
:1045E8004546000845460008454600084546000877
:1045F800454600084B460008454600084546000861
:104608004546000845460008454600084546000856
:10461800454600084B4600087B68043301211846CC
:1046280001F056F90346FB750CE07B682433012141
:10463800184601F0FFF90346FB7503E00123FB75FB
:1046480000E000BFFB7D002B09D1324B5B6D23F0EE
:1046580038027B689B6F2F4913434B6501E0FB7D54
:10466800BB757B681B6803F00203002B37D07B689F
:104678005B6F052B20D801A252F823F0C74600082B
:104688009D460008AF460008C7460008C746000810
:10469800C74600087B6804330121184601F018F961
:1046A8000346FB750CE07B6824330121184601F0B2
:1046B800C1F90346FB7503E00123FB7500E000BF69
:1046C800FB7D002B09D1134B5B6D23F007027B6840
:1046D8005B6F104913434B6501E0FB7DBB757B683D
:1046E8001B6803F00403002B40D07B68D3F890309C
:1046F800052B27D801A252F823F000BF5347000822
:10470800294700083B47000853470008534700085B
:10471800534700080044025800480258CFFFFF00E2
:104728007B6804330121184601F0D2F80346FB7573
:104738000CE07B6824330121184601F07BF903461D
:10474800FB7503E00123FB7500E000BFFB7D002B38
:104758000AD1B34B9B6D23F007027B68D3F89030E6
:10476800AF4913438B6501E0FB7DBB757B681B6814
:1047780003F02003002B44D07B68D3F88C30B3F1CE
:10478800005F1BD0B3F1005F05D8002B22D0B3F136
:10479800805F0AD01BE0B3F1804F1DD0B3F1A04F6A
:1047A8001CD0B3F1405F1BD011E07B6804330021BB
:1047B800184601F08DF80346FB7512E07B68243338
:1047C8000221184601F036F90346FB7509E001237A
:1047D800FB7506E000BF04E000BF02E000BF00E098
:1047E80000BFFB7D002B0AD18D4B5B6D23F0E042AF
:1047F8007B68D3F88C308A4913434B6501E0FB7D15
:10480800BB757B681B6803F04003002B44D07B68B2
:10481800D3F89830B3F5006F1BD0B3F5006F05D807
:10482800002B22D0B3F5806F0AD01BE0B3F5805F70
:104838001DD0B3F5A05F1CD0B3F5406F1BD011E0BD
:104848007B6804330021184601F042F80346FB75E3
:1048580012E07B6824330221184601F0EBF8034686
:10486800FB7509E00123FB7506E000BF04E000BF0B
:1048780002E000BF00E000BFFB7D002B0AD1684BBF
:104888009B6D23F4E0527B68D3F898306449134356
:104898008B6501E0FB7DBB757B681B6803F08003BB
:1048A800002B44D07B68D3F89C30B3F5804F1BD0E5
:1048B800B3F5804F05D8002B22D0B3F5005F0AD09E
:1048C8001BE0B3F5004F1DD0B3F5204F1CD0B3F556
:1048D800C04F1BD011E07B6804330021184600F05C
:1048E800F7FF0346FB7512E07B6824330221184664
:1048F80001F0A0F80346FB7509E00123FB7506E00B
:1049080000BF04E000BF02E000BF00E000BFFB7D85
:10491800002B0AD1424B9B6D23F460427B68D3F88D
:104928009C303F4913438B6501E0FB7DBB757B6879
:104938001B6803F00803002B1BD07B68D3F880307A
:10494800B3F5805F0BD17B6824330221184601F050
:1049580071F80346002B0CD00123BB7509E0304BDE
:104968005B6D23F440527B68D3F880302C491343A5
:104978004B657B681B6803F01003002B1BD07B681A
:10498800D3F89430B3F5807F0BD17B6824330221B0
:10499800184601F04FF80346002B0CD00123BB75D5
:1049A80009E01F4B9B6D23F440727B68D3F8943069
:1049B8001B4913438B657B681B6803F40023002B9A
:1049C80032D07B68D3F8A030B3F5803F0DD0B3F573
:1049D800003F16D0002B11D17B6804330021184604
:1049E80000F076FF0346FB750CE07B682433022158
:1049F800184601F01FF80346FB7503E00123FB7519
:104A080000E000BFFB7D002B0CD1054B9B6D23F410
:104A180040327B68D3F8A030014913438B6503E02B
:104A280000440258FB7DBB757B681B6803F4802338
:104A3800002B2FD07B68D3F88430B3F5001F0CD03F
:104A4800B3F5401F15D0B3F5801F0FD1794BDB6A42
:104A5800784A43F40033D3620CE07B6824330121A5
:104A6800184600F0E7FF0346FB7503E00123FB75DA
:104A780000E000BFFB7D002B0AD16E4B5B6D23F479
:104A880040127B68D3F884306A4913434B6501E0D0
:104A9800FB7DBB757B681B6803F48033002B29D032
:104AA8007B68DB6C002B03D0B3F5803F07D00FE0A9
:104AB800604BDB6A5F4A43F40033D3620BE07B68E8
:104AC80004330221184600F003FF0346FB7502E099
:104AD8000123FB7500BFFB7D002B09D1554BDB6C17
:104AE80023F480327B68DB6C52491343CB6401E0CA
:104AF800FB7DBB757B681B6803F00053002B0AD055
:104B08007B6824330221184600F094FF0346002BEB
:104B180001D00123BB757B681B6803F40033002BAD
:104B28002FD07B68DB6FB3F5807F0CD0B3F5807F27
:104B380002D8002B11D00DE0B3F5007F0FD0B3F5EC
:104B4800407F0ED006E03B4BDB6A3A4A43F4003321
:104B5800D36207E00123FB7504E000BF02E000BF59
:104B680000E000BFFB7D002B09D1324B5B6D23F4C5
:104B780040727B68DB6F2F4913434B6501E0FB7D77
:104B8800BB757B681B6803F48013002B08D0294B86
:104B98001B6D23F000427B681B6F264913430B658E
:104BA8007B681B6803F08053002B09D0214B1B69DD
:104BB80023F480427B68D3F8B4301E4913430B6159
:104BC8007B681B6803F40013002B08D0194B1B6D7E
:104BD80023F080727B689B6E164913430B657B68D4
:104BE8001B6803F08043002B0DD0124B1B69114A40
:104BF80023F4004313610F4B1A697B68D3F8B8306C
:104C08000C4913430B617B681B68002B08DA094BBE
:104C1800DB6C23F040527B681B6D06491343CB6461
:104C2800BB7D002B01D1002300E001231846183773
:104C3800BD4680BD0044025880B590B000AF786092
:104C48007B68B3F5807F50D1A14B1B6D03F0070340
:104C58003B633B6B042B44D801A252F823F000BFFE
:104C68007D4C00088D4C00089D4C0008E54C000860
:104C7800AD4C000807F12403184600F0C1FCBB6ADC
:104C8800FB6300E207F11803184600F021FABB693C
:104C9800FB63F8E107F10C03184600F065FBFB68BD
:104CA800FB63F0E18A4BDB6C03F040537B637B6B67
:104CB800002B02D1874BFB63E5E17B6BB3F1805F8F
:104CC80002D1854BFB63DEE17B6BB3F1005F02D160
:104CD800824BFB63D7E10023FB63D4E1804BFB638A
:104CE800D1E10023FB6300BFCDE17B68B3F5007F12
:104CF8004FD1774B1B6D03F4E0733B633B6B802B09
:104D08001CD0802B04D8002B08D0402B0ED03CE0C0
:104D1800C02B37D0B3F5807F18D036E007F12403D5
:104D2800184600F06DFCBB6AFB63ACE107F11803A1
:104D3800184600F0CDF9BB69FB63A4E107F10C0349
:104D4800184600F011FBFB68FB639CE1604BDB6CD1
:104D580003F040537B637B6B002B02D15D4BFB63FD
:104D680091E17B6BB3F1805F02D15B4BFB638AE11E
:104D78007B6BB3F1005F02D1584BFB6383E10023E7
:104D8800FB6380E1564BFB637DE10023FB6300BFBF
:104D980079E17B68B3F5806F53D14D4B9B6D03F47C
:104DA80060033B633B6BB3F5800F1FD0B3F5800FF7
:104DB80005D8002B0AD0B3F5001F0FD03DE0B3F59E
:104DC800C00F37D0B3F5000F18D036E007F1240331
:104DD800184600F015FCBB6AFB6354E107F11803A1
:104DE800184600F075F9BB69FB634CE107F10C0349
:104DF800184600F0B9FAFB68FB6344E1344BDB6CFE
:104E080003F040537B637B6B002B02D1314BFB6378
:104E180039E17B6BB3F1805F02D12F4BFB6332E149
:104E28007B6BB3F1005F02D12C4BFB632BE10023BA
:104E3800FB6328E12A4BFB6325E10023FB6300BFEA
:104E480021E17B68B3F5006F5DD1214B9B6D03F0C9
:104E5800E0633B633B6BB3F1007F1FD0B3F1007F8E
:104E680005D8002B0AD0B3F1807F0FD047E0B3F10B
:104E7800407F41D0B3F1806F18D040E007F12403A0
:104E8800184600F0BDFBBB6AFB63FCE007F11803A2
:104E9800184600F01DF9BB69FB63F4E007F10C0349
:104EA800184600F061FAFB68FB63ECE0084BDB6C2A
:104EB80003F040537B637B6B002B02D1054BFB63F4
:104EC800E1E07B6BB3F1805F0CD1034BFB63DAE06D
:104ED800004402580090D00300093D0040787D014D
:104EE8000080BB007B6BB3F1005F02D1684BFB63B2
:104EF800C9E00023FB63C6E0664BFB63C3E0002305
:104F0800FB6300BFBFE07B68B3F5805F53D1624BA2
:104F18001B6D03F4E043BB63BB6BB3F5005F1FD0AD
:104F2800B3F5005F05D8002B0AD0B3F5805F0FD02A
:104F38003DE0B3F5405F37D0B3F5804F18D036E089
:104F480007F12403184600F05BFBBB6AFB639AE099
:104F580007F11803184600F0BBF8BB69FB6392E041
:104F680007F10C03184600F0FFF9FB68FB638AE0C1
:104F7800494BDB6C03F040537B637B6B002B02D106
:104F8800464BFB637FE07B6BB3F1805F02D1444B00
:104F9800FB6378E07B6BB3F1005F02D13C4BFB63B2
:104FA80071E00023FB636EE03A4BFB636BE0002388
:104FB800FB6300BF67E07B68B3F5002F3DD1364B3C
:104FC8009B6D03F44033BB63BB6BB3F5803F0CD0E0
:104FD800B3F5003F11D0002B2BD107F11803184669
:104FE80000F076F8BB69FB634DE007F10C03184647
:104FF80000F0BAF97B69FB6345E0274BDB6C03F0F3
:1050080040537B637B6B002B02D1244BFB633AE05C
:105018007B6BB3F1805F02D1214BFB6333E07B6B89
:10502800B3F1005F02D11A4BFB632CE00023FB6352
:1050380029E00023FB6300BF25E07B68B3F5803FD0
:105048001FD1154BDB6C03F48033BB63BB6B002BA8
:1050580003D0B3F5803F08D00FE007F124031846CA
:1050680000F0CEFABB6AFB630DE007F1180318469F
:1050780000F02EF83B6AFB6305E00023FB6300BFEA
:1050880001E00023FB63FB6B18464037BD4680BD3B
:1050980040787D010080BB00004402580090D00396
:1050A80000093D0080B500AFFEF78EFE0146064BB5
:1050B8001B6A1B0903F00703044AD35C03F01F03B0
:1050C80021FA03F3184680BD00440258088E0008F0
:1050D80080B489B000AF78609D4B9B6A03F00303EE
:1050E800BB619B4B9B6A1B0B03F03F037B61984B97
:1050F800DB6A03F010033B61954BDB6BDB08C3F302
:105108000C033A6902FB03F307EE903AF8EE677A6C
:10511800C7ED037A7B69002B00F00A81BB69012B7C
:105128005AD0012B02D3022B78D099E0884B1B6808
:1051380003F02003002B2DD0854B1B68DB0803F000
:105148000303844A22FA03F3BB60BB6807EE903A74
:10515800F8EE676A7B6907EE903AF8EE677A86EEB2
:10516800A77A7B4B9B6BC3F3080307EE903AF8EEE4
:10517800676A97ED036ADFED785AC6EE257A76EE10
:10518800A77AF7EE006A77EEA67A67EE277AC7ED78
:10519800077A87E07B6907EE903AF8EE677ADFEDE9
:1051A8006F6A86EEA77A6A4B9B6BC3F3080307EE18
:1051B800903AF8EE676A97ED036ADFED675AC6EE34
:1051C800257A76EEA77AF7EE006A77EEA67A67EE8A
:1051D800277AC7ED077A65E07B6907EE903AF8EE23
:1051E800677ADFED5F6A86EEA77A594B9B6BC3F34C
:1051F800080307EE903AF8EE676A97ED036ADFED69
:10520800565AC6EE257A76EEA77AF7EE006A77EE5A
:10521800A67A67EE277AC7ED077A43E07B6907EE3F
:10522800903AF8EE677ADFED4F6A86EEA77A484B38
:105238009B6BC3F3080307EE903AF8EE676A97EDA5
:10524800036ADFED455AC6EE257A76EEA77AF7EEC1
:10525800006A77EEA67A67EE277AC7ED077A21E02B
:105268007B6907EE903AF8EE677ADFED3D6A86EEE5
:10527800A77A374B9B6BC3F3080307EE903AF8EE17
:10528800676A97ED036ADFED345AC6EE257A76EE43
:10529800A77AF7EE006A77EEA67A67EE277AC7ED67
:1052A800077A00BF2A4B9B6B5B0A03F07F0307EE6C
:1052B800903AF8EE677AB7EE007A37EE877AD7ED4C
:1052C800076AC6EE877AFCEEE77A17EE902A7B68C3
:1052D8001A601F4B9B6B1B0C03F07F0307EE903A81
:1052E800F8EE677AB7EE007A37EE877AD7ED076A75
:1052F800C6EE877AFCEEE77A17EE902A7B685A604A
:10530800134B9B6B1B0E03F07F0307EE903AF8EEEE
:10531800677AB7EE007A37EE877AD7ED076AC6EE76
:10532800877AFCEEE77A17EE902A7B689A6008E0A5
:105338007B6800221A607B6800225A607B68002222
:105348009A6000BF2437BD465DF8047B704700BFF4
:10535800004402580090D003000000460024744C1A
:105368000024744A20BCBE4B80B489B000AF78607A
:105378009D4B9B6A03F00303BB619B4B9B6A1B0D10
:1053880003F03F037B61984BDB6A03F480733B6156
:10539800954B5B6CDB08C3F30C033A6902FB03F320
:1053A80007EE903AF8EE677AC7ED037A7B69002B2F
:1053B80000F00A81BB69012B5AD0012B02D3022BC2
:1053C80078D099E0884B1B6803F02003002B2DD080
:1053D800854B1B68DB0803F00303844A22FA03F3B6
:1053E800BB60BB6807EE903AF8EE676A7B6907EE28
:1053F800903AF8EE677A86EEA77A7B4B1B6CC3F37C
:10540800080307EE903AF8EE676A97ED036ADFED56
:10541800785AC6EE257A76EEA77AF7EE006A77EE26
:10542800A67A67EE277AC7ED077A87E07B6907EEE9
:10543800903AF8EE677ADFED6F6A86EEA77A6A4BE4
:105448001B6CC3F3080307EE903AF8EE676A97ED12
:10545800036ADFED675AC6EE257A76EEA77AF7EE8D
:10546800006A77EEA67A67EE277AC7ED077A65E0D5
:105478007B6907EE903AF8EE677ADFED5F6A86EEB1
:10548800A77A594B1B6CC3F3080307EE903AF8EE62
:10549800676A97ED036ADFED565AC6EE257A76EE0F
:1054A800A77AF7EE006A77EEA67A67EE277AC7ED55
:1054B800077A43E07B6907EE903AF8EE677ADFED0A
:1054C8004F6A86EEA77A484B1B6CC3F3080307EEB6
:1054D800903AF8EE676A97ED036ADFED455AC6EE33
:1054E800257A76EEA77AF7EE006A77EEA67A67EE67
:1054F800277AC7ED077A21E07B6907EE903AF8EE44
:10550800677ADFED3D6A86EEA77A374B1B6CC3F3EB
:10551800080307EE903AF8EE676A97ED036ADFED45
:10552800345AC6EE257A76EEA77AF7EE006A77EE59
:10553800A67A67EE277AC7ED077A00BF2A4B1B6C5D
:105548005B0A03F07F0307EE903AF8EE677AB7EE4E
:10555800007A37EE877AD7ED076AC6EE877AFCEECF
:10556800E77A17EE902A7B681A601F4B1B6C1B0C9E
:1055780003F07F0307EE903AF8EE677AB7EE007A09
:1055880037EE877AD7ED076AC6EE877AFCEEE77AB8
:1055980017EE902A7B685A60134B1B6C1B0E03F0A6
:1055A8007F0307EE903AF8EE677AB7EE007A37EEA7
:1055B800877AD7ED076AC6EE877AFCEEE77A17EEA8
:1055C800902A7B689A6008E07B6800221A607B68F2
:1055D80000225A607B6800229A6000BF2437BD46CB
:1055E8005DF8047B704700BF004402580090D00368
:1055F800000000460024744C0024744A20BCBE4BB2
:1056080080B489B000AF78609D4B9B6A03F00303B8
:10561800BB619B4B9B6A1B0903F03F037B61984B63
:10562800DB6A03F001033B61954B5B6BDB08C3F35B
:105638000C033A6902FB03F307EE903AF8EE677A37
:10564800C7ED037A7B69002B00F00A81BB69012B47
:105658005AD0012B02D3022B78D099E0884B1B68D3
:1056680003F02003002B2DD0854B1B68DB0803F0CB
:105678000303844A22FA03F3BB60BB6807EE903A3F
:10568800F8EE676A7B6907EE903AF8EE677A86EE7D
:10569800A77A7B4B1B6BC3F3080307EE903AF8EE2F
:1056A800676A97ED036ADFED785AC6EE257A76EEDB
:1056B800A77AF7EE006A77EEA67A67EE277AC7ED43
:1056C800077A87E07B6907EE903AF8EE677ADFEDB4
:1056D8006F6A86EEA77A6A4B1B6BC3F3080307EE63
:1056E800903AF8EE676A97ED036ADFED675AC6EEFF
:1056F800257A76EEA77AF7EE006A77EEA67A67EE55
:10570800277AC7ED077A65E07B6907EE903AF8EEED
:10571800677ADFED5F6A86EEA77A594B1B6BC3F396
:10572800080307EE903AF8EE676A97ED036ADFED33
:10573800565AC6EE257A76EEA77AF7EE006A77EE25
:10574800A67A67EE277AC7ED077A43E07B6907EE0A
:10575800903AF8EE677ADFED4F6A86EEA77A484B03
:105768001B6BC3F3080307EE903AF8EE676A97EDF0
:10577800036ADFED455AC6EE257A76EEA77AF7EE8C
:10578800006A77EEA67A67EE277AC7ED077A21E0F6
:105798007B6907EE903AF8EE677ADFED3D6A86EEB0
:1057A800A77A374B1B6BC3F3080307EE903AF8EE62
:1057B800676A97ED036ADFED345AC6EE257A76EE0E
:1057C800A77AF7EE006A77EEA67A67EE277AC7ED32
:1057D800077A00BF2A4B1B6B5B0A03F07F0307EEB7
:1057E800903AF8EE677AB7EE007A37EE877AD7ED17
:1057F800076AC6EE877AFCEEE77A17EE902A7B688E
:105808001A601F4B1B6B1B0C03F07F0307EE903ACB
:10581800F8EE677AB7EE007A37EE877AD7ED076A3F
:10582800C6EE877AFCEEE77A17EE902A7B685A6014
:10583800134B1B6B1B0E03F07F0307EE903AF8EE39
:10584800677AB7EE007A37EE877AD7ED076AC6EE41
:10585800877AFCEEE77A17EE902A7B689A6008E070
:105868007B6800221A607B6800225A607B680022ED
:105878009A6000BF2437BD465DF8047B704700BFBF
:10588800004402580090D003000000460024744CE5
:105898000024744A20BCBE4B80B500AFFEF722F945
:1058A8000146084B9B691B0A03F00F03064AD35CA9
:1058B80003F01F0321FA03F3044A1360034B1B6828
:1058C800184680BD00440258088E000800000024D5
:1058D80080B584B000AF786039600023FB73534B08
:1058E8009B6A03F00303032B01D1012399E04F4B7B
:1058F8001B684E4A23F080631360FCF70DF8B8600C
:1059080008E0FCF709F80246BB68D31A022B01D954
:10591800032386E0454B1B6803F00063002BF0D19E
:10592800424B9B6A23F47C327B681B681B033F490C
:1059380013438B627B685B68013BC3F308027B6897
:105948009B68013B5B029BB21A437B68DB68013BA7
:105958001B0403F4FE031A437B681B69013B1B0607
:1059680003F0FE43314913438B63304BDB6A23F06A
:10597800C0027B685B692D491343CB622B4BDB6A02
:1059880023F020027B689B6928491343CB62274B8D
:10599800DB6A264A23F01003D362244BDA6B244BCC
:1059A80013407A68D269D20020491343CB631F4B56
:1059B800DB6A1E4A43F01003D3623B68002B06D112
:1059C8001A4BDB6A194A43F40023D3620FE03B68A1
:1059D800012B06D1154BDB6A144A43F48013D362BA
:1059E80005E0124BDB6A114A43F40013D3620F4BF4
:1059F8001B680E4A43F080631360FBF78DFFB860A5
:105A080008E0FBF789FF0246BB68D31A022B01D9CD
:105A1800032306E0054B1B6803F00063002BF0D05E
:105A2800FB7B18461037BD4680BD00BF00440258B6
:105A38000700FFFF80B584B000AF786039600023AD
:105A4800FB73534B9B6A03F00303032B01D1012320
:105A580099E04F4B1B684E4A23F080531360FBF7C5
:105A68005BFFB86008E0FBF757FF0246BB68D31A34
:105A7800022B01D9032386E0454B1B6803F0005332
:105A8800002BF0D1424B9B6A23F07C727B681B6829
:105A98001B053F4913438B627B685B68013BC3F37B
:105AA80008027B689B68013B5B029BB21A437B68D8
:105AB800DB68013B1B0403F4FE031A437B681B6984
:105AC800013B1B0603F0FE43314913430B64304B83
