:020000040800F2
:100000000000022021410008014000080F400008C4
:10001000154000081B4000082140000800000000B7
:100020000000000000000000000000003183000814
:10003000274000080000000071850008D9850008ED
:1000400071410008714100087141000871410008C8
:1000500071410008714100087141000871410008B8
:1000600071410008714100087141000871410008A8
:100070007141000871410008714100087141000898
:100080007141000871410008714100087141000888
:100090007141000871410008714100087141000878
:1000A00071410008354000087141000871410008A5
:1000B0007141000871410008714100087141000858
:1000C0007141000871410008714100087141000848
:1000D0007141000849400008714100087141000861
:1000E0007141000871410008714100087141000828
:1000F0007141000871410008714100087141000818
:100100007141000871410008714100087141000807
:1001100071410008714100087141000871410008F7
:1001200071410008714100087141000871410008E7
:10013000714100080000000000000000714100084B
:1001400071410008714100087141000871410008C7
:1001500071410008714100087141000871410008B7
:1001600071410008714100087141000871410008A7
:10017000714100087141000800000000000000000B
:08018000714100087141000803
:1001900010B5054C237833B9044B13B10448AFF3C1
:1001A00000800123237010BD7406002000000000B1
:1001B000DCD1000808B5034B1BB103490348AFF37A
:1001C000008008BD0000000078060020DCD1000897
:1001D00010F8012B11F8013B012A28BF9A42F7D0F1
:1001E000D01A7047034613F8012B002AFBD1181AC6
:1001F0000138704781F0004102E000BF83F0004306
:1002000030B54FEA41044FEA430594EA050F08BFB1
:1002100090EA020F1FBF54EA000C55EA020C7FEA75
:10022000645C7FEA655C00F0E2804FEA5454D4EBF2
:100230005555B8BF6D420CDD2C4480EA020281EABC
:10024000030382EA000083EA010180EA020281EAF4
:100250000303362D88BF30BD11F0004F4FEA013146
:100260004FF4801C4CEA113102D0404261EB410155
:1002700013F0004F4FEA03334CEA133302D05242DB
:1002800063EB430394EA050F00F0A780A4F1010497
:10029000D5F1200E0DDB02FA0EFC22FA05F28018D1
:1002A00041F1000103FA0EF2801843FA05F35941B7
:1002B0000EE0A5F120050EF1200E012A03FA0EFC36
:1002C00028BF4CF0020C43FA05F3C01851EBE37160
:1002D00001F0004507D54FF0000EDCF1000C7EEB7D
:1002E00000006EEB0101B1F5801F1BD3B1F5001FBB
:1002F0000CD349085FEA30004FEA3C0C04F10104DA
:100300004FEA445212F5800F80F09A80BCF1004F02
:1003100008BF5FEA500C50F1000041EB045141EA84
:10032000050130BD5FEA4C0C404141EB010111F485
:10033000801FA4F10104E9D191F0000F04BF014630
:100340000020B1FA81F308BF2033A3F10B03B3F10E
:1003500020020CDA0C3208DD02F1140CC2F10C029E
:1003600001FA0CF021FA02F10CE002F11402D8BFFC
:10037000C2F1200C01FA02F120FA0CFCDCBF41EAC8
:100380000C019040E41AA2BF01EB0451294330BD97
:100390006FEA04041F3C1CDA0C340EDC04F1140474
:1003A000C4F1200220FA04F001FA02F340EA03004B
:1003B00021FA04F345EA030130BDC4F10C04C4F191
:1003C000200220FA02F001FA04F340EA0300294671
:1003D00030BD21FA04F0294630BD94F0000F83F4BB
:1003E000801306BF81F480110134013D4EE77FEA9E
:1003F000645C18BF7FEA655C29D094EA050F08BFEA
:1004000090EA020F05D054EA000C04BF19461046CA
:1004100030BD91EA030F1EBF0021002030BD5FEA0E
:10042000545C05D14000494128BF41F0004130BD36
:1004300014F580043CBF01F5801130BD01F000458A
:1004400045F0FE4141F470014FF0000030BD7FEAFD
:10045000645C1ABF194610467FEA655C1CBF0B46F8
:10046000024650EA013406BF52EA033591EA030F0F
:1004700041F4002130BD00BF90F0000F04BF002107
:10048000704730B54FF4806404F132044FF000053A
:100490004FF0000150E700BF90F0000F04BF0021B3
:1004A000704730B54FF4806404F1320410F0004519
:1004B00048BF40424FF000013EE700BF42004FEA14
:1004C000E2014FEA31014FEA02701FBF12F07F4391
:1004D00093F07F4F81F06051704732F07F4208BF48
:1004E000704793F07F4F04BF41F40021704730B54F
:1004F0004FF4607401F0004521F000411CE700BF9B
:1005000050EA010208BF704730B54FF000050AE01D
:1005100050EA010208BF704730B511F0004502D51E
:10052000404261EB41014FF4806404F132045FEA20
:10053000915C3FF4D8AE4FF003025FEADC0C18BFC9
:1005400003325FEADC0C18BF033202EBDC02C2F1BB
:10055000200300FA03FC20FA02F001FA03FE40EA4D
:100560000E0021FA02F11444BDE600BF70B54FF051
:10057000FF0C4CF4E06C1CEA11541DBF1CEA13552F
:1005800094EA0C0F95EA0C0F00F0DEF82C4481EA97
:10059000030621EA4C5123EA4C5350EA013518BFB7
:1005A00052EA033541F4801143F4801338D0A0FBA4
:1005B00002CE4FF00005E1FB02E506F00042E0FB51
:1005C00003E54FF00006E1FB03569CF0000F18BF57
:1005D0004EF0010EA4F1FF04B6F5007F64F54074FF
:1005E00004D25FEA4E0E6D4146EB060642EAC62192
:1005F00041EA55514FEAC52040EA5E504FEACE2EFF
:10060000B4F1FD0C88BFBCF5E06F1ED8BEF1004F01
:1006100008BF5FEA500E50F1000041EB045170BD7D
:1006200006F0004646EA010140EA020081EA0301C1
:10063000B4EB5C04C2BFD4EB0C0541EA045170BDBD
:1006400041F480114FF0000E013C00F3AB8014F137
:10065000360FDEBF002001F0004170BDC4F1000480
:10066000203C35DA0C341BDC04F11404C4F1200501
:1006700000FA05F320FA04F001FA05F240EA02005C
:1006800001F0004221F0004110EBD37021FA04F692
:1006900042EB06015EEA430E08BF20EAD37070BD4C
:1006A000C4F10C04C4F1200500FA04F320FA05F0AB
:1006B00001FA04F240EA020001F0004110EBD370AD
:1006C00041F100015EEA430E08BF20EAD37070BD1D
:1006D000C4F1200500FA05F24EEA020E20FA04F3F6
:1006E00001FA05F243EA020321FA04F001F00041A5
:1006F00021FA04F220EA020000EBD3705EEA430E16
:1007000008BF20EAD37070BD94F0000F0FD101F044
:100710000046400041EB010111F4801F08BF013C7D
:10072000F7D041EA060195F0000F18BF704703F0BB
:100730000046520043EB030313F4801F08BF013D42
:10074000F7D043EA0603704794EA0C0F0CEA1355FE
:1007500018BF95EA0C0F0CD050EA410618BF52EAB8
:100760004306D1D181EA030101F000414FF00000BE
:1007700070BD50EA410606BF1046194652EA4306CC
:1007800019D094EA0C0F02D150EA013613D195EA40
:100790000C0F05D152EA03361CBF104619460AD188
:1007A00081EA030101F0004141F0FE4141F4700192
:1007B0004FF0000070BD41F0FE4141F4780170BD82
:1007C00070B54FF0FF0C4CF4E06C1CEA11541DBFE7
:1007D0001CEA135594EA0C0F95EA0C0F00F0A7F8E9
:1007E000A4EB050481EA030E52EA03354FEA013116
:1007F00000F088804FEA03334FF0805545EA131329
:1008000043EA12634FEA022245EA111545EA1065F0
:100810004FEA00260EF000419D4208BF964244F187
:10082000FD0404F5407402D25B084FEA3202B61AA6
:1008300065EB03055B084FEA32024FF480104FF47A
:10084000002CB6EB020E75EB030E22BFB61A7546EE
:1008500040EA0C005B084FEA3202B6EB020E75EB81
:10086000030E22BFB61A754640EA5C005B084FEAE9
:100870003202B6EB020E75EB030E22BFB61A7546B6
:1008800040EA9C005B084FEA3202B6EB020E75EBC1
:10089000030E22BFB61A754640EADC0055EA060E82
:1008A00018D04FEA051545EA16754FEA06164FEAC5
:1008B000C30343EA52734FEAC2025FEA1C1CC0D171
:1008C00011F4801F0BD141EA00014FF000004FF0FE
:1008D000004CB6E711F4801F04BF01430020B4F1BF
:1008E000FD0C88BFBCF5E06F3FF6AFAEB5EB030C77
:1008F00004BFB6EB020C5FEA500C50F1000041EB74
:10090000045170BD0EF0004E4EEA113114EB5C0440
:10091000C2BFD4EB0C0541EA045170BD41F4801113
:100920004FF0000E013C90E645EA060E8DE60CEA1B
:10093000135594EA0C0F08BF95EA0C0F3FF43BAF38
:1009400094EA0C0F0AD150EA01347FF434AF95EAEF
:100950000C0F7FF425AF104619462CE795EA0C0FD3
:1009600006D152EA03353FF4FDAE1046194622E7A0
:1009700050EA410618BF52EA43067FF4C5AE50EA7A
:1009800041047FF40DAF52EA43057FF4EBAE12E76A
:100990004FF0FF3C06E000BF4FF0010C02E000BF4B
:1009A0004FF0010C4DF804CD4FEA410C7FEA6C5C2E
:1009B0004FEA430C18BF7FEA6C5C1BD001B050EAD1
:1009C000410C0CBF52EA430C91EA030F02BF90EABC
:1009D000020F0020704710F1000F91EA030F58BF7B
:1009E000994208BF90422CBFD8176FEAE37040F0DD
:1009F000010070474FEA410C7FEA6C5C02D150EA7B
:100A0000013C07D14FEA430C7FEA6C5CD6D152EA35
:100A1000033CD3D05DF8040B704700BF84461046FA
:100A200062468C461946634600E000BF01B5FFF7F9
:100A3000B7FF002848BF10F1000F01BD4DF808EDC9
:100A4000FFF7F4FF0CBF012000205DF808FB00BF9A
:100A50004DF808EDFFF7EAFF34BF012000205DF8F4
:100A600008FB00BF4DF808EDFFF7E0FF94BF012041
:100A700000205DF808FB00BF4DF808EDFFF7CEFF42
:100A800094BF012000205DF808FB00BF4DF808ED81
:100A9000FFF7C4FF34BF012000205DF808FB00BF52
:100AA0004FEA410C7FEA6C5C02D150EA013C0AD16A
:100AB0004FEA430C7FEA6C5C02D152EA033C02D15C
:100AC0004FF0000070474FF0010070474FEA4102BD
:100AD00012F5001215D211D56FF47873B3EB625290
:100AE00012D94FEAC12343F0004343EA505311F0B7
:100AF000004F23FA02F018BF404270474FF0000049
:100B0000704750EA013005D111F0004008BF6FF086
:100B1000004070474FF00000704700BF4A0011D2FC
:100B200012F5001211D20DD56FF47873B3EB625247
:100B30000ED44FEAC12343F0004343EA505323FA53
:100B400002F070474FF00000704750EA013002D1C8
:100B50004FF0FF3070474FF0000070474FEA4102FE
:100B6000B2F1E04324BFB3F5001CDCF1FE5C0DD90B
:100B700001F0004C4FEAC0024CEA5070B2F1004F55
:100B800040EB830008BF20F00100704711F0804F58
:100B900021D113F13872BCBF01F00040704741F41D
:100BA00080114FEA5252C2F11802C2F1200C10FA21
:100BB0000CF320FA02F018BF40F001004FEAC12305
:100BC0004FEAD32303FA0CFC40EA0C0023FA02F3A9
:100BD0004FEA4303CCE77FEA625307D150EA01337F
:100BE0001EBF4FF0FE4040F44000704701F000404F
:100BF00040F0FE4040F40000704700BF53B94AB9CE
:100C0000002908BF00281CBF4FF0FF314FF0FF3014
:100C100000F072B9ADF1080C6DE904CE00F006F8F1
:100C2000DDF804E0DDE9022304B070472DE9F04768
:100C3000089E04468846002B4BD18A42154667D948
:100C4000B2FA82F24AB1C2F1200701FA02F320FAA5
:100C500007F7954047EA030894404FEA154E230CE6
:100C6000B8FBFEF71FFA85FC0EFB178843EA084322
:100C700007FB0CF1994209D9EB1807F1FF3080F01E
:100C80001B81994240F21881023F2B445B1AA4B2A7
:100C9000B3FBFEF00EFB103344EA034400FB0CFCF4
:100CA000A44509D92C1900F1FF3380F00781A44530
:100CB00040F2048102382C4440EA0740A4EB0C04C3
:100CC00000271EB1D4400023C6E900433946BDE8E1
:100CD000F0878B4209D9002E00F0EB800027C6E98F
:100CE000000138463946BDE8F087B3FA83F7002F94
:100CF00047D18B4202D3824200F2FA80841A61EB20
:100D0000030301209846002EE0D0C6E90048DDE745
:100D100002B9FFDEB2FA82F2002A40F08F80491B4E
:100D20004FEA154E1FFA85F80127B1FBFEFC230C94
:100D30000EFB1C1143EA014308FB0CF1994207D951
:100D4000EB180CF1FF3002D2994200F2CD808446BC
:100D5000591AA3B2B1FBFEF00EFB101443EA04448F
:100D600008FB00F8A04507D92C1900F1FF3302D287
:100D7000A04500F2B6801846A4EB080440EA0C40F7
:100D80009FE7C7F1200CBB4022FA0CFE4EEA030E8F
:100D900001FA07F420FA0CF521FA0CF34FEA1E4889
:100DA0002543B3FBF8F92C0C08FB19331FFA8EFA14
:100DB00044EA034309FB0AF49C4202FA07F200FAF0
:100DC00007F10BD91EEB030309F1FF3080F0878098
:100DD0009C4240F28480A9F1020973441B1BADB20E
:100DE000B3FBF8F008FB103345EA034400FB0AFAB2
:100DF000A24508D91EEB040400F1FF336BD2A245D3
:100E000069D90238744440EA0940A0FB0289A4EB86
:100E10000A044C45C2464B4654D351D0002E69D0EB
:100E2000B1EB0A0564EB030404FA0CFCFD40FC4042
:100E30004CEA0505C6E90054002747E7C2F1200344
:100E400020FA03F7954001FA02F021FA03F34FEA82
:100E5000154E3843010CB3FBFEF71FFA85F80EFB65
:100E6000173341EA034107FB08F38B4204FA02F40B
:100E700007D9691807F1FF3C2FD28B422DD9023FC9
:100E80002944CB1A81B2B3FBFEF00EFB103341EACA
:100E9000034100FB08F38B4207D9691800F1FF3CBE
:100EA00017D28B4215D902382944C91A40EA07479C
:100EB0003BE73746304609E70746E7E61846FBE6D4
:100EC0004145ABD2B8EB020A69EB0E02013813467A
:100ED000A4E76046E9E7184695E76746D1E781460B
:100EE0007CE702382C4447E7ACF1020C2B442FE797
:100EF000384608E73746E9E6704700BF80B58CB052
:100F000004AFF860B9607A607B80FB68BA681A60E9
:100F1000FB687A685A60FB687A881A81FB68BA6A4B
:100F2000DA60FB68BA8D1A82FB684FF000025A61E2
:100F3000FB684FF000029A61FB684FF00002DA6133
:100F4000FB684FF000021A62FB684FF000025A6221
:100F5000FB684FF000029A62FB68186864230293F2
:100F60000123019307F1170300930123002232218B
:100F700004F09AF8FB7D1E2B01D00023CAE0A823C1
:100F8000FB7740233B76FB7F7B76FB68186807F195
:100F90001802642300930223322103F061FD012330
:100FA000BB7741233B76BB7F7B76FB68186807F1F4
:100FB0001802642300930223322103F051FD0A2317
:100FC0007B7753233B767B7F7B76FB68186807F142
:100FD0001802642300930223322103F041FD5423BD
:100FE0003B76FB68186807F118026423009302231C
:100FF000322103F035FD58233B7644237B767C2356
:101000003B7600237B76FB68186807F1180264239F
:1010100000930223322103F023FD7D233B7604233A
:101020007B76FB68186807F118026423009302239B
:10103000322103F015FD052003F0DEF8FB68186887
:10104000642302930123019307F117030093012303
:101050000022D22104F028F8FB7D0F2B01D00023C1
:1010600058E002233B770F233B763B7F7B76FB6880
:10107000186807F11802642300930223D22103F0B9
:10108000EFFC8323FB7610233B76FB7E7B76FB68AD
:10109000186807F11802642300930223D22103F099
:1010A000DFFC11233B7600237B76FB68186807F191
:1010B0001802642300930223D22103F0D1FC1523EC
:1010C0003B7680237B76FB68186807F1180264235F
:1010D00000930223D22103F0C3FC16233B760523A1
:1010E0007B76FB68186807F11802642300930223DB
:1010F000D22103F0B5FC18233B7681237B76FB6875
:10110000186807F11802642300930223D22103F028
:10111000A7FC012318462037BD4680BD80B58AB0A4
:1011200004AF78607B6818686423029306230193F8
:1011300007F10C03009301231222322103F0B4FFC4
:101140007B7BFB82B7F916301B02FB823B7B1AB21A
:10115000FB8A1343FB82FB7BBB82B7F914301B0273
:10116000BB82BB7B1AB2BB8A1343BB827B7C7B8274
:10117000B7F912301B027B823B7C1AB27B8A134385
:101180007B82B7F914305B4207EE903AF8EEE77ACB
:101190009FED137A67EE877A7B68C3ED057AB7F91E
:1011A00016305B4207EE903AF8EEE77A9FED0C7A44
:1011B00067EE877A7B68C3ED067AB7F912305B4237
:1011C00007EE903AF8EEE77A9FED057A67EE877AB8
:1011D0007B68C3ED077A00BF1837BD4680BD00BFEE
:1011E000A370EB3A80B58AB004AF78607B6818686A
:1011F000642302930623019307F10C030093012358
:101200000222D22103F050FF7B7BFB82B7F916301C
:101210001B02FB823B7B1AB2FB8A1343FB82FB7BE4
:10122000BB82B7F914301B02BB82BB7B1AB2BB8AEC
:101230001343BB827B7C7B82B7F912301B027B821B
:101240003B7C1AB27B8A13437B82B7F914305B4232
:1012500007EE903AF8EEE77A9FED137A67EE877A19
:101260007B68C3ED087AB7F916305B4207EE903A17
:10127000F8EEE77A9FED0C7A67EE877A7B68C3ED2C
:10128000097AB7F912305B4207EE903AF8EEE77A46
:101290009FED057A67EE877A7B68C3ED0A7A00BF17
:1012A0001837BD4680BD00BF6FA18B3980B483B0B5
:1012B00000AF78607B68002283F821207B680022E1
:1012C00083F822207B68002283F823207B68002299
:1012D00083F82A207B68002283F83B207B68002269
:1012E00083F83C207B68002283F8292000BF0C375C
:1012F000BD465DF8047B7047B0B52DED028B90B014
:1013000000AF78607B6893F83C30022B66D16B4667
:101310001D467B6893F82B303B737B6893F82C3029
:101320007B737B6893F83B30981E431E7B610346BA
:1013300019464FF000024FF000034FF00004D400B4
:1013400044EA5174CB00034619464FF000024FF0B7
:1013500000034FF00004D40044EA5174CB0003466C
:101360000733DB08DB00ADEB030D6B4600333B615D
:101370000223FB620BE0FB6A023B7968FA6A0A44CB
:101380002B3211783A69D154FB6A0133FB627B68D6
:1013900093F83B301A46FB6A9342ECDB07F10C03EF
:1013A000184608F0A5FE07EE900AB8EEE78A3B69FA
:1013B000184608F09AFE54EC103B18462146FFF7F9
:1013C000CDFB06EE900A9FEDB57AC6EE877A78EEF1
:1013D000277A7B68C3ED007AAD4659E17B6893F8C4
:1013E0003C30032B0BD17B6893F82B30532B0CBF75
:1013F00001230023DBB21A467B68DA7748E17B6879
:1014000093F83C30042B6AD16B461D467B6893F8F9
:101410002B303B727B6893F82C307B727B6893F89F
:101420002D30BB727B6893F83B30D81E431EFB61A6
:10143000034619464FF000024FF000034FF000043E
:10144000D40044EA5174CB00034619464FF0000221
:101450004FF000034FF00004D40044EA5174CB0075
:1014600003460733DB08DB00ADEB030D6B460033AF
:10147000BB6103233B630BE03B6B033B79683A6B37
:101480000A442B321178BA69D1543B6B01333B6368
:101490007B6893F83B301A463B6B9342ECDB07F1D9
:1014A0000803184608F024FE07EE900AB8EEE78A13
:1014B000BB69184608F019FE54EC103B184621464B
:1014C000FFF74CFB06EE900A9FED747AC6EE877A22
:1014D00078EE277A7B68C3ED017AAD46D8E07B6869
:1014E00093F83C30052B0CD17B6893F82B30572BAD
:1014F0000CBF01230023DBB21A467B6883F820204F
:10150000C6E07B6893F83C30062B07D17B6893F8E4
:101510002B30303BDAB27B685A77B9E07B6893F8BE
:101520003C30072B11D17B6893F82B301A46920080
:1015300013445B00DAB27B6893F82C301344DBB2BF
:10154000103BDAB27B689A77A2E07B6893F83C3074
:10155000092B4CD16B461D467B6893F83B00034634
:10156000013B7B62C1B24FF000024FF000034FF02D
:101570000004D40044EA5174CB00C1B24FF0000221
:101580004FF000034FF00004D40044EA5174CB0044
:1015900003460733DB08DB00ADEB030D6B4600337E
:1015A0003B6200237B630CE07A687B6B13442B3334
:1015B00019783A6A7B6B13440A461A707B6B0133C5
:1015C0007B637B6893F83B301A467B6B9342EBDB83
:1015D0003B6A184608F089FD54EC103B184621463A
:1015E000FFF7BCFA02467B689A60AD4650E07B6824
:1015F00093F83C300B2B4BD16B461D467B6893F820
:101600003B000346013BFB63C1B24FF000024FF0C9
:1016100000034FF00004D40044EA5174CB00C1B27F
:101620004FF000024FF000034FF00004D40044EAF2
:101630005174CB0003460733DB08DB00ADEB030D31
:101640006B460033BB620023BB630CE07A68BB6B64
:1016500013442B331978BA6ABB6B13440A461A70C9
:10166000BB6B0133BB637B6893F83B301A46BB6BA3
:101670009342EBDBBB6A184608F037FD54EC103B95
:1016800018462146FFF76AFA02467B689A61AD4622
:1016900000BF4037BD46BDEC028BB0BD00007042BC
:1016A00080B582B000AF78600B46FB707B6893F822
:1016B0002230002B59D07B6893F82A301A467B6879
:1016C0001344FA7883F824207B6893F82A30013396
:1016D000DAB27B6883F82A207B6893F82A30052BDE
:1016E00040F095807B68002283F822207B680122ED
:1016F00083F823207B68243347491846FEF768FDAA
:101700000346002B04D17B68012283F8212023E0CB
:101710007B68243341491846FEF75AFD0346002BE7
:1017200004D17B68022283F8212015E07B682433F2
:101730003B491846FEF74CFD0346002B04D17B685D
:10174000032283F8212007E07B68002283F8212010
:101750007B68002283F823207B68002283F83B20EB
:101760007B68002283F83C2051E0FB78242B0BD1CE
:101770007B68012283F822207B68002283F82320E3
:101780007B68002283F82A207B6893F82330002BA3
:101790003DD0FB780D2B02D0FB780A2B04D17B685F
:1017A000002283F8232032E0FB782C2B1ED17B68AB
:1017B00093F83C30012B0CD97B6893F82130012B36
:1017C00003D17868FFF798FD03E07B6893F8213038
:1017D000022B7B68002283F83B207B6893F83C3027
:1017E0000133DAB27B6883F83C2010E07B6893F821
:1017F0003B301A467B681344FA7883F82B207B68C9
:1018000093F83B300133DAB27B6883F83B2000BFAA
:101810000837BD4680BD00BFF8D1000800D20008DF
:1018200008D2000880B58AB004AFF860B9607A6069
:101830007B80FB68BA681A60FB687A685A60FB684C
:101840007A881A81FB684FF00002DA60FB684FF07B
:1018500000021A61FB684FF000025A61FB684FF00A
:1018600000029A61FB6818686423029301230193C4
:1018700007F11403009301234F223C2103F014FCD1
:101880003B7D402B01D0002330E08C23FB7560238F
:101890003B74FB7D7B74FB68186807F110026423BE
:1018A000009302233C2103F0DBF80123BB75612385
:1018B0003B74BB7D7B74FB68186807F110026423DE
:1018C000009302233C2103F0CBF801237B756223B4
:1018D0003B747B7D7B74FB68186807F110026423FE
:1018E000009302233C2103F0BBF80123184618376C
:1018F000BD4680BD90B58BB004AF786002E0052096
:1019000002F07AFC7B685A687B681B89194610468E
:1019100002F032FF0346002BF1D07B681868642385
:1019200002930223019307F110030093012368221D
:101930003C2103F0B9FB7B7C1B021AB23B7C1BB23F
:1019400013431BB23B817B68186864230293022314
:10195000019307F11003009301236A223C2103F055
:10196000A3FB7B7C1B021AB23B7C1BB213431BB252
:101970007B817B681868642302930223019307F13B
:101980001003009301236C223C2103F08DFB7B7C30
:101990001B021AB23B7C1BB213431BB2BB81B7F9CB
:1019A0000830B7F9082002FB03F2B7F90A30B7F99B
:1019B0000A1001FB03F31A44B7F90C30B7F90C1005
:1019C00001FB03F3134407EE903AB8EEE77AF7EE23
:1019D000006AC6EE877AC7ED057A7869FEF76EFD74
:1019E00003460C4644EC103B07F0D6F854EC103B91
:1019F00018462146FFF7B2F803467B61B7F9083075
:101A000007EE903AB8EEE77AD7ED057A67EE277AD7
:101A10007B68C3ED037AB7F90A305B4207EE903A70
:101A2000B8EEE77AD7ED057A67EE277A7B68C3EDE3
:101A3000047AB7F90C305B4207EE903AB8EEE77AD9
:101A4000D7ED057A67EE277A7B68C3ED057A7B6868
:101A50001868642302930223019307F11003009393
:101A600001236E223C2103F01FFB7B7C7B82B7F9B4
:101A700012301B027B823B7C1AB27B8A13437B822F
:101A8000B7F9123007EE903AB8EEE77AF2EE006A54
:101A9000C7EE267A7B68C3ED067A00BF1C37BD46C9
:101AA00090BD80B485B000AFF86087ED020A796020
:101AB0003A60FB684FF000021A60FB684FF00002CA
:101AC0005A60FB68BA689A60FB684FF00002DA60FF
:101AD000FB684FF000021A61FB68BA685A617B68C4
:101AE0001A68FB689A617B685A68FB68DA613B6830
:101AF0001A68FB681A623B685A68FB685A623B685E
:101B00009A68FB689A6200BF1437BD465DF8047B93
:101B10007047000090B5BDB000AF78613961FA60E0
:101B200087ED020AC7ED010A3B691B68C7F8EC3074
:101B30003B695B68C7F8E8303B699B68C7F8E430ED
:101B4000FB681B68C7F8E030FB685B68C7F8DC30EF
:101B5000FB689B68C7F8D8307B691B681846FEF79E
:101B6000ADFC03460C4644EC103B06F09DFF54ECE4
:101B7000103B18462146FEF7F1FF0346C7F8D43064
:101B80007B691B681846FEF799FC03460C4644EC3B
:101B9000103B06F045FF54EC103B18462146FEF77B
:101BA000DDFF0346C7F8D0307B695B681846FEF757
:101BB00085FC03460C4644EC103B06F0BDFF54EC9C
:101BC000103B18462146FEF7C9FF0346C7F8CC3044
:101BD0007B6993ED007AD7ED3A6AD7ED357A66EEF8
:101BE000A76A97ED396AD7ED347A66EE277A76EEF2
:101BF000A76AD7ED337A66EEA76AD7ED3B7A76EE21
:101C0000A76AD7ED017A66EEA77A77EE277A7B6925
:101C1000C3ED007A7B6993ED017AD7ED3A6AD7ED8F
:101C2000347A66EEA76A97ED396AD7ED357A66EEB3
:101C3000277A76EEE76AD7ED017A66EEA77A77EE35
:101C4000277A7B69C3ED017A7B691B681846FEF72A
:101C500035FC03460C4644EC103B06F025FF54ECE3
:101C6000103B18462146FEF779FF0346C7F8D430EB
:101C70007B691B681846FEF721FC03460C4644ECC2
:101C8000103B06F0CDFE54EC103B18462146FEF703
:101C900065FF0346C7F8D0307B695B681846FEF7DE
:101CA0000DFC03460C4644EC103B06F0FDFE54ECE4
:101CB000103B18462146FEF751FF0346C7F8C830CF
:101CC0007B695B681846FEF7F9FB03460C4644EC5B
:101CD000103B06F0A5FE54EC103B18462146FEF7DB
:101CE0003DFF0346C7F8C430D7ED326A97ED317A2D
:101CF000C6EE877AC7ED337A97ED3A7AD7ED347A24
:101D000027EE277AD7ED396AD7ED357A66EEA77ACE
:101D100037EE677AD7ED337A67EE277AC7ED2C7AFC
:101D200097ED397AD7ED347A27EE277AD7ED3A6AEC
:101D3000D7ED357A66EEA77A37EE277AD7ED336A94
:101D4000D7ED337A66EEA77AF7EE006A77EEA67AD9
:101D500067EE277AC7ED2D7A97ED397AD7ED347A89
:101D600027EE277AD7ED3A6AD7ED357A66EEA77A6D
:101D700077EE277AF1EE677AC7ED2E7A4FF00003FF
:101D8000C7F8BC307B6993ED067AD7ED2C7A77EEF5
:101D9000A76A7B69D3ED027A66EEA77A37EE277AD7
:101DA000D7ED2D6A7B69D3ED037A66EEA77A37EE1D
:101DB000277AD7ED2D6A7B69D3ED047A66EEA77A90
:101DC00037EE277AD7ED017A67EE277AC7ED287AC2
:101DD00097ED2C7A7B69D3ED037A27EE277AD7ED3E
:101DE0002E6A7B69D3ED027A66EEA77A37EE277A00
:101DF000D7ED2D6A7B69D3ED057A66EEA77A37EECB
:101E0000277AD7ED2F6A7B69D3ED037A66EEA77A3E
:101E100037EE277AD7ED017A67EE277AC7ED297A70
:101E200097ED2C7A7B69D3ED047A27EE277AD7EDEC
:101E30002E6A7B69D3ED027A66EEA77A37EE277AAF
:101E4000D7ED2D6A7B69D3ED057A66EEA77A37EE7A
:101E5000277AD7ED2F6A7B69D3ED047A66EEA77AED
:101E600037EE277AD7ED017A67EE277AC7ED2A7A1F
:101E70007B6993ED077AD7ED2E6A7B69D3ED037A00
:101E800066EEA77A37EE277AD7ED2E6A7B69D3ED17
:101E9000047A66EEA77A37EE277AD7ED2F7A77EEB7
:101EA000A76A7B69D3ED057A66EEA77A37EE277AC3
:101EB000D7ED017A67EE277AC7ED2B7A7B6993ED30
:101EC000027AD7ED287A77EE277A7B69C3ED027A1A
:101ED0007B6993ED037AD7ED297A77EE277A7B69D0
:101EE000C3ED037A7B6993ED047AD7ED2A7A77EE16
:101EF000277A7B69C3ED047A7B6993ED057AD7ED88
:101F00002B7A77EE277A7B69C3ED057A7B691B68AC
:101F10001846FEF7D3FA03460C4644EC103B06F095
:101F2000C3FD54EC103B18462146FEF717FE03464E
:101F3000C7F8D4307B691B681846FEF7BFFA034622
:101F40000C4644EC103B06F06BFD54EC103B18467D
:101F50002146FEF703FE0346C7F8D0307B695B6875
:101F60001846FEF7ABFA03460C4644EC103B06F06D
:101F70009BFD54EC103B18462146FEF7EFFD03464F
:101F8000C7F8C8307B695B681846FEF797FA0346C6
:101F90000C4644EC103B06F043FD54EC103B184655
:101FA0002146FEF7DBFD0346C7F8C43097ED3A7AC9
:101FB000D7ED027A27EE277AD7ED327A27EE277A05
:101FC000D7ED327ADFEDEF6A67EEA67A77EE277A01
:101FD000C7ED257A97ED397AD7ED027A27EE277A81
:101FE000D7ED317A27EE277AD7ED3B6AD7ED027A23
:101FF00066EEA76AD7ED327A66EEA77A37EE677A91
:10200000D7ED317ADFEDDF6A67EEA66AD7ED357A74
:1020100066EEA77A77EE677AC7ED267AD7ED3A7A39
:10202000B1EE677AD7ED027A27EE277AD7ED317ACB
:1020300027EE277AD7ED317ADFEDD26A67EEA66A0E
:10204000D7ED347A66EEA77A77EE677AC7ED277A0E
:102050004FF00003FB6797ED3A7AD7ED027A27EE4F
:10206000277AD7ED317A27EE277AD7ED317ADFED6F
:10207000C56A67EEA67A77EE277AC7ED207AD7EDA4
:10208000347A9FEDC17A27EE877AD7ED317A67EE01
:10209000277AC7ED217AD7ED397AB1EE677AD7ED95
:1020A000027A27EE277AD7ED327A27EE277AD7ED14
:1020B0003B6AD7ED027A66EEA76AD7ED317A66EE13
:1020C000A77A37EE677AD7ED357ADFEDAE6A67EE3D
:1020D000A66AD7ED327A66EEA77A77EE277AC7ED51
:1020E000227AD7ED357A9FEDA77A27EE877AD7ED5A
:1020F000317A67EE277AC7ED237A97ED3A7AD7EDF2
:10210000027A27EE277AD7ED347ADFED9E6A67EE02
:10211000A67A37EE277AD7ED327A67EE277AC7EDBF
:10212000247A7B6993ED057AD7ED207A27EE277A1A
:10213000D7ED207A27EE277A7B69D3ED087A77EE00
:10214000277AC7ED167A97ED207AD7ED217A27EE18
:10215000277A7B69D3ED047A27EE277AD7ED206AB8
:10216000D7ED227A66EEA76A7B69D3ED057A66EE33
:10217000A77A77EE277AC7ED177A97ED207AD7ED11
:10218000237A27EE277A7B69D3ED047A27EE277A24
:10219000D7ED206AD7ED247A66EEA76A7B69D3ED86
:1021A000057A66EEA77A77EE277AC7ED187A97ED6B
:1021B000207AD7ED216A7B69D3ED037A66EEA76AB0
:1021C00097ED226A7B69D3ED057A66EE277A76EE83
:1021D000A77A67EE277AC7ED197A7B6993ED097ABA
:1021E000D7ED216A97ED216A7B69D3ED027A26EE5D
:1021F000276AD7ED225A7B69D3ED047A65EEA77A78
:1022000076EE277A66EEA77A37EE277AD7ED226A3E
:1022100097ED216A7B69D3ED037A26EE276AD7ED25
:10222000225A7B69D3ED057A65EEA77A76EE277A96
:1022300066EEA77A77EE277AC7ED1A7A97ED237ABA
:10224000D7ED216A7B69D3ED027A66EEA76A97ED36
:10225000226A7B69D3ED047A66EE277A76EEA77A56
:1022600027EE277AD7ED246A97ED216A7B69D3EDB3
:10227000037A26EE276AD7ED225A7B69D3ED057AD9
:1022800065EEA77A76EE277A66EEA77A77EE277A5A
:10229000C7ED1B7A97ED207AD7ED236A7B69D3EDE2
:1022A000037A66EEA76A97ED246A7B69D3ED057A17
:1022B00066EE277A76EEA77A67EE277AC7ED1C7A64
:1022C00097ED217AD7ED236A7B69D3ED027A66EE2A
:1022D000A76A97ED246A7B69D3ED047A66EE277AC4
:1022E00076EEA77A27EE277AD7ED226A97ED236A52
:1022F0007B69D3ED037A26EE276AD7ED245A7B69F2
:10230000D3ED057A65EEA77A76EE277A66EEA77AA0
:1023100077EE277AC7ED1D7A7B6993ED0A7AD7EDC0
:10232000236A97ED236A7B69D3ED027A26EE276A4A
:10233000D7ED245A7B69D3ED047A65EEA77A76EE61
:10234000277A66EEA77A37EE277AD7ED246A97EDDB
:10235000236A7B69D3ED037A26EE276AD7ED245AE8
:102360007B69D3ED057A65EEA77A76EE277A66EE7D
:10237000A77A77EE277AC7ED1E7A97ED167AD7ED12
:102380001A7A03E0C3F51C41C3F51CC127EE277A76
:10239000D7ED1E7A27EE277AD7ED166AD7ED1B7A8E
:1023A00066EEA76AD7ED1D7A66EEA77A37EE677AF2
:1023B000D7ED176AD7ED197A66EEA76AD7ED1E7AC0
:1023C00066EEA77A37EE677AD7ED176AD7ED1B7AF4
:1023D00066EEA76AD7ED1C7A66EEA77A37EE277A03
:1023E000D7ED186AD7ED197A66EEA76AD7ED1D7A90
:1023F00066EEA77A37EE277AD7ED186AD7ED1A7A04
:1024000066EEA76AD7ED1C7A66EEA77A37EE677A92
:10241000F7EE006AC6EE877AC7ED307A97ED1A7A42
:10242000D7ED1E7A27EE277AD7ED1B6AD7ED1D7AF6
:1024300066EEA77A37EE677AD7ED307A67EE277ABD
:10244000C7ED0D7AD7ED307AB1EE677AD7ED176A1E
:10245000D7ED1E7A66EEA76A97ED186AD7ED1D7A5A
:1024600066EE277A76EEE77A67EE277AC7ED0E7A80
:1024700097ED177AD7ED1B7A27EE277AD7ED186AF2
:10248000D7ED1A7A66EEA77A37EE677AD7ED307A0B
:1024900067EE277AC7ED0F7AD7ED307AB1EE677A1B
:1024A000D7ED196AD7ED1E7A66EEA76A97ED1B6A1B
:1024B000D7ED1C7A66EE277A76EEE77A67EE277A12
:1024C000C7ED107A97ED167AD7ED1E7A27EE277AA8
:1024D000D7ED186AD7ED1C7A66EEA77A37EE677AE1
:1024E000D7ED307A67EE277AC7ED117AD7ED307ADB
:1024F000B1EE677AD7ED166AD7ED1B7A66EEA76A5A
:1025000097ED186AD7ED197A66EE277A76EEE77AB4
:1025100067EE277AC7ED127A97ED197AD7ED1D7A13
:1025200027EE277AD7ED1A6AD7ED1C7A66EEA77ADE
:1025300037EE677AD7ED307A67EE277AC7ED137AF0
:10254000D7ED307AB1EE677AD7ED166AD7ED1D7AFE
:1025500066EEA76A97ED176AD7ED1C7A66EE277AC2
:1025600076EEE77A67EE277AC7ED147A97ED167A5A
:10257000D7ED1A7A27EE277AD7ED176AD7ED197AB1
:1025800066EEA77A37EE677AD7ED307A67EE277A6C
:10259000C7ED157A97ED107AD7ED216A7B69D3EDF7
:1025A000027A66EEA76A97ED226A7B69D3ED037A19
:1025B00066EE277A76EEA77A27EE277AD7ED136AAA
:1025C00097ED236A7B69D3ED027A26EE276AD7ED71
:1025D000245A7B69D3ED037A65EEA77A76EE277AE3
:1025E00066EEA77A37EE277AD7ED206AD7ED0D7A17
:1025F00066EEA76A7B69D3ED037A66EEA77A77EE7B
:10260000277AC7ED077A97ED117AD7ED216A7B69B2
:10261000D3ED027A66EEA76A97ED226A7B69D3ED65
:10262000037A66EE277A76EEA77A27EE277AD7ED39
:10263000146A97ED236A7B69D3ED027A26EE276A46
:10264000D7ED245A7B69D3ED037A65EEA77A76EE4F
:10265000277A66EEA77A37EE277AD7ED206AD7ED8C
:102660000E7A66EEA76A7B69D3ED037A66EEA77AE7
:1026700077EE277AC7ED087A97ED127AD7ED216ABF
:102680007B69D3ED027A66EEA76A97ED226A7B69D1
:10269000D3ED037A66EE277A76EEA77A27EE277ACD
:1026A000D7ED156A97ED236A7B69D3ED027A26EEA2
:1026B000276AD7ED245A7B69D3ED037A65EEA77AB2
:1026C00076EE277A66EEA77A37EE277AD7ED206A7C
:1026D000D7ED0F7A66EEA76A7B69D3ED037A66EED3
:1026E000A77A77EE277AC7ED097A97ED107AD7EDBA
:1026F000216A7B69D3ED047A66EEA76A97ED226AB8
:102700007B69D3ED057A66EE277A76EEA77A27EE17
:10271000277AD7ED136A97ED236A7B69D3ED047AA4
:1027200026EE276AD7ED245A7B69D3ED057A65EE4C
:10273000A77A76EE277A66EEA77A37EE277AD7ED74
:10274000206AD7ED0D7A66EEA76A7B69D3ED057A2C
:1027500066EEA77A77EE277AC7ED0A7A97ED117AB7
:10276000D7ED216A7B69D3ED047A66EEA76A97ED0F
:10277000226A7B69D3ED057A66EE277A76EEA77A30
:1027800027EE277AD7ED146A97ED236A7B69D3ED9C
:10279000047A26EE276AD7ED245A7B69D3ED057AB1
:1027A00065EEA77A76EE277A66EEA77A37EE277A75
:1027B000D7ED206AD7ED0E7A66EEA76A7B69D3ED76
:1027C000057A66EEA77A77EE277AC7ED0B7A97ED52
:1027D000127AD7ED216A7B69D3ED047A66EEA76A97
:1027E00097ED226A7B69D3ED057A66EE277A76EE5D
:1027F000A77A27EE277AD7ED156A97ED236A7B69CA
:10280000D3ED047A26EE276AD7ED245A7B69D3EDFF
:10281000057A65EEA77A76EE277A66EEA77A37EE26
:10282000277AD7ED206AD7ED0F7A66EEA76A7B6923
:10283000D3ED057A66EEA77A77EE277AC7ED0C7AA4
:102840007B69D3ED047AB1EE677AD7ED206AD7EDD4
:10285000077A66EEA76A97ED226AD7ED087A66EEE8
:10286000277A76EEA76A97ED246AD7ED097A66EEA5
:10287000277A76EEA77A27EE277A7B69D3ED026A6C
:1028800097ED216AD7ED087A26EE276AD7ED235A0D
:10289000D7ED097A65EEA77A76EE277AB7EE006A69
:1028A00077EEC67A66EEA77A77EE677AC7ED287A72
:1028B0007B69D3ED057AB1EE677AD7ED206AD7ED63
:1028C000077A66EEA76A97ED226AD7ED087A66EE78
:1028D000277A76EEA76A97ED246AD7ED097A66EE35
:1028E000277A76EEA77A27EE277A7B69D3ED036AFB
:1028F00097ED216AD7ED087A26EE276AD7ED235A9D
:10290000D7ED097A65EEA77A76EE277AB7EE006AF8
:1029100077EEC67A66EEA77A77EE677AC7ED297A00
:102920007B69D3ED047AB1EE677AD7ED206AD7EDF3
:102930000A7A66EEA76A97ED226AD7ED0B7A66EE01
:10294000277A76EEA76A97ED246AD7ED0C7A66EEC1
:10295000277A76EEA77AF7EE006A77EEE67A27EE28
:10296000277A7B69D3ED026A97ED216AD7ED0B7A5E
:1029700026EE276AD7ED235AD7ED0C7A65EEA77AB3
:1029800076EE277A66EEA77A77EE677AC7ED2A7A2F
:102990007B69D3ED057AB1EE677AD7ED206AD7ED82
:1029A0000A7A66EEA76A97ED226AD7ED0B7A66EE91
:1029B000277A76EEA76A97ED246AD7ED0C7A66EE51
:1029C000277A76EEA77AF7EE006A77EEE67A27EEB8
:1029D000277A7B69D3ED036A97ED216AD7ED0B7AED
:1029E00026EE276AD7ED235AD7ED0C7A65EEA77A43
:1029F00076EE277A66EEA77A77EE677AC7ED2B7ABE
:102A00007B6993ED027AD7ED287A77EE277A7B6996
:102A1000C3ED027A7B6993ED037AD7ED297A77EEDD
:102A2000277A7B69C3ED037A7B6993ED047AD7ED4E
:102A30002A7A77EE277A7B69C3ED047A7B6993ED76
:102A4000057AD7ED2B7A77EE277A7B69C3ED057A85
:102A50007B6993ED007AD7ED076AD7ED257A97ED7C
:102A6000386A76EE677A66EEA77A37EE277AD7ED80
:102A7000086AD7ED267A97ED376A76EE677A66EEC2
:102A8000A77A37EE277AD7ED096AD7ED277A97ED3F
:102A9000366A76EE677A66EEA77A77EE277A7B69F2
:102AA000C3ED007A7B6993ED017AD7ED0A6AD7ED21
:102AB000257A97ED386A76EE677A66EEA77A37EE72
:102AC000277AD7ED0B6AD7ED267A97ED376A76EE3F
:102AD000677A66EEA77A37EE277AD7ED0C6AD7EDDC
:102AE000277A97ED366A76EE677A66EEA77A77EE02
:102AF000277A7B69C3ED017A00BFF437BD4690BDEC
:102B000080B586B000AFF860B9607A607B80FB6802
:102B1000BA681A60FB687A685A60FB687A881A811A
:102B2000FB683A6ADA60FB68BA8C1A82FB684FF07D
:102B300000025A61F86800F00DF80A2001F05CFB11
:102B4000F86800F02DF80346FB75FB7D1846183732
:102B5000BD4680BD80B582B000AF78607B685868A4
:102B60007B681B890122194601F01EFE7B685868AC
:102B70007B681B890022194601F016FE0A2001F02D
:102B80003BFB7B6858687B681B890122194601F072
:102B90000BFE322001F030FB00BF0837BD4680BD80
:102BA00080B586B002AF78607B68186807F10F02C5
:102BB000642300930123302102F050F8FB7B184678
:102BC0001037BD4680BD000080B588B002AF786088
:102BD000AA233B7300237B730023BB737B681868B5
:102BE00007F10C02642300930323302101F038FF26
:102BF00002E0052001F000FB7B68DA687B681B8A35
:102C00001946104601F0B8FD0346002BF1D07B6851
:102C1000186807F10802642300930423302102F0AE
:102C20001DF83B7A03F00103002B04D13B7A03F03B
:102C30000403002B01D000233AE07B7A7B617B699F
:102C40001B027B61BB7A1A467B6913437B617B69FC
:102C50001B027B61FB7A1A467B6913437B617A69AD
:102C600013469B0013449A001344A3F120730A3BBC
:102C700007EE903AF8EE677AC7ED047A97ED047A9A
:102C8000DFED0D6AC7EE267AC7ED047AD7ED047A38
:102C90009FED0A7A77EE877AC7ED047AD7ED047A4A
:102CA0009FED077A67EE877A7B68C3ED057A01238B
:102CB00018461837BD4680BDCCCC4C4B00000000F8
:102CC0000F76D74580B586B002AF786039607B68F3
:102CD0003A681A607B684FF000025A60084B1B8804
:102CE000BB817B68186807F10C0264230093022300
:102CF0009C2101F0B5FE00BF1037BD4680BD00BF6E
:102D000010D20008B0B586B000AF3B600346FB713F
:102D10000B46BB7113467B716B461D467B790533B1
:102D20007B75787D0346013B3B61C1B24FF00002E9
:102D30004FF000034FF00004D40044EA5174CB007C
:102D4000C1B24FF000024FF000034FF00004D40076
:102D500044EA5174CB0003460733DB08DB00ADEBDC
:102D6000030D6B460033FB60294B1A78FB681A7021
:102D7000FB68FA795A70FB68BA799A70FB687A79BD
:102D8000DA700023BB750AE0BB7D3A681A44BB7D4C
:102D900004331178FA68D154BB7D0133BB75BA7D19
:102DA0007B799A42F0D30023FB750023BB7509E0C1
:102DB000BB7D3A6813441A78FB7D5340FB75BB7D9D
:102DC0000133BB75BA7D7B799A42F1D37B7D013BA0
:102DD000FA68F97DD154FB68797DBA6A184600F02B
:102DE00019F80346FB720A4B1B78FF2B03D1084BE3
:102DF00001221A7005E0064B1B780133DAB2044B4E
:102E00001A70FB7AAD4618461837BD46B0BD00BFF4
:102E10000000002080B487B000AFF8600B467A60F5
:102E2000FB720123FB750023BB7501237B75002317
:102E30003B7520E03B7DFA6813441B78002B09D1D9
:102E4000BB7D7A6813447A7D1A7001237B75FB7D04
:102E5000BB750AE03B7DFA681A44FB7D79680B4438
:102E600012781A707B7D01337B75FB7D0133FB7516
:102E70003B7D01333B753A7DFB7A9A42DAD3BB7DC9
:102E80007A6813447A7D1A70FB7D7A6813440022B5
:102E90001A70FB7D0133FB75FB7D18461C37BD4660
:102EA0005DF8047B704780B485B000AFF860B9600E
:102EB0007A607B80FB68BA681A60FB687A685A603F
:102EC000FB687A881A81FB68BA69DA60FB68BA8B9A
:102ED0001A82FB683A6A5A61FB68BA8C1A83FB68EB
:102EE0004FF00002DA61FB684FF000021A62FB68E3
:102EF0004FF000025A62FB684FF000029A62FB68D2
:102F00004FF00002DA62FB68002283F8B020FB6811
:102F1000002283F8B12000BF1437BD465DF8047B62
:102F2000704780B582B000AF78607B6858687B6876
:102F30001B890122194601F037FC7B6858687B68C1
:102F40001B890022194601F02FFC322001F054F9B0
:102F50007B6858687B681B890122194601F024FCB4
:102F600000BF0837BD4680BD80B485B000AFF860B3
:102F7000B9607A60FB68074A1A60BB68064A1A6043
:102F80007B6880221A6000BF1437BD465DF8047B61
:102F9000704700BF90060020E406002080B487B090
:102FA00000AFF860B9607A60FB70FB684FF0000218
:102FB0001A60FB68BA685A60FB687A689A60FB68B6
:102FC000FA781A73FB6800225A730023FB750AE033
:102FD000FB689A68FB7D9B0013444FF000021A6067
:102FE000FB7D0133FB75FA7DFB789A42F0D300BF7D
:102FF0001C37BD465DF8047B704780B485B000AFD8
:10300000786087ED000A7B689A687B685B7B9B0031
:1030100013443A681A607B685B7BFB737B684FF0F4
:1030200000021A600023BB7325E07B6893ED007AF1
:103030007B685A68BB7B9B001344D3ED006A7B68B6
:103040009A68FB7B9B001344D3ED007A66EEA77A67
:1030500077EE277A7B68C3ED007AFB7B002B04D1E7
:103060007B681B7B013BFB7302E0FB7B013BFB733B
:10307000BB7B0133BB737B681B7BBA7B9A42D4D387
:103080007B685B7B0133DAB27B685A737B685A7B5F
:103090007B681B7B9A4202D17B6800225A737B6853
:1030A0001B6807EE903AB0EE670A1437BD465DF82C
:1030B000047B7047B0B5B6B000AF01F05BF800F02C
:1030C00049FB00F0B9FC4FF4FA7001F095F800F0FC
:1030D000ABFB00F0D7FB00F003FC00F02FFC00F08E
:1030E00057FC00F07FFC00F0C3FA49236D4A6E499B
:1030F0006E48FFF753FF49236D4A6B496D48FFF750
:103100004DFF49236C4A68496C48FFF747FF492344
:103110006B4A6C496C48FFF741FF49236B4A694988
:103120006B48FFF73BFF49236A4A66496A48FFF745
:1031300035FF3923694A6A496A48FFF72FFF392367
:10314000694A67496948FFF729FF3923684A644992
:103150006848FFF723FF5923674A68496848FFF723
:103160001DFF684A07F1D00392E8030083E80300DB
:10317000654A07F1C40307CA83E8070007F1C402E0
:1031800007F1D0031946B2EE040A6048FEF789FC45
:103190005F48FEF78BF85F4B07F1A8041D460FCD83
:1031A0000FC495E8070084E8070007F1A803002191
:1031B000184604F02EFA0246574B1A60574B07F197
:1031C0008C041D460FCD0FC495E8070084E8070066
:1031D00007F18C030021184604F01BFA0246504BFD
:1031E0001A60504B07F170041D460FCD0FC495E8CF
:1031F000070084E8070007F170030021184604F077
:1032000008FA0246484B1A60484B07F154041D4621
:103210000FCD0FC495E8070084E8070007F15403B9
:103220000021184604F0F5F90246414B1A60414B63
:1032300007F138041D460FCD0FC495E8070084E858
:10324000070007F138030021184604F0E2F90246AE
:10325000394B1A60394B07F11C041D460FCD0FC4C2
:1032600095E8070084E8070007F11C0300211846D1
:1032700004F0CFF90246324B1A60324B3C461D46F1
:103280000FCD0FC495E8070084E807003B460021F6
:10329000184604F0BEF902462B4B1A6004F0B2F94E
:1032A000FEE700BF54540020040000201451002009
:1032B0001453002024510020CC4B00203451002016
:1032C0005447002028010020E4500020AC48002092
:1032D000F4500020F04C0020045100200050002049
:1032E0004C020020484B0020644A0020584B00202C
:1032F00058510020684B0020144E0020300300205D
:103300004851002018D2000820D200087C5200202A
:10331000784F002040D200084451002070D20008AD
:10332000784800209CD20008FC4F0020C8D200083A
:1033300050470020F0D20008F84F002018D30008B2
:10334000F846002044D30008A848002080B582B089
:1033500000AF78604FF48051044801F03EFA4FF41A
:103360007A73184604F0A1F9F4E700BF00040240A4
:1033700080B582B000AF78600F48FDF733FF0E4B89
:10338000D3ED087AB0EE670A0C48FFF736FE0A4B19
:10339000D3ED097AB0EE670A0948FFF72EFE064B17
:1033A000D3ED0A7AB0EE670A0648FFF726FE05233A
:1033B000184604F07AF9DFE77C4800201451002019
:1033C000245100203451002080B588B000AF7860CF
:1033D0001E48FDF7A3FE1D4BD3ED057AB0EE670A3C
:1033E0001B48FFF70AFE194BD3ED067AB0EE670AC9
:1033F0001848FFF702FE154BD3ED077AB0EE670AC7
:103400001548FFF7FAFD154B1B687B61134B1B69D1
:10341000BB61124B1B6AFB610D4B1B68BB600C4B05
:103420001B69FB600A4B1B6A3B6107F1080207F14D
:103430001403DFED0B0A9FED0B0A19460A48FEF74D
:1034400069FB0A23184604F030F9C1E77C480020E4
:10345000E4500020F45000200451002014510020BA
:103460000AD7233C000000007C52002080B582B0C7
:1034700000AF78600F48FEF73DFA0E4BD3ED037AAC
:10348000B0EE670A0C48FFF7B8FD0A4BD3ED047A9B
:10349000B0EE670A0948FFF7B0FD064BD3ED057A99
:1034A000B0EE670A0648FFF7A8FD0A23184604F0A5
:1034B000FCF8DFE738540020484B0020584B002030
:1034C000684B002080B5A4B000AF786007F10C0114
:1034D000642380220F4803F047FB0023C7F88C3099
:1034E0000EE007F10C02D7F88C3013441B78194614
:1034F0000948FEF7D5F8D7F88C300133C7F88C307F
:10350000D7F88C307F2BECDD4FF47A73184604F03B
:10351000CCF8DBE7B84F0020784F002080B582B0B0
:1035200000AF78600748FFF74FFB064BD3ED057AF5
:10353000B0EE670A0448FFF760FD0A23184604F05E
:10354000B4F8EFE7F85200204851002080B5A6B04B
:1035500002AF78603D4B1B683D4A13603B4B1B69D3
:103560003B4A5360394B1B6A394A9360394B1B689D
:10357000374AD360374B1B69354A1361354B1B6A99
:10358000334A5361344BDB68314A9361324B1B69D8
:103590002F4AD361304B5B692D4A13622F4B5B6915
:1035A0002B4A53622A4B4FF000029A622C4B5B7FEE
:1035B00007EE903AF8EE677A254BC3ED0B7A284B6D
:1035C0001B68234A1363264B5B68214A5363244BD1
:1035D0009B681F4A9363224BDB681D4AD363204BD1
:1035E0001B691B4A13641F4BD3ED007A9FED1E7AB3
:1035F00067EE877A164BC3ED117A1A4BD3ED017A39
:103600009FED197A67EE877A114BC3ED127A104B52
:103610004FF00002DA6407F10C0300930C4B5022C8
:1036200000210020FFF76EFB034687F88F3097F8E4
:103630008F309AB207F10C014FF0FF330B4803F0C3
:10364000FAF96423184604F030F883E7E4500020C8
:10365000A85200201451002038540020F8520020B5
:10366000784F00207C520020E12E6542D049002096
:1036700080B586B004AF0023FB71012301932B4B6F
:10368000009380232A4A2B492B48FFF739FA034637
:10369000402B0CBF01230023DBB2BB714023244A23
:1036A00024492648FEF7BEF803467B712023019388
:1036B0001F4B009310231E4A1E492148FDF71EFC94
:1036C00003463B71BA797B791344DAB23B791344F0
:1036D000FB7118491B48FFF7F5FA4FF400530393A9
:1036E000194B02934FF480530193174B00934FF4FF
:1036F0008043154A15491648FFF7D5FB1448FFF7D4
:1037000010FCFB79022B06D801224FF40051074828
:1037100001F04AF805E000224FF40051034801F09F
:1037200043F800BF0837BD4680BD00BF000402401B
:1037300000000240104A0020F852002038540020B7
:103740007C4800203C46002000080240B84F002082
:103750004446002080B594B000AF07F1200330222A
:103760000021184606F0FDFC07F10C0300221A6048
:103770005A609A60DA601A610023BB60284B1B6CA8
:10378000274A43F080531364254B1B6C03F080538E
:10379000BB60BB6800237B60224B1B68214A43F45B
:1037A000804313601F4B1B6803F480437B607B687E
:1037B00001233B624FF480337B620223BB634FF4EF
:1037C0008003FB6319233B644FF4A8737B640223DB
:1037D000BB640423FB6407F12003184602F064FA7B
:1037E0000346002B01D000F0EBF90F23FB6002230E
:1037F0003B6100237B614FF4A053BB614FF48053C6
:10380000FB6107F10C030521184602F08FFC03460B
:10381000002B01D000F0D4F900BF5037BD4680BD69
:10382000003802400070004080B500AF124B134AD0
:103830001A60114B124A5A600F4B00229A600E4BCD
:103840000022DA600C4B4FF480421A610A4B0022CE
:103850005A61094B00229A61074B0022DA61064B3C
:1038600000221A62044800F0D3FF0346002B01D067
:1038700000F0A6F900BF80BD104A002000540040AF
:10388000A086010080B500AF124B134A1A60114B9D
:10389000124A5A600F4B00229A600E4B0022DA60E7
:1038A0000C4B4FF480421A610A4B00225A61094BBB
:1038B00000229A61074B0022DA61064B00221A624D
:1038C000044800F0A5FF0346002B01D000F078F972
:1038D00000BF80BD784B002000580040A08601004A
:1038E00080B500AF124B134A1A60114B124A5A604E
:1038F0000F4B00229A600E4B0022DA600C4B4FF403
:1039000080421A610A4B00225A61094B00229A61D7
:10391000074B0022DA61064B00221A62044800F0CD
:1039200077FF0346002B01D000F04AF900BF80BDAD
:10393000FC460020005C0040A086010080B500AF7E
:10394000114B124A1A60104B42F248625A600E4BF9
:1039500000229A600C4B0022DA600B4B00221A61A5
:10396000094B0C225A61084B00229A61064B002237
:10397000DA61054803F012F80346002B01D000F08D
:103980001FF900BF80BD00BFB84F002000100140EC
:1039900080B500AF114B124A1A60104B4FF4E13260
:1039A0005A600E4B00229A600C4B0022DA600B4BDF
:1039B00000221A61094B0C225A61084B00229A61BD
:1039C000064B0022DA61054802F0E8FF0346002BAF
:1039D00001D000F0F5F800BF80BD00BF3C520020D0
:1039E0000044004080B500AF114B124A1A60104BE2
:1039F0004FF47A325A600E4B00229A600C4B002230
:103A0000DA600B4B00221A61094B0C225A61084BF9
:103A100000229A61064B0022DA61054802F0BEFFDF
:103A20000346002B01D000F0CBF800BF80BD00BFE3
:103A3000D04900200048004080B58AB000AF07F1AF
:103A4000140300221A605A609A60DA601A61002337
:103A50003B614E4B1B6B4D4A43F0040313634B4BCE
:103A60001B6B03F004033B613B690023FB60474B86
:103A70001B6B464A43F080031363444B1B6B03F0FC
:103A80008003FB60FB680023BB60404B1B6B3F4A1D
:103A900043F0010313633D4B1B6B03F00103BB6059
:103AA000BB6800237B60394B1B6B384A43F0020331
:103AB0001363364B1B6B03F002037B607B680022B1
:103AC00044F2F001324800F06FFE002280213148BC
:103AD00000F06AFE00224FF470412F4800F064FEAF
:103AE00043F20F037B610023BB610023FB6107F1FD
:103AF00014031946264800F0A5FC44F2F0037B614C
:103B00000123BB610023FB6100233B6207F1140327
:103B100019461F4800F096FC70237B610023BB61AF
:103B20000023FB6107F1140319461A4800F08AFCD0
:103B300080237B610123BB610023FB6100233B6287
:103B400007F114031946134800F07CFC01237B6144
:103B50000023BB610023FB6107F1140319460E48E3
:103B600000F070FC4FF470437B610123BB610023C4
:103B7000FB6100233B6207F114031946064800F07D
:103B800061FC00BF2837BD4680BD00BF0038024041
:103B900000080240000002400004024080B582B0EC
:103BA00000AF78607B681B68044A934201D100F043
:103BB00003FB00BF0837BD4680BD00BF00000140C9
:103BC00080B400AF00BFBD465DF8047B70470000C5
:103BD00080B582B000AF00237B60124B5B6C114A52
:103BE00043F4804353640F4B5B6C03F480437B606E
:103BF0007B6800233B600B4B1B6C0A4A43F08053ED
:103C00001364084B1B6C03F080533B603B6800223D
:103C10000F216FF0010000F0C9FB00BF0837BD465F
:103C200080BD00BF0038024080B58EB000AF786024
:103C300007F1240300221A605A609A60DA601A6160
:103C40007B681B685C4A93422DD100233B625B4B2F
:103C50001B6B5A4A43F002031363584B1B6B03F070
:103C600002033B623B6A4FF440737B621223BB62E8
:103C70000123FB6203233B6304237B6307F12403DB
:103C800019464F4800F0DEFB0023FB614B4B1B6CD9
:103C90004A4A43F400131364484B1B6C03F40013AB
:103CA000FB61FB6983E07B681B68464A93422DD128
:103CB0000023BB61414B1B6B404A43F0020313637B
:103CC0003E4B1B6B03F00203BB61BB694FF44063C7
:103CD0007B621223BB620123FB6203233B63042349
:103CE0007B6307F124031946354800F0ABFB002342
:103CF0007B61324B1B6C314A43F4800313642F4BBE
:103D00001B6C03F480037B617B6950E07B681B685C
:103D10002D4A93424BD100233B61284B1B6B274A12
:103D200043F004031363254B1B6B03F004033B6157
:103D30003B690023FB60214B1B6B204A43F00103CE
:103D400013631E4B1B6B03F00103FB60FB684FF416
:103D500000737B621223BB620123FB6203233B637C
:103D600004237B6307F124031946184800F06AFB1B
:103D70004FF480737B621223BB620123FB62032337
:103D80003B6304237B6307F124031946104800F0CA
:103D900059FB0023BB60094B1B6C084A43F400032A
:103DA0001364064B1B6C03F40003BB60BB6800BFCD
:103DB0003837BD4680BD00BF005400400038024087
:103DC0000004024000580040005C0040000802402F
:103DD0000000024080B58EB000AF786007F1240388
:103DE00000221A605A609A60DA601A617B681B6868
:103DF0004F4A934234D100233B624E4B5B6C4D4A99
:103E000043F0100353644B4B5B6C03F010033B62B5
:103E10003B6A0023FB61474B1B6B464A43F002039E
:103E20001363444B1B6B03F00203FB61FB69C0236C
:103E30007B620223BB620123FB6203233B630723F4
:103E40007B6307F1240319463B4800F0FBFA00228C
:103E50000521252000F0AAFA252000F0C3FA63E02E
:103E60007B681B68354A93422CD10023BB61314BE0
:103E70001B6C304A43F4003313642E4B1B6C03F469
:103E80000033BB61BB6900237B612A4B1B6B294A52
:103E900043F001031363274B1B6B03F001037B61AA
:103EA0007B690C237B620223BB620123FB62032339
:103EB0003B6307237B6307F124031946204800F086
:103EC000C1FA31E07B681B681E4A93422CD1002363
:103ED0003B61184B1B6C174A43F480231364154B4A
:103EE0001B6C03F480233B613B690023FB60114B97
:103EF0001B6B104A43F0040313630E4B1B6B03F060
:103F00000403FB60FB684FF440637B620223BB62E7
:103F10000123FB6203233B6307237B6307F1240335
:103F20001946094800F08EFA00BF3837BD4680BDFB
:103F300000100140003802400004024000440040EC
:103F400000000240004800400008024080B58CB0EC
:103F500000AF78600023FB620023BB620022796817
:103F6000192000F023FA192000F03CFA0023FB602E
:103F70001F4B5B6C1E4A43F0010353641C4B5B6C8C
:103F800003F00103FB60FB6807F1100207F1140363
:103F90001146184602F092FA02F07CFA03465B00E2
:103FA000FB62FB6A134AA2FB03239B0C013BBB622F
:103FB000114B124A1A60104B40F2E732DA600E4A97
:103FC000BB6A53600C4B00221A610B4B00229A60B3
:103FD000094802F0A5FA0346002B04D1064802F076
:103FE000D4FA034600E0012318463037BD4680BDB1
:103FF0000038024083DE1B4378550020000001405A
:1040000080B400AF00BFBD465DF8047B704780B44C
:1040100000AFFEE780B400AFFEE780B400AFFEE77C
:1040200080B400AFFEE780B400AF00BFBD465DF8CE
:10403000047B704780B500AF024802F0CAFA00BFA7
:1040400080BD00BF7855002080B500AF024802F067
:1040500031FE00BF80BD00BFB84F002080B584B0E6
:1040600000AF7860114B1B68002B02D10F4B104A38
:104070001A600E4B1B68FB600C4B1A687B6813447C
:104080006A46934207D906F037F802460C231360BC
:104090004FF0FF3306E0054B1A687B681344034A70
:1040A0001360FB6818461037BD4680BDE408002049
:1040B000C055002080B400AF164BD3F88830154AA5
:1040C00043F47003C2F88830134B1B68124A43F064
:1040D00001031360104B00229A600F4B1B680E4ABD
:1040E00023F0847323F4803313600B4B0B4A5A6024
:1040F000094B1B68084A23F480231360064B0022F7
:10410000DA60044B4FF000629A6000BFBD465DF874
:10411000047B704700ED00E00038024010300024BE
:10412000DFF834D0002103E00C4B5B5843500431DE
:104130000B480C4B42189A42F6D30B4A02E000237C
:1041400042F8043B094B9A42F9D3FFF7B3FF05F05D
:10415000D9FFFEF7AFFF704700000220F0D700083C
:10416000000000207406002074060020C0550020C6
:10417000FEE7000080B500AF0E4B1B680D4A43F40C
:10418000007313600B4B1B680A4A43F4806313608F
:10419000084B1B68074A43F480731360032000F048
:1041A000FAF80020FFF7D2FEFFF712FD00231846B1
:1041B00080BD00BF003C024080B400AF064B1B78BE
:1041C0001A46064B1B681344044A136000BFBD46E1
:1041D0005DF8047B704700BF98040020B8550020AC
:1041E00080B400AF034B1B681846BD465DF8047BE6
:1041F000704700BFB855002080B584B000AF78602C
:10420000FFF7EEFFB8607B68FB60FB68B3F1FF3F30
:1042100005D0094B1B781A46FB681344FB6000BFAE
:10422000FFF7DEFF0246BB68D31AFA689A42F7D856
:1042300000BF1037BD4680BD9804002080B485B013
:1042400000AF78607B6803F00703FB600C4BDB6812
:10425000BB60BA684FF6FF031340BB60FB681A02ED
:10426000BB68134343F0BF6343F40033BB60044AAD
:10427000BB68D36000BF1437BD465DF8047B704750
:1042800000ED00E080B400AF044BDB681B0A03F0D4
:1042900007031846BD465DF8047B704700ED00E05B
:1042A00080B483B000AF0346FB7197F90730002B51
:1042B0000BDBFB7903F01F02074997F907305B0915
:1042C000012000FA02F241F8232000BF0C37BD465E
:1042D0005DF8047B704700BF00E100E080B483B06C
:1042E00000AF03463960FB7197F90730002B0ADBFA
:1042F0003B68DAB20C4997F907301201D2B20B448D
:1043000083F800230AE03B68DAB20849FB7903F03E
:104310000F03043B1201D2B20B441A7600BF0C37D4
:10432000BD465DF8047B704700E100E000ED00E071
:1043300080B489B000AFF860B9607A60FB6803F0C0
:104340000703FB61FB69C3F10703042B28BF0423A8
:10435000BB61FB690433062B02D9FB69033B00E018
:1043600000237B614FF0FF32BB6902FA03F3DA43AB
:10437000BB681A407B699A404FF0FF317B6901FAB4
:1043800003F3D9437B680B40134318462437BD46DB
:104390005DF8047B704780B582B000AF78607868C4
:1043A000FFF74CFF00BF0837BD4680BD80B586B023
:1043B00000AF0346B9607A60FB7300237B61FFF7AF
:1043C00061FF78617A68B9687869FFF7B1FF0246E2
:1043D00097F90F3011461846FFF780FF00BF1837D6
:1043E000BD4680BD80B582B000AF0346FB7197F932
:1043F00007301846FFF754FF00BF0837BD4680BDA1
:1044000080B483B000AF78607B6893F83530DBB25E
:10441000022B04D07B6880225A6501230CE07B6864
:10442000052283F835207B681B681A687B681B6847
:1044300022F001021A60002318460C37BD465DF8D1
:10444000047B704780B489B000AF78603960002386
:104450007B6100233B610023BB610023FB616BE1B7
:104460000122FB6902FA03F37B613B681B687A69EE
:1044700013403B613A697B699A4240F05A813B683C
:104480005B68022B03D03B685B68122B23D1FB696E
:10449000DA087B68083253F82230BB61FB6903F00D
:1044A00007039B000F2202FA03F3DB43BA691340B0
:1044B000BB613B681A69FB6903F007039B0002FAC2
:1044C00003F3BA691343BB61FB69DA087B680832FE
:1044D000B96943F822107B681B68BB61FB695B000C
:1044E000032202FA03F3DB43BA691340BB613B6862
:1044F0005B6803F00302FB695B0002FA03F3BA692D
:104500001343BB617B68BA691A603B685B68012B27
:104510000BD03B685B68022B07D03B685B68112BB4
:1045200003D03B685B68122B30D17B689B68BB6112
:10453000FB695B00032202FA03F3DB43BA69134011
:10454000BB613B68DA68FB695B0002FA03F3BA6996
:104550001343BB617B68BA699A607B685B68BB6127
:104560000122FB6902FA03F3DB43BA691340BB6122
:104570003B685B681B0903F00102FB6902FA03F365
:10458000BA691343BB617B68BA695A607B68DB68B0
:10459000BB61FB695B00032202FA03F3DB43BA69E8
:1045A0001340BB613B689A68FB695B0002FA03F346
:1045B000BA691343BB617B68BA69DA603B685B68C0
:1045C00003F08053002B00F0B4800023FB605F4BAE
:1045D0005B6C5E4A43F4804353645C4B5B6C03F456
:1045E0008043FB60FB685A4AFB699B08023352F820
:1045F0002330BB61FB6903F003039B000F2202FA27
:1046000003F3DB43BA691340BB617B68514A9342B1
:104610002BD07B68504A934225D07B684F4A934207
:104620001FD07B684E4A934219D07B684D4A934213
:1046300013D07B684C4A93420DD07B684B4A93421F
:1046400007D07B684A4A934201D107230EE0082332
:104650000CE006230AE0052308E0042306E0032318
:1046600004E0022302E0012300E00023FA6902F0E3
:10467000030292009340BA691343BB613449FB695A
:104680009B080233BA6941F823203A4B1B68BB618F
:104690003B69DB43BA691340BB613B685B6803F469
:1046A0008033002B03D0BA693B691343BB61314AA5
:1046B000BB6913602F4B5B68BB613B69DB43BA6925
:1046C0001340BB613B685B6803F40033002B03D0ED
:1046D000BA693B691343BB61264ABB695360254BEA
:1046E0009B68BB613B69DB43BA691340BB613B68B4
:1046F0005B6803F48013002B03D0BA693B69134352
:10470000BB611C4ABB6993601A4BDB68BB613B69A8
:10471000DB43BA691340BB613B685B6803F4001379
:10472000002B03D0BA693B691343BB61114ABB69D3
:10473000D360FB690133FB61FB690F2B7FF690AE01
:1047400000BF2437BD465DF8047B70470038024047
:10475000003801400000024000040240000802400E
:10476000000C0240001002400014024000180240F9
:10477000001C0240003C014080B485B000AF78606E
:104780000B467B807B681A697B881340002B02D024
:104790000123FB7301E00023FB73FB7B18461437F6
:1047A000BD465DF8047B704780B483B000AF78608D
:1047B0000B467B8013467B707B78002B03D07A8876
:1047C0007B689A6103E07B881A047B689A6100BF6A
:1047D0000C37BD465DF8047B704780B483B000AFF2
:1047E00078600B467B807B685A697B881A407B889F
:1047F0009A4204D17B881A047B689A6102E07A8825
:104800007B689A6100BF0C37BD465DF8047B70473A
:1048100080B584B000AF78607B68002B01D10123A4
:104820000FE17B6893F83D30DBB2002B06D17B684B
:10483000002283F83C207868FFF7F6F97B68242291
:1048400083F83D207B681B681A687B681B6822F030
:1048500001021A6001F00AFEF8607B685B687B4A1F
:10486000934207D8FB687A4A934294BF01230023FE
:10487000DBB206E0FB68774A934294BF0123002332
:10488000DBB2002B01D00123DBE0FB68724AA2FB04
:1048900003239B0CBB607B681B685B6823F03F01B4
:1048A0007B681B68BA680A435A607B681B681B6A8E
:1048B00023F03F017B685B68644A934202D8BB687F
:1048C000013309E0BB684FF4967202FB03F3634ABD
:1048D000A2FB03239B0901337A6812680B4313621E
:1048E0007B681B68DB6923F44F4222F0FF027B6880
:1048F0005B6856498B420DD8FB68591E7B685B6824
:104900005B00B1FBF3F30133C3F30B03042B38BF9C
:1049100004234FE07B689B68002B11D1FB68581E75
:104920007B6859680B465B000B44B0FBF3F3013323
:10493000C3F30B03002B0CBF01230023DBB212E0F7
:10494000FB68581E7B6859680B469B000B44990016
:104950000B44B0FBF3F30133C3F30B03002B0CBF89
:1049600001230023DBB2002B01D0012322E07B686E
:104970009B68002B0ED1FB68581E7B6859680B465C
:104980005B000B44B0FBF3F30133C3F30B0343F4BD
:1049900000430FE0FB68581E7B6859680B469B007C
:1049A0000B4499000B44B0FBF3F30133C3F30B0347
:1049B00043F44043796809681343CB617B681B6803
:1049C0001B6823F0C0017B68DA697B681B6A1A43A5
:1049D0007B681B680A431A607B681B689B6823F42A
:1049E000034323F0FF037A6811697A68D2681143A0
:1049F0007A6812680B4393607B681B68DB6823F05E
:104A0000FF017B685A697B689B691A437B681B6856
:104A10000A43DA607B681B681A687B681B6842F08F
:104A200001021A607B6800221A647B68202283F8E6
:104A30003D207B6800221A637B68002283F83E20B9
:104A4000002318461037BD4680BD00BFA086010078
:104A50007F841E00FF083D0083DE1B43D34D6210A0
:104A600080B588B002AFF8607A601A460B467B8149
:104A700013463B81FFF7B4FB7861FB6893F83D3048
:104A8000DBB2202B40F0E0807B69009319230122E8
:104A90007049F86800F02AFF0346002B01D002237A
:104AA000D3E0FB6893F83C30012B01D10223CCE02A
:104AB000FB68012283F83C20FB681B681B6803F03D
:104AC0000103012B07D0FB681B681A68FB681B6891
:104AD00042F001021A60FB681B681A68FB681B68D9
:104AE00022F400621A60FB68212283F83D20FB68F3
:104AF000102283F83E20FB6800221A64FB687A6863
:104B00005A62FB683A895A85FB685B8D9AB2FB68EA
:104B10001A85FB68504ADA6279897B693A6AF868D3
:104B200000F0E8FC0346002B01D001238DE00023B8
:104B30003B61FB681B685B693B61FB681B689B69A9
:104B40003B613B6966E07A69396AF86800F0A4FF66
:104B50000346002B0DD0FB681B6C042B07D1FB68B0
:104B60001B681A68FB681B6842F400721A60012314
:104B70006BE0FB685B6A1A78FB681B681A61FB686C
:104B80005B6A5A1CFB685A62FB685B8D9BB2013BF7
:104B90009AB2FB685A85FB681B8D013B9AB2FB6891
:104BA0001A85FB681B685B6903F00403042B1BD1A7
:104BB000FB681B8D002B17D0FB685B6A1A78FB68BB
:104BC0001B681A61FB685B6A5A1CFB685A62FB68C7
:104BD0005B8D9BB2013B9AB2FB685A85FB681B8DCB
:104BE000013B9AB2FB681A857A69396AF86800F065
:104BF00094FF0346002B0DD0FB681B6C042B07D1E0
:104C0000FB681B681A68FB681B6842F400721A6034
:104C100001231AE0FB681B8D002B94D1FB681B68F5
:104C20001A68FB681B6842F400721A60FB68202255
:104C300083F83D20FB68002283F83E20FB680022B9
:104C400083F83C20002300E0022318461837BD46B5
:104C500080BD00BF020010000000FFFF80B58CB0D7
:104C600002AFF8607A601A460B467B8113463B819F
:104C7000FFF7B6FA7862FB6893F83D30DBB2202B81
:104C800040F00B827B6A0093192301227C49F8686B
:104C900000F02CFE0346002B01D00223FEE1FB684E
:104CA00093F83C30012B01D10223F7E1FB6801228C
:104CB00083F83C20FB681B681B6803F00103012B91
:104CC00007D0FB681B681A68FB681B6842F001028A
:104CD0001A60FB681B681A68FB681B6822F4006294
:104CE0001A60FB68222283F83D20FB68102283F8BB
:104CF0003E20FB6800221A64FB687A685A62FB68EF
:104D00003A895A85FB685B8D9AB2FB681A85FB6805
:104D10005C4ADA6279897B6A3A6BF86800F060FC79
:104D20000346002B01D00123B8E1FB681B8D002B4B
:104D300013D100233B62FB681B685B693B62FB6825
:104D40001B689B693B623B6AFB681B681A68FB68CF
:104D50001B6842F400721A608CE1FB681B8D012B0A
:104D60001BD1FB681B681A68FB681B6822F4806211
:104D70001A600023FB61FB681B685B69FB61FB68D1
:104D80001B689B69FB61FB69FB681B681A68FB6811
:104D90001B6842F400721A606CE1FB681B8D022BE9
:104DA0001BD1FB681B681A68FB681B6822F48062D1
:104DB0001A60FB681B681A68FB681B6842F4006293
:104DC0001A600023BB61FB681B685B69BB61FB6801
:104DD0001B689B69BB61BB694CE1FB681B681A6877
:104DE000FB681B6842F480621A6000237B61FB68E9
:104DF0001B685B697B61FB681B689B697B617B69E6
:104E000038E1FB681B8D032B00F2F180FB681B8DE2
:104E1000012B23D17A6A396BF86800F0BFFE034694
:104E2000002B01D0012339E1FB681B681A69FB687C
:104E30005B6AD2B21A70FB685B6A5A1CFB685A62E2
:104E4000FB681B8D013B9AB2FB681A85FB685B8D82
:104E50009BB2013B9AB2FB685A850BE1FB681B8D44
:104E6000022B4ED17B6A00933B6B00220649F86807
:104E700000F03CFD0346002B08D001230EE100BFEB
:104E8000020010000000FFFF04000100FB681B6827
:104E90001A68FB681B6842F400721A60FB681B68A2
:104EA0001A69FB685B6AD2B21A70FB685B6A5A1CAB
:104EB000FB685A62FB681B8D013B9AB2FB681A853E
:104EC000FB685B8D9BB2013B9AB2FB685A85FB681D
:104ED0001B681A69FB685B6AD2B21A70FB685B6A6E
:104EE0005A1CFB685A62FB681B8D013B9AB2FB6837
:104EF0001A85FB685B8D9BB2013B9AB2FB685A85B1
:104F0000B8E07B6A00933B6B00226649F86800F0CA
:104F1000EDFC0346002B01D00123BFE0FB681B68BA
:104F20001A68FB681B6822F480621A60FB681B68C1
:104F30001A69FB685B6AD2B21A70FB685B6A5A1C1A
:104F4000FB685A62FB681B8D013B9AB2FB681A85AD
:104F5000FB685B8D9BB2013B9AB2FB685A857B6A0A
:104F600000933B6B00224F49F86800F0BFFC0346FA
:104F7000002B01D0012391E0FB681B681A68FB68D5
:104F80001B6842F400721A60FB681B681A69FB68B0
:104F90005B6AD2B21A70FB685B6A5A1CFB685A6281
:104FA000FB681B8D013B9AB2FB681A85FB685B8D21
:104FB0009BB2013B9AB2FB685A85FB681B681A6971
:104FC000FB685B6AD2B21A70FB685B6A5A1CFB68AA
:104FD0005A62FB681B8D013B9AB2FB681A85FB681D
:104FE0005B8D9BB2013B9AB2FB685A8542E07A6ABC
:104FF000396BF86800F0D2FD0346002B01D0012385
:105000004CE0FB681B681A69FB685B6AD2B21A70D5
:10501000FB685B6A5A1CFB685A62FB681B8D013B8C
:105020009AB2FB681A85FB685B8D9BB2013B9AB212
:10503000FB685A85FB681B685B6903F00403042B5B
:1050400018D1FB681B681A69FB685B6AD2B21A70D8
:10505000FB685B6A5A1CFB685A62FB681B8D013B4C
:105060009AB2FB681A85FB685B8D9BB2013B9AB2D2
:10507000FB685A85FB681B8D002B7FF4C2AEFB6872
:10508000202283F83D20FB68002283F83E20FB6845
:10509000002283F83C20002300E002231846283732
:1050A000BD4680BD0400010080B58CB002AFF86041
:1050B000084611461A4603467B810B463B81134640
:1050C000FB80FFF78DF87862FB6893F83D30DBB228
:1050D000202B40F008827B6A0093192301227B4930
:1050E000F86800F003FC0346002B01D00223FBE12B
:1050F000FB6893F83C30012B01D10223F4E1FB68FB
:10510000012283F83C20FB681B681B6803F0010345
:10511000012B07D0FB681B681A68FB681B6842F00C
:1051200001021A60FB681B681A68FB681B6822F49E
:1051300000621A60FB68222283F83D20FB6840224F
:1051400083F83E20FB6800221A64FB683A6B5A62BF
:10515000FB68BA8E5A85FB685B8D9AB2FB681A852C
:10516000FB685B4ADA62F8883A8979897B6A01933D
:10517000BB6B00930346F86800F0E8FA0346002B87
:1051800001D00123B0E1FB681B8D002B13D100235C
:105190003B62FB681B685B693B62FB681B689B6941
:1051A0003B623B6AFB681B681A68FB681B6842F439
:1051B00000721A6084E1FB681B8D012B1BD1FB6818
:1051C0001B681A68FB681B6822F480621A6000235F
:1051D000FB61FB681B685B69FB61FB681B689B6983
:1051E000FB61FB69FB681B681A68FB681B6842F47B
:1051F00000721A6064E1FB681B8D022B1BD1FB68F7
:105200001B681A68FB681B6822F480621A60FB68DE
:105210001B681A68FB681B6842F400621A6000236E
:10522000BB61FB681B685B69BB61FB681B689B69B2
:10523000BB61BB6944E100237B61FB681B685B6960
:105240007B61FB681B689B697B617B6938E1FB685C
:105250001B8D032B00F2F180FB681B8D012B23D1EA
:105260007A6AB96BF86800F099FC0346002B01D00C
:10527000012339E1FB681B681A69FB685B6AD2B2DB
:105280001A70FB685B6A5A1CFB685A62FB681B8DCC
:10529000013B9AB2FB681A85FB685B8D9BB2013BB0
:1052A0009AB2FB685A850BE1FB681B8D022B4ED12D
:1052B0007B6A0093BB6B00220649F86800F016FB7E
:1052C0000346002B08D001230EE100BF02001000AE
:1052D0000000FFFF04000100FB681B681A68FB6800
:1052E0001B6842F400721A60FB681B681A69FB684D
:1052F0005B6AD2B21A70FB685B6A5A1CFB685A621E
:10530000FB681B8D013B9AB2FB681A85FB685B8DBD
:105310009BB2013B9AB2FB685A85FB681B681A690D
:10532000FB685B6AD2B21A70FB685B6A5A1CFB6846
:105330005A62FB681B8D013B9AB2FB681A85FB68B9
:105340005B8D9BB2013B9AB2FB685A85B8E07B6AE1
:105350000093BB6B00226649F86800F0C7FA034669
:10536000002B01D00123BFE0FB681B681A68FB68B3
:105370001B6822F480621A60FB681B681A69FB686C
:105380005B6AD2B21A70FB685B6A5A1CFB685A628D
:10539000FB681B8D013B9AB2FB681A85FB685B8D2D
:1053A0009BB2013B9AB2FB685A857B6A0093BB6B48
:1053B00000224F49F86800F099FA0346002B01D00B
:1053C000012391E0FB681B681A68FB681B6842F4C4
:1053D00000721A60FB681B681A69FB685B6AD2B2CC
:1053E0001A70FB685B6A5A1CFB685A62FB681B8D6B
:1053F000013B9AB2FB681A85FB685B8D9BB2013B4F
:105400009AB2FB685A85FB681B681A69FB685B6A7D
:10541000D2B21A70FB685B6A5A1CFB685A62FB685E
:105420001B8D013B9AB2FB681A85FB685B8D9BB2B2
:10543000013B9AB2FB685A8542E07A6AB96BF86818
:1054400000F0ACFB0346002B01D001234CE0FB68CD
:105450001B681A69FB685B6AD2B21A70FB685B6AE8
:105460005A1CFB685A62FB681B8D013B9AB2FB68B1
:105470001A85FB685B8D9BB2013B9AB2FB685A852B
:10548000FB681B685B6903F00403042B18D1FB68FD
:105490001B681A69FB685B6AD2B21A70FB685B6AA8
:1054A0005A1CFB685A62FB681B8D013B9AB2FB6871
:1054B0001A85FB685B8D9BB2013B9AB2FB685A85EB
:1054C000FB681B8D002B7FF4C2AEFB68202283F8A3
:1054D0003D20FB68002283F83E20FB68002283F811
:1054E0003C20002300E0022318462837BD4680BD3B
:1054F0000400010080B588B002AFF8607A603B60BC
:105500000B467B81FB68DB6A7B617B69082B06D0DD
:105510007B69012B03D07B6913F5803F08D1FB68C1
:105520001B681A68FB681B6842F480721A600BE003
:10553000FB681B6B122B07D1FB681B681A68FB68A2
:105540001B6842F480721A603B6800937B680022FB
:105550004FF00111F86800F0C9F90346002B01D0A3
:10556000012335E0FB681B69B3F5804F08D17B89C7
:10557000DBB21A46FB681B6802F0FE021A611BE0F0
:105580007B89DB11DBB203F00603DBB263F00F03B0
:10559000DAB2FB681B681A613B687A680E49F868E2
:1055A00000F0FBF90346002B01D0012310E07B89BA
:1055B000DAB2FB681B681A613B687A680749F868C9
:1055C00000F0EBF90346002B01D0012300E000239B
:1055D00018461837BD4680BD0800010002000100D2
:1055E00080B588B002AFF8607A603B600B467B8183
:1055F000FB68DB6A7B61FB681B681A68FB681B68D9
:1056000042F480621A607B69082B06D07B69012B0B
:1056100003D07B6913F5803F08D1FB681B681A68CB
:10562000FB681B6842F480721A600BE0FB681B6B1E
:10563000112B07D1FB681B681A68FB681B6842F4D2
:1056400080721A603B6800937B6800224FF0011162
:10565000F86800F04BF90346002B01D001236DE000
:10566000FB681B69B3F5804F08D17B89DBB243F03F
:105670000103DAB2FB681B681A6153E07B89DB1116
:10568000DBB203F00603DBB263F00F03DAB2FB68B0
:105690001B681A613B687A682A49F86800F07DF94E
:1056A0000346002B01D0012348E07B89DAB2FB6876
:1056B0001B681A613B687A682349F86800F06DF945
:1056C0000346002B01D0012338E000233B61FB6837
:1056D0001B685B693B61FB681B689B693B613B69BD
:1056E000FB681B681A68FB681B6842F480721A60CA
:1056F0003B6800937B6800224FF00111F86800F0CE
:10570000F5F80346002B01D0012317E07B89DB115C
:10571000DBB203F00603DBB263F00E03DAB2FB6820
:105720001B681A613B687A680749F86800F035F928
:105730000346002B01D0012300E000231846183750
:10574000BD4680BD080001000200010080B588B0A0
:1057500002AFF860084611461A4603467B810B46A5
:105760003B811346FB80FB681B681A68FB681B685B
:1057700042F480621A60FB681B681A68FB681B6849
:1057800042F480721A607B6A00933B6A00224FF0F9
:105790000111F86800F0AAF80346002B01D001239C
:1057A0009EE07B89DBB21A46FB681B6802F0FE02B2
:1057B0001A617B6A3A6A4C49F86800F0EEF80346D1
:1057C000002B01D001238BE000237B61FB681B6869
:1057D0005B697B61FB681B689B697B617B697A6A9B
:1057E000396AF86800F058F90346002B0DD0FB68C1
:1057F0001B6C042B07D1FB681B681A68FB681B68CD
:1058000042F400721A6001236AE0FB88012B05D183
:105810003B89DAB2FB681B681A6121E03B891B0AED
:105820009BB2DAB2FB681B681A617A6A396AF86857
:1058300000F032F90346002B0DD0FB681B6C042BE3
:1058400007D1FB681B681A68FB681B6842F400728A
:105850001A60012344E03B89DAB2FB681B681A61D5
:105860007A6A396AF86800F017F90346002B0DD000
:10587000FB681B6C042B07D1FB681B681A68FB686C
:105880001B6842F400721A60012329E0FB681B6860
:105890001A68FB681B6842F480721A607B6A009386
:1058A0003B6A00224FF00111F86800F01FF8034630
:1058B000002B01D0012313E07B89DBB243F001030D
:1058C000DAB2FB681B681A617B6A3A6A0649F868B3
:1058D00000F063F80346002B01D0012300E0002311
:1058E00018461837BD4680BD0200010080B584B05F
:1058F00000AFF860B9603B601346FB7125E03B6880
:10590000B3F1FF3F21D0FEF76BFC0246BB69D31A0F
:105910003A689A4202D33B68002B16D1FB680022FA
:105920001A63FB68202283F83D20FB68002283F87D
:105930003E20FB681B6C43F02002FB681A64FB6886
:10594000002283F83C20012323E0BB681B0CDBB260
:10595000012B0DD1FB681B685B69DA43BB68134000
:105960009BB2002B0CBF01230023DBB21A460CE0D4
:10597000FB681B689B69DA43BB6813409BB2002B32
:105980000CBF01230023DBB21A46FB799A42B6D042
:10599000002318461037BD4680BD80B584B000AFE7
:1059A000F860B9607A603B6051E0FB681B685B6936
:1059B00003F48063B3F5806F23D1FB681B681A681A
:1059C000FB681B6842F400721A60FB681B686FF486
:1059D00080625A61FB6800221A63FB68202283F808
:1059E0003D20FB68002283F83E20FB681B6C43F0DF
:1059F0000402FB681A64FB68002283F83C20012340
:105A000046E07B68B3F1FF3F21D0FEF7E9FB024699
:105A10003B68D31A7A689A4202D37B68002B16D16E
:105A2000FB6800221A63FB68202283F83D20FB6894
:105A3000002283F83E20FB681B6C43F02002FB68C9
:105A40001A64FB68002283F83C20012320E0BB6835
:105A50001B0CDBB2012B0CD1FB681B685B69DA43C2
:105A6000BB6813409BB2002B14BF01230023DBB2A1
:105A70000BE0FB681B689B69DA43BB6813409BB271
:105A8000002B14BF01230023DBB2002B8DD1002398
:105A900018461037BD4680BD80B584B000AFF860B1
:105AA000B9607A602DE0F86800F0CEF80346002B6C
:105AB00001D001232DE0BB68B3F1FF3F21D0FEF7F9
:105AC0008FFB02467B68D31ABA689A4202D3BB683E
:105AD000002B16D1FB6800221A63FB68202283F892
