:020000040800F2
:1000000000000220C5260008A5250008B325000829
:10001000B9250008BF250008C5250008000000001C
:1000200000000000000000000000000081670008E0
:10003000CB25000800000000C1690008296A0008FB
:1000400015270008152700081527000815270008A0
:100050001527000815270008152700081527000890
:100060001527000815270008152700081527000880
:100070001527000815270008152700081527000870
:100080001527000815270008152700081527000860
:100090001527000815270008152700081527000850
:1000A00015270008D925000815270008152700087E
:1000B0001527000815270008152700081527000830
:1000C0001527000815270008152700081527000820
:1000D00015270008ED25000815270008152700083A
:1000E0001527000815270008152700081527000800
:1000F00015270008152700081527000815270008F0
:1001000015270008152700081527000815270008DF
:1001100015270008152700081527000815270008CF
:1001200015270008152700081527000815270008BF
:100130001527000800000000000000001527000837
:10014000152700081527000815270008152700089F
:10015000152700081527000815270008152700088F
:10016000152700081527000815270008152700087F
:1001700015270008152700080000000000000000F7
:080180001527000815270008EF
:1001900010B5054C237833B9044B13B10448AFF3C1
:1001A00000800123237010BD5006002000000000D5
:1001B0002089000808B5034B1BB103490348AFF37E
:1001C000008008BD000000005406002020890008BF
:1001D000034613F8012B002AFBD1181A0138704787
:1001E00081F0004102E000BF83F0004330B54FEAE8
:1001F00041044FEA430594EA050F08BF90EA020F55
:100200001FBF54EA000C55EA020C7FEA645C7FEAE7
:10021000655C00F0E2804FEA5454D4EB5555B8BF0A
:100220006D420CDD2C4480EA020281EA030382EA7B
:10023000000083EA010180EA020281EA0303362D0D
:1002400088BF30BD11F0004F4FEA01314FF4801CE0
:100250004CEA113102D0404261EB410113F0004FF2
:100260004FEA03334CEA133302D0524263EB4303A9
:1002700094EA050F00F0A780A4F10104D5F1200E47
:100280000DDB02FA0EFC22FA05F2801841F10001A2
:1002900003FA0EF2801843FA05F359410EE0A5F176
:1002A00020050EF1200E012A03FA0EFC28BF4CF0A7
:1002B000020C43FA05F3C01851EBE37101F000455D
:1002C00007D54FF0000EDCF1000C7EEB00006EEB6A
:1002D0000101B1F5801F1BD3B1F5001F0CD34908F4
:1002E0005FEA30004FEA3C0C04F101044FEA44524B
:1002F00012F5800F80F09A80BCF1004F08BF5FEAD2
:10030000500C50F1000041EB045141EA050130BDB1
:100310005FEA4C0C404141EB010111F4801FA4F154
:100320000104E9D191F0000F04BF01460020B1FAA9
:1003300081F308BF2033A3F10B03B3F120020CDAE1
:100340000C3208DD02F1140CC2F10C0201FA0CF0BF
:1003500021FA02F10CE002F11402D8BFC2F1200C24
:1003600001FA02F120FA0CFCDCBF41EA0C019040DA
:10037000E41AA2BF01EB0451294330BD6FEA040423
:100380001F3C1CDA0C340EDC04F11404C4F120020E
:1003900020FA04F001FA02F340EA030021FA04F320
:1003A00045EA030130BDC4F10C04C4F1200220FA77
:1003B00002F001FA04F340EA0300294630BD21FAB5
:1003C00004F0294630BD94F0000F83F4801306BF7B
:1003D00081F480110134013D4EE77FEA645C18BF6F
:1003E0007FEA655C29D094EA050F08BF90EA020F06
:1003F00005D054EA000C04BF1946104630BD91EAFE
:10040000030F1EBF0021002030BD5FEA545C05D100
:100410004000494128BF41F0004130BD14F580043F
:100420003CBF01F5801130BD01F0004545F0FE41B3
:1004300041F470014FF0000030BD7FEA645C1ABFE8
:10044000194610467FEA655C1CBF0B46024650EA1F
:10045000013406BF52EA033591EA030F41F400214B
:1004600030BD00BF90F0000F04BF0021704730B5D1
:100470004FF4806404F132044FF000054FF00001A6
:1004800050E700BF90F0000F04BF0021704730B567
:100490004FF4806404F1320410F0004548BF40423C
:1004A0004FF000013EE700BF42004FEAE2014FEA91
:1004B00031014FEA02701FBF12F07F4393F07F4F6C
:1004C00081F06051704732F07F4208BF704793F06F
:1004D0007F4F04BF41F40021704730B54FF4607482
:1004E00001F0004521F000411CE700BF50EA010285
:1004F00008BF704730B54FF000050AE050EA01022E
:1005000008BF704730B511F0004502D5404261EB9D
:1005100041014FF4806404F132045FEA915C3FF4DE
:10052000D8AE4FF003025FEADC0C18BF03325FEA7B
:10053000DC0C18BF033202EBDC02C2F1200300FA2C
:1005400003FC20FA02F001FA03FE40EA0E0021FA51
:1005500002F11444BDE600BF70B54FF0FF0C4CF43F
:10056000E06C1CEA11541DBF1CEA135594EA0C0FF1
:1005700095EA0C0F00F0DEF82C4481EA030621EA2C
:100580004C5123EA4C5350EA013518BF52EA033567
:1005900041F4801143F4801338D0A0FB02CE4FF019
:1005A0000005E1FB02E506F00042E0FB03E54FF049
:1005B0000006E1FB03569CF0000F18BF4EF0010E41
:1005C000A4F1FF04B6F5007F64F5407404D25FEA3D
:1005D0004E0E6D4146EB060642EAC62141EA5551F0
:1005E0004FEAC52040EA5E504FEACE2EB4F1FD0C32
:1005F00088BFBCF5E06F1ED8BEF1004F08BF5FEAB0
:10060000500E50F1000041EB045170BD06F0004661
:1006100046EA010140EA020081EA0301B4EB5C040E
:10062000C2BFD4EB0C0541EA045170BD41F4801106
:100630004FF0000E013C00F3AB8014F1360FDEBF2B
:10064000002001F0004170BDC4F10004203C35DA07
:100650000C341BDC04F11404C4F1200500FA05F38A
:1006600020FA04F001FA05F240EA020001F000422B
:1006700021F0004110EBD37021FA04F642EB0601A1
:100680005EEA430E08BF20EAD37070BDC4F10C04CB
:10069000C4F1200500FA04F320FA05F001FA04F28F
:1006A00040EA020001F0004110EBD37041F100017B
:1006B0005EEA430E08BF20EAD37070BDC4F1200586
:1006C00000FA05F24EEA020E20FA04F301FA05F2EE
:1006D00043EA020321FA04F001F0004121FA04F296
:1006E00020EA020000EBD3705EEA430E08BF20EA66
:1006F000D37070BD94F0000F0FD101F000464000A0
:1007000041EB010111F4801F08BF013CF7D041EA21
:10071000060195F0000F18BF704703F00046520025
:1007200043EB030313F4801F08BF013DF7D043EAF6
:100730000603704794EA0C0F0CEA135518BF95EAAC
:100740000C0F0CD050EA410618BF52EA4306D1D133
:1007500081EA030101F000414FF0000070BD50EA52
:10076000410606BF1046194652EA430619D094EADC
:100770000C0F02D150EA013613D195EA0C0F05D1C6
:1007800052EA03361CBF104619460AD181EA03011A
:1007900001F0004141F0FE4141F470014FF00000D2
:1007A00070BD41F0FE4141F4780170BD70B54FF06D
:1007B000FF0C4CF4E06C1CEA11541DBF1CEA1355ED
:1007C00094EA0C0F95EA0C0F00F0A7F8A4EB0504CF
:1007D00081EA030E52EA03354FEA013100F08880C6
:1007E0004FEA03334FF0805545EA131343EA12638F
:1007F0004FEA022245EA111545EA10654FEA002644
:100800000EF000419D4208BF964244F1FD0404F5FC
:10081000407402D25B084FEA3202B61A65EB030558
:100820005B084FEA32024FF480104FF4002CB6EB15
:10083000020E75EB030E22BFB61A754640EA0C0095
:100840005B084FEA3202B6EB020E75EB030E22BFD5
:10085000B61A754640EA5C005B084FEA3202B6EB16
:10086000020E75EB030E22BFB61A754640EA9C00D5
:100870005B084FEA3202B6EB020E75EB030E22BFA5
:10088000B61A754640EADC0055EA060E18D04FEA63
:10089000051545EA16754FEA06164FEAC30343EA03
:1008A00052734FEAC2025FEA1C1CC0D111F4801FD0
:1008B0000BD141EA00014FF000004FF0004CB6E7C9
:1008C00011F4801F04BF01430020B4F1FD0C88BF68
:1008D000BCF5E06F3FF6AFAEB5EB030C04BFB6EB73
:1008E000020C5FEA500C50F1000041EB045170BD66
:1008F0000EF0004E4EEA113114EB5C04C2BFD4EB93
:100900000C0541EA045170BD41F480114FF0000E16
:10091000013C90E645EA060E8DE60CEA135594EA92
:100920000C0F08BF95EA0C0F3FF43BAF94EA0C0F95
:100930000AD150EA01347FF434AF95EA0C0F7FF40A
:1009400025AF104619462CE795EA0C0F06D152EA5E
:1009500003353FF4FDAE1046194622E750EA410642
:1009600018BF52EA43067FF4C5AE50EA41047FF453
:100970000DAF52EA43057FF4EBAE12E74FF0FF3CB8
:1009800006E000BF4FF0010C02E000BF4FF0010C89
:100990004DF804CD4FEA410C7FEA6C5C4FEA430C02
:1009A00018BF7FEA6C5C1BD001B050EA410C0CBF51
:1009B00052EA430C91EA030F02BF90EA020F0020B3
:1009C000704710F1000F91EA030F58BF994208BF1A
:1009D00090422CBFD8176FEAE37040F001007047D7
:1009E0004FEA410C7FEA6C5C02D150EA013C07D12E
:1009F0004FEA430C7FEA6C5CD6D152EA033CD3D079
:100A00005DF8040B704700BF8446104662468C4672
:100A10001946634600E000BF01B5FFF7B7FF0028A5
:100A200048BF10F1000F01BD4DF808EDFFF7F4FFCE
:100A30000CBF012000205DF808FB00BF4DF808ED59
:100A4000FFF7EAFF34BF012000205DF808FB00BF7C
:100A50004DF808EDFFF7E0FF94BF012000205DF89E
:100A600008FB00BF4DF808EDFFF7CEFF94BF012053
:100A700000205DF808FB00BF4DF808EDFFF7C4FF4C
:100A800034BF012000205DF808FB00BF4FEA410C95
:100A90007FEA6C5C02D150EA013C0AD14FEA430C78
:100AA0007FEA6C5C02D152EA033C02D14FF00000B5
:100AB00070474FF0010070474FEA410212F50012F3
:100AC00015D211D56FF47873B3EB625212D94FEA95
:100AD000C12343F0004343EA505311F0004F23FA7F
:100AE00002F018BF404270474FF00000704750EAD4
:100AF000013005D111F0004008BF6FF00040704791
:100B00004FF00000704700BF53B94AB9002908BF31
:100B100000281CBF4FF0FF314FF0FF3000F072B9DA
:100B2000ADF1080C6DE904CE00F006F8DDF804E044
:100B3000DDE9022304B070472DE9F047089E044622
:100B40008846002B4BD18A42154667D9B2FA82F209
:100B50004AB1C2F1200701FA02F320FA07F79540E3
:100B600047EA030894404FEA154E230CB8FBFEF702
:100B70001FFA85FC0EFB178843EA084307FB0CF1BC
:100B8000994209D9EB1807F1FF3080F01B81994297
:100B900040F21881023F2B445B1AA4B2B3FBFEF073
:100BA0000EFB103344EA034400FB0CFCA44509D9B6
:100BB0002C1900F1FF3380F00781A44540F2048135
:100BC00002382C4440EA0740A4EB0C0400271EB175
:100BD000D4400023C6E900433946BDE8F0878B4284
:100BE00009D9002E00F0EB800027C6E90001384645
:100BF0003946BDE8F087B3FA83F7002F47D18B421F
:100C000002D3824200F2FA80841A61EB03030120CE
:100C10009846002EE0D0C6E90048DDE702B9FFDEC5
:100C2000B2FA82F2002A40F08F80491B4FEA154E3B
:100C30001FFA85F80127B1FBFEFC230C0EFB1C11EB
:100C400043EA014308FB0CF1994207D9EB180CF178
:100C5000FF3002D2994200F2CD808446591AA3B2E5
:100C6000B1FBFEF00EFB101443EA044408FB00F84D
:100C7000A04507D92C1900F1FF3302D2A04500F29C
:100C8000B6801846A4EB080440EA0C409FE7C7F181
:100C9000200CBB4022FA0CFE4EEA030E01FA07F4C8
:100CA00020FA0CF521FA0CF34FEA1E482543B3FB5A
:100CB000F8F92C0C08FB19331FFA8EFA44EA0343A7
:100CC00009FB0AF49C4202FA07F200FA07F10BD979
:100CD0001EEB030309F1FF3080F087809C4240F255
:100CE0008480A9F1020973441B1BADB2B3FBF8F079
:100CF00008FB103345EA034400FB0AFAA24508D971
:100D00001EEB040400F1FF336BD2A24569D902380F
:100D1000744440EA0940A0FB0289A4EB0A044C4554
:100D2000C2464B4654D351D0002E69D0B1EB0A05D0
:100D300064EB030404FA0CFCFD40FC404CEA05059E
:100D4000C6E90054002747E7C2F1200320FA03F761
:100D5000954001FA02F021FA03F34FEA154E3843A9
:100D6000010CB3FBFEF71FFA85F80EFB173341EABF
:100D7000034107FB08F38B4204FA02F407D9691810
:100D800007F1FF3C2FD28B422DD9023F2944CB1AC9
:100D900081B2B3FBFEF00EFB103341EA034100FBCE
:100DA00008F38B4207D9691800F1FF3C17D28B4238
:100DB00015D902382944C91A40EA07473BE73746A4
:100DC000304609E70746E7E61846FBE64145ABD261
:100DD000B8EB020A69EB0E0201381346A4E760463D
:100DE000E9E7184695E76746D1E781467CE7023890
:100DF0002C4447E7ACF1020C2B442FE7384608E7B8
:100E00003746E9E6704700BF80B58CB004AFF860A4
:100E1000B9607A607B80FB68BA681A60FB687A68A0
:100E20005A60FB687A881A81FB68BA6ADA60FB68E4
:100E3000BA8D1A82FB684FF000025A61FB684FF0CE
:100E400000029A61FB684FF00002DA61FB684FF024
:100E500000021A62FB684FF000025A62FB684FF012
:100E600000029A62322001F099FCFB681868642342
:100E700002930123019307F117030093012300223A
:100E8000322102F0E3FBFB7D1E2B01D00023CAE0E0
:100E90008923FB7740233B76FB7F7B76FB681868D2
:100EA00007F11802642300930223322102F0AAF80A
:100EB0000123BB7741233B76BB7F7B76FB681868B9
:100EC00007F11802642300930223322102F09AF8FA
:100ED0000A237B7753233B767B7F7B76FB681868FE
:100EE00007F11802642300930223322102F08AF8EA
:100EF00054233B76FB68186807F1180264230093BB
:100F00000223322102F07EF858233B7644237B767D
:100F10007C233B7600237B76FB68186807F1180278
:100F2000642300930223322102F06CF87D233B7688
:100F300004237B76FB68186807F11802642300938A
:100F40000223322102F05EF8232001F027FCFB6827
:100F50001868642302930123019307F11703009398
:100F600001230022D22102F071FBFB7D0F2B01D067
:100F7000002358E001233B770F233B763B7F7B76B2
:100F8000FB68186807F11802642300930223D2213A
:100F900002F038F80223FB7610233B76FB7E7B764B
:100FA000FB68186807F11802642300930223D2211A
:100FB00002F028F811233B7600237B76FB68186843
:100FC00007F11802642300930223D22102F01AF8D9
:100FD00015233B7680237B76FB68186807F118029F
:100FE000642300930223D22102F00CF816233B76EF
:100FF00005237B76FB68186807F1180264230093C9
:101000000223D22101F0FEFF18233B7681237B7659
:10101000FB68186807F11802642300930223D221A9
:1010200001F0F0FF012318462037BD4680BD0000C7
:1010300080B58AB004AF78607B6818686423029337
:101040000623019307F10C0300930123122232219E
:1010500002F0FCFA7B7BFB82B7F916301B02FB82A5
:101060003B7B1AB2FB8A1343FB82FB7BBB82B7F943
:1010700014301B02BB82BB7B1AB2BB8A1343BB82F8
:101080007B7C7B82B7F912301B027B823B7C1AB2DD
:101090007B8A13437B82B7F914305B4207EE903AA8
:1010A000F8EEE77A9FED137A67EE877A7B68C3EDF7
:1010B000057AB7F916305B4207EE903AF8EEE77A18
:1010C0009FED0C7A67EE877A7B68C3ED067AB7F9F5
:1010D00012305B4207EE903AF8EEE77A9FED057A20
:1010E00067EE877A7B68C3ED077A00BF1837BD4685
:1010F00080BD00BFA370EB3A80B58AB004AF7860C2
:101100007B681868642302930623019307F10C039C
:10111000009301230222D22102F098FA7B7BFB820A
:10112000B7F916301B02FB823B7B1AB2FB8A1343D2
:10113000FB82FB7BBB82B7F914301B02BB82BB7BFB
:101140001AB2BB8A1343BB827B7C7B82B7F9123015
:101150001B027B823B7C1AB27B8A13437B82B7F9EA
:1011600014305B4207EE903AF8EEE77A9FED137A7F
:1011700067EE877A7B68C3ED087AB7F916305B4271
:1011800007EE903AF8EEE77A9FED0C7A67EE877AF1
:101190007B68C3ED097AB7F912305B4207EE903AEB
:1011A000F8EEE77A9FED057A67EE877A7B68C3ED04
:1011B0000A7A00BF1837BD4680BD00BF6FA18B39CA
:1011C00080B58AB004AFF860B9607A607B80FB6854
:1011D000BA681A60FB687A685A60FB687A881A8174
:1011E000FB684FF00002DA60FB684FF000021A6102
:1011F000FB684FF000025A61FB684FF000029A61F1
:10120000FB681868642302930123019307F1140318
:10121000009301234F223C2102F018FA3B7D402B22
:1012200001D0002330E08C23FB7560233B74FB7DF1
:101230007B74FB68186807F1100264230093022393
:101240003C2101F0DFFE0123BB7561233B74BB7DB4
:101250007B74FB68186807F1100264230093022373
:101260003C2101F0CFFE01237B7562233B747B7D23
:101270007B74FB68186807F1100264230093022353
:101280003C2101F0BFFE012318461837BD4680BD42
:1012900080B586B000AFF860B9607A607B80FB688B
:1012A000BA681A60FB687A685A60FB687A881A81A3
:1012B000FB683A6ADA60FB68BA8C1A82FB684FF006
:1012C00000025A61F86800F00DF80A2001F066FA91
:1012D000F86800F02AF80346FB75FB7D18461837BE
:1012E000BD4680BD80B582B000AF78607B6858682D
:1012F0007B681B890122194601F028FD7B6858682C
:101300007B681B890022194601F020FD0A2001F0AC
:1013100045FA7B6858687B681B890122194601F0F1
:1013200015FD00BF0837BD4680BD80B586B002AF51
:1013300078607B68186807F10F026423009301232B
:10134000302101F05DFFFB7B18461037BD4680BDA4
:1013500080B588B002AF7860AA233B7300237B730B
:101360000023BB737B68186807F10C0264230093A9
:101370000323302101F046FE02E0052001F00EFAC1
:101380007B68DA687B681B8A1946104601F0C6FC48
:101390000346002BF1D07B68186807F1080264232C
:1013A00000930423302101F02BFF3B7A03F001036B
:1013B000002B04D13B7A03F00403002B01D000235F
:1013C0003AE07B7A7B617B691B027B61BB7A1A46C0
:1013D0007B6913437B617B691B027B61FB7A1A4645
:1013E0007B6913437B617A6913469B0013449A001F
:1013F0001344A3F120730A3B07EE903AF8EE677AA4
:10140000C7ED047A97ED047ADFED0D6AC7EE267A10
:10141000C7ED047AD7ED047A9FED0A7A77EE877AE2
:10142000C7ED047AD7ED047A9FED077A67EE877AE5
:101430007B68C3ED057A012318461837BD4680BD89
:10144000CCCC4C4B000000000F76D74580B586B061
:1014500002AF786039607B683A681A607B684FF049
:1014600000025A60084B1B88BB817B68186807F133
:101470000C026423009302239C2101F0C3FD00BFF2
:101480001037BD4680BD00BF38890008B0B586B0B2
:1014900000AF3B600346FB710B46BB7113467B718B
:1014A0006B461D467B7905337B75787D0346013B92
:1014B0003B61C1B24FF000024FF000034FF0000457
:1014C000D40044EA5174CB00C1B24FF000024FF097
:1014D00000034FF00004D40044EA5174CB000346EB
:1014E0000733DB08DB00ADEB030D6B460033FB601D
:1014F000294B1A78FB681A70FB68FA795A70FB68F6
:10150000BA799A70FB687A79DA700023BB750AE0C1
:10151000BB7D3A681A44BB7D04331178FA68D15414
:10152000BB7D0133BB75BA7D7B799A42F0D3002332
:10153000FB750023BB7509E0BB7D3A6813441A783C
:10154000FB7D5340FB75BB7D0133BB75BA7D7B7959
:101550009A42F1D37B7D013BFA68F97DD154FB6857
:10156000797DBA6A184600F019F80346FB720A4BF7
:101570001B78FF2B03D1084B01221A7005E0064BA4
:101580001B780133DAB2044B1A70FB7AAD46184669
:101590001837BD46B0BD00BF0000002080B487B042
:1015A00000AFF8600B467A60FB720123FB750023E5
:1015B000BB7501237B7500233B7520E03B7DFA68FA
:1015C00013441B78002B09D1BB7D7A6813447A7DC4
:1015D0001A7001237B75FB7DBB750AE03B7DFA68C1
:1015E0001A44FB7D79680B4412781A707B7D0133B5
:1015F0007B75FB7D0133FB753B7D01333B753A7D8C
:10160000FB7A9A42DAD3BB7D7A6813447A7D1A70EA
:10161000FB7D7A68134400221A70FB7D0133FB7551
:10162000FB7D18461C37BD465DF8047B704780B4CF
:1016300085B000AFF860B9607A607B80FB68BA68FB
:101640001A60FB687A685A60FB687A881A81FB68BE
:10165000BA69DA60FB68BA8B1A82FB683A6A5A6127
:10166000FB68BA8C1A83FB684FF00002DA61FB68F2
:101670004FF000021A62FB684FF000025A62FB68EA
:101680004FF000029A62FB684FF00002DA62FB68DA
:10169000002283F8B020FB68002283F8B12000BF4D
:1016A0001437BD465DF8047B704780B582B000AF4B
:1016B00078607B6858687B681B890122194601F0B5
:1016C00045FB7B6858687B681B890022194601F03E
:1016D0003DFB322001F062F87B6858687B681B890B
:1016E0000122194601F032FB00BF0837BD4680BD1C
:1016F00080B485B000AFF860B9607A60FB68074AD3
:101700001A60BB68064A1A607B6880221A6000BFB4
:101710001437BD465DF8047B704700BF6C0600209F
:10172000C006002080B487B000AFF860B9607A606E
:10173000FB70FB684FF000021A60FB68BA685A60E1
:10174000FB687A689A60FB68FA781A73FB68002273
:101750005A730023FB750AE0FB689A68FB7D9B00C7
:1017600013444FF000021A60FB7D0133FB75FA7DD4
:10177000FB789A42F0D300BF1C37BD465DF8047B6E
:10178000704780B485B000AF786087ED000A7B6851
:101790009A687B685B7B9B0013443A681A607B689D
:1017A0005B7BFB737B684FF000021A600023BB7306
:1017B00025E07B6893ED007A7B685A68BB7B9B00D1
:1017C0001344D3ED006A7B689A68FB7B9B0013444B
:1017D000D3ED007A66EEA77A77EE277A7B68C3EDC1
:1017E000007AFB7B002B04D17B681B7B013BFB73E6
:1017F00002E0FB7B013BFB73BB7B0133BB737B686C
:101800001B7BBA7B9A42D4D37B685B7B0133DAB211
:101810007B685A737B685A7B7B681B7B9A4202D138
:101820007B6800225A737B681B6807EE903AB0EE23
:10183000670A1437BD465DF8047B7047B0B5A4B0A5
:1018400000AF00F069FF00F057FA00F0C7FB00F0AE
:10185000BDFA00F0E9FA00F015FB00F041FB00F0E2
:1018600069FB00F091FB00F0D7F949234D4A4E493E
:101870004E48FFF757FF49234D4A4B494D48FFF764
:1018800051FF49234C4A48494C48FFF74BFF41233D
:101890004B4A4C494C48FFF745FF41234B4A4949C5
:1018A0004B48FFF73FFF41234A4A46494A48FFF762
:1018B00039FF3923494A4A494A48FFF733FF392358
:1018C000494A47494948FFF72DFF3923484A4449C7
:1018D0004848FFF727FF5923474A48494848FFF738
:1018E00021FF484B07F174041D460FCD0FC495E846
:1018F000070084E8070007F174030021184604F08C
:10190000B4F80246404B1A60404B07F158041D469C
:101910000FCD0FC495E8070084E8070007F15803CE
:101920000021184604F0A1F80246394B1A60394BE1
:1019300007F13C041D460FCD0FC495E8070084E86D
:10194000070007F13C030021184604F08EF8024618
:10195000314B1A60314B07F120041D460FCD0FC4E7
:1019600095E8070084E8070007F1200300211846E6
:1019700004F07BF802462A4B1A602A4B3C1D1D4698
:101980000FCD0FC495E8070084E807003B1D002138
:10199000184604F06AF80246234B1A6004F05EF819
:1019A000FEE700BF9453002004000020D050002028
:1019B00054520020E0500020AC4B0020F05000209A
:1019C0002C47002028010020A0500020644800205F
:1019D000B0500020D04C0020C0500020BC4F002050
:1019E0002C020020E04A0020FC490020F04A0020A0
:1019F00014510020004B0020D44D00201003002083
:101A000004510020548900080051002084890008F6
:101A100030480020B0890008B84F0020DC89000859
:101A200028470020088A00086048002080B582B05E
:101A300000AF78604FF48051034801F0A0F94FF4F3
:101A40007A7004F05EF8F5E70004024080B582B0D9
:101A500000AF78600F48FFF74FFB0E4BD3ED087ACD
:101A6000B0EE670A0C48FFF78CFE0A4BD3ED097AFB
:101A7000B0EE670A0948FFF784FE064BD3ED0A7AF9
:101A8000B0EE670A0648FFF77CFE012004F039F843
:101A9000E0E700BF34480020D0500020E050002094
:101AA000F050002080B582B000AF78600F48FFF79B
:101AB000BFFA0E4BD3ED057AB0EE670A0C48FFF77C
:101AC00060FE0A4BD3ED067AB0EE670A0948FFF7CD
:101AD00058FE064BD3ED077AB0EE670A0648FFF7CB
:101AE00050FE052004F00DF8E0E700BF3448002068
:101AF000A0500020B0500020C050002080B582B01F
:101B000000AF78600748FFF723FC064BD3ED057A5A
:101B1000B0EE670A0448FFF734FE0A2003F0F1FF35
:101B2000F0E700BF385200200451002080B5A6B075
:101B300002AF7860314B1B68314A13602F4B1B6931
:101B40002F4A53602D4B1B6A2D4A93602D4B1B6807
:101B50002B4AD3602B4B1B69294A1361294B1B6A03
:101B6000274A5361284B1B68254A9361264B1B6902
:101B7000234AD361244B1B6A214A1362234B1B68FF
:101B80001F4A53621E4B4FF000029A62204B5A7F4D
:101B90001B4B83F82C201E4B1B68194A13631C4BEC
:101BA0005B68174A53631A4BDB68154A9363144BFF
:101BB0004FF00002DA63124B4FF000021A64104B30
:101BC0004FF000025A6407F10C0300930C4B4822BB
:101BD00000210020FFF75AFC034687F88F3097F862
:101BE0008F309AB207F10C014FF0FF33094803F030
:101BF000F4F94FF47A7003F084FF9BE7A0500020C3
:101C0000644B0020D0500020E04A00200451002006
:101C1000384F00206849002080B586B004AF01230A
:101C200001932B4B009380232A4A2B492B48FFF723
:101C30002FFB0346402B0CBF01230023DBB2FB71BB
:101C40004023244A24492648FFF7BAFA0346BB71C9
:101C5000202301931F4B009310231E4A1E49214845
:101C6000FFF7D2F803467B711B491F48FFF7EEFBD5
:101C70004FF4005303931D4B02934FF48053019391
:101C80001A4B00934FF48043184A19491948FFF73B
:101C9000CEFC1848FFF709FDFA79BB791344DAB294
:101CA0007B7913443B713B79022B06D801224FF418
:101CB0000051074801F04AF805E000224FF40051B6
:101CC000034801F043F800BF0837BD4680BD00BFA0
:101CD0000004024000000240A849002038520020C1
:101CE00078530020344800201846002000080240A5
:101CF000784F00202046002080B594B000AF07F157
:101D0000200330220021184605F0E7F807F10C0304
:101D100000221A605A609A60DA601A610023BB6080
:101D2000284B1B6C274A43F080531364254B1B6CD4
:101D300003F08053BB60BB6800237B60224B1B68B1
:101D4000214A43F4804313601F4B1B6803F4804314
:101D50007B607B6801233B624FF480337B6202230C
:101D6000BB634FF48003FB6319233B644FF4A873F8
:101D70007B640223BB640423FB6407F12003184641
:101D800002F064FA0346002B01D000F0EBF90F23B8
:101D9000FB6002233B6100237B614FF4A053BB61D6
:101DA0004FF48053FB6107F10C030521184602F044
:101DB0008FFC0346002B01D000F0D4F900BF503750
:101DC000BD4680BD003802400070004080B500AFC5
:101DD000124B134A1A60114B124A5A600F4B0022E1
:101DE0009A600E4B0022DA600C4B4FF480421A616D
:101DF0000A4B00225A61094B00229A61074B0022CC
:101E0000DA61064B00221A62044800F0D3FF034651
:101E1000002B01D000F0A6F900BF80BDA84900202A
:101E200000540040A086010080B500AF124B134A59
:101E30001A60114B124A5A600F4B00229A600E4BE7
:101E40000022DA600C4B4FF480421A610A4B0022E8
:101E50005A61094B00229A61074B0022DA61064B56
:101E600000221A62044800F0A5FF0346002B01D0AF
:101E700000F078F900BF80BD104B002000580040F2
:101E8000A086010080B500AF124B134A1A60114BB7
:101E9000124A5A600F4B00229A600E4B0022DA6001
:101EA0000C4B4FF480421A610A4B00225A61094BD5
:101EB00000229A61074B0022DA61064B00221A6267
:101EC000044800F077FF0346002B01D000F04AF9E8
:101ED00000BF80BDD4460020005C0040A086010009
:101EE00080B500AF114B124A1A60104B42F24862A3
:101EF0005A600E4B00229A600C4B0022DA600B4BAA
:101F000000221A61094B0C225A61084B00229A6187
:101F1000064B0022DA61054803F012F80346002B55
:101F200001D000F01FF900BF80BD00BF784F002036
:101F30000010014080B500AF114B124A1A60104BDF
:101F40004FF4E1325A600E4B00229A600C4B002293
:101F5000DA600B4B00221A61094B0C225A61084BC4
:101F600000229A61064B0022DA61054802F0E8FF80
:101F70000346002B01D000F0F5F800BF80BD00BF84
:101F8000F85100200044004080B500AF114B124AC8
:101F90001A60104B4FF4E1325A600E4B00229A60E7
:101FA0000C4B0022DA600B4B00221A61094B0C2209
:101FB0005A61084B00229A61064B0022DA610548FB
:101FC00002F0BEFF0346002B01D000F0CBF800BFAB
:101FD00080BD00BF684900200048004080B58AB03D
:101FE00000AF07F1140300221A605A609A60DA60A9
:101FF0001A6100233B614E4B1B6B4D4A43F00403B7
:1020000013634B4B1B6B03F004033B613B690023E1
:10201000FB60474B1B6B464A43F080031363444B02
:102020001B6B03F08003FB60FB680023BB60404B2D
:102030001B6B3F4A43F0010313633D4B1B6B03F0E3
:102040000103BB60BB6800237B60394B1B6B384AC4
:1020500043F002031363364B1B6B03F002037B60F8
:102060007B68002244F2F001324800F06FFE00224B
:102070008021314800F06AFE00224FF470412F4861
:1020800000F064FE43F20F037B610023BB61002379
:10209000FB6107F114031946264800F0A5FC44F241
:1020A000F0037B610123BB610023FB6100233B62E2
:1020B00007F1140319461F4800F096FC70237B615A
:1020C0000023BB610023FB6107F1140319461A4882
:1020D00000F08AFC80237B610123BB610023FB614C
:1020E00000233B6207F114031946134800F07CFCFF
:1020F00001237B610023BB610023FB6107F1140313
:1021000019460E4800F070FC4FF470437B610123C8
:10211000BB610023FB6100233B6207F114031946F6
:10212000064800F061FC00BF2837BD4680BD00BFF7
:102130000038024000080240000002400004024053
:1021400080B582B000AF78607B681B68044A934218
:1021500001D100F003FB00BF0837BD4680BD00BFC2
:102160000000014080B400AF00BFBD465DF8047BB5
:102170007047000080B582B000AF00237B60124B37
:102180005B6C114A43F4804353640F4B5B6C03F464
:1021900080437B607B6800233B600B4B1B6C0A4ACF
:1021A00043F080531364084B1B6C03F080533B6077
:1021B0003B6800220F216FF0010000F0C9FB00BF57
:1021C0000837BD4680BD00BF0038024080B58EB0E4
:1021D00000AF786007F1240300221A605A609A6009
:1021E000DA601A617B681B685C4A93422DD1002338
:1021F0003B625B4B1B6B5A4A43F002031363584B21
:102200001B6B03F002033B623B6A4FF440737B623B
:102210001223BB620123FB6203233B6304237B6322
:1022200007F1240319464F4800F0DEFB0023FB6151
:102230004B4B1B6C4A4A43F400131364484B1B6C12
:1022400003F40013FB61FB6983E07B681B68464A6B
:1022500093422DD10023BB61414B1B6B404A43F09D
:10226000020313633E4B1B6B03F00203BB61BB69AC
:102270004FF440637B621223BB620123FB620323A2
:102280003B6304237B6307F124031946354800F0C0
:10229000ABFB00237B61324B1B6C314A43F4800360
:1022A00013642F4B1B6C03F480037B617B6950E04C
:1022B0007B681B682D4A93424BD100233B61284B1E
:1022C0001B6B274A43F004031363254B1B6B03F07E
:1022D00004033B613B690023FB60214B1B6B204ADD
:1022E00043F0010313631E4B1B6B03F00103FB6000
:1022F000FB684FF400737B621223BB620123FB6215
:1023000003233B6304237B6307F124031946184826
:1023100000F06AFB4FF480737B621223BB620123DF
:10232000FB6203233B6304237B6307F12403194609
:10233000104800F059FB0023BB60094B1B6C084A96
:1023400043F400031364064B1B6C03F40003BB60EF
:10235000BB6800BF3837BD4680BD00BF0054004099
:10236000003802400004024000580040005C004079
:10237000000802400000024080B58EB000AF7860D7
:1023800007F1240300221A605A609A60DA601A6129
:102390007B681B684F4A934234D100233B624E4B0B
:1023A0005B6C4D4A43F0100353644B4B5B6C03F082
:1023B00010033B623B6A0023FB61474B1B6B464AA1
:1023C00043F002031363444B1B6B03F00203FB61F6
:1023D000FB69C0237B620223BB620123FB620323F0
:1023E0003B6307237B6307F1240319463B4800F056
:1023F000FBFA00220521252000F0AAFA252000F092
:10240000C3FA63E07B681B68354A93422CD10023F2
:10241000BB61314B1B6C304A43F4003313642E4BC9
:102420001B6C03F40033BB61BB6900237B612A4B47
:102430001B6B294A43F001031363274B1B6B03F00B
:1024400001037B617B690C237B620223BB62012356
:10245000FB6203233B6307237B6307F124031946D5
:10246000204800F0C1FA31E07B681B681E4A9342A5
:102470002CD100233B61184B1B6C174A43F480237B
:102480001364154B1B6C03F480233B613B690023F1
:10249000FB60114B1B6B104A43F0040313630E4B9C
:1024A0001B6B03F00403FB60FB684FF440637B622B
:1024B0000223BB620123FB6203233B6307237B638D
:1024C00007F124031946094800F08EFA00BF383797
:1024D000BD4680BD001001400038024000040240AB
:1024E0000044004000000240004800400008024054
:1024F00080B58CB000AF78600023FB620023BB6224
:1025000000227968192000F023FA192000F03CFA23
:102510000023FB601F4B5B6C1E4A43F001035364B6
:102520001C4B5B6C03F00103FB60FB6807F11002BE
:1025300007F114031146184602F092FA02F07CFAF1
:1025400003465B00FB62FB6A134AA2FB03239B0C5E
:10255000013BBB62114B124A1A60104B40F2E7324A
:10256000DA600E4ABB6A53600C4B00221A610B4BB7
:1025700000229A60094802F0A5FA0346002B04D114
:10258000064802F0D4FA034600E00123184630372B
:10259000BD4680BD0038024083DE1B43B854002096
:1025A0000000014080B400AF00BFBD465DF8047B71
:1025B000704780B400AFFEE780B400AFFEE780B4A0
:1025C00000AFFEE780B400AFFEE780B400AF00BF0D
:1025D000BD465DF8047B704780B500AF024802F04D
:1025E000CAFA00BF80BD00BFB854002080B500AF5C
:1025F000024802F08BFD00BF80BD00BF784F002075
:1026000080B584B000AF7860114B1B68002B02D1FD
:102610000F4B104A1A600E4B1B68FB600C4B1A687C
:102620007B6813446A46934207D904F021FC0246B2
:102630000C2313604FF0FF3306E0054B1A687B68EC
:102640001344034A1360FB6818461037BD4680BD2B
:10265000C00800200055002080B400AF164BD3F80E
:102660008830154A43F47003C2F88830134B1B6856
:10267000124A43F001031360104B00229A600F4B83
:102680001B680E4A23F0847323F4803313600B4BD2
:102690000B4A5A60094B1B68084A23F480231360D5
:1026A000064B0022DA60044B4FF000629A6000BFD4
:1026B000BD465DF8047B704700ED00E00038024045
:1026C00010300024DFF834D0002103E00C4B5B58BD
:1026D000435004310B480C4B42189A42F6D30B4A34
:1026E00002E0002342F8043B094B9A42F9D3FFF77A
:1026F000B3FF04F0C3FBFFF7A1F87047000002200E
:10270000808C0008000000205006002050060020A9
:1027100000550020FEE7000080B500AF0E4B1B689F
:102720000D4A43F4007313600B4B1B680A4A43F4D1
:1027300080631360084B1B68074A43F4807313607F
:10274000032000F0FAF80020FFF7D2FEFFF712FD99
:102750000023184680BD00BF003C024080B400AF9B
:10276000064B1B781A46064B1B681344044A136039
:1027700000BFBD465DF8047B704700BF78040020B1
:10278000F854002080B400AF034B1B681846BD46C8
:102790005DF8047B704700BFF854002080B584B01A
:1027A00000AF7860FFF7EEFFB8607B68FB60FB6806
:1027B000B3F1FF3F05D0094B1B781A46FB68134461
:1027C000FB6000BFFFF7DEFF0246BB68D31AFA6862
:1027D0009A42F7D800BF1037BD4680BD780400206C
:1027E00080B485B000AF78607B6803F00703FB60BE
:1027F0000C4BDB68BB60BA684FF6FF031340BB604D
:10280000FB681A02BB68134343F0BF6343F4003311
:10281000BB60044ABB68D36000BF1437BD465DF897
:10282000047B704700ED00E080B400AF044BDB6830
:102830001B0A03F007031846BD465DF8047B70478A
:1028400000ED00E080B483B000AF0346FB7197F960
:102850000730002B0BDBFB7903F01F02074997F9C8
:1028600007305B09012000FA02F241F8232000BF83
:102870000C37BD465DF8047B704700BF00E100E007
:1028800080B483B000AF03463960FB7197F907301D
:10289000002B0ADB3B68DAB20C4997F907301201CA
:1028A000D2B20B4483F800230AE03B68DAB208494D
:1028B000FB7903F00F03043B1201D2B20B441A76EA
:1028C00000BF0C37BD465DF8047B704700E100E0B7
:1028D00000ED00E080B489B000AFF860B9607A60C4
:1028E000FB6803F00703FB61FB69C3F10703042BDB
:1028F00028BF0423BB61FB690433062B02D9FB69A3
:10290000033B00E000237B614FF0FF32BB6902FA1A
:1029100003F3DA43BB681A407B699A404FF0FF31FA
:102920007B6901FA03F3D9437B680B4013431846D4
:102930002437BD465DF8047B704780B582B000AF98
:1029400078607868FFF74CFF00BF0837BD4680BD50
:1029500080B586B000AF0346B9607A60FB73002390
:102960007B61FFF761FF78617A68B9687869FFF782
:10297000B1FF024697F90F3011461846FFF780FF66
:1029800000BF1837BD4680BD80B582B000AF03469A
:10299000FB7197F907301846FFF754FF00BF08375F
:1029A000BD4680BD80B483B000AF78607B6893F88B
:1029B0003530DBB2022B04D07B6880225A650123BC
:1029C0000CE07B68052283F835207B681B681A6859
:1029D0007B681B6822F001021A60002318460C373E
:1029E000BD465DF8047B704780B489B000AF786065
:1029F000396000237B6100233B610023BB6100231E
:102A0000FB616BE10122FB6902FA03F37B613B6826
:102A10001B687A6913403B613A697B699A4240F0CE
:102A20005A813B685B68022B03D03B685B68122BC2
:102A300023D1FB69DA087B68083253F82230BB6186
:102A4000FB6903F007039B000F2202FA03F3DB4349
:102A5000BA691340BB613B681A69FB6903F007035D
:102A60009B0002FA03F3BA691343BB61FB69DA08FE
:102A70007B680832B96943F822107B681B68BB6128
:102A8000FB695B00032202FA03F3DB43BA691340DC
:102A9000BB613B685B6803F00302FB695B0002FA01
:102AA00003F3BA691343BB617B68BA691A603B6878
:102AB0005B68012B0BD03B685B68022B07D03B683F
:102AC0005B68112B03D03B685B68122B30D17B68AD
:102AD0009B68BB61FB695B00032202FA03F3DB43E3
:102AE000BA691340BB613B68DA68FB695B0002FAB4
:102AF00003F3BA691343BB617B68BA699A607B6868
:102B00005B68BB610122FB6902FA03F3DB43BA692C
:102B10001340BB613B685B681B0903F00102FB6962
:102B200002FA03F3BA691343BB617B68BA695A605E
:102B30007B68DB68BB61FB695B00032202FA03F37D
:102B4000DB43BA691340BB613B689A68FB695B0071
:102B500002FA03F3BA691343BB617B68BA69DA60AE
:102B60003B685B6803F08053002B00F0B4800023C7
:102B7000FB605F4B5B6C5E4A43F4804353645C4B89
:102B80005B6C03F48043FB60FB685A4AFB699B085B
:102B9000023352F82330BB61FB6903F003039B004F
:102BA0000F2202FA03F3DB43BA691340BB617B686F
:102BB000514A93422BD07B68504A934225D07B6880
:102BC0004F4A93421FD07B684E4A934219D07B688C
:102BD0004D4A934213D07B684C4A93420DD07B6898
:102BE0004B4A934207D07B684A4A934201D107235C
:102BF0000EE008230CE006230AE0052308E0042386
:102C000006E0032304E0022302E0012300E00023A6
:102C1000FA6902F0030292009340BA691343BB6160
:102C20003449FB699B080233BA6941F823203A4BC7
:102C30001B68BB613B69DB43BA691340BB613B68FE
:102C40005B6803F48033002B03D0BA693B691343FC
:102C5000BB61314ABB6913602F4B5B68BB613B6949
:102C6000DB43BA691340BB613B685B6803F4003324
:102C7000002B03D0BA693B691343BB61264ABB6989
:102C80005360254B9B68BB613B69DB43BA691340CA
:102C9000BB613B685B6803F48013002B03D0BA6907
:102CA0003B691343BB611C4ABB6993601A4BDB68E9
:102CB000BB613B69DB43BA691340BB613B685B683E
:102CC00003F40013002B03D0BA693B691343BB61C3
:102CD000114ABB69D360FB690133FB61FB690F2BB0
:102CE0007FF690AE00BF2437BD465DF8047B704789
:102CF0000038024000380140000002400004024059
:102D000000080240000C0240001002400014024083
:102D100000180240001C0240003C014080B485B015
:102D200000AF78600B467B807B681A697B88134014
:102D3000002B02D00123FB7301E00023FB73FB7B1C
:102D400018461437BD465DF8047B704780B483B0E5
:102D500000AF78600B467B8013467B707B78002B3E
:102D600003D07A887B689A6103E07B881A047B68C9
:102D70009A6100BF0C37BD465DF8047B704780B494
:102D800083B000AF78600B467B807B685A697B8894
:102D90001A407B889A4204D17B881A047B689A6126
:102DA00002E07A887B689A6100BF0C37BD465DF807
:102DB000047B704780B584B000AF78607B68002BDF
:102DC00001D101230FE17B6893F83D30DBB2002B8A
:102DD00006D17B68002283F83C207868FFF7F6F97B
:102DE0007B68242283F83D207B681B681A687B6817
:102DF0001B6822F001021A6001F00AFEF8607B688D
:102E00005B687B4A934207D8FB687A4A934294BF37
:102E100001230023DBB206E0FB68774A934294BFAC
:102E200001230023DBB2002B01D00123DBE0FB6890
:102E3000724AA2FB03239B0CBB607B681B685B6828
:102E400023F03F017B681B68BA680A435A607B68BD
:102E50001B681B6A23F03F017B685B68644A9342EE
:102E600002D8BB68013309E0BB684FF4967202FBDD
:102E700003F3634AA2FB03239B0901337A681268B8
:102E80000B4313627B681B68DB6923F44F4222F01B
:102E9000FF027B685B6856498B420DD8FB68591E60
:102EA0007B685B685B00B1FBF3F30133C3F30B0397
:102EB000042B38BF04234FE07B689B68002B11D1A3
:102EC000FB68581E7B6859680B465B000B44B0FBDF
:102ED000F3F30133C3F30B03002B0CBF01230023D7
:102EE000DBB212E0FB68581E7B6859680B469B00FA
:102EF0000B4499000B44B0FBF3F30133C3F30B0312
:102F0000002B0CBF01230023DBB2002B01D00123D7
:102F100022E07B689B68002B0ED1FB68581E7B6803
:102F200059680B465B000B44B0FBF3F30133C3F36A
:102F30000B0343F400430FE0FB68581E7B6859689D
:102F40000B469B000B4499000B44B0FBF3F3013399
:102F5000C3F30B0343F44043796809681343CB611F
:102F60007B681B681B6823F0C0017B68DA697B689B
:102F70001B6A1A437B681B680A431A607B681B68DC
:102F80009B6823F4034323F0FF037A6811697A688E
:102F9000D26811437A6812680B4393607B681B68A0
:102FA000DB6823F0FF017B685A697B689B691A43E1
:102FB0007B681B680A43DA607B681B681A687B6859
:102FC0001B6842F001021A607B6800221A647B6869
:102FD000202283F83D207B6800221A637B68002250
:102FE00083F83E20002318461037BD4680BD00BF41
:102FF000A08601007F841E00FF083D0083DE1B4386
:10300000D34D621080B588B002AFF8607A601A467E
:103010000B467B8113463B81FFF7B4FB7861FB686D
:1030200093F83D30DBB2202B40F0E0807B690093C9
:10303000192301227049F86800F02AFF0346002B8B
:1030400001D00223D3E0FB6893F83C30012B01D17F
:103050000223CCE0FB68012283F83C20FB681B685C
:103060001B6803F00103012B07D0FB681B681A687B
:10307000FB681B6842F001021A60FB681B681A6853
:10308000FB681B6822F400621A60FB68212283F847
:103090003D20FB68102283F83E20FB6800221A6462
:1030A000FB687A685A62FB683A895A85FB685B8DCF
:1030B0009AB2FB681A85FB68504ADA6279897B69A3
:1030C0003A6AF86800F0E8FC0346002B01D00123BF
:1030D0008DE000233B61FB681B685B693B61FB681B
:1030E0001B689B693B613B6966E07A69396AF868ED
:1030F00000F0A4FF0346002B0DD0FB681B6C042BD3
:1031000007D1FB681B681A68FB681B6842F40072F1
:103110001A6001236BE0FB685B6A1A78FB681B6826
:103120001A61FB685B6A5A1CFB685A62FB685B8D1C
:103130009BB2013B9AB2FB685A85FB681B8D013B31
:103140009AB2FB681A85FB681B685B6903F004038D
:10315000042B1BD1FB681B8D002B17D0FB685B6A0F
:103160001A78FB681B681A61FB685B6A5A1CFB686B
:103170005A62FB685B8D9BB2013B9AB2FB685A8531
:10318000FB681B8D013B9AB2FB681A857A69396A24
:10319000F86800F094FF0346002B0DD0FB681B6C11
:1031A000042B07D1FB681B681A68FB681B6842F494
:1031B00000721A6001231AE0FB681B8D002B94D16A
:1031C000FB681B681A68FB681B6842F400721A608F
:1031D000FB68202283F83D20FB68002283F83E2014
:1031E000FB68002283F83C20002300E002231846FD
:1031F0001837BD4680BD00BF020010000000FFFF71
:1032000080B58CB002AFF8607A601A460B467B81BD
:1032100013463B81FFF7B6FA7862FB6893F83D30BE
:10322000DBB2202B40F00B827B6A00931923012232
:103230007C49F86800F02CFE0346002B01D00223E5
:10324000FEE1FB6893F83C30012B01D10223F7E14A
:10325000FB68012283F83C20FB681B681B6803F0B5
:103260000103012B07D0FB681B681A68FB681B6809
:1032700042F001021A60FB681B681A68FB681B6851
:1032800022F400621A60FB68222283F83D20FB686A
:10329000102283F83E20FB6800221A64FB687A68DB
:1032A0005A62FB683A895A85FB685B8D9AB2FB6863
:1032B0001A85FB685C4ADA6279897B6A3A6BF8683E
:1032C00000F060FC0346002B01D00123B8E1FB684D
:1032D0001B8D002B13D100233B62FB681B685B69CD
:1032E0003B62FB681B689B693B623B6AFB681B682F
:1032F0001A68FB681B6842F400721A608CE1FB6874
:103300001B8D012B1BD1FB681B681A68FB681B68AF
:1033100022F480621A600023FB61FB681B685B6912
:10332000FB61FB681B689B69FB61FB69FB681B68B1
:103330001A68FB681B6842F400721A606CE1FB6853
:103340001B8D022B1BD1FB681B681A68FB681B686E
:1033500022F480621A60FB681B681A68FB681B68AD
:1033600042F400621A600023BB61FB681B685B6962
:10337000BB61FB681B689B69BB61BB694CE1FB6877
:103380001B681A68FB681B6842F480621A6000239D
:103390007B61FB681B685B697B61FB681B689B69E1
:1033A0007B617B6938E1FB681B8D032B00F2F180A8
:1033B000FB681B8D012B23D17A6A396BF86800F00A
:1033C000BFFE0346002B01D0012339E1FB681B68D7
:1033D0001A69FB685B6AD2B21A70FB685B6A5A1C96
:1033E000FB685A62FB681B8D013B9AB2FB681A8529
:1033F000FB685B8D9BB2013B9AB2FB685A850BE17F
:10340000FB681B8D022B4ED17B6A00933B6B002225
:103410000649F86800F03CFD0346002B08D0012364
:103420000EE100BF020010000000FFFF04000100D9
:10343000FB681B681A68FB681B6842F400721A601C
:10344000FB681B681A69FB685B6AD2B21A70FB687A
:103450005B6A5A1CFB685A62FB681B8D013B9AB27F
:10346000FB681A85FB685B8D9BB2013B9AB2FB68D7
:103470005A85FB681B681A69FB685B6AD2B21A70CE
:10348000FB685B6A5A1CFB685A62FB681B8D013B38
:103490009AB2FB681A85FB685B8D9BB2013B9AB2BE
:1034A000FB685A85B8E07B6A00933B6B0022664953
:1034B000F86800F0EDFC0346002B01D00123BFE0CB
:1034C000FB681B681A68FB681B6822F480621A603C
:1034D000FB681B681A69FB685B6AD2B21A70FB68EA
:1034E0005B6A5A1CFB685A62FB681B8D013B9AB2EF
:1034F000FB681A85FB685B8D9BB2013B9AB2FB6847
:103500005A857B6A00933B6B00224F49F86800F0B4
:10351000BFFC0346002B01D0012391E0FB681B6830
:103520001A68FB681B6842F400721A60FB681B682B
:103530001A69FB685B6AD2B21A70FB685B6A5A1C34
:10354000FB685A62FB681B8D013B9AB2FB681A85C7
:10355000FB685B8D9BB2013B9AB2FB685A85FB68A6
:103560001B681A69FB685B6AD2B21A70FB685B6AF7
:103570005A1CFB685A62FB681B8D013B9AB2FB68C0
:103580001A85FB685B8D9BB2013B9AB2FB685A853A
:1035900042E07A6A396BF86800F0D2FD0346002BEE
:1035A00001D001234CE0FB681B681A69FB685B6A69
:1035B000D2B21A70FB685B6A5A1CFB685A62FB68DD
:1035C0001B8D013B9AB2FB681A85FB685B8D9BB231
:1035D000013B9AB2FB685A85FB681B685B6903F084
:1035E0000403042B18D1FB681B681A69FB685B6A2B
:1035F000D2B21A70FB685B6A5A1CFB685A62FB689D
:103600001B8D013B9AB2FB681A85FB685B8D9BB2F0
:10361000013B9AB2FB685A85FB681B8D002B7FF437
:10362000C2AEFB68202283F83D20FB68002283F8AD
:103630003E20FB68002283F83C20002300E00223A8
:1036400018462837BD4680BD0400010080B58CB007
:1036500002AFF860084611461A4603467B810B46C6
:103660003B811346FB80FFF78DF87862FB6893F887
:103670003D30DBB2202B40F008827B6A0093192397
:1036800001227B49F86800F003FC0346002B01D0BF
:103690000223FBE1FB6893F83C30012B01D10223AC
:1036A000F4E1FB68012283F83C20FB681B681B687F
:1036B00003F00103012B07D0FB681B681A68FB6845
:1036C0001B6842F001021A60FB681B681A68FB68FD
:1036D0001B6822F400621A60FB68222283F83D20F6
:1036E000FB68402283F83E20FB6800221A64FB68D6
:1036F0003A6B5A62FB68BA8E5A85FB685B8D9AB248
:10370000FB681A85FB685B4ADA62F8883A8979892E
:103710007B6A0193BB6B00930346F86800F0E8FAFC
:103720000346002B01D00123B0E1FB681B8D002B69
:1037300013D100233B62FB681B685B693B62FB683B
:103740001B689B693B623B6AFB681B681A68FB68E5
:103750001B6842F400721A6084E1FB681B8D012B28
:103760001BD1FB681B681A68FB681B6822F4806227
:103770001A600023FB61FB681B685B69FB61FB68E7
:103780001B689B69FB61FB69FB681B681A68FB6827
:103790001B6842F400721A6064E1FB681B8D022B07
:1037A0001BD1FB681B681A68FB681B6822F48062E7
:1037B0001A60FB681B681A68FB681B6842F40062A9
:1037C0001A600023BB61FB681B685B69BB61FB6817
:1037D0001B689B69BB61BB6944E100237B61FB689B
:1037E0001B685B697B61FB681B689B697B617B690C
:1037F00038E1FB681B8D032B00F2F180FB681B8D09
:10380000012B23D17A6AB96BF86800F099FC034662
:10381000002B01D0012339E1FB681B681A69FB68A2
:103820005B6AD2B21A70FB685B6A5A1CFB685A6208
:10383000FB681B8D013B9AB2FB681A85FB685B8DA8
:103840009BB2013B9AB2FB685A850BE1FB681B8D6A
:10385000022B4ED17B6A0093BB6B00220649F868AD
:1038600000F016FB0346002B08D001230EE100BF39
:10387000020010000000FFFF04000100FB681B684D
:103880001A68FB681B6842F400721A60FB681B68C8
:103890001A69FB685B6AD2B21A70FB685B6A5A1CD1
:1038A000FB685A62FB681B8D013B9AB2FB681A8564
:1038B000FB685B8D9BB2013B9AB2FB685A85FB6843
:1038C0001B681A69FB685B6AD2B21A70FB685B6A94
:1038D0005A1CFB685A62FB681B8D013B9AB2FB685D
:1038E0001A85FB685B8D9BB2013B9AB2FB685A85D7
:1038F000B8E07B6A0093BB6B00226649F86800F071
:10390000C7FA0346002B01D00123BFE0FB681B6808
:103910001A68FB681B6822F480621A60FB681B68E7
:103920001A69FB685B6AD2B21A70FB685B6A5A1C40
:10393000FB685A62FB681B8D013B9AB2FB681A85D3
:10394000FB685B8D9BB2013B9AB2FB685A857B6A30
:103950000093BB6B00224F49F86800F099FA0346C8
:10396000002B01D0012391E0FB681B681A68FB68FB
:103970001B6842F400721A60FB681B681A69FB68D6
:103980005B6AD2B21A70FB685B6A5A1CFB685A62A7
:10399000FB681B8D013B9AB2FB681A85FB685B8D47
:1039A0009BB2013B9AB2FB685A85FB681B681A6997
:1039B000FB685B6AD2B21A70FB685B6A5A1CFB68D0
:1039C0005A62FB681B8D013B9AB2FB681A85FB6843
:1039D0005B8D9BB2013B9AB2FB685A8542E07A6AE2
:1039E000B96BF86800F0ACFB0346002B01D0012353
:1039F0004CE0FB681B681A69FB685B6AD2B21A70FC
:103A0000FB685B6A5A1CFB685A62FB681B8D013BB2
:103A10009AB2FB681A85FB685B8D9BB2013B9AB238
:103A2000FB685A85FB681B685B6903F00403042B81
:103A300018D1FB681B681A69FB685B6AD2B21A70FE
:103A4000FB685B6A5A1CFB685A62FB681B8D013B72
:103A50009AB2FB681A85FB685B8D9BB2013B9AB2F8
:103A6000FB685A85FB681B8D002B7FF4C2AEFB6898
:103A7000202283F83D20FB68002283F83E20FB686B
:103A8000002283F83C20002300E002231846283758
:103A9000BD4680BD0400010080B588B002AFF8606B
:103AA0007A603B600B467B81FB68DB6A7B617B69EC
:103AB000082B06D07B69012B03D07B6913F5803F6F
:103AC00008D1FB681B681A68FB681B6842F48072A7
:103AD0001A600BE0FB681B6B122B07D1FB681B689D
:103AE0001A68FB681B6842F480721A603B68009396
:103AF0007B6800224FF00111F86800F0C9F9034615
:103B0000002B01D0012335E0FB681B69B3F5804F22
:103B100008D17B89DBB21A46FB681B6802F0FE0203
:103B20001A611BE07B89DB11DBB203F00603DBB219
:103B300063F00F03DAB2FB681B681A613B687A68AE
:103B40000E49F86800F0FBF90346002B01D0012371
:103B500010E07B89DAB2FB681B681A613B687A68FF
:103B60000749F86800F0EBF90346002B01D0012368
:103B700000E0002318461837BD4680BD080001004C
:103B80000200010080B588B002AFF8607A603B6047
:103B90000B467B81FB68DB6A7B61FB681B681A68EC
:103BA000FB681B6842F480621A607B69082B06D0B0
:103BB0007B69012B03D07B6913F5803F08D1FB683B
:103BC0001B681A68FB681B6842F480721A600BE07D
:103BD000FB681B6B112B07D1FB681B681A68FB681D
:103BE0001B6842F480721A603B6800937B68002275
:103BF0004FF00111F86800F04BF90346002B01D09B
:103C000001236DE0FB681B69B3F5804F08D17B8908
:103C1000DBB243F00103DAB2FB681B681A6153E0C0
:103C20007B89DB11DBB203F00603DBB263F00F0329
:103C3000DAB2FB681B681A613B687A682A49F8683F
:103C400000F07DF90346002B01D0012348E07B8979
:103C5000DAB2FB681B681A613B687A682349F86826
:103C600000F06DF90346002B01D0012338E000235A
:103C70003B61FB681B685B693B61FB681B689B6978
:103C80003B613B69FB681B681A68FB681B6842F470
:103C900080721A603B6800937B6800224FF001112C
:103CA000F86800F0F5F80346002B01D0012317E077
:103CB0007B89DB11DBB203F00603DBB263F00E039A
:103CC000DAB2FB681B681A613B687A680749F868D2
:103CD00000F035F90346002B01D0012300E000235A
:103CE00018461837BD4680BD0800010002000100DB
:103CF00080B588B002AFF860084611461A46034600
:103D00007B810B463B811346FB80FB681B681A686E
:103D1000FB681B6842F480621A60FB681B681A68C3
:103D2000FB681B6842F480721A607B6A00933B6AEE
:103D300000224FF00111F86800F0AAF80346002BAA
:103D400001D001239EE07B89DBB21A46FB681B6829
:103D500002F0FE021A617B6A3A6A4C49F86800F088
:103D6000EEF80346002B01D001238BE000237B619A
:103D7000FB681B685B697B61FB681B689B697B61F7
:103D80007B697A6A396AF86800F058F90346002BB3
:103D90000DD0FB681B6C042B07D1FB681B681A68ED
:103DA000FB681B6842F400721A6001236AE0FB881A
:103DB000012B05D13B89DAB2FB681B681A6121E04F
:103DC0003B891B0A9BB2DAB2FB681B681A617A6AEC
:103DD000396AF86800F032F90346002B0DD0FB6811
:103DE0001B6C042B07D1FB681B681A68FB681B68F7
:103DF00042F400721A60012344E03B89DAB2FB68A6
:103E00001B681A617A6A396AF86800F017F9034684
:103E1000002B0DD0FB681B6C042B07D1FB681B68C3
:103E20001A68FB681B6842F400721A60012329E0DB
:103E3000FB681B681A68FB681B6842F480721A6092
:103E40007B6A00933B6A00224FF00111F86800F092
:103E50001FF80346002B01D0012313E07B89DBB25E
:103E600043F00103DAB2FB681B681A617B6A3A6AA5
:103E70000649F86800F063F80346002B01D00123DF
:103E800000E0002318461837BD4680BD020001003F
:103E900080B584B000AFF860B9603B601346FB7139
:103EA00025E03B68B3F1FF3F21D0FEF76BFC0246F3
:103EB000BB69D31A3A689A4202D33B68002B16D1E9
:103EC000FB6800221A63FB68202283F83D20FB6810
:103ED000002283F83E20FB681B6C43F02002FB6845
:103EE0001A64FB68002283F83C20012323E0BB68AE
:103EF0001B0CDBB2012B0DD1FB681B685B69DA433D
:103F0000BB6813409BB2002B0CBF01230023DBB224
:103F10001A460CE0FB681B689B69DA43BB681340D8
:103F20009BB2002B0CBF01230023DBB21A46FB79A6
:103F30009A42B6D0002318461037BD4680BD80B5E2
:103F400084B000AFF860B9607A603B6051E0FB6814
:103F50001B685B6903F48063B3F5806F23D1FB6852
:103F60001B681A68FB681B6842F400721A60FB68E1
:103F70001B686FF480625A61FB6800221A63FB6859
:103F8000202283F83D20FB68002283F83E20FB6856
:103F90001B6C43F00402FB681A64FB68002283F880
:103FA0003C20012346E07B68B3F1FF3F21D0FEF7C0
:103FB000E9FB02463B68D31A7A689A4202D37B68CF
:103FC000002B16D1FB6800221A63FB68202283F8BD
:103FD0003D20FB68002283F83E20FB681B6C43F009
:103FE0002002FB681A64FB68002283F83C2001234E
:103FF00020E0BB681B0CDBB2012B0CD1FB681B68FB
:104000005B69DA43BB6813409BB2002B14BF0123EA
:104010000023DBB20BE0FB681B689B69DA43BB68DB
:1040200013409BB2002B14BF01230023DBB2002BF3
:104030008DD1002318461037BD4680BD80B584B0B1
:1040400000AFF860B9607A602DE0F86800F0CEF853
:104050000346002B01D001232DE0BB68B3F1FF3FE5
:1040600021D0FEF78FFB02467B68D31ABA689A42CA
:1040700002D3BB68002B16D1FB6800221A63FB68D1
:10408000202283F83D20FB68002283F83E20FB6855
:104090001B6C43F02002FB681A64FB68002283F863
:1040A0003C20012307E0FB681B685B6903F0800389
:1040B000802BCAD1002318461037BD4680BD80B57D
:1040C00084B000AFF860B9607A602DE0F86800F065
:1040D0008DF80346002B01D001232DE0BB68B3F11E
:1040E000FF3F21D0FEF74EFB02467B68D31ABA6829
:1040F0009A4202D3BB68002B16D1FB6800221A63D8
:10410000FB68202283F83D20FB68002283F83E20D4
:10411000FB681B6C43F02002FB681A64FB680022FA
:1041200083F83C20012307E0FB681B685B6903F010
:104130000403042BCAD1002318461037BD4680BDA6
:1041400080B584B000AFF860B9607A6042E0FB6887
:104150001B685B6903F01003102B19D1FB681B6807
:104160006FF010025A61FB6800221A63FB6820227C
:1041700083F83D20FB68002283F83E20FB681A6C20
:10418000FB681A64FB68002283F83C20012329E0C5
:10419000FEF7F8FA02467B68D31ABA689A4202D34D
:1041A000BB68002B16D1FB6800221A63FB68202233
:1041B00083F83D20FB68002283F83E20FB681B6CDF
:1041C00043F02002FB681A64FB68002283F83C205D
:1041D000012307E0FB681B685B6903F04003402B89
:1041E000B5D1002318461037BD4680BD80B483B0DA
:1041F00000AF78607B681B685B6903F48063B3F58C
:10420000806F1BD17B681B686FF480625A617B688A
:1042100000221A637B68202283F83D207B680022FD
:1042200083F83E207B681B6C43F004027B681A64B1
:104230007B68002283F83C20012300E0002318461D
:104240000C37BD465DF8047B7047000080B586B032
:1042500000AF78607B68002B01D101232DE27B68E1
:104260001B6803F00103002B75D0A34B9B6803F080
:104270000C03042B0CD0A04B9B6803F00C03082B01
:1042800012D19D4B5B6803F48003B3F5800F0BD113
:10429000994B1B6803F40033002B5BD07B685B6891
:1042A000002B57D1012308E27B685B68B3F5803FA0
:1042B00006D1914B1B68904A43F4803313601DE094
:1042C0007B685B68B3F5A02F0CD18B4B1B688A4AC7
:1042D00043F480231360884B1B68874A43F4803380
:1042E00013600BE0844B1B68834A23F48033136014
:1042F000814B1B68804A23F4802313607B685B68D2
:10430000002B13D0FEF73EFA386108E0FEF73AFAC8
:1043100002463B69D31A642B01D90323CDE1764BC6
:104320001B6803F40033002BF0D014E0FEF72AFAE8
:10433000386108E0FEF726FA02463B69D31A642B7F
:1043400001D90323B9E16C4B1B6803F40033002B44
:10435000F0D100E000BF7B681B6803F00203002B74
:1043600063D0654B9B6803F00C03002B0BD0624BB2
:104370009B6803F00C03082B1CD15F4B5B6803F4B4
:104380008003002B16D15C4B1B6803F00203002B4B
:1043900005D07B68DB68012B01D001238DE1564BF2
:1043A0001B6823F0F8027B681B69DB00524913434A
:1043B0000B603AE07B68DB68002B20D04F4B01227A
:1043C0001A60FEF7DFF9386108E0FEF7DBF9024614
:1043D0003B69D31A022B01D903236EE1464B1B68BC
:1043E00003F00203002BF0D0434B1B6823F0F802CC
:1043F0007B681B69DB00404913430B6015E03F4BB2
:1044000000221A60FEF7BEF9386108E0FEF7BAF93B
:1044100002463B69D31A022B01D903234DE1364BE7
:104420001B6803F00203002BF0D17B681B6803F0CC
:104430000803002B30D07B685B69002B16D0304B13
:1044400001221A60FEF79EF9386108E0FEF79AF93A
:1044500002463B69D31A022B01D903232DE1264BD7
:104460005B6F03F00203002BF0D015E0244B002219
:104470001A60FEF787F9386108E0FEF783F9024613
:104480003B69D31A022B01D9032316E11A4B5B6F48
:1044900003F00203002BF0D17B681B6803F00403D8
:1044A000002B00F0A0800023FB75134B1B6C03F066
:1044B0008053002B0FD10023FB600F4B1B6C0E4A67
:1044C00043F0805313640C4B1B6C03F08053FB6070
:1044D000FB680123FB750B4B1B6803F48073002BF7
:1044E00021D1084B1B68074A43F480731360FEF721
:1044F00049F9386111E000BF00380240000047422E
:10450000800E474200700040FEF73CF902463B69CE
:10451000D31A022B01D90323CFE06A4B1B6803F4A3
:104520008073002BF0D07B689B68012B06D1664B13
:104530001B6F654A43F0010313671CE07B689B68AF
:10454000052B0CD1604B1B6F5F4A43F004031367CC
:104550005D4B1B6F5C4A43F0010313670BE05A4B42
:104560001B6F594A23F001031367574B1B6F564AC1
:1045700023F0040313677B689B68002B15D0FEF7BC
:1045800001F938610AE0FEF7FDF802463B69D31AEB
:1045900041F28832934201D903238EE04A4B1B6FCC
:1045A00003F00203002BEED014E0FEF7EBF83861C5
:1045B0000AE0FEF7E7F802463B69D31A41F2883277
:1045C000934201D9032378E03F4B1B6F03F00203B2
:1045D000002BEED1FB7D012B05D13B4B1B6C3A4AE6
:1045E00023F0805313647B689B69002B64D0364BA7
:1045F0009B6803F00C03082B5CD07B689B69022B43
:1046000041D1324B00221A60FEF7BCF8386108E055
:10461000FEF7B8F802463B69D31A022B01D90323EF
:104620004BE0294B1B6803F00073002BF0D17B6833
:10463000DA697B681B6A1A437B685B6A9B011A43D1
:104640007B689B6A5B08013B1B041A437B68DB6A3F
:104650001B061D4913434B601C4B01221A60FEF7D9
:1046600091F8386108E0FEF78DF802463B69D31AED
:10467000022B01D9032320E0134B1B6803F00073C6
:10468000002BF0D018E0114B00221A60FEF77AF8E8
:10469000386108E0FEF776F802463B69D31A022B30
:1046A00001D9032309E0084B1B6803F00073002BBA
:1046B000F0D101E0012300E0002318461837BD4681
:1046C00080BD00BF007000400038024060004742DB
:1046D00080B584B000AF786039607B68002B01D171
:1046E0000123CAE0674B1B6803F00F033A689A4244
:1046F0000CD9644B3A68D2B21A70624B1B6803F053
:104700000F033A689A4201D00123B6E07B681B6828
:1047100003F00203002B20D07B681B6803F0040326
:10472000002B05D0584B9B68574A43F4E0539360E5
:104730007B681B6803F00803002B05D0524B9B6875
:10474000514A43F4604393604F4B9B6823F0F0025F
:104750007B689B684C4913438B607B681B6803F044
:104760000103002B44D07B685B68012B07D1464BCB
:104770001B6803F40033002B19D101237DE07B6813
:104780005B68022B03D07B685B68032B07D13E4B31
:104790001B6803F00073002B09D101236DE03A4B35
:1047A0001B6803F00203002B01D1012365E0364BA7
:1047B0009B6823F003027B685B68334913438B607B
:1047C000FDF7E0FFF8600AE0FDF7DCFF0246FB685A
:1047D000D31A41F28832934201D903234DE02A4B88
:1047E0009B6803F00C027B685B689B009A42EBD1EC
:1047F000244B1B6803F00F033A689A420CD2214BFA
:104800003A68D2B21A701F4B1B6803F00F033A6864
:104810009A4201D0012330E07B681B6803F0040357
:10482000002B08D0184B9B6823F4E0527B68DB68B0
:10483000154913438B607B681B6803F00803002B4A
:1048400009D0114B9B6823F460427B681B69DB0035
:104850000D4913438B6000F01DF801460A4B9B681D
:104860001B0903F00F03094AD35C21FA03F3084A3A
:1048700013600020FDF73CFE002318461037BD46AC
:1048800080BD00BF003C0240003802402C8A000876
:1048900074040020F0B585B000AF00237B600023D6
:1048A000FB6000233B600023BB60504B9B6803F020
:1048B0000C03042B07D0082B08D0002B40F08D8070
:1048C0004B4BBB608CE04B4BBB6089E0474B5B685C
:1048D00003F03F037B60454B5B6803F48003002BD0
:1048E00023D0424B5B689B094FF0000440F2FF115C
:1048F0004FF0000203EA010504EA02063D4A02FB0A
:1049000006F1002202FB05F20A443A49A5FB010127
:10491000531819467B684FF000041A462346FCF7EB
:10492000F3F803460C46FB6049E0304B5B689B099B
:104930004FF0000440F2FF114FF0000203EA0105BE
:1049400004EA0206294632464FF000034FF0000405
:10495000540144EAD1644B0119462246491B62EBDB
:1049600006024FF000034FF00004940144EA916402
:104970008B015B1A64EB02044FF000014FF0000260
:10498000E20042EA5372D9000B4614465B1944EB2D
:1049900006044FF000014FF00002A20242EA9352D7
:1049A00099020B461446184621467B684FF00004D6
:1049B0001A462346FCF7A8F803460C46FB600B4B4F
:1049C0005B681B0C03F0030301335B003B60FA6878
:1049D0003B68B2FBF3F3BB6002E0054BBB6000BF7A
:1049E000BB6818461437BD46F0BD00BF0038024012
:1049F0000024F40040787D0180B400AF034B1B68B5
:104A00001846BD465DF8047B704700BF7404002063
:104A100080B500AFFFF7F0FF0146054B9B689B0A8E
:104A200003F00703034AD35C21FA03F3184680BD61
:104A3000003802403C8A000880B500AFFFF7DCFF79
:104A40000146054B9B685B0B03F00703034AD35CED
:104A500021FA03F3184680BD003802403C8A000862
:104A600080B483B000AF786039607B680F221A6031
:104A7000124B9B6803F003027B685A600F4B9B68E4
:104A800003F0F0027B689A600C4B9B6803F4E052E1
:104A90007B68DA60094B9B68DB0803F4E0527B68B3
:104AA0001A61074B1B6803F00F023B681A6000BFD6
:104AB0000C37BD465DF8047B704700BF00380240EC
:104AC000003C024080B582B000AF78607B68002B6C
:104AD00001D101231DE07B6893F83D30DBB2002B50
:104AE00006D17B68002283F83C20786800F015F836
:104AF0007B68022283F83D207B681A687B68043358
:104B00001946104600F068F97B68012283F83D20C1
:104B1000002318460837BD4680BD80B483B000AF7F
:104B2000786000BF0C37BD465DF8047B704780B4E9
:104B300085B000AF78607B681B68DA687B681B68AB
:104B400042F00102DA607B681B689B6803F0070390
:104B5000FB60FB68062B07D07B681B681A687B68C4
:104B60001B6842F001021A60002318461437BD4644
:104B70005DF8047B704780B582B000AF78607B68D9
:104B80001B681B6903F00203022B22D17B681B68A0
:104B9000DB6803F00203022B1BD17B681B686FF0FC
:104BA00002021A617B6801221A777B681B689B6985
:104BB00003F00303002B03D0786800F0EEF805E063
:104BC000786800F0E0F8786800F0F1F87B6800227F
:104BD0001A777B681B681B6903F00403042B22D13E
:104BE0007B681B68DB6803F00403042B1BD17B6824
:104BF0001B686FF004021A617B6802221A777B68D7
:104C00001B689B6903F44073002B03D0786800F0A5
:104C1000C4F805E0786800F0B6F8786800F0C7F8E6
:104C20007B6800221A777B681B681B6903F0080306
:104C3000082B22D17B681B68DB6803F00803082B74
:104C40001BD17B681B686FF008021A617B68042225
:104C50001A777B681B68DB6903F00303002B03D022
:104C6000786800F09AF805E0786800F08CF87868C9
:104C700000F09DF87B6800221A777B681B681B692F
:104C800003F01003102B22D17B681B68DB6803F054
:104C90001003102B1BD17B681B686FF010021A6188
:104CA0007B6808221A777B681B68DB6903F4407312
:104CB000002B03D0786800F070F805E0786800F009
:104CC00062F8786800F073F87B6800221A777B68D6
:104CD0001B681B6903F00103012B0ED17B681B6865
:104CE000DB6803F00103012B07D17B681B686FF0C1
:104CF00001021A617868FDF723FA7B681B681B695B
:104D000003F08003802B0ED17B681B68DB6803F007
:104D10008003802B07D17B681B686FF080021A61CB
:104D2000786800F003F97B681B681B6903F0400397
:104D3000402B0ED17B681B68DB6803F04003402BDF
:104D400007D17B681B686FF040021A61786800F039
:104D500038F87B681B681B6903F02003202B0ED1F9
:104D60007B681B68DB6803F02003202B07D17B687E
:104D70001B686FF020021A61786800F0CDF800BF60
:104D80000837BD4680BD80B483B000AF786000BFF7
:104D90000C37BD465DF8047B704780B483B000AF2C
:104DA000786000BF0C37BD465DF8047B704780B467
:104DB00083B000AF786000BF0C37BD465DF8047B60
:104DC000704780B483B000AF786000BF0C37BD4639
:104DD0005DF8047B7047000080B485B000AF786058
:104DE00039607B681B68FB607B68404A934213D044
:104DF0007B68B3F1804F0FD07B683D4A93420BD064
:104E00007B683C4A934207D07B683B4A934203D07D
:104E10007B683A4A934208D1FB6823F07003FB6039
:104E20003B685B68FA681343FB607B682F4A9342D8
:104E30002BD07B68B3F1804F27D07B682C4A9342FC
:104E400023D07B682B4A93421FD07B682A4A934227
:104E50001BD07B68294A934217D07B68284A93422B
:104E600013D07B68274A93420FD07B68264A93422F
:104E70000BD07B68254A934207D07B68244A934233
:104E800003D07B68234A934208D1FB6823F4407324
:104E9000FB603B68DB68FA681343FB60FB6823F048
:104EA00080023B685B691343FB607B68FA681A60A9
:104EB0003B689A687B68DA623B681A687B689A622A
:104EC0007B680A4A934203D07B680C4A934203D121
:104ED0003B681A697B681A637B6801225A6100BFCC
:104EE0001437BD465DF8047B704700BF00000140E9
:104EF0000004004000080040000C00400004014095
:104F000000400140004401400048014000180040BA
:104F1000001C00400020004080B483B000AF7860E7
:104F200000BF0C37BD465DF8047B704780B483B08A
:104F300000AF786000BF0C37BD465DF8047B70475A
:104F400080B582B000AF78607B68002B01D101236F
:104F50003FE07B6893F83930DBB2002B06D17B68E9
:104F6000002283F838207868FDF706FA7B6824224F
:104F700083F839207B681B68DA687B681B6822F439
:104F80000052DA60786800F047FB7B681B681A699A
:104F90007B681B6822F490421A617B681B685A691F
:104FA0007B681B6822F02A025A617B681B68DA68FA
:104FB0007B681B6842F40052DA607B680022DA6387
:104FC0007B68202283F839207B68202283F83A20EE
:104FD000002318460837BD4680BD80B588B002AFB3
:104FE000F860B9603B601346FB8000237B61FB687F
:104FF00093F83930DBB2202B40F08380BB68002B64
:1050000002D0FB88002B01D101237BE0FB6893F8E1
:105010003830012B01D1022374E0FB68012283F8B0
:105020003820FB680022DA63FB68212283F83920EC
:10503000FDF7A8FB7861FB68FA889A84FB68FA8818
:10504000DA8442E0FB68DB8C9BB2013B9AB2FB68DE
:10505000DA84FB689B68B3F5805F22D13B680093DC
:105060007B6900228021F86800F06AF90346002B72
:1050700001D0032346E0BB683B613B691B881A46AD
:10508000FB681B68C2F308025A60FB681B69002BAF
:1050900003D1BB680233BB6017E0BB680133BB6060
:1050A00013E03B6800937B6900228021F86800F0E0
:1050B00047F90346002B01D0032323E0BB685A1CA9
:1050C000BA601A78FB681B685A60FB68DB8C9BB27D
:1050D000002BB7D13B6800937B6900224021F86820
:1050E00000F02EF90346002B01D003230AE0FB68F1
:1050F000202283F83920FB68002283F8382000231F
:1051000000E0022318461837BD4680BD80B588B040
:1051100000AF78607B681B681B68FB617B681B685D
:10512000DB68BB617B681B685B697B6100233B615B
:105130000023FB60FB6903F00F033B613B69002B1D
:105140000DD1FB6903F02003002B08D0BB6903F0ED
:105150002003002B03D0786800F0DCF9CCE03B6939
:10516000002B00F0AB807B6903F00103002B05D11D
:10517000BB6903F49073002B00F0A080FB6903F07F
:105180000103002B0AD0BB6903F48073002B05D008
:105190007B68DB6B43F001027B68DA63FB6903F039
:1051A0000403002B0AD07B6903F00103002B05D018
:1051B0007B68DB6B43F002027B68DA63FB6903F018
:1051C0000203002B0AD07B6903F00103002B05D0FA
:1051D0007B68DB6B43F004027B68DA63FB6903F0F6
:1051E0000803002B0AD07B6903F00103002B05D0D4
:1051F0007B68DB6B43F008027B68DA637B68DB6B00
:10520000002B78D0FB6903F02003002B07D0BB698B
:1052100003F02003002B02D0786800F07BF97B6854
:105220001B685B6903F04003402B0CBF0123002384
:10523000DBB2FB607B68DB6B03F00803002B02D161
:10524000FB68002B31D0786800F0C4F87B681B68DD
:105250005B6903F04003402B23D17B681B685A69CC
:105260007B681B6822F040025A617B685B6B002BF5
:1052700013D07B685B6B224A1A657B685B6B1846B0
:10528000FDF790FB0346002B16D07B685B6B1B6D14
:105290007A68526B104698470EE0786800F046F83E
:1052A0000AE0786800F042F806E0786800F03EF81E
:1052B0007B680022DA631EE000BF1CE0FB6903F09C
:1052C0008003002B08D0BB6903F08003002B03D0C0
:1052D000786800F0B1F80FE0FB6903F04003002BA1
:1052E0000AD0BB6903F04003002B05D0786800F0BA
:1052F000F9F800BF00E000BF2037BD4680BD00BF09
:105300001154000880B483B000AF786000BF0C3740
:10531000BD465DF8047B704780B483B000AF786011
:1053200000BF0C37BD465DF8047B704780B483B086
:1053300000AF786000BF0C37BD465DF8047B704756
:1053400080B584B000AFF860B9603B601346FB7174
:105350002CE0BB69B3F1FF3F28D0BB69002B07D01D
:10536000FDF710FA02463B68D31ABA699A421DD279
:10537000FB681B68DA68FB681B6822F4D072DA608D
:10538000FB681B685A69FB681B6822F001025A61BE
:10539000FB68202283F83920FB68202283F83A201A
:1053A000FB68002283F8382003230FE0FB681B68AA
:1053B0001A68BB681340BA689A420CBF01230023E5
:1053C000DBB21A46FB799A42C3D000231846103745
:1053D000BD4680BD80B483B000AF78607B681B6839
:1053E000DA687B681B6822F49072DA607B681B685D
:1053F0005A697B681B6822F001025A617B6820228F
:1054000083F83A2000BF0C37BD465DF8047B704737
:1054100080B584B000AF78607B689B6BFB60FB68F5
:105420000022DA85FB680022DA84F868FFF77EFF45
:1054300000BF1037BD4680BD80B485B000AF786036
:105440007B6893F83930DBB2212B44D17B689B68B1
:10545000B3F5805F1AD17B681B6AFB60FB681B8811
:105460001A467B681B68C2F308025A607B681B6996
:10547000002B05D17B681B6A9A1C7B681A620EE0C0
:105480007B681B6A5A1C7B681A6208E07B681B6A8F
:10549000591C7A6811621A787B681B685A607B68AD
:1054A000DB8C9BB2013B9BB27A681946D184002BFE
:1054B0000FD17B681B68DA687B681B6822F080026A
:1054C000DA607B681B68DA687B681B6842F0400220
:1054D000DA60002300E0022318461437BD465DF869
:1054E000047B704780B582B000AF78607B681B6832
:1054F000DA687B681B6822F04002DA607B68202251
:1055000083F839207868FFF7FDFE00231846083736
:10551000BD4680BD80B584B000AF78607B6893F8ED
:105520003A30DBB2222B71D17B689B68B3F5805F88
:1055300023D17B689B6AFB607B681B69002B0ED1C3
:105540007B681B685B689BB2C3F308039AB2FB6875
:105550001A807B689B6A9A1C7B689A6229E07B6848
:105560001B685B689BB2DBB29AB2FB681A807B68EF
:105570009B6A5A1C7B689A621BE07B681B69002B44
:105580000AD17B681B6858687B689B6A591C7A68DB
:105590009162C2B21A700CE07B681B685B68DAB279
:1055A0007B689B6A581C7968886202F07F02D2B2DD
:1055B0001A707B68DB8D9BB2013B9BB27A681946FF
:1055C000D185002B20D17B681B68DA687B681B685B
:1055D00022F02002DA607B681B68DA687B681B684F
:1055E00022F48072DA607B681B685A697B681B68EA
:1055F00022F001025A617B68202283F83A20786801
:10560000FFF78AFE002302E0002300E00223184691
:105610001037BD4680BD0000B0B584B000AF7860E3
:105620007B681B681B6923F440517B68DA687B68E0
:105630001B680A431A617B689A687B681B691A4376
:105640007B685B691A437B68DB691343FB607B689B
:105650001B68DB6823F4164323F00C037A68126896
:10566000F9680B43D3607B681B685B6923F4407166
:105670007B689A697B681B680A435A617B68DB69AF
:10568000B3F5004F40F0E4807B681B68AB4A93425F
:1056900004D07B681B68AA4A93426CD1FFF7CCF90F
:1056A000024613469B0013449A001A447B685B68C9
:1056B0005B00B2FBF3F3A34AA2FB03235B091C01CB
:1056C000FFF7BAF9024613469B0013449A001A44A6
:1056D0007B685B685B00B2FBF3F5FFF7ADF9024650
:1056E00013469B0013449A001A447B685B685B0076
:1056F000B2FBF3F3934AA2FB03235B09642202FB90
:1057000003F3EB1ADB0032338E4AA2FB03235B095F
:105710005B0003F4F8731C44FFF78EF9024613464E
:105720009B0013449A001A447B685B685B00B2FBE1
:10573000F3F5FFF781F9024613469B0013449A00E4
:105740001A447B685B685B00B2FBF3F37D4AA2FB03
:1057500003235B09642202FB03F3EB1ADB00323301
:10576000784AA2FB03235B0903F007027B681B68EE
:1057700022449A6054E1FFF74BF9024613469B001E
:1057800013449A001A447B685B685B00B2FBF3F336
:105790006C4AA2FB03235B091C01FFF739F902469F
:1057A00013469B0013449A001A447B685B685B00B5
:1057B000B2FBF3F5FFF72CF9024613469B001344A6
:1057C0009A001A447B685B685B00B2FBF3F35D4AA6
:1057D000A2FB03235B09642202FB03F3EB1ADB0049
:1057E0003233584AA2FB03235B095B0003F4F873CE
:1057F0001C44FFF70DF9024613469B0013449A0020
:105800001A447B685B685B00B2FBF3F5FFF700F9B5
:10581000024613469B0013449A001A447B685B6857
:105820005B00B2FBF3F3474AA2FB03235B0964224C
:1058300002FB03F3EB1ADB003233424AA2FB0323E1
:105840005B0903F007027B681B6822449A60E7E06B
:105850007B681B68394A934204D07B681B68384ACE
:10586000934271D1FFF7E8F8024613469B001344B8
:105870009A001A447B685B689B00B2FBF3F3314AE1
:10588000A2FB03235B091C01FFF7D6F8024613466F
:105890009B0013449A001A447B685B689B00B2FB30
:1058A000F3F5FFF7C9F8024613469B0013449A002C
:1058B0001A447B685B689B00B2FBF3F3214AA2FBAE
:1058C00003235B09642202FB03F3EB1A1B0132334F
:1058D0001C4AA2FB03235B0903F0F0031C44FFF7FF
:1058E000ABF8024613469B0013449A001A447B68A7
:1058F0005B689B00B2FBF3F5FFF79EF80246134688
:105900009B0013449A001A447B685B689B00B2FBBF
:10591000F3F30C4AA2FB03235B09642202FB03F3AB
:10592000EB1A1B013233074AA2FB03235B0903F086
:105930000F027B681B6822449A6071E000100140EE
:10594000001401401F85EB51FFF762F80246134631
:105950009B0013449A001A447B685B689B00B2FB6F
:10596000F3F3314AA2FB03235B091C01FFF750F854
:10597000024613469B0013449A001A447B685B68F6
:105980009B00B2FBF3F5FFF743F8024613469B007A
:1059900013449A001A447B685B689B00B2FBF3F3E4
:1059A000214AA2FB03235B09642202FB03F3EB1AE7
:1059B0001B0132331C4AA2FB03235B0903F0F003F3
:1059C0001C44FFF725F8024613469B0013449A0037
:1059D0001A447B685B689B00B2FBF3F5FFF718F88D
:1059E000024613469B0013449A001A447B685B6886
:1059F0009B00B2FBF3F30C4AA2FB03235B09642276
:105A000002FB03F3EB1A1B013233074AA2FB032309
:105A10005B0903F00F027B681B6822449A60FFE772
:105A200000BF1037BD46B0BD1F85EB5180B485B0B7
:105A300000AF0346FB800023FB60B7F90630842BE0
:105A400005D0B7F90620FB6813440333FB60FB68FD
:105A500018461437BD465DF8047B704780B500AF2B
:105A600000F0D2FA0023184680BDF0B589B004AF2B
:105A7000786039607B685B69002B20D07B689B690C
:105A8000002B1CD07B685C687B681D687B681E6986
:105A90007B68B3F908301846FFF7C8FF01467B68FA
:105AA0005B697A6892690292019300913B68324681
:105AB0002946204600F0EDF80346FB601CE07B68B9
:105AC0005C687B681D687B681B699EB27B68B3F964
:105AD00008301846FFF7AAFF024607F10C030193AE
